:02000004020AEE
:101000000048062821110A0239470A0291470A02BC
:10101000C1470A02F1470A0221480A0251480A025E
:10102000000000000000000000000000F97A0A0241
:1010300089110A0200000000BB7A0A0299110A0213
:10104000A1110A02A9110A02B1110A02C1480A0239
:10105000C1110A02000000000000000000000000B2
:101060000000000000000000000000000000000080
:1010700000000000000000000000000081480A029B
:101080000000000000000000000000000000000060
:101090000000000000000000000000000000000050
:1010A0000000000000000000000000000000000040
:1010B0000000000000000000000000000000000030
:1010C0000000000000000000000000000000000020
:1010D00000000000A1480A0200000000000000001B
:1010E0000000000000000000000000000000000000
:1010F00000000000000000000000000000000000F0
:10110000424B373233360000000000000000000080
:10111000000000000000000000000000A1480A02DA
:10112000124880F30A88124C124DAC4209DA216849
:101130006268A368043BA2BFC858D050FAE70C34D9
:10114000F3E70D4B0D4CA34208DA19685A680020EA
:10115000043AA4BF8850FBE70833F4E772B606F000
:10116000ABFA03F07DF90AF073FB00000044062897
:1011700000140A0224140A0224140A0244140A0263
:1011800003F09CFA06F0B8BC03F098FAFFF7FCBF36
:1011900003F094FA06F091BC03F090FAFFF7FCBF5D
:1011A00003F08CFAFFF7FCBF03F088FAFFF7FCBFEF
:1011B00003F084FAFFF7FCBF03F080FA03F080BB72
:0811C00003F07CFAFFF7FCBF0D
:101240007FE97FE909F0A4BB7FE97FE909F09CBA57
:101250007FE97FE908F0C2BC7FE97FE909F090BE31
:101260007FE97FE908F015BC7FE97FE908F0FABF64
:101270007FE97FE909F09CBC7FE97FE908F070BD58
:101280007FE97FE908F0C4BF7FE97FE908F098BFF4
:101290007FE97FE90AF018B87FE97FE909F07EBDB0
:1012A0007FE97FE908F07CBB7FE97FE909F03AB884
:1012B0007FE97FE908F03CBE7FE97FE908F0D1BC17
:1012C0007FE97FE90AF0C0B87FE97FE908F034BC24
:1012D0007FE97FE909F02ABC7FE97FE909F0FABBE1
:1012E0007FE97FE908F06ABB7FE97FE908F095BBF9
:1012F0007FE97FE908F00ABD7FE97FE908F07EBD5C
:101300007FE97FE908F0D4BD7FE97FE908F027BCD9
:101310007FE97FE908F0EDBC7FE97FE908F0CCBB0D
:101320007FE97FE908F020BF7FE97FE908F078BC1A
:101330007FE97FE909F07EBC7FE97FE908F0EEBE36
:101340007FE97FE908F05DBC7FE97FE908F0E4BD53
:101350007FE97FE90AF066B97FE97FE908F022BCFE
:101360007FE97FE908F04ABB7FE97FE908F066BBC7
:101370007FE97FE909F0C8BE7FE97FE909F094BC05
:101380007FE97FE909F04EBD7FE97FE909F036BDCD
:101390007FE97FE908F098BE7FE97FE909F072BB39
:1013A0007FE97FE909F0C2B87FE97FE908F0A8BBCF
:1013B0007FE97FE909F040BB7FE97FE908F0ECBDF8
:1013C0007FE97FE908F03CBC7FE97FE908F036BDA2
:1013D0007FE97FE909F0DCBB7FE97FE908F0FCBA2F
:1013E0007FE97FE908F008BE7FE97FE908F03ABEAF
:1013F0007FE97FE908F03ABB7FE97FE909F096BC15
:1014000060BE0C0200A007280003000020BE0C02F2
:1014100060AE06284000000020BE0C0220480628CE
:0414200000000000C8
:1014240000A3072880350000A0AE062860F1000064
:1014340020480628400E000000480628040000004A
:1014440001015F5F0301000088840C021F0100009A
:1014540051160A02002000000000000001000000F4
:1014640001000000000000000000000028700728B0
:10147400000000007000000096840C028000000050
:1014840000070000010000007D160A0201000000B0
:1014940001015F5F00010000A1840C021F00000035
:1014A400CD3D0A0200080000000000000300000017
:1014B400010000000000000000000000584E062853
:1014C40000000000800000007000000042000000E6
:1014D400AB840C0260000000010700000100000062
:1014E400813C0A020100000001015F5F010100006C
:1014F400C9840C021F01000013250A0280060000A3
:1015040000000000000000000100000000000000D6
:10151400000000007894072800000000D4840C0226
:1015240070000000020700000100000019250A02F3
:101534000100000000015F5F04010000F9840C0257
:101544001F0300006D3A0A020005000000000000BD
:101554000000000003000000000000000000000084
:10156400F89A07280000000009850C0240000000DA
:101574000005000001000000000000001000000051
:1015840026850C0241000000000500000100000057
:1015940000000000200000003C850C024200000016
:1015A40000040000010000000000000040000000F2
:1015B40000015F5F0000000000000000FE03000067
:1015C400C57B0A02001000000000000000000000BB
:1015D40000000000000000000000000020A5072813
:0415E4000000000003
:1016000038B5036805481C68DD6803F075F92A469B
:101610002146034803F070F9002038BDB03A0A02B1
:10162000CC3A0A0238B500250448294600F5E044C2
:10163000226865600AF0F7F9256038BDA0EE06283B
:10164000024B5B6803600020704700BFA05E072864
:1016500008B500F0CBF868B94FF48041064813F0A4
:101660000BFC0AF007FA18B9BDE8084015F0CABE2D
:101670006FF0920008BD00BFA0AE06282DE9F04F24
:10168000056804469FB0002D40F0A6802022294620
:1016900001A80AF0C8F911AE2022294609A80AF0CB
:1016A000C2F93422294630460AF0BDF9042304F178
:1016B0001C0252F804191F46013B71B33423324611
:1016C000002160680AF004F9342828D1119B402BCE
:1016D00025D80125DFF80891CDE9016004F114084F
:1016E00001AE09F5E04ABD421FD3042604F12C03E4
:1016F00053F80429B446013EB2B30026394A04F136
:101700002001136809A801EB8C08A2F5E0494145C6
:1017100043D106B11360664628E0002BC9D16FF0B3
:10172000830528461FB0BDE8F08F58F8043BDAF86F
:101730000020D81C20F00300C2F5E041884204D903
:10174000FFF770FF6FF08C05EBE7104402EB090B1D
:101750002946CAF800005A4660680AF0B9F801350F
:10176000F06046F808BFBEE7002EC1D1A2681D4B4D
:1017700039465A60119A1C4B01A853F8225033463F
:1017800009AAA847002705460DF12408B74208F129
:10179000080819D1FFF746FFC3E751F804EBC3F57A
:1017A000E04A0EF1030525F00305554500F1080058
:1017B00006D803EB090640E9026E2B440126A6E792
:1017C000002EBDD01360BBE7394658E9022360689C
:1017D0000AF080F80137D9E76FF08505A1E700BF6F
:1017E000A0EE0628A05E0728E03A0A0208B54FF4EA
:1017F0008C52002102480AF016F9002008BD00BFF3
:10180000A85E07280023F7B5074601A80E4615462F
:101810000193FFF715FFA0B93368A3B1082B30D8A7
:101820004FF40C71013B4B43194AD118D358012B8B
:1018300027D14A68019B9A4214BF6FF087006FF06E
:10184000880003B0F0BDFDB14FF40C7C104A2B6052
:101850000CFB03F4A1589E46013369B94FF0010E09
:1018600002EB040C42F804E0019910341444CCE972
:10187000011733602C60E4E7082BE9D16FF0840096
:10188000DFE76FF08700DCE76FF08600D9E700BF85
:10189000A85E07280023F7B50568064601A801934E
:1018A000FFF7CEFE044620BB013D072D24D84FF4A0
:1018B0000C736B43124FF958FA1801291CD1506868
:1018C0000199884218D11033F81893680021013B20
:1018D000042B96BF0B4A224632F813200AF0A3F8D5
:1018E0004FF40C735D4300237A19C2E901337B5135
:1018F0003360204603B0F0BD6FF08604F9E700BF07
:10190000A85E0728E43B0A02002373B5064601A837
:101910000C4615460193FFF793FEA0B9611E0729F7
:1019200013D84FF40C725143094B5C585A18012CD0
:101930000BD19468B44208D15468019A944204D1FE
:1019400010311944296002B070BD6FF08800FAE7C9
:10195000A85E07282DE9F341144600220129054617
:10196000019208461ED1013B012B1BD86B68342B1A
:1019700018D16368042B15D1D4E902782B68266846
:101980001D6901AA29463560FFF7BEFF38B94246F6
:1019900039460198356004F10C0315F0F7FA02B0EE
:1019A000BDE8F0816FF08000F9E737B504461846CE
:1019B000002301390129019318D8012816D1636841
:1019C000342B13D15368042B10D12368D4E902546B
:1019D0001969136801AA1960FFF796FF20B922461A
:1019E0002946019815F0D2F903B030BD6FF08000A0
:1019F000FAE72DE9FF410446184600230129009328
:101A00002BD1012829D15368042B26D16368342BAC
:101A100023D12368166819696A46D3E902870191C0
:101A200001A9FFF7EFFE044698B9019B02AD2946D4
:101A30004046336000F09DFA044638B995E8060048
:101A40003B46009815F08AF9044610B13046FFF77E
:101A500021FF204604B0BDE8F0816FF08004F8E774
:101A60002DE9FF41044618460023012900932BD19C
:101A7000012829D15368042B26D16368342B23D144
:101A80002368166819696A46D3E90287019101A99A
:101A9000FFF7B8FE044698B9019B02AD29464046BF
:101AA000336000F066FA044638B995E806003B4614
:101AB000009815F05FF9044610B13046FFF7EAFED2
:101AC000204604B0BDE8F0816FF08004F8E72DE90E
:101AD000FF411446002201390129039222D8013B1B
:101AE000012B1FD84368342B1CD16368042B19D1F8
:101AF000D0E90256D4E90278036801201969236805
:101B00001960E26003AAFFF7FFFE40B90C343B46C0
:101B100032462946CDE90084039815F055F904B002
:101B2000BDE8F0816FF08000F9E72DE9F34115463B
:101B30000022012904460192084624D1013B012BD1
:101B400021D86368342B1ED16B68042B1BD1D5E9D7
:101B5000027823682E6819693160EA6001AAFFF7EC
:101B6000D3FE044658B942463946019805F10C03A4
:101B700015F044F9044610B93046FFF78BFE2046B5
:101B800002B0BDE8F0816FF08004F8E737B50024BB
:101B900001290546019418461ED1012B1CD16B6802
:101BA000342B19D15368042B16D12B681568196989
:101BB00001AA2960FFF7A8FE38B9019815F02CF8A2
:101BC0000446284624B1FFF765FE204603B030BD29
:101BD000FFF760FE0446F8E76FF08004F5E72DE9B3
:101BE000F04701390129144686B01ED8012B1CD1BB
:101BF0004368342B19D1D0E90278D2E9009A0368FE
:101C000004AD29469868DE6800F0B3F950B9043491
:101C1000CDE902A4CDE900893B4695E803003246B0
:101C200015F0EEF906B0BDE8F0876FF08000F9E737
:101C30002DE9F04701390129144686B01ED8012B41
:101C40001CD14368342B19D1D0E90278D2E9009A2B
:101C5000036804AD29469868DE6800F08AF950B937
:101C60000434CDE902A4CDE900893B4695E80300A0
:101C7000324615F0DFF806B0BDE8F0876FF080005F
:101C8000F9E773B500240129009422D1012B20D15A
:101C90005368042B1DD14368342B1AD10168156891
:101CA0000B69CE6801936A4603202B6001A9FFF7F8
:101CB000A9FD044650B9019B314600982B6014F0F1
:101CC0008FFC044610B12846FFF7E4FD204602B021
:101CD00070BD6FF08004F9E737B5002401390129A0
:101CE000019419D8012B17D14368342B14D15368B0
:101CF000042B11D1D0E90245036803201969136848
:101D000001AA1960FFF700FE20B92A462146019872
:101D100014F085FC03B030BD6FF08000FAE72DE9C8
:101D2000F341154600220129019225D1013B012BE7
:101D300022D84368342B1FD16B68042B1CD1D5E902
:101D4000027803682E68196903203160EA6001AAED
:101D5000FFF7DAFD044658B942463946019805F1C5
:101D60000C0314F070FC044610B93046FFF792FDE6
:101D7000204602B0BDE8F0816FF08004F8E7F7B5C7
:101D8000002401390129019420D8012B1ED1436878
:101D9000342B1BD15368042B18D1D0E90267036898
:101DA000156819690320296001AAFFF7ADFD0446F3
:101DB00048B93A463146019814F056FC044610B929
:101DC0002846FFF767FD204603B0F0BD6FF08004A2
:101DD000F9E737B50024012901941FD1012B1DD14A
:101DE0004368342B1AD15368042B17D10368156844
:101DF00019690320296001AAFFF786FD38B9019807
:101E000014F0E3FB0446284624B1FFF743FD2046C7
:101E100003B030BDFFF73EFD0446F8E76FF08004E5
:101E2000F5E713B500240129CDE900441BD1012BAE
:101E300019D14368342B16D15368042B13D103688E
:101E4000146803206A461969FFF75EFD48B9214608
:101E5000032001AAFFF7D6FC18B9DDE9000114F050
:101E600042FC02B010BD6FF08000FAE773B5013993
:101E700001290546144613D8012B11D84368342B89
:101E80000ED1D5E9021200260368D868D4E90035DE
:101E900044F8046FCDE9005414F014FC02B070BD96
:101EA0006FF08000FAE72DE9F04701390129144667
:101EB00086B01ED8012B1CD14368342B19D1D0E930
:101EC0000278D2E9009A036804AD29469868DE6872
:101ED00000F04FF850B90434CDE902A4CDE90089EF
:101EE0003B4695E80300324614F00FFC06B0BDE80F
:101EF000F0876FF08000F9E72DE9F041884616463B
:101F000007468AB000B3FAB135466C462822002154
:101F1000684609F088FD0FCC0FC50FCC0FC594E8BB
:101F2000030085E8030000203B8833807B687360F2
:101F3000FB6833613B6973617B887380BB68C6E96A
:101F400002380AB0BDE8F0816FF08000F9E730B5E3
:101F500061B158B1D0E901230468D0E90405C1E9B1
:101F600003050020C1E900428B6030BD6FF08000A6
:101F7000FBE7002337B5054601A80C460193FFF7A0
:101F80005FFB18B924B1019B2560636003B030BDCD
:101F90006FF08000FAE72DE9F04701390129144676
:101FA00086B01ED8012B1CD84368342B19D1D0E938
:101FB0000278D2E9009A036804AD29469868DE6881
:101FC000FFF7D7FF50B90434CDE902A4CDE9008969
:101FD0003B4695E80300324614F0F8FB06B0BDE836
:101FE000F0876FF08000F9E72DE9F0470139022909
:101FF00086B01CD8DBB94368342B18D1D0E90278FD
:10200000D0E9049A056804AC2146A868EE68FFF799
:10201000B0FF48B9CDE9019ACDF800803B4694E87D
:102020000300324614F032FC06B0BDE8F0876FF0D2
:102030008000F9E72DE9F04F01390229144697B0E5
:1020400047D8012B45D84368342B42D1D0E90283CD
:10205000D4E900B607930369026808934369D2E99B
:102060000297002128220CA80AAD099309F0DBFC95
:1020700029464846FFF77DFF40BB95E803000CAAC0
:1020800014F023F810BB0CA8BDF830A0BDF83290B6
:1020900015F008FA44F201012AF440528A4204D1B0
:1020A00009F10703B6EBD30F16D3099B043402934F
:1020B000089BCDE904640193079BCDF80CB0009315
:1020C0003A4695E80300434614F090FC17B0BDE88B
:1020D000F08F6FF08000F9E76FF08900F6E72DE9E7
:1020E000F04F0139022914468BB025D8012B23D893
:1020F0004368342B20D1D0E90278D0E9049AD4E99E
:1021000000B3026808AD29469068D6680793FFF7C8
:1021100030FF70B9079BCDE9019ACDE903B30434D0
:102120000594CDF800803B4695E80300324614F054
:10213000EDFC0BB0BDE8F08F6FF08000F9E72DE902
:10214000F04701390129144686B01ED8012B1CD84E
:102150004368342B19D1D0E9027AD2E900890368A7
:1021600004AD29469868DE68FFF703FF50B90434D0
:10217000CDE90294CDE900A83B4695E8060030463B
:1021800014F0DCFF06B0BDE8F0876FF08000F9E7DF
:10219000F0B5023901298FB029D8012B27D1436826
:1021A000342B24D1C368142B21D15368042B1ED1A6
:1021B000D0E90456876814680021282204A809F091
:1021C00032FC002301A80193FFF73AFA68B93846B8
:1021D000019904AAFFF790FE38B902AB32462946AE
:1021E00004A814F0DFF8029B23600FB0F0BD6FF07D
:1021F0008000FAE730B5022985B020D1012B1ED12D
:102200004368342B1BD1C368042B18D15368042BAB
:1022100015D1836801A81D68002314680193FFF796
:102220000FFA50B9019B0295039302AA92E80300AA
:1022300016F0D3FC08B9029B236005B030BD6FF0E7
:102240008000FAE701291FB514D19BB94268342AEE
:1022500010D1026801A894680193FFF7F1F938B929
:10226000019B0294039304AB13E9030016F0D3FC23
:1022700004B010BD6FF08000FAE701291FB514D13A
:102280009BB94268342A10D1026801A8946801936E
:10229000FFF7D6F938B9019B0294039304AB13E915
:1022A000030013F0E7FE04B010BD6FF08000FAE702
:1022B00070B501298EB02BD1012B29D14368342B65
:1022C00026D15368142B23D103680021156804A874
:1022D00028229E6809F0A7FB002301A80193FFF7BD
:1022E000AFF9044688B9019B3046194604AA029604
:1022F000039313F0EAFE044638B9294604A8FFF711
:1023000026FE044604A815F0CDF820460EB070BD98
:102310006FF08004F9E710B501298CB020D1012BB2
:102320001ED14368342B1BD15368142B18D1146869
:102330000021282202A809F076FB01A8FFF780F906
:1023400060B92046019902AAFFF7D6FD30B902A86C
:1023500015F0A8F8214602A8FFF7F9FD0CB010BD52
:102360006FF08000FAE7F0B50129144687B01CD160
:10237000012B1AD84368342B17D1D2E900560368D1
:1023800003A89F6800230393FFF75AF958B9039BEA
:10239000043405930497009406A9334611E9030019
:1023A0002A4613F041FF07B0F0BD6FF08000FAE756
:1023B000F0B50129144687B01CD1012B1AD8436807
:1023C000342B17D1D2E90056036803A89F68002375
:1023D0000393FFF735F958B9039B04340593049729
:1023E000009406A9334611E903002A4613F09FFF23
:1023F00007B0F0BD6FF08000FAE701291FB514D1D6
:102400009BB94268342A10D1026801A894680193EC
:10241000FFF716F938B9019B0294039304AB13E953
:10242000030016F015FC04B010BD6FF08000FAE751
:1024300070B5022990B02DD1012B2BD14368342BDC
:1024400028D15368042B25D1C368142B22D10368EB
:10245000146886682822002106A89D6809F0E3FA1E
:10246000002301A80193FFF7EBF888B930460199E2
:1024700006AAFFF741FD58B9019B28460593059927
:1024800002AB06AA049513F0FCFF08B9029B236077
:1024900010B070BD6FF08000FAE730B502298FB040
:1024A00026D1012B24D14368342B21D1C368142BAE
:1024B0001ED15368042B1BD1146885682822002183
:1024C00004A809F0B0FA002301A80193FFF7B8F8B7
:1024D00060B92846019904AAFFF70EFD30B902A998
:1024E00004A814F0BCFE08B9029B23600FB030BDF5
:1024F0006FF08000FAE7012908D1012B06D8436864
:10250000342B03D1D2E9000114F01CBD6FF0800020
:10251000704700F0C7B800006FF47A72F0B54A4B0C
:102520000446186003688DB01344032B00F28980C1
:10253000DFE803F0022A5073002300220021CDE9D6
:10254000082303690691082B02D06FF0800561E033
:102550008569042DF9D1466908AA406809F0B8F9DF
:102560000828F2D12B460221606806AA09F0B0F9CA
:102570000428EAD1069BA068CDE90063DDE90823C1
:1025800000F008F9054645E0002300220021CDE9CE
:10259000082303690591082BD7D14569042DD4D1AF
:1025A000066A08AA406809F093F90828CDD12B469D
:1025B0000121606805AA09F08BF90428C5D106AB92
:1025C000CDE90163059BA0680093DDE9082300F0D5
:1025D00035F9D7E700230022CDE906230369082B4C
:1025E000B3D1076A0C2FB0D10021406806AA09F0C8
:1025F0006FF90828A9D1DDE9062308AEA068009686
:1026000000F070F9054628B901463B46324660683D
:1026100009F060F928460DB0F0BD00230022CDE995
:1026200008230369082B90D10021406808AA09F00B
:102630004FF9082889D1DDE90823A06800F078F96E
:10264000A0E76FF08505E5E7289007280B460449C9
:1026500010B40C6802460121606810BC09F038B95A
:10266000289007280B46044910B40C680246002144
:10267000606810BC09F02EB9289007281FB5084CD7
:10268000CDE90023039003A90422204609F051F963
:1026900008226946201D09F04CF904B010BD00BFA6
:1026A0005C94072870B5354B86B09E6AB0470369C5
:1026B000012B03D06FF0800006B070BDB047304CE6
:1026C0008368A360B047037D6846237604F034FE38
:1026D0000028EFD1009BA26863609DF80830534347
:1026E000019AE360B2FBF3F32382B0470369012B45
:1026F000E0D1B047234D8368AB60B047037D03A8AA
:102700002B7604F007FE0028D4D1039BAA686B60E7
:102710009DF8143021465343049AEB60B2FBF3F367
:1027200019481A4A2B8200F03AFA0028C4D11648F8
:1027300000F075FAB0B9154A1249154800F02FFAA1
:102740000028B9D1124800F06AFA0028B4D0104825
:1027500000F07FFA0028AFD10D4806B0BDE8704008
:1027600000F05DBA084800F074FA0028A4D10648C9
:1027700000F055FA00289FD1DDE700BF2C900A0237
:1027800060AE06287CAE06282C940728FC3B0A0283
:10279000449407282DE9FF4752EA03010546DDE985
:1027A0000C643BD034F007083BD1FFF767FF1E4FA6
:1027B0001E4B1F49B5F5807F18BF1F461D4D38467B
:1027C0002A4600F048FA28B9AB68DB0705D56FF058
:1027D000840020E010F18C0F1DD144F4403ADFF862
:1027E0005090154CB6F5806F354628BF4FF4806584
:1027F00011482946FFF72AFF3346524649463846D4
:10280000CDE90184009500F049FA20B9761B2AF43D
:10281000403AA844E6D104B0BDE8F0876FF08600E6
:10282000F9E76FF08500F6E7449407282C94072811
:102830005C940728689407282C9007282DE9F74F07
:1028400052EA030104460C9EDDF838903DD0FFF7B4
:1028500015FF1F4F1F4B2049B4F5807F18BF1F463F
:102860001E4C3846224600F0F6F9054600BB2468A7
:10287000B4422AD30D9BA41B9C4228BF1C46DFF800
:102880006080DFF854A0C9F80040B4F5806FA3461B
:1028900028BF4FF4806B33465A4651463846CDF830
:1028A000008000F0F4FA054630B10023C9F800308A
:1028B000284603B0BDE8F08F59464046FFF7D2FEE8
:1028C000B4EB0B045E44E0D1F2E76FF08605EFE76E
:1028D000449407282C9407285C94072868940728B8
:1028E0002C90072870B552EA03010646049C13D0C9
:1028F000FFF7C4FE0A4D0B480B4B2A46B6F5807F06
:1029000018BF1846094900F0A6F920B92B68C4E998
:102910000033AB68A36070BD6FF08600FBE700BFBB
:1029200068940728449407282C9407285C94072867
:1029300052EA030138B5054617D0FFF79FFE0E4C4B
:102940000E4B0F49B5F5807F18BF1C460D4D204634
:102950002A4600F080F950B9AB68DB0708D420465E
:10296000BDE83840064900F083BA6FF0860038BDF4
:102970006FF08400FBE700BF449407282C940728DD
:102980005C9407286894072808B5036800209B68B2
:102990009847002818BF6FF0910008BDF8B51D4694
:1029A000036804465B680E46174698470B4BC0F316
:1029B000410013F8202063680699E0681D442368ED
:1029C000B1FBF2F200FB065039469B69984700289C
:1029D000B4BF6FF091000020F8BD00BFF03B0A02C9
:1029E0000020704770B504460E460025E368AB42F0
:1029F00001D8002070BD606806FB030023682844EE
:102A0000DB69984710B9A3681D44EFE76FF09100A8
:102A1000F0E700002DE9F3470A9C80469146002C20
:102A200054D04668C2681E44036802FB01665B68B6
:102A30009847274BC0F3410013F82070B6FBF7F519
:102A40007D43AE421ED0D8F80030012228465B6993
:102A500001A99847002804DA6FF0910002B0BDE8A0
:102A6000F087711B63189F428EBF2546BB1BED1874
:102A700001AB2A464846194408F05BFF641B02D1AB
:102A80000020EBE70025A74210D8B4FBF7FAD8F8EE
:102A9000003052465B6909EB050170199847002820
:102AA000DADB0AFB07F7E41B3D44E9D0D8F8003035
:102AB00001225B6901A9701998470028CCDB2246E6
:102AC00001A909EB050008F034FFD9E72046C5E766
:102AD000F03B0A022DE9F04F03688BB002AA0446CE
:102AE0000D46DF6800F02FFC30BB07A800F011FF97
:102AF0000146002850D1DDE9026A202202A8DDF853
:102B0000149008F090FF2946204602AA00F054FDD8
:102B100090B9834680462368DB8A5B450FD83B46E5
:102B20004A4631462046CDE900A800F0DFF918B941
:102B300056BB204600F0F2FB0BB0BDE8F08FAB4572
:102B40001FD05946204602AA00F0FDFB0028F3D111
:102B5000029BB3420ED107A800F0DBFE50B9039BE5
:102B6000534507D99F4228BF1F46A3EB0903039390
:102B7000059B98445946204602AA00F01DFD0028F6
:102B8000DAD10BF1010BC6E7204600F05DFE00280C
:102B9000CFD06FF08300CFE76FF08B00CCE7F8B5B4
:102BA0000D4617460646B8B3B1B3AAB3098AB5F8BD
:102BB00014C00129EA68EB8A28D9032929D0002406
:102BC000022907D1A2F11400A0EB4310604538BFE1
:102BD0006FF08604944588BF6FF08604022908BF11
:102BE00001214FF00C004FEA431318BF023908339C
:102BF00000FB01339A420FD334B9182221463046E4
:102C000008F011FFC6E900572046F8BD6FF08604B2
:102C1000D6E76FF08604DDE76FF08604F4E737B59A
:102C2000054600F0B5FD044658B94FF080712846BE
:102C300001AA00F0E4FB38B928460199FFF74AFFE2
:102C40000446204603B030BD10F18C0F18BF044677
:102C5000F7E700F0C1BC70B58AB0144601AA064679
:102C60000D4600F0ABFB18B16FF08B000AB070BDE1
:102C70003046019902AA00F066FB0028F6D10C222A
:102C8000284607A908F045FE0028EDD1059B6360A2
:102C9000049B2360BDF81830A360E7E72DE9F047F7
:102CA00092B00AAF1646DDE91A8504468A4620220C
:102CB00000213846994608F0B6FE4FF6FF7316F02D
:102CC0007F4FCDE9053304D06FF0860012B0BDE828
:102CD000F0875146204605AA00F070FB002840F01E
:102CE0008B803A462046059900F02DFB10B16FF01D
:102CF0008B00EBE7B203059904D50D9B4B456ED1D4
:102D00000C900E9606914FF6FF73069A9A427BD16D
:102D100023689B8A4B45D7D3059907AB8A1ACDE91F
:102D2000027306AB18BF0122CDE9006351464B4642
:102D3000204600F0DCFB0028C8D1B8F1000F6BD1B1
:102D400020460A9907AA00F096FD002851D106995D
:102D50003A46204600F030FC0146002849D1DDE922
:102D600005539D4228BF1D4620462A4600F0FAFC26
:102D700000283ED14FF6FF72059B93420FD0069A72
:102D800093420CD09A4238BF1A462046691C00F084
:102D9000E9FC70BBDDE905539D4238BF1D46236841
:102DA0002046DA8A691C00F0DDFC10BB0A9B002B70
:102DB00058D1B8F1000F55D0204600F0AFFA0028E6
:102DC00084D14FF6FF73059999423FF47FAF069B7C
:102DD00099423FF47BAF2046FFF77CFE76E70E9BDF
:102DE0003A4643F0807320460E9300F0E5FB00283E
:102DF00089D06FF0830069E710F18C0F7FF466AF24
:102E0000F3037FF574AF7EE720460A9907AA00F026
:102E100014FB002891D0ECE70C9B9D42E9D8424678
:102E200029460D9800F069FD0028E2D11C9B3A4626
:102E3000CDE9008320462B4607A900F0CCF80028F6
:102E4000D7D10C9B45449D420A99204688BF0C95DA
:102E5000079D00F05EFA294607900A9A204600F086
:102E6000A8FB6DE7204600F0EFFC0028A4D0C0E7E7
:102E700013B501AA044600F0A1FA28B92046019929
:102E8000FFF728FE02B010BD6FF08B00FAE7F0B537
:102E90008DB0164603AA04460F461D4600F08EFA72
:102EA00018B16FF08B000DB0F0BD2046039904AA55
:102EB00000F049FAB8B90C22384609A908F029FDF2
:102EC0000028EED132462946069800F016FD00286B
:102ED000E9D1129B2A4600932046334604A900F00C
:102EE00059F80028DFD06FF08300DCE72DE9F047C8
:102EF00086B01646DDE90E8A03AA05460F469946B6
:102F000000F09BFA044660BB059A394632442846D5
:102F1000059200F0FEF90646BAF1000F15D1049AA9
:102F2000424522D33A462846039900F042FB3946EF
:102F3000284603AA039600F09EFC044608B33A46CE
:102F40003146284600F035FB0BE001464246284654
:102F5000CDE9009A039B00F0D7FB0028DFD06FF08B
:102F60008304204606B0BDE8F087A8EB0203CDE954
:102F7000002331462846039B00F0C6FB0028D1D031
:102F8000EDE7002FEDD06B683146DB682868984785
:102F90000446E6E72DE9FF410D461646096801AAF9
:102FA00004461F46DDF8288000F047FA70B9019901
:102FB0004B1C0BD062686B680A9755684246AC465A
:102FC0002068334404B0BDE8F04160476FF08300EF
:102FD00004B0BDE8F0812DE9F3471546DDE90AA903
:102FE0000F4698461168044600F093F96B687A68BA
:102FF0009844A8EB020306460146CDE9002320468B
:103000003B6800F081FB20BB6368CDF800A0D3F8DB
:1030100008A04A46434631462068D047C8B9EB6805
:103020006A68B9681A4423682046DB685B1A9B1AF1
:10303000CDE9002331463B6800F066FB48B92B68B8
:103040003BB1314663682068DB6802B0BDE8F047F9
:10305000184702B0BDE8F08713B50C2404FB01F358
:10306000416800948C68083341690068A04702B049
:1030700010BD008A022814BF03380020704708B52D
:10308000FFF7F7FF0C2300FB033303EB411008307D
:1030900008BD2DE9F04F002405460F469046264610
:1030A0004FF00C098BB0D5F800A05046FFF7E1FFB8
:1030B000013086420ED300264FF02009D5F800A03B
:1030C000BAF816309E421DD3002088F800400BB09D
:1030D000BDE8F08F09FB06F36A68CDF80090D2F8DE
:1030E00004B039465046083302AAD8470028EED12A
:1030F00002AB13F8012B01300C2884EA0204F8D14A
:103100000136D0E731465046FFF7B9FF6A68CDF87F
:1031100000900346D2F804B03946504602AAD84778
:103120000028D4D102AB13F8012B0130202884EA07
:103130000204F8D10136C1E737B5837B01685A1C18
:10314000D2B28273097E04469142416904BF0233C0
:103150008373012900F10D020DD8FFF79AFF40B9E2
:103160000822636800929D6861690346A21820687E
:10317000A84703B030BD6FF08600FAE713B50C46E0
:1031800011462279012A09D0022A04D10368A279C2
:103190001B7E9A420CD16FF0830007E003686279CE
:1031A0001B7E9A420CBF6FF08300002002B010BD5E
:1031B00001290DD80DF10702FFF76BFF0028F5D1AB
:1031C00062799DF807309A4218BF6FF09100EDE7E1
:1031D0006FF08600EAE70822F0B5436887B00092F6
:1031E0005C6800236A44054619460068A047024609
:1031F000002836D000264FF0FF3408226B6800927A
:103200005F6801210023286804AAB847002835D147
:103210000122284604A9FFF7B1FF78BB66B32B68EB
:103220009DF816201B7E9DF80E10B3FA83F35B0900
:103230009A4203D1501CC0B2814209D1994203D1B4
:103240004B1CDBB29A4215D191422CBF00260126BD
:1032500034462C61B4FA84F4002064096C6107B030
:10326000F0BD284602A9FFF789FF04460028C1D116
:103270000126C2E70026EBE70124EAE7002EE8D1A9
:103280006FF08300EBE7F0B50025C3B00446FC22E5
:10329000294603A8029508F0C6FB4FF480726368C4
:1032A00000925E6861692B46206802AAB04702AEB0
:1032B000334613F8012BFF2A23D10135B5F5807F62
:1032C000F7D12068038A022B12D9D4E901354FF4D3
:1032D000807200925F682946002302AAB847002343
:1032E00016F8012BFF2A06D10133B3F5807FF7D101
:1032F000002043B0F0BD636829461B6920689847E9
:10330000F7E7636861691B69206898470028D8D08F
:10331000EFE709B9406970478068704710B5044607
:10332000FFF70AFF70B963686169DB682068984736
:1033300040B9D4E904232046C4E90432BDE8104072
:10334000FFF7A1BF10BDF7B5066805463046FFF789
:1033500096FE03462020696800904F683046296930
:103360001446B847064640B92868FFF782FE23682E
:103370000130834204D36FF09706304603B0F0BDAE
:1033800004F1140000F0C5FA0028F6D12D68E268B7
:10339000AB8A9A42EFD8A3689A42ECD3D4E90037BB
:1033A0002BB92846E98AFFF76AFE8742E3D33946FC
:1033B000E86800F0A2FA0028DFD0DCE7F0B50546A7
:1033C0000E461746002489B02B68DB8AA34202D838
:1033D0006FF08B000CE06A4621462846FFF7B3FFEA
:1033E00050B90C22314605A808F093FA10B93C6098
:1033F00009B0F0BD0134E7E76FF08300F8E7F0B5FE
:1034000005460E461746002489B02B68DB8AA34286
:1034100002D86FF08B0009E06A4621462846FFF784
:1034200092FF38B9049B1E4202D03C6009B0F0BD47
:103430000134EAE76FF08300F8E773B506460C2025
:1034400000FB01F3716800904C6830683169083303
:103450001546A0470446B8B9336829681A8A9142CC
:1034600010D2D5E90112D86800F047FA044648B9ED
:103470002B68012B03D83068C18AFFF700FE6B6808
:10348000834201D06FF09704204602B070BDF7B5BB
:103490000C2606FB01F3416800964F68083301696A
:1034A000054600681446B8470346E8B92B6821680A
:1034B0001A8A914216D2D4E90112D86800F01DFA96
:1034C000034678B92268012A09D82A681046FFF70E
:1034D000D0FDD18A00FB06604901083108446268CA
:1034E000824201D06FF09703184603B0F0BD2DE97A
:1034F000F04F06468B4691469846002789B0DDE995
:10350000145A3068FFF7B5FD0130874202D36FF0DF
:103510008D0421E0524639463046FFF78EFF0446BF
:10352000002835D1DAF8082090452FD8336859465D
:10353000DB682F609B1A6B600C22C5F80C8005F1CC
:10354000140008F0F6F9129BAC602B61DAF8083031
:10355000A3EB0803CAF8083000253368DB8A9D42D4
:1035600005D26A4629463046FFF7EDFE98B14FF680
:10357000FF75139B1D60CCB94FF6FF739D4208BFCA
:103580006FF08D04204609B0BDE8F08F0137B8E731
:103590006FF08304E0E705A800F0BBF920B1B9F1B2
:1035A000000FE6D14FF001090135D6E76FF08D0429
:1035B000E8E702B18160704773B5056804462846A4
:1035C000FFF75DFD03462020616800908E68284665
:1035D0006169B04702B070BD70B58CB00546FFF7A9
:1035E000FAFD002861D16E696B6831461B69286855
:1035F00098470446002878D1B6FA86F16B682868A7
:103600001B6949099847044600286ED12A6801269B
:10361000137EB3FA83F35B09AB73138AC5E904061F
:10362000022B0CBF01230223AB6002232B73D18A30
:103630001046FFF724FDD3680290181A2146039024
:1036400001AA28460196FFF707FD044600284CD141
:1036500006462B680290DB6803932B681846FFF739
:1036600008FDB04223D8002C4BD12B681846FFF739
:1036700000FDA04228D82022002104A808F0D3F998
:1036800000242B68DB8AA34232D82846FFF754FD7A
:1036900048BB6B686969DB6828689847044620BBAB
:1036A000D5E90423C5E904321FE000269CE7198A06
:1036B0006A6802290CBF00210321184631441269AF
:1036C000904701360443C8E71B8A2846022B0CBFEB
:1036D0000023032323440134214601AA0193FFF769
:1036E000BBFC0028C1D06FF0830420460CB070BD35
:1036F0002146284604AAFFF75FFF0028F3D10134D2
:10370000BFE76FF09104F0E72DE9F04F04468846DB
:1037100016469946C3B0DDE94CA51DB9284643B00D
:10372000BDE8F08FB5F5807F2F4628BF4FF4807736
:1037300063680097D3F804B049465346206802AA4C
:10374000D8470028EBD163680097D3F808B041460A
:103750003346206802AAD8470028E0D13E44BA4444
:10376000ED1BDAE773B5066804463046FFF787FCC1
:103770001546024629463046FFF781FCD4E904315C
:10378000801ACDE900202046FFF7BEFF02B070BDD1
:103790002DE9F041436805461B68006886B09847EC
:1037A000044628B92846FFF716FD28B16FF08304B8
:1037B000204606B0BDE8F08108266B6805F10807D1
:1037C0000096D3F804803A46234629692868C04702
:1037D0000028EBD1394628462A69FFF7CFFC00289C
:1037E000E4D12846FFF74FFD04460028DED12B7BAD
:1037F000012B24D1014603AA2846FFF748FE0446C0
:103800000028D5D1059B2A68C3F1FF23D26803F5B0
:103810007F03F8331344CDE90063324628462B6911
:103820006969FFF771FF04460028C1D16B7B284608
:10383000AB7302232B73FFF771FD0446B8E7022B2D
:1038400018BF6FF08304B3E710B586B0002103AA58
:103850000446FFF7F2FD60B9049A2068059BD11871
:10386000C36820465B1ACDE90023D4E90431FFF791
:103870004BFF06B010BDF0B504460D4687B009B940
:103880004369136029462046FFF7E6FB0146D0B99D
:10389000D4E904768DB90C2200212068FFF7EFFBF4
:1038A00005FB02220832801ACDE900203B46314652
:1038B0002046FFF729FF07B0F0BD204603AAFFF717
:1038C000BCFD014610B16FF08300F4E7204603AA67
:1038D0000396FFF7C1FB0028F5D1012DDBD00C23A7
:1038E00014226B430C3B019331463B462046009229
:1038F000FFF70AFF0028CED0DDE7814206D8401A44
:10390000904234BF6FF08600002070476FF0860051
:10391000704700F10C03984202D16FF08B007047A2
:1039200010F8012B002AF6D00020704708B500F0EF
:1039300075F9002008BD30B505468DB030220C4623
:103940006846002108F06FF86946284607F0BEFF78
:10395000009B002B04DA02330BDA07F0BFFF0CE008
:1039600003D0A3F2F233012BF7D86846A0470146F3
:1039700000E00021019807F0AFFF0DB030BD00005E
:10398000002337B50446042201938DF8033000F17B
:103990001C0353F804091146013A08B10A4601E034
:1039A000002AF6D1042104F12C0353F804590846E7
:1039B00001390DB1014601E00029F6D140F2F230A3
:1039C0002368834226D040F2F330834202D1236938
:1039D000042B01D001251AE0012AFBD10029F9D1DD
:1039E000606801AA07F074FF23698342F2D101984D
:1039F0000228EFD81C4B53F82020A3689342E9D14A
:103A0000002BE7D003F0C9FC051E18BF012528468E
:103A100003B030BD2369042BDCD1012ADAD101299E
:103A2000D8D10021606801AA07F052FF23698342C0
:103A3000D0D101980228CDD80B4B53F82020A36891
:103A40009342C7D1002BC5D0216A0DF1030203F0C8
:103A500099FC05460028BDD10146236A60680DF136
:103A6000030207F037FFD2E7103C0A0238B503F033
:103A700087FC08B107F032FF0B4C0C4D4FF00041B2
:103A80004FF0FF3007F020FFC20604D52946102072
:103A9000FFF751FFF2E7430602D521464020F7E742
:103AA00007F01CFFEAE700BF81390A022D390A023C
:103AB0004572723A6D757374207265616C697A65CE
:103AC00020746869732066756E63200073696420D2
:103AD0003D2025752C20616C67203D25750D0A0061
:103AE000B1220A0217230A02F5210A0245220A021C
:103AF00091210A027B220A0267230A02B1230A02E9
:103B0000FB230A0231240A026D1E0A0201160A0270
:103B1000831C0A02D91C0A021F1D0A027F1D0A0209
:103B2000D31D0A02231E0A02A71E0A0201160A0258
:103B300001160A0201160A0201160A0201160A02F9
:103B400001160A0201160A02DF1B0A02311C0A02D0
:103B5000F3190A02611A0A0255190A02AB190A027C
:103B6000CF1A0A022B1B0A028D1B0A0201160A0237
:103B700001160A0201160A0201160A0201160A02B9
:103B800001160A0201160A0201160A0201160A02A9
:103B900001160A0201160A0201160A02971F0A02FA
:103BA000E91F0A0201160A0201160A0235200A025A
:103BB000DF200A0201160A0201160A0201160A0291
:103BC00001160A0201160A0201160A0201160A0269
:103BD00001160A0201160A023F210A02F7240A020C
:103BE0009B240A0250008001E8002002B00100007E
:103BF00001000000020000000400000089290A0200
:103C0000152A0A029D290A02E1290A02E5290A0267
:103C100000010000000100000001000008B500F0F4
:103C200057FE10B10E4800F067FE00212D2002F073
:103C30001FFB0021012002F01BFB0021022002F0EB
:103C400017FB4FF088431A6842F080721A60054AE9
:103C5000C3F89420044AC3F8942072B6FEE700BF6C
:103C600094900A02AA554B4255AAB4BD0000000028
:103C70000000000000000000000000000000000044
:103C80006FF47A72F0B5504B0446186003688DB03B
:103C90001344042B0ED8DFE803F0032C527589007F
:103CA000002300220021CDE9082303698668082B40
:103CB000069102D06FF0800561E08569042DF9D18D
:103CC000406808AA07F004FE0828F3D12B46022119
:103CD000606806AA07F0FCFD0428EBD1069B30467D
:103CE000019363690093DDE9082300F09BF8054622
:103CF00045E0002300220021CDE908230369059156
:103D0000082BD7D14569042DD4D1406808AA07F003
:103D1000DFFD0828CED12B460121606805AA07F0F7
:103D2000D7FD0428C6D106AB0293236AA06801938D
:103D3000059B0093DDE9082300F08BF8D7E700230B
:103D40000022CDE906230369082BB3D1076A0C2FA3
:103D5000B0D10021406806AA07F0BAFD0828A9D111
:103D6000DDE9062308AEA068009600F086F8054657
:103D700028B901463B463246606807F0ABFD28464D
:103D80000DB0F0BD00230022CDE908230369082B04
:103D900090D10021406808AA07F09AFD082889D12F
:103DA000DDE90823A06800F078F8A0E7056A042D93
:103DB00080D100F085F82B4608900021606808AAA1
:103DC00007F088FD0025DAE72048062800F01EB835
:103DD00038B5074B02461D680C460B466868012142
:103DE00007F076FD844214BF6FF08000002038BDDC
:103DF000204806280B46044910B40C6802460021EE
:103E0000606810BC07F066BD2048062808B500F0C1
:103E1000A7F830B100F094F918B9BDE8084000F0F7
:103E20009FB808BD194610B404461046DDE90123C9
:103E300050EA010C06D033F0070C07D1224610BC23
:103E400000F0C0B86FF0860010BC70476FF08500BE
:103E5000FAE730B4194604461046DDE9023250EA6A
:103E6000010C049D05D0CDE90225224630BC00F0AE
:103E70007DB86FF0860030BC7047194610B4044618
:103E8000104650EA0102019B03D0224610BC00F00C
:103E90000BB96FF0860010BC7047194652EA010357
:103EA00010B50446104608D0224600F019F910F16A
:103EB000950F08BF6FF0830010BD6FF08600FBE721
:103EC000002070470022F0B5134F85B0134C03ADAE
:103ED0001146064614233868019500940FF01EFE23
:103EE000014690B93B686068984211D122687B68AE
:103EF0009A420DD1012E08D1A36833B11434142293
:103F0000019500940FF00AFE0146084605B0F0BD89
:103F10006FF09701F9E700BF244806282C480628CF
:103F2000074B13B51968074C013119606160002116
:103F300002462068586000910FF0D2FD02B010BD1B
:103F40002C4806282448062810B5044600F066FAD6
:103F5000014620B92046BDE810400FF01FBE10BD3D
:103F6000014800F03BB900BF4048062870B51E4626
:103F7000124B00F013FA0446D0B90120FFF7A2FF5C
:103F8000044678B90E488568B54213D30499AD1B31
:103F90008D4228BF0D46143029463044FFF72AFFD2
:103FA000059B1D604FF484620021054807F03BFD2E
:103FB000204670BD6FF08604F4E700BF2448062851
:103FC0002C4806282DE9F74F1D4640F20C430C9E65
:103FD00081469E42884692465FD8314F3B4600F06C
:103FE000DDF9044600283BD1FFF76CFF044668BBAF
:103FF0002C4B1A69D2074DD4C3E9036501233D68F0
:10400000DFF8A0B031460BF114000193FFF7E0FE9A
:104010000446D8B9019B22491846CBF8086000F045
:104020003FF9044690B9DBF808001430FFF778FF39
:10403000044658B9524648464146194B00F05CF9CF
:104040000446F0B1002138680FF0A8FD4FF48462F7
:104050000021144807F0E7FC204603B0BDE8F08FCC
:1040600010F18C0FF2D10F4C4FF4846200212046E6
:1040700007F0D9FC0022C4E903650223154622603B
:10408000BEE71DB900F0CAF90446DFE72846FFF78E
:104090005BFFF9E76FF08404D8E76FF08604DBE795
:1040A000244806282C48062838B51D460A4B00F03F
:1040B00075F9044670B9FFF705FF044620B9074BB0
:1040C0009A681B696A60AB604FF484620021034800
:1040D00007F0A9FC204638BD244806282C480628AD
:1040E0002DE9F041DFF85080064643460D4617465D
:1040F00000F054F90446C8B9FFF7E4FE044678B965
:104100000E4B1B69DB0714D43A463046294600F0B3
:1041100059F9044620B9D8F80000FFF715FF044606
:104120004FF484620021054807F07DFC2046BDE87D
:10413000F0816FF08404F3E7244806282C48062811
:1041400000F03AB8F0B500250A4CD4E904768E4266
:1041500008BF874205D1A669964202D100201D60A2
:10416000F0BD0135152D04F11804EED16FF08B0070
:10417000F6E700BF504C062837B50E4C4FF40072DE
:10418000637894F801520133DBB2FF2B08BF0023A0
:104190006370002300210093681C064B0FF0A0FC05
:1041A00028B994F8003284F8005284F8013203B040
:1041B00030BD00BF504C062810B5074C4FF40272BA
:1041C0002046002107F02FFC0123A4F800322370C1
:1041D000BDE81040FFF7D0BF504C0628F0B52F4C7B
:1041E00087B003AE07464FF4007300220021012080
:1041F000019600940FF092FC4FF4007305460022E4
:1042000002200021CDE900760FF088FC2378012BF5
:104210002AD12B1E18BF01233A78012A26D1003853
:1042200018BF012040F201158DF814308DF81500EB
:10423000BDF814606178AE427A782BD0C3B14FF4E8
:10424000007239461548A4F8003207F072FB94F862
:104250000102002101300FF0A1FC18B110F18C0F08
:1042600008BF002007B0F0BD0123D5E70120D9E742
:1042700020B14FF48073A4F80032E8E71AB901299D
:10428000F7D00123DBE711B9012AF2D1F9E7914216
:10429000F7D3EEE76FF08300E4E700BF504C062849
:1042A00070B50D4618B300231C46124AD2E90461CA
:1042B000314308BF234604F1010408BF00F1FF3079
:1042C000152C0BD018320028F0D1DC1C2046002120
:1042D0000FF064FC38B900202C6007E00028F4D00F
:1042E0006FF08D0002E010F18C0FF4D070BD6FF014
:1042F0008600FBE7504C06282DE9F04F1F460023AF
:104300000024002589B0CDE90133069301ABCDE946
:1043100004458346FFF716FF8A46914605461E4C24
:1043200080B918260199324606FB014102A80831DE
:1043300007F0FFFA0198324606FB00402946083094
:1043400007F071FB18263D687A68A5F10308023D65
:1043500006FB08437543C3E904BA44F805909A6024
:10436000FFF70AFF054698B1DDE90423134307D0A0
:104370000198324606FB004002A9083007F0D9FA3E
:10438000182202FB0844002104F1080007F04BFB4F
:10439000284609B0BDE8F08F504C062813B51C46DE
:1043A00001ABFFF7CFFE40B91821019AD31C23605F
:1043B000034B01FB02339B68636002B010BD00BF7A
:1043C000504C0628002370B588B0019301ABFFF76D
:1043D000B9FE0446E8B918250F4E01992A4605FB97
:1043E000016102A8083107F0A4FA0198214605FBF3
:1043F00000602A46083007F016FBFFF7BDFE0446B2
:1044000038B101982A4605FB006002A9083007F080
:1044100090FA204608B070BD504C0628034B00218E
:1044200093F8010201300FF0B9BB00BF504C0628D1
:10443000000000000000000000000000000000007C
:1044400008740000010000000000000000000000EF
:10445000000000000000000000000000000000005C
:10446000002238B5634BC3F88420BFF34F8FD3F8D5
:104470008020C2F3C900C2F34E325201014602F459
:10448000FF5545EA81740139C3F87442F9D2203AE4
:1044900012F1200FF2D1BFF34F8FBFF36F8FBFF335
:1044A0004F8FBFF36F8F0022C3F85022BFF34F8F9F
:1044B000BFF36F8F504A9A609A6FD20715D55A6929
:1044C00012F4003211D1BFF34F8FBFF36F8FC3F8D7
:1044D0005022BFF34F8FBFF36F8F5A6942F40032FF
:1044E0005A61BFF34F8FBFF36F8F424A936F9B07A1
:1044F00069D50023C2F88430BFF34F8FD2F88030E3
:10450000C3F3C900C3F34E335B01014603F4FF5507
:1045100045EA81740139C2F87442F9D2203B13F1A3
:10452000200FF2D1BFF34F8FBFF36F8F0023C2F87C
:104530008430BFF34F8F536923F480335361BFF34B
:104540004F8FD2F880302B4CC3F3C901C3F34E33E5
:104550005B010A4603F4FF5545EA8270013AC4F84C
:104560007402F9D2203B13F1200FF2D1BFF34F8F29
:10457000BFF36F8F00F070F8636913F4803322D1BA
:10458000C4F88430BFF34F8FD4F880301949C3F397
:10459000C900C3F34E335B01024603F4FF5545EAFD
:1045A0008274013AC1F86042F9D2203B13F1200F26
:1045B000F2D1BFF34F8F4B6943F480334B61BFF3AC
:1045C0004F8FBFF36F8F0D4B0D4A13600D4A136071
:1045D000084B5A6A42F480325A625A6A42F4002204
:1045E0005A625A6A42F480225A625A6A42F400328B
:1045F0005A6238BD00ED00E000100A02005A620263
:1046000004A0072800A0072870470000BFF35F8FB1
:10461000074B5A6A22F480325A62D3F8942022F06F
:104620000102C3F89420BFF34F8FBFF36F8F704721
:1046300000ED00E0BFF35F8F0722064BC3F8942024
:104640005A6A42F480325A62BFF34F8FBFF36F8FC2
:10465000704700BF00ED00E070B5FFF7D7FF002303
:10466000134A1449082B02F1080216D10022FF2632
:10467000114C104914F8013BD1F8C000934006FAE0
:1046800002F543402B4008324340202AC1F8C03095
:10469000F0D1BDE87040FFF7CDBF52E90240C1F84C
:1046A0009830C1F89C400133C1F8A000DAE700BFA0
:1046B000848C0A0200ED00E0808C0A0238B5EFF32A
:1046C000948111F002041ED0EFF3898400F00AF9FE
:1046D00028B123460021134A134800F00DF9802128
:1046E0002046124C00F054F9206808B100F02CFA72
:1046F0000F4B20681C68640864002146224623464C
:1047000023F096F9FEE7EFF3888500F0EBF828B187
:104710002B462146034A074800F0EEF88021284640
:10472000DFE700BFC48C0A02C68C0A0220B5072846
:1047300024B50728E38C0A022DE9F00F7046EFF349
:104740000881EFF30982002300F098F94FF030233D
:10475000D3F8F82F0A4B9A4200D1FEE74FF0A94355
:10476000084A1A6102F596021A6100F0BBF820B1FE
:104770000021054A054800F0BFF8FFF79FFF00BF82
:1047800055AA55AAF0FF5A00C48C0A02008D0A02ED
:104790002DE9F00F7046EFF30881EFF30982012352
:1047A00000F06CF900F09EF820B10021024A0348A5
:1047B00000F0A2F8FFF782FFC48C0A02118D0A02F2
:1047C0002DE9F00F7046EFF30881EFF30982022321
:1047D00000F054F900F086F820B10021024A0348A5
:1047E00000F08AF8FFF76AFFC48C0A02218D0A02E2
:1047F0002DE9F00F7046EFF30881EFF309820323F0
:1048000000F03CF900F06EF820B10021024A0348A4
:1048100000F072F8FFF752FFC48C0A02318D0A02D1
:104820002DE9F00F7046EFF30881EFF309820423BE
:1048300000F024F900F056F820B10021024A0348A4
:1048400000F05AF8FFF73AFFC48C0A02418D0A02C1
:104850002DE9F00F7046EFF30881EFF30982002392
:1048600000F00CF900F03EF820B10021024A0348A4
:1048700000F042F8FFF722FFC48C0A02518D0A02B1
:1048800008B500F02FF830B1BDE808400021024A19
:10489000024800F031B808BDC48C0A02618D0A02DA
:1048A00008B500F01FF830B1BDE808400021024A09
:1048B000024800F021B808BDC48C0A02718D0A02BA
:1048C000024BD3E9000102F09BBF00BF28B50728C7
:1048D000034B186880F48070C0F30020704700BF5D
:1048E00030B50728034B186880F40070C0F34020EF
:1048F000704700BF30B507280FB4F0B500258FB062
:1049000014AC54F8046B29462C2203A8029507F036
:104910008AF8234632462F2102A8019423F024FA74
:104920003021044602A88DF8375023F0E5F90546FA
:1049300038B3154F3E6826B10621144800F078F8C8
:104940000126294602A800F073F805F138030DEBA3
:10495000030515F8313C0A2B0FD0A3F10D02534289
:104960005341002C3B6002DB4EB900231C4420461F
:104970000FB0BDE8F04004B070470123F1E7062313
:10498000F4E7002CF1DAF2E708A007289D8D0A026F
:104990002DE9F74F07460C46FFF79AFF90B1002527
:1049A000DFF8748007F00306B5420ED14FF0000B1C
:1049B000641BDFF86880DFF86890DFF868A0A4085F
:1049C0005C4509D803B0BDE8F08F29467A5D4046C2
:1049D000FFF792FF0135E7E75E4659464046FFF78D
:1049E0008BFF7B190193B44212D9019B504653F8B7
:1049F0002610FFF781FF01360BF108029642F2D133
:104A00000948FFF779FF0948FFF776FFB346D7E774
:104A10004846FFF771FFEEE7818D0A028C8D0A028E
:104A2000998D0A02938D0A029B8D0A02C3950A0290
:104A300037B5084C6369984748B9E56AA847C30782
:104A4000FCD4236A019303B0BDE83040184700202E
:104A500003B030BDA48D0A0210B5074C0020A36836
:104A60009847A46A4FF4E1310120A0472346BDE8EE
:104A70001040012115201847A48D0A0238B50D46B3
:104A80001146EFF303832C4CC4E900052366A260B2
:104A9000EFF31483E360EFF388832361EFF38983FB
:104AA0006361EFF39483A361EFF3948342063BD5F4
:104AB00000F00C000C2818BF294620221F48E16195
:104AC00002F022FD00231E4AE9580433202B42F84D
:104AD000041BF9D11B4B9A6AA266D96AE166986BEE
:104AE000206702F400406067586BA06702F0800006
:104AF000E0679A62D962D3F8E420C4F88020D3F842
:104B0000E810C4F8841002F04001C4F88810C3F81B
:104B1000E4202268D4E9011302F00C020C2A18BF29
:104B20000B46C4F88C3038BD9B0702D5EFF3898162
:104B3000C3E7EFF38881C0E734B5072854B50728E9
:104B400074B5072800ED00E0204B30B41A68D9692D
:104B500002601A6E00F13C0402665A6842609A686C
:104B600082601A6902615A694261024642F81C1F5A
:104B700003F1200151F8045B42F8045FA242F9D12D
:104B8000134900F15C0451F8045B42F8045FA2424F
:104B9000F9D130BC9A6ED3F88C1082661A6F9030BF
:104BA00040F8202CDA6E40F8242CD3F8802040F80E
:104BB000102CD3F8842040F80C2CD3F8882040F82F
:104BC000082C4FF4807202F09FBC00BF34B5072858
:104BD00074B5072800207047014B5868704700BF24
:104BE000C4B60728002382B00193019802B0704731
:104BF00038B50C46014640B13CB1054D22462878F7
:104C000000F07AF900206C6038BD6FF00400FBE71B
:104C1000C4B607281FB54FF4E13203230446CDE99B
:104C2000012301238DF80C3000F038F800F0AEF9C4
:104C300000F082F8207801A900F09EF8002004B06E
:104C400010BD00000148FFF7E5BF00BFC4B607284C
:104C500010B50C46E3B2012B114602D06FF00300F1
:104C600010BD00F01DF958B914F4E06FF6D114F43A
:104C7000405F08D114F4404F18BF6FF00A00EFE70F
:104C80006FF00700ECE76FF00900E9E7024B0A4616
:104C900001461878FFF7DCBFC4B6072800F07ABADF
:104CA00003F0DEBF00F0B6BAEFF3108372B6054A28
:104CB0000B60936903F0400123F0400301609361AE
:104CC000704700BF00000441044A936910B143F0EB
:104CD0004003936181F31088704700BF00000441D6
:104CE000024B1860024B1860704700BF0CA00728E9
:104CF000D0B60728014B1868704700BF0CA00728E2
:104D00000128014606D0022806D040B90121022020
:104D100000F0D0BA0A20FBE701210B20F8E770472A
:104D20000C235843034B1B589A69D202FCD5002030
:104D3000D9617047D0B6072838B50B4D2C7884B9A7
:104D400030222146094800F09FFA202221460848D7
:104D500000F09AFA20222146064800F095FA012335
:104D60002B70002038BD00BF00B70728D0B6072839
:104D700004B7072824B70728F8B5434B04461B7827
:104D80000F46002B77D0002978D0032878D80B68FD
:104D90003E4AA3F59853123B934273D80C263C4DE0
:104DA00006FB00563071304600F03EF92046FFF712
:104DB000A7FF0121204600F07FFA012C35D0022CFC
:104DC00046D09CB90B2000F0DCF80A2000F0D9F89E
:104DD0001F210B2000F0CAF820210A2000F0C6F89D
:104DE0000B2000F0DFF80A2000F0DCF80C23012192
:104DF00003FB045301FA04F2187A52B210431872FA
:104E0000587A02435A723B7A2046022B08BF194651
:104E100000F052FA3A462146304600F069F9214640
:104E2000304600F01FF90020F8BD002000F0A9F87E
:104E3000204600F0A6F82121002000F097F822215A
:104E4000204600F093F8002000F0ACF82046CBE7B5
:104E5000292000F096F8282000F093F8232129203B
:104E600000F084F82421282000F080F8292000F0A8
:104E700099F82820B8E76FF41050D5E70548D3E734
:104E80000548D1E70548CFE700B70728EEFE7900CF
:104E9000D0B60728F7EFFFFFFEDBFFFFFBDBFFFFCE
:104EA00038B5104B04461B780D46A3B1032815D81E
:104EB0000D4AA1F59853123B934211D800F090F996
:104EC00021460C24024609482B4604FB010000F051
:104ED000D5F8002038BD6FF41050FBE70448F9E71F
:104EE0000448F7E700B70728EEFE7900D0B6072898
:104EF000FEDBFFFFFBDBFFFF104B70B51B780546A9
:104F00000C46A3B1032815D80C210D4B01FB00332F
:104F10001B7A0341DB070FD5A618B44201D100204C
:104F200070BD284614F8011BFFF7FAFEF5E76FF491
:104F30001050F5E70348F3E70348F1E700B7072807
:104F4000D0B60728FEDBFFFFFADBFFFF38B50446CB
:104F5000084600F029F805460021204600F050F8E8
:104F600029462046BDE8384000F03AB808B5FFF7BA
:104F7000EDFF002008BD08B5002100F041F8002039
:104F800008BD08B5FFF7F7FF002008BD10B5044CB9
:104F900023781BB900F014F801232370002010BD02
:104FA00044B7072800F02EB8013880B2B0F59A7FD8
:104FB0009ABF024B185C5F20704700BFDC8D0A026D
:104FC00010B5064C23783BB900F026F94FF40000E9
:104FD00000F074F901232370002010BD45B70728A5
:104FE000172804D85E2904D8C0B200F02BB90248B3
:104FF00070470248704700BFF5DFFFFFFBB3FFFFBC
:1050000000F01AB9172810B5044608D8012100F09D
:105010002FF92046BDE81040012100F01FB90148DA
:1050200010BD00BFF5DFFFFF10B503790446012B6B
:105030000BD0022B0BD063B9FFF75CFE20608368B6
:1050400043F001038360002010BD0348F6E70348E6
:10505000F4E70348F2E700BF000083450000844501
:1050600000DCFFFF036800201A6942F001021A61A8
:105070001A6942F002021A6170470000022A0CBF4E
:10508000064A074AB2FBF3F30268013B11699BB27F
:1050900063F3172100201161704700BF000E27073E
:1050A000005A62020368196942B962F34511196135
:1050B0001969002062F386111961704741F02001DF
:1050C0001961511E4A424A41F2E703680020996A79
:1050D0006FF307019962996A62F30F2199629A6AE4
:1050E00042F400329A629A6A42F480229A627047CD
:1050F000F8B5154600274FF6FF7204460E460368C2
:105100001F62DA611A6995F804C06CF3C4021A616F
:1051100095F806C01A696CF3C7121A616A79FFF72D
:10512000C1FF31462B682A7A2046FFF7A7FF2021CE
:1051300023685A6961F3070240215A615A6961F391
:105140000F225A615A6967F311425A619F62EB79E3
:105150004BB1802231462046FFF7B7FF2268936AA1
:1051600043F48033936200202368D862F8BD0000C6
:105170000122064B016003449B08054902FA03F330
:10518000D1F8E8201A42FBD1704700BF00FFFEBBF8
:10519000000001440020704701280CD0022813D0E1
:1051A00040B90E4B02299A6A0CBF42F4805260F358
:1051B0000C329A627047094B02299A6A0CBF42F47A
:1051C00000526FF34D32F4E7044B02299A6A0CBF88
:1051D00042F480426FF38E32EBE700BF00000144DF
:1051E000012808D002280BD078B9094B986AC0F37F
:1051F000003001307047064B986AC0F34030F8E742
:10520000034B986AC0F38030F3E70120704700BF7A
:105210000000014470470000064A0020936843F0F4
:1052200001039360A2F50202136B43F08003136342
:10523000704700BF00008344014B80001950704745
:1052400000018344044B80001A58C9B261F31F6205
:105250001A500020704700BF00018344034B8000B8
:105260001A5861F304121A50002070470001834459
:10527000034B80001A5861F345121A500020704702
:105280000001834406F055BB06F0CDBB08B122F007
:105290002BBC704710B5044622F01EFC044A04449F
:1052A0009442034602D9FFF7F1FF0023184610BDD0
:1052B00060AE062803F0CCBCFFF76EBF03F0D8BC8D
:1052C00020F02003413B192B05D9303809288CBF29
:1052D0000020012070470120704710B54218435C40
:1052E0005478D0781B0643EA04430343907843EA9A
:1052F000002010BD425C0844407840EA022070471C
:1053000010289FBF28235843024B185888BF0020FD
:10531000704700BFA8BF072810289FBF2822034B53
:1053200002FB0030406888BF00207047A8BF0728F4
:105330002DE9F04F20208DB0FFF7ACFF0546002887
:1053400073D04FF410564FF0000820222946304603
:1053500000F044FD2878FFF7B3FF80B306AA0023CE
:105360009146E95CFF2904D00133142B02F8011B9C
:10537000F7D1002730336B44DFF8DCA0374C03F85B
:10538000188C49465AF8040B22F0A4FC70B9162177
:105390002846FFF7A2FF1A2120602846FFF79DFF4D
:1053A0001E2160602846FFF7A5FFA0600137112F7E
:1053B00004F12804E5D12036B6F5295FC5D10026D1
:1053C0000127264CDFF89090DFF89480636803B3E0
:1053D0004FF0000ADFF88CE00DF1040CBEE80F007E
:1053E000ACE80F00DEF800300DF1040BCCF8003013
:1053F0005BF8041B59F8260022F06CFCC0B10AF1DE
:10540000010ABAF1050FF3D1002384F8243084F89F
:1054100025700136112E04F12804D7D12846FFF754
:1054200035FF00200DB0BDE8F08F4FF0FF30F9E7F9
:105430004FF48050D4E9002102F58F531F3303EA63
:1054400008030A44C4E90613E360D31AC4E904005C
:1054500084F824702362DAE71CA00728A8BF072875
:1054600000FEFFFFC08F0A02064B82B018680023BF
:1054700082B262F30F03000C60F31F43184602B0C0
:10548000704700BF28900A02082070476FF00300A1
:1054900070470000014B1868704700BF50C20728D2
:1054A000014B1B685868704768A0072807B501A919
:1054B0006846FFF7F9FB00F07FFDDDE90001FFF72B
:1054C00003FC002003B05DF804FB000007B501A950
:1054D0006846FFF7E9FB00F0C5FD002000F078FD0D
:1054E00000F01EFE054B000B1860DDE90001FFF720
:1054F000EBFB002003B05DF804FB00BF54C207289B
:1055000073B505460E461446BAB10F4B0F491B68DA
:1055100009685B6802449B684B43013B9A420FD881
:10552000684601A9FFF7C0FB31462246284600F035
:1055300055FCDDE90001FFF7C7FB204602B070BD56
:105540006FF00400FAE700BF68A0072854C20728DC
:10555000B0F5B83F06D30144B1F5C83F0BD9B0F55B
:10556000C83F01D2002004E0B1F5D83F8CBF002035
:1055700001200138704700207047000073B50021FA
:105580000546FFF7E5FF044640B129461748FFF7F7
:10559000B3F96FF00604204602B070BD144B1B68CF
:1055A0005B689968134BB5FBF1F21B6801FB125263
:1055B0004B43013BB2B99D4214D801A96846FFF79D
:1055C00073FB00F003FD0646204600F001FD28466F
:1055D00022F02EFF304600F0FBFCDDE90001FFF772
:1055E00073FBD8E76FF00404D5E700BFD48F0A023D
:1055F00068A0072854C207282DE9F3410F46114639
:105600000646FFF7A5FF1446054648B13146224835
:10561000FFF772F96FF00605284602B0BDE8F08189
:10562000002AF9D01D4B1B685868B3181C4A016941
:10563000126880684243013A9342B6FBF1F201FBE3
:1056400012624FF0FF3398BF0023003A18BF0122C7
:1056500052421343B4FBF1F201FB12410B4317D149
:1056600001A96846FFF720FB00F0B0FC8046284601
:1056700000F0AEFC22463946304600F00BFC4046B6
:1056800000F0A6FCDDE90001FFF71EFB2546C3E79D
:105690006FF00405C0E700BFEF8F0A0268A007287B
:1056A00054C2072808B500F099F900F0B7F943F69D
:1056B000DA33002818BF184608BD00002DE9F04F66
:1056C0000F46054687B020B943F6DA3007B0BDE88B
:1056D000F08F0029F8D018224FF00008C36900F1BC
:1056E000340606EB8306036AC46802FB0366DFF830
:1056F00074A0DFF87490DFF874B004F480746B6AFF
:10570000434505D8003C18BF012400203C60DDE77C
:105710000C2303FB08F39A199268120702D408F1CC
:105720000108ECE79B59534502D0114A9342CBD173
:10573000002CF4D11A685B680292CDE9033440F280
:105740000113ADF81430D9F8003058465A1C01A99D
:105750008DF81640C9F80020019301F0A3FE00283F
:10576000DDD0B1E778A0072858C207286CA0072829
:1057700070A00728EFF3148311F00F0F0CBF012264
:10578000002262F3000383F31488BFF36F8F0020BD
:10579000704710B50020FFF7B3FD04460020FFF767
:1057A000BBFD0021221801230846013A00F0BEFC8F
:1057B0000120FFF7A5FD04460120FFF7ADFD012301
:1057C000221821461846013A00F0B0FC002010BD16
:1057D00008B500F0BBF8B8B900F0D4F8A0B900F0F3
:1057E000E1F888B962B6FFF737F900F0FDFC58B967
:1057F00000F0DAF840B900F0EFF828B9FFF7C9FF78
:1058000010B901F0D3FD08B143F6DA3008BD00004D
:10581000014B1868704700BF78900A02014B1B6863
:105820001868704778900A02044B054A043850F80B
:10583000041F43F8041B9342F9D170471000044140
:105840004000044130B5002499B001F071F801F036
:10585000DDF901F0C5FA01F03DFD01F03CFD01F07C
:105860003BFD01F03AFDFEF7CFFE2C22214601A8B8
:10587000009406F0D8F8302221460DEB020006F025
:10588000D2F82B48FFF738F8302269464FF4005021
:1058900000F0A4FA0CAD21466846FFF71EFD043463
:1058A000302C45F8040BF6D10122002140F6FF70A0
:1058B000204B214C99609A605861196145F255510D
:1058C0000CA89962A260FFF7AFFFA3691B4843F0E1
:1058D000006343F48053A361E36943F48063E361AD
:1058E000236A43F080532362236B43F01003236346
:1058F000636B43F090036363A36B43F41253A3639E
:10590000FFF7D0F90E48FFF7EBF90E4AD3689BB2C8
:1059100043F0BF6343F41833D360D2F88C3043F4C0
:105920004063C2F88C30084B1B68586819B030BD12
:1059300058900A0200000245000004410000015492
:105940000000825400ED00E078900A020020034B32
:10595000D8765A6A42F470225A62704700ED00E02D
:105960004FF0894301224FF4B4019A604FF42502AD
:1059700019611A614FF08843C3F80016C3F8002676
:1059800070470000054908B5CA68054B92B2134339
:10599000CB60FFF7E5FF002008BD00BF00ED00E091
:1059A0000800FA050020704700224FF0FF30094B35
:1059B00002F1A0010132102A43F82100F8D1D3F8F6
:1059C0008022002022F00202C3F88022D3F8803225
:1059D000704700BF00E100E0002070470C4BD3F897
:1059E000D02042F00102C3F8D0200022C3F8D82012
:1059F000C3F8DC20074AC3F8E0200122C3F8D8200E
:105A00004FF08052C3F8DC20034AC3F8E02070470F
:105A100000ED00E0E3FFFF0FE1FFFFEF08B500F04E
:105A20006FFC43F65C23002818BF184608BD002011
:105A30007047000043B2002B08DB012200F01F007A
:105A400002FA00F0024A5B0942F823000020704786
:105A500000E100E043B2002B0DDB012200F01F004B
:105A600002FA00F05B09054A203342F82300BFF335
:105A70004F8FBFF36F8F0020704700BF00E100E041
:105A800012F0200310B509D0EFF39483DB074FF039
:105A900012034CBF42F0080222F00802140702F081
:105AA000060448BF43F00403062C09D143F0010269
:105AB00021F04AFF002814BF00206FF07F0010BDC6
:105AC000920702D543F00802F2E74CF2DA20F6E73B
:105AD0000369002BFCDB7047F8B500250326FFF7B0
:105AE000F7FFC561FFF7F4FF436D66F31C63436581
:105AF000036943F000530361036943F0804303618A
:105B0000FFF7E6FF446A0129E4B230D00627436D6F
:105B100067F31C634365036943F000530361036942
:105B200043F080430361FFF7D3FF436A0229DBB2EE
:105B300044EA03241BD01521C36943F40033C36135
:105B4000C36961F30F23C361436D66F31C6343654F
:105B5000036943F000530361036943F08043036129
:105B6000FFF7B6FF436AC561DBB244EA034420464F
:105B7000F8BD38B5FFF7ACFF836A95B265F399239A
:105B80008362FFF7A5FF01294FF00401436D04462E
:105B900061F31C634365036943F0005303610369C8
:105BA00043F08043036104D12046BDE83840FFF74D
:105BB0008FBFFFF78DFF836AC2F30F2262F3992331
:105BC00031228362FFF784FFFFF782FFC36962F32C
:105BD00007030122C361C36943F48033C361FFF744
:105BE00077FFFFF775FF436D61F31C63436503693E
:105BF00043F000530361036943F080430361FFF7FF
:105C000067FFFFF765FFC36962F30703C361C369F9
:105C10006FF31043C361FFF75BFFC5E748B90A4B59
:105C200019B101221A60002070471A6822F001029F
:105C3000F8E70128F7D1054B09B10222F2E71A680B
:105C400022F00202EEE700BF78C2072874C20728DC
:105C5000162238B505462B4C2068FFF739FF836ABA
:105C60006FF308138362436D6FF317034365436D4E
:105C700062F31C634365036943F0005303610369E6
:105C800043F080430361FFF723FF0020FFF708F88C
:105C9000022D0CD101222068FFF71AFF836A62F3FC
:105CA000081383620120FEF7FBFF002038BD042D9E
:105CB000F8D1E36820689A7EFFF70AFF436A62F32F
:105CC0009D534362E3685B7E012B13D12068FFF78D
:105CD000FFFEE36820681979FFF7FEFEE1684B7E5E
:105CE0000A7E03FA02F2104204D1024309792068C5
:105CF000FFF73FFFE3682068DA7EFFF7E9FE836A7B
:105D0000CDE700BF60C20728044BDB681B7B042B78
:105D100002D10220FFF79CBF704700BF60C2072876
:105D2000034BDB68187B042801D1FFF791BF704754
:105D300060C2072873B5234E0446F3680D469B687E
:105D400083421CD9204BA1F10D02B0F5B83F53F8A6
:105D5000223003D3C218B2F5C83F12D9B4F5C83FF8
:105D600003D32344B3F5D83F0BD9184B1A68184B0B
:105D70001B68134305D121461648FEF7BDFD1648A2
:105D80001DE001A96846FEF78FFFFFF7BDFF3068F1
:105D9000FFF79EFE436D64F317034365436D65F3A0
:105DA0001C634365036943F000530361FFF790FEF2
:105DB000FFF7B6FFDDE90001FEF786FF002002B025
:105DC00070BD00BF60C20728E8900A0278C20728A9
:105DD00074C20728A1900A02FEC8FFFF2DE9F04710
:105DE0002A4F0546FB680E469B68144683428AB0DC
:105DF00046D9002A48D00DF108092022002120F0C0
:105E00001F08484605F00FFE4FF0050A684601A935
:105E1000FEF74AFF3868FFF75BFE3868FFF758FE69
:105E2000436D4A4668F317034365436D6AF31C6389
:105E30004365036943F000530361FFF749FE002304
:105E4000386881690133082B42F8041BF9D1DDE978
:105E50000001FEF739FF334605F01F0219F8021062
:105E6000013C03F8011B03EB0501A1EB06010BD07C
:105E70000132202AF2D11E460D4608F12008C5E75E
:105E800003480AB0BDE8F0872046FAE760C2072859
:105E9000FEC8FFFF2DE9F04F424F0446FB680E4657
:105EA0009B68154683428DB017D9B0F5B83F03D330
:105EB0008318B3F5C83F12D9B4F5C83F03D36319AB
:105EC000B3F5D83F0BD9384B1A68384B1B681343CE
:105ED00005D121463648FEF70FFD364812E06846E8
:105EE00001A9FEF7E1FEFFF70FFFFB6824F01F0892
:105EF0009B68984509D3FFF713FFDDE90001FEF722
:105F0000E3FE00200DB0BDE8F08F9D42F3D805EB15
:105F100008029342EFD30DF1100A002DEBD0B146E9
:105F20002022FF215046FFF7AFF904F01F0319F8B4
:105F3000012B013D09EB040B0AF80320ABEB060B28
:105F400002D00133202BF2D103A902A8FEF7ACFE48
:105F50003868FFF7BDFD5146002251F8044B386800
:105F60000132FFF7B5FD082A4461F6D10C223868EA
:105F7000FFF7AEFD436D5C4668F317034365436D61
:105F80004E4662F31C634365036908F1200843F041
:105F900000530361FFF79CFDDDE90201FEF794FE6B
:105FA000BBE700BF60C2072878C2072874C2072871
:105FB000C4900A02FEC8FFFF034B1A780AB1002200
:105FC0001A700020704700BF70C207280020704779
:105FD000F7B5224D2B78002B3CD1214E684601A904
:105FE000FEF762FEFFF790FEF368306819795C8A6D
:105FF0009A7CFFF771FDF168240A91F80EC0CB7B03
:1060000020FA0CFE0EEA030E96454F7B05D120FACE
:1060100007FE0EF0010EA64514D003FA0CFE134045
:1060200003FA0CF220EA0E001043012204F00104EE
:10603000BA4020EA020004FA07F202430979306804
:10604000FFF797FD01232B70FFF76AFEDDE90001E2
:10605000FEF73AFE002003B0F0BD00BF71C2072872
:1060600060C20728F8B5294E3578002D46D1284C56
:10607000294610222046FFF707F9204600F036F99E
:106080000220FFF7E5FD142229461C252068FFF7B2
:106090001FFD436D62F31C634365036943F00053C6
:1060A0000361036943F080430361FFF711FD026A56
:1060B000184BA2601A60184B05FB01F0C7589742B5
:1060C0001ED103440320E360FFF782FF2068FFF73F
:1060D000FFFC836A6FF349238362E368187BFFF751
:1060E000B7FD05222068FFF7F3FC836A62F3030320
:1060F00083620120FEF7D4FD012333700020F8BD38
:1061000001310829D8D1054BDCE700BF70C2072850
:1061100060C207285CC20728F4900A02B8910A02FC
:10612000014BDB689868704760C20728032870B588
:1061300023D88A4223D9144CE568AD68954220D90A
:106140002568841D05EBC400466861F317064660A8
:10615000816862F3170181605BB143686FF3596333
:10616000436005EBC400436843F080734360002044
:1061700070BD436843F00073F2E70448F8E7044851
:10618000F6E70448F4E700BF60C20728FAC8FFFF3B
:10619000F9C8FFFFFEC8FFFF034B02441B68986568
:1061A000081ADA651866704760C2072808B572B623
:1061B000003818BF0120054B1B685A6E60F30002BF
:1061C0005A6601F049F962B608BD00BF60C20728EF
:1061D00008B5044B1868FFF77BFC406E00F0010027
:1061E00008BD00BF60C2072810B5064C217839B938
:1061F00004220548FFF748F800F030F80123237027
:10620000002010BD80C207287CC20728024A936A7A
:1062100043F00C03936270470000014408B5FFF798
:10622000F5FF4FF0894340F4B40240F425001A61B1
:10623000186108BD4FF6FF70FFF7F0BF0123800023
:1062400000F1824000F5802003FA01F1036812B1E9
:1062500019430160704723EA0101FAE7034A00206D
:10626000936843F001039360704700BF000004414E
:10627000472838B50BD80023194A144612F8045B96
:10628000854221D001337E2BF7D1164838BDA0F1CD
:1062900048021F2A4FF00103134C0ADC03FA02F0F4
:1062A000994223690CBF184323EA000020610020B3
:1062B000ECE7683803FA00F0636901290CBF184362
:1062C00023EA00006061F2E794F90200431CEED07B
:1062D00001394A424A4194F90310FFF7AFFFE6E75C
:1062E000D4910A02FDC3FFFF00000441034B036089
:1062F0009A68002042F001029A607047000003444F
:106300002DE9F043964D8DB006AC0FCD0FC495E846
:1063100003004FF0000984E8030000F029F906AFFC
:106320003E787C68042E304608BF002400F03CF91B
:106330008046304600F052F9611C00F101054FEA39
:1063400045154CD0A21C4CD0E31C14BFB4FBF8F490
:106350006C082CB1002322461946304600F054F94F
:106360002A1B05D00123304608FB04F100F04CF94C
:1063700009F10109B9F1030F07F10807D0D1794DEF
:1063800001AC0FCD4FF4E0380FC42B68002523601B
:1063900001AF6E1DF6B2304600F006F9042D04463A
:1063A00040F0B680B0F5804F1DD84FF480420123F5
:1063B000B2FBF0F20021092000F026F90023B8FB1F
:1063C000F4F24FF48041092000F01EF974B9012362
:1063D00022464FF40031092000F016F906E02C4661
:1063E000B7E70024BCE7B0F5E03FE7D90135052D5C
:1063F000CFD1042000F0D8F80446042000F0EEF8D5
:1064000007460620FEF77CFF81460120FEF778FF55
:1064100006460120FEF780FF8046042000F0C4F805
:106420003218013AA2EB0902B2FBF0F205464243F0
:106430000123B2FBF4F24946042000F0E5F806EB34
:1064400008016B1E0B44B3FBF5F36B43B3FBF4F491
:106450007A1CC4EB42120123042000F0D5F803207B
:1064600000F0A2F8064600F09EFF012480460C27AB
:106470003D4DAA88E9886B7AA04554D8013C07FBBA
:106480000454B2FBF6F2637A032000F0BDF8BFF3C8
:106490004F8FBFF36F8F354A136843F010031360BB
:1064A00002F50032136843F01003136002F58032E6
:1064B000136843F01003136002F55022136843F091
:1064C0001003136002F58032136843F01003136069
:1064D00002F58032136843F01003136002F5803236
:1064E000136843F01003136002F58032136843F021
:1064F0001003136002F58032136843F01003136039
:10650000BFF34F8FBFF36F8F00200DB0BDE8F08356
:1065100057F8252090423FF669AFB2FBF0F2012315
:106520000021304658E75BB107FB045090F809C0E2
:10653000BCF1000F04D0808802440134E4B29BE730
:10654000631E07FB0353B2FBF6F25B7A032000F0F5
:106550005BF807FB0453D9889A885B7AEDE700BFA4
:10656000CC930A02E4930A0284980A0200001041C4
:1065700070B50B4E347884B9502221460948FEF795
:1065800083FE084D2C712846013400F06FF80A2C68
:1065900005F10805F6D101233370002070BD00BF5E
:1065A000D4C2072884C20728094B1B7853B10A2894
:1065B0000BD8084B53F8303020205B6903F00F03F1
:1065C000984070476FF4685070470348704700BFA9
:1065D000D4C2072884C20728FCC5FFFF074B1B78DD
:1065E00033B10A2807D8064B53F830301869704782
:1065F0006FF4685070470348704700BFD4C2072843
:1066000084C20728FCC5FFFF2DE9F0411D46134B4E
:1066100004461B78D3B10A281CD8FFF7C5FF104BDE
:10662000B1FBF0F103EBC40753F8343020461E6889
:106630006FF308261E60FFF7D1FFB0EB511F0BD39D
:106640002B463846BDE8F04100F026B86FF468509C
:10665000BDE8F0810348FBE70348F9E7D4C2072807
:1066600084C20728FCC5FFFFFEC5FFFF0379092B85
:1066700096BF074A074B52F823301A6803606FF33E
:10668000DF721A601A68002042F010021A60704728
:10669000F8930A0200C6FFFF2DE9F04101F01F0444
:1066A0000668C4F12000904228BF1046490904EB57
:1066B000000CB161BCF1200F4FF00007F56937D82D
:1066C0004FF00108A4451ED1121A0846F56154097D
:1066D00001EB5215A84220D112F01F0001F1010177
:1066E0000FD021440124B161F26904FA07F1012BB2
:1066F00007F101070CBF0A438A43B842F5D10020D5
:10670000F261BDE8F08108FA04FE012B0CBF45EAF6
:106710000E0525EA0E050134D4E7012B4FF0FF3CAE
:1067200018BF4FF0000C0130B061C6F81CC0D1E7B3
:106730000048E6E7FDC5FFFF2DE9F04190B00546B2
:106740000E4603A809211746984614F0B3FB0446E9
:1067500038B101463B48FEF7CFF8204610B0BDE8FF
:10676000F08120230F2101200DEB030200F032FD08
:10677000044640BB024608AB13F8011BD9B108AB75
:106780001B5908AA1BBA13510434202CF7D14FF41B
:10679000807208A903A814F0F5FB2022044600210A
:1067A0000DEB020005F03FF99CB103A814F0BCFB0F
:1067B00021462548CFE70132202ADDD1234908A808
:1067C00005F0B7F8E3E703A814F0AEFB2146204834
:1067D000C1E70C2200232946CDE9002303A8324655
:1067E00014F024FC044628B103A814F09DFB2146B4
:1067F0001848B0E73A464146169B03A814F00CFD32
:10680000044628B103A814F08FFB21461248A2E7E2
:1068100003460246014603A814F0FEFC0446002885
:10682000F0D1102203A80DEB020114F0EFFD044695
:1068300003A824B114F078FB214608488BE714F034
:1068400073FB8AE720940A0262940A0280A0072858
:1068500041940A0286940A02A8940A02CB940A027E
:10686000A0F5D833B3F5052F10B504460DD201219C
:106870000846FFF7D3F9204621F0DAFD002104464F
:106880000120FFF7CBF9204610BD1624FBE7A0F549
:10689000D833B3F5052F70B504460D4616460FD212
:1068A00001210846FFF7BAF9294620463246FFF78C
:1068B000F1FA002104460120FFF7B0F9204670BD2F
:1068C0001624FBE770B505460A200C461646FEF76F
:1068D00017FD032D03D1202C1CD9042008E06B1ECA
:1068E000012B21D83F2CF8D81F2C02D90020306072
:1068F00070BD012D16D124030119C1F30B0078B12D
:10690000E7220A48FDF7F8FF1420F1E7240300F519
:106910000030F1E70CB10234240300F58020EBE7EE
:106920003160E5E7022DF1D00520E1E7EE940A029F
:10693000704700002DE9F0431F4600238FB0064644
:106940000D4690469DF858900393002A00F09080E1
:10695000002F00F08D8003AAFFF7B4FF0446E0B9D2
:10696000039B53BB022EA5F120051AD0032E00F085
:106970008580012E7ED142490C2303FB05156B7ADD
:106980002BB1286818B100236B72FEF77FFC3846E4
:10699000FEF780FC286030B90D2420460FB0BDE81A
:1069A000F0833849E8E73A46414604F0C2FF012344
:1069B0006F6085F808906B72EFE7731E012B32D978
:1069C000032E05D1002D14BF4FF480544FF44054D2
:1069D00007F12803A3424FD83846FEF75BFC054673
:1069E0000028D9D03A46414604F0A3FF264B0C219B
:1069F0000493002306A88DF814308DF817308DF815
:106A000015908DF816600D9709F028FE3B462A4632
:106A10000120009506A9FFF78FFE38B12846FEF742
:106A200035FC1524B9E74FF48054D1E7039E344474
:106A3000A64211D12822039804A9FFF728FF78B9AC
:106A400003983A4629462830FFF721FF0446284696
:106A50003CB9FEF71BFCA0E73046FFF701FF20B171
:106A60002846FEF713FC162497E706F58056DFE765
:106A7000022492E7052490E70C248EE75B7AFFDE80
:106A800058C40728D8C20728626B73732DE9F043F6
:106A90001E4600238FB080460D4617469DF858903D
:106AA0000393002A7CD0002E7AD003AAFFF70AFFB6
:106AB000044638BB0398F8B9B8F1010FA5F12005D9
:106AC00004D0B8F1020F0ED005241BE037490C2387
:106AD00003FB05156B7A0BB1296831B900236B7282
:106AE0002B6006240EE03249F1E738466A6804F06C
:106AF00020FF6B68336005E0A0F5D833B3F5052FB0
:106B000004D3162420460FB0BDE8F083282204A940
:106B1000FFF764F90028F4D1264B049A9A42E0D199
:106B2000B9F1000F09D0B8F1010F06D19DF8153069
:106B3000032B37D10D9B842B34D89DF81630434559
:106B4000C2D10D98FEF7A6FB054668B30398A0F5E1
:106B5000D733A3F5EC73B3F5052F03D32846FEF71F
