:02000004020AEE
:101000000008002821110A0241650A0299650A02B6
:10101000C9650A02F9650A0229660A0259660A02C6
:10102000000000000000000000000000F5960A0229
:1010300085110A0200000000B7960A0295110A0203
:101040009D110A02A5110A02AD110A02C9660A021F
:10105000BD110A02000000000000000000000000B6
:101060000000000000000000000000000000000080
:1010700000000000000000000000000089660A0275
:101080000000000000000000000000000000000060
:101090000000000000000000000000000000000050
:1010A0000000000000000000000000000000000040
:1010B0000000000000000000000000000000000030
:1010C0000000000000000000000000000000000020
:1010D00000000000A9660A020000000000000000F5
:1010E0000000000000000000000000000000000000
:1010F00000000000000000000000000000000000F0
:10110000424B373233360000000000000000000080
:10111000000000000000000000000000A9660A02B4
:10112000114880F30A88114C114DAC4209DA21684C
:101130006268A368043BA2BFC858D050FAE70C34D9
:10114000F3E70C4B0C4CA34208DA19685A680020EC
:10115000043AA4BF8850FBE70833F4E772B605F001
:101160008FF80BF08BFE000000040028C0130A0269
:10117000E4130A02E4130A0204140A0205F0A2F9B5
:1011800008F0B8BA05F09EF9FFF7FCBF05F09AF930
:1011900008F091BA05F096F9FFF7FCBF05F092F957
:1011A000FFF7FCBF05F08EF9FFF7FCBF05F08AF9E9
:1011B000FFF7FCBF05F086F905F086BA05F082F965
:0411C000FFF7FCBF7A
:101240007FE97FE90BF00EB87FE97FE90AF01CBF68
:101250007FE97FE90AF08CBA7FE97FE90BF0A6B954
:101260007FE97FE90AF002BA7FE97FE90AF078BDF9
:101270007FE97FE90AF013BB7FE97FE90AF046BD09
:101280007FE97FE90AF01ABD7FE97FE90BF032BB05
:101290007FE97FE90BF098B87FE97FE90AF080B930
:1012A0007FE97FE90AF0BCBD7FE97FE90AF0BEBBB8
:1012B0007FE97FE90AF09FBA7FE97FE90BF0DABBAB
:1012C0007FE97FE90AF001BA7FE97FE90AF076B9A0
:1012D0007FE97FE90AF0A1B97FE97FE90AF0C5BAA1
:1012E0007FE97FE90AF046BB7FE97FE90AF000BAAF
:1012F0007FE97FE90AF0ACBA7FE97FE90AF0B2BC86
:101300007FE97FE90AF056BA7FE97FE90AF084BCF9
:101310007FE97FE90AF03FBA7FE97FE90AF056BB2F
:101320007FE97FE90BF094BC7FE97FE90AF004BA1A
:101330007FE97FE90AF062B97FE97FE90AF07EB9C7
:101340007FE97FE90BF0F6B97FE97FE90BF080B820
:101350007FE97FE90BF068B87FE97FE90AF032BCEA
:101360007FE97FE90AF0C8BD7FE97FE90AF091B91A
:101370007FE97FE90AF0CABF7FE97FE90AF08ABB0B
:101380007FE97FE90AF026BA7FE97FE90AF0B8BA77
:101390007FE97FE90AF020B97FE97FE90AF0AABB7B
:1013A0007FE97FE90AF0DCBB7FE97FE90AF0D4BF7F
:1013B000000000000000000000000000000000002D
:1013C000C0A90C02007601288002000060B50A0264
:1013D000C07300284000000040B50A022008002821
:0413E00020000000E9
:1013E40080780128603400000074002800020100A5
:1013F40040080028801300000008002804000000B2
:1014040001015F5F0301000070710C021F01000005
:10141400AD160A02002000000000000001000000D8
:1014240001000000000000000000000088350128D1
:1014340000000000700000007E710C0280000000BB
:101444000007000001000000D9160A020100000094
:1014540001015F5F0001000089710C021F000000A0
:101464002D560A02000800000000000003000000DE
:10147400010000000000000000000000C01300286C
:101484000000000080000000700000004200000026
:1014940093710C02600000000107000001000000CD
:1014A400E1540A020100000001015F5F0101000034
:1014B400B1710C021F0100009D300A028006000079
:1014C4000000000000000000010000000000000017
:1014D40000000000D859012800000000BC710C0273
:1014E400700000000207000001000000A1300A02A1
:1014F4000100000000015F5F04010000E1710C02C3
:101504001F030000F5450A0200050000000000006A
:1015140000000000030000000000000000000000C4
:101524005860012800000000F1710C024000000026
:101534000005000001000000000000001000000091
:101544000E720C02410000000005000001000000C2
:10155400000000002000000024720C024200000081
:101564000004000001000000000000004000000032
:1015740000015F5F0F0100003F720C021F030000B7
:10158400D1480A0200080000000000000200000028
:10159400060000000000000000000000A86D012803
:1015A4000000000080000000400000004A720C02AD
:1015B400A000000000050000010000000000000081
:1015C4001000000058720C02A10000000005000089
:1015D40001000000000000002000000068720C02FE
:1015E400A20000000005000001000000000000004F
:1015F4004000000076720C02A30000000005000009
:1016040001000000000000008000000084720C0251
:10161400A40000000005000001000000000000001C
:10162400000100009B720C02A500000000050000F0
:1016340001000000000000000002000000015F5FE4
:101644000000000000000000FE030000C1970A0231
:101654000010000000000000000000000000000076
:101664000000000000000000407B01280000000092
:1016800038B500250448294600F5E0442268656025
:101690000BF0E3FC256038BD00B40028024B5B680A
:1016A00003600020704700BF0024012808B500F047
:1016B000CBF868B94FF48041064815F0B1FB0BF048
:1016C000F3FC18B9BDE8084019F0AAB96FF0920010
:1016D00008BD00BF007400282DE9F04F05680446DE
:1016E0009FB0002D40F0A6802022294601A80BF0D3
:1016F000B4FC11AE2022294609A80BF0AEFC34221E
:10170000294630460BF0A9FC042304F11C0252F8D0
:1017100004191F46013B71B334233246002160682F
:101720000BF0ECFB342828D1119B402B25D8012548
:10173000DFF80891CDE9016004F1140801AE09F564
:10174000E04ABD421FD3042604F12C0353F80429B8
:10175000B446013EB2B30026394A04F120011368B1
:1017600009A801EB8C08A2F5E049414543D106B137
:101770001360664628E0002BC9D16FF08305284628
:101780001FB0BDE8F08F58F8043BDAF80020D81CF1
:1017900020F00300C2F5E041884204D9FFF770FF52
:1017A0006FF08C05EBE7104402EB090B2946CAF8F1
:1017B00000005A4660680BF0A1FB0135F06046F866
:1017C00008BFBEE7002EC1D1A2681D4B39465A6042
:1017D000119A1C4B01A853F82250334609AAA84776
:1017E000002705460DF12408B74208F1080819D171
:1017F000FFF746FFC3E751F804EBC3F5E04A0EF1EB
:10180000030525F00305554500F1080006D803EB54
:10181000090640E9026E2B440126A6E7002EBDD042
:101820001360BBE7394658E9022360680BF068FB98
:101830000137D9E76FF08505A1E700BF00B40028A4
:1018400000240128CC520A0208B54FF48C52002122
:1018500002480BF002FC002008BD00BF082401284C
:101860000023F7B5074601A80E4615460193FFF77A
:1018700015FFA0B93368A3B1082B30D84FF40C7111
:10188000013B4B43194AD118D358012B27D14A6841
:10189000019B9A4214BF6FF087006FF0880003B07D
:1018A000F0BDFDB14FF40C7C104A2B600CFB03F42F
:1018B000A1589E46013369B94FF0010E02EB040CAA
:1018C00042F804E0019910341444CCE90117336064
:1018D0002C60E4E7082BE9D16FF08400DFE76FF0BC
:1018E0008700DCE76FF08600D9E700BF08240128F5
:1018F0000023F7B50568064601A80193FFF7CEFE61
:10190000044620BB013D072D24D84FF40C736B43D4
:10191000124FF958FA1801291CD1506801998842D0
:1019200018D11033F81893680021013B042B96BF9F
:101930000B4A224632F813200BF08FFB4FF40C7346
:101940005D4300237A19C2E901337B51336020469D
:1019500003B0F0BD6FF08604F9E700BF082401284A
:10196000D0530A02002373B5064601A80C4615465B
:101970000193FFF793FEA0B9611E072913D84FF416
:101980000C725143094B5C585A18012C0BD19468C6
:10199000B44208D15468019A944204D110311944D8
:1019A000296002B070BD6FF08800FAE708240128B2
:1019B0002DE9F3411446002201290546019208460B
:1019C0001ED1013B012B1BD86B68342B18D16368E7
:1019D000042B15D1D4E902782B6826681D6901AA69
:1019E00029463560FFF7BEFF38B9424639460198AF
:1019F000356004F10C0318F07DFD02B0BDE8F08104
:101A00006FF08000F9E737B5044618460023013926
:101A10000129019318D8012816D16368342B13D1FA
:101A20005368042B10D12368D4E902541969136850
:101A300001AA1960FFF796FF20B9224629460198AE
:101A400017F042FD03B030BD6FF08000FAE72DE9DA
:101A5000FF41044618460023012900932BD1012899
:101A600029D15368042B26D16368342B23D12368F2
:101A7000166819696A46D3E90287019101A9FFF73F
:101A8000EFFE044698B9019B02AD294640463360FB
:101A900000F0ECFB044638B995E806003B46009898
:101AA00017F0FAFC044610B13046FFF721FF20463C
:101AB00004B0BDE8F0816FF08004F8E72DE9FF4144
:101AC000044618460023012900932BD1012829D16F
:101AD0005368042B26D16368342B23D123681668FE
:101AE00019696A46D3E90287019101A9FFF7B8FE97
:101AF000044698B9019B02AD29464046336000F088
:101B0000B5FB044638B995E806003B46009817F047
:101B1000CFFC044610B13046FFF7EAFE204604B081
:101B2000BDE8F0816FF08004F8E72DE9FF4114462D
:101B3000002201390129039222D8013B012B1FD831
:101B40004368342B1CD16368042B19D1D0E90256A9
:101B5000D4E9027803680120196923681960E260FA
:101B600003AAFFF7FFFE40B90C343B463246294634
:101B7000CDE90084039817F0C5FC04B0BDE8F081FE
:101B80006FF08000F9E72DE9F341154600220129A5
:101B900004460192084624D1013B012B21D86368F9
:101BA000342B1ED16B68042B1BD1D5E90278236836
:101BB0002E6819693160EA6001AAFFF7D3FE044676
:101BC00058B942463946019805F10C0317F0B4FCA8
:101BD000044610B93046FFF78BFE204602B0BDE840
:101BE000F0816FF08004F8E737B50024012905463D
:101BF000019418461ED1012B1CD16B68342B19D1CE
:101C00005368042B16D12B681568196901AA29603D
:101C1000FFF7A8FE38B9019817F09CFB0446284648
:101C200024B1FFF765FE204603B030BDFFF760FE2C
:101C30000446F8E76FF08004F5E72DE9F047013935
:101C40000129144686B01ED8012B1CD14368342BC1
:101C500019D1D0E90278D2E9009A036804AD294687
:101C60009868DE6800F002FB50B90434CDE902A4A4
:101C7000CDE900893B4695E80300324618F074FC34
:101C800006B0BDE8F0876FF08000F9E72DE9F04776
:101C900001390129144686B01ED8012B1CD1436896
:101CA000342B19D1D0E90278D2E9009A036804AD47
:101CB00029469868DE6800F0D9FA50B90434CDE9B5
:101CC00002A4CDE900893B4695E80300324617F0AF
:101CD0004FFC06B0BDE8F0876FF08000F9E773B500
:101CE00000240129009422D1012B20D15368042B18
:101CF0001DD14368342B1AD1016815680B69CE6871
:101D000001936A4603202B6001A9FFF7A9FD044651
:101D100050B9019B314600982B6016F0E5FD044652
:101D200010B12846FFF7E4FD204602B070BD6FF009
:101D30008004F9E737B5002401390129019419D845
:101D4000012B17D14368342B14D15368042B11D1C4
:101D5000D0E90245036803201969136801AA1960D4
:101D6000FFF700FE20B92A462146019816F0DBFD58
:101D700003B030BD6FF08000FAE72DE9F34115465E
:101D800000220129019225D1013B012B22D8436871
:101D9000342B1FD16B68042B1CD1D5E90278036862
:101DA0002E68196903203160EA6001AAFFF7DAFDA5
:101DB000044658B942463946019805F10C0316F01D
:101DC000C6FD044610B93046FFF792FD204602B02A
:101DD000BDE8F0816FF08004F8E7F7B50024013921
:101DE0000129019420D8012B1ED14368342B1BD12B
:101DF0005368042B18D1D0E9026703681568196984
:101E00000320296001AAFFF7ADFD044648B93A4610
:101E10003146019816F0ACFD044610B92846FFF78C
:101E200067FD204603B0F0BD6FF08004F9E737B5D9
:101E30000024012901941FD1012B1DD14368342BAB
:101E40001AD15368042B17D1036815681969032048
:101E5000296001AAFFF786FD38B9019816F039FD0F
:101E60000446284624B1FFF743FD204603B030BDA9
:101E7000FFF73EFD0446F8E76FF08004F5E713B581
:101E800000240129CDE900441BD1012B19D143685D
:101E9000342B16D15368042B13D103681468032024
:101EA0006A461969FFF75EFD48B92146032001AA79
:101EB000FFF7D6FC18B9DDE9000116F0CBFD02B042
:101EC00010BD6FF08000FAE773B5013901290546AE
:101ED000144613D8012B11D84368342B0ED1D5E901
:101EE000021200260368D868D4E9003544F8046F6C
:101EF000CDE9005416F06AFD02B070BD6FF08000AD
:101F0000FAE713B5013902290ED86BB94368342BAF
:101F10000AD14369046800938168D0E90323E0682B
:101F200016F065FD02B010BD6FF08000FAE72DE9F4
:101F3000FF410024012900942DD1012B2BD153689E
:101F4000042B28D14368342B25D1036815681969FF
:101F5000D3E9028701916A462960022001A9FFF7AF
:101F60007FFC044698B9019B02AE314640462B6087
:101F700000F07CF9044638B996E806003B46009824
:101F800016F0DEFD044610B12846FFF7B1FC2046EE
:101F900004B0BDE8F0816FF08004F8E72DE9FF415F
:101FA0000024012900942DD1012B2BD15368042B3F
:101FB00028D14368342B25D1036815681969D3E902
:101FC000028701916A462960022001A9FFF748FCB7
:101FD000044698B9019B02AE314640462B6000F0A2
:101FE00045F9044638B996E806003B46009816F0D5
:101FF000B3FD044610B12846FFF77AFC204604B032
:10200000BDE8F0816FF08004F8E737B500240139AE
:102010000129019419D8012B17D14368342B14D10D
:102020005368042B11D1D0E90245036802201969D5
:10203000136801AA1960FFF795FC20B92A462146CA
:10204000019816F095FD03B030BD6FF08000FAE7FF
:102050002DE9F341154600220129019225D1013BCA
:10206000012B22D84368342B1FD16B68042B1CD161
:10207000D5E9027803682E68196902203160EA60A8
:1020800001AAFFF76FFC044658B942463946019849
:1020900005F10C0316F07EFD044610B93046FFF73B
:1020A00027FC204602B0BDE8F0816FF08004F8E71D
:1020B000F7B5002401390129019420D8012B1ED144
:1020C0004368342B1BD15368042B18D1D0E9026725
:1020D0000368156819690220296001AAFFF742FC0C
:1020E000044648B93A463146019816F033FE044694
:1020F00010B92846FFF7FCFB204603B0F0BD6FF097
:102100008004F9E737B50024012901941FD1012B80
:102110001DD14368342B1AD15368042B17D103689F
:10212000156819690220296001AAFFF71BFC38B95C
:10213000019816F0A1FC0446284624B1FFF7D8FB0D
:10214000204603B030BDFFF7D3FB0446F8E76FF03D
:102150008004F5E72DE9F04701390129144686B0DE
:102160001ED8012B1CD14368342B19D1D0E9027839
:10217000D2E9009A036804AD29469868DE6800F049
:1021800075F850B90434CDE902A4CDE900893B4685
:1021900095E80300324616F0F7FD06B0BDE8F0877B
:1021A0006FF08000F9E72DE9F0470139022986B088
:1021B0001CD8DBB94368342B18D1D0E90278D0E9B8
:1021C000049A056804AC2146A868EE6800F04EF851
:1021D00048B9CDE9019ACDF800803B4694E8030068
:1021E000324616F0E6FD06B0BDE8F0876FF08000DD
:1021F000F9E72DE9F0418846164607468AB000B354
:10220000FAB135466C462822002168460AF025FFBF
:102210000FCC0FC50FCC0FC594E8030085E8030071
:1022200000203B8833807B687360FB6833613B69C7
:1022300073617B887380BB68C6E902380AB0BDE869
:10224000F0816FF08000F9E730B561B158B1D0E9A5
:1022500001230468D0E90405C1E903050020C1E9B0
:1022600000428B6030BD6FF08000FBE7002337B584
:10227000054601A80C460193FFF710FA18B924B1DE
:10228000019B2560636003B030BD6FF08000FAE70A
:102290002DE9F04F01390229844614468FB031D818
:1022A000012B2FD84368342B2CD1DCE902AB136807
:1022B00005680B9353680022D5E9020609930DF1D6
:1022C0003008DCF810302F6BDCF814904146626067
:1022D0000A93FFF7CBFF90B9099BCDE9029A0693C9
:1022E0000B9B0434CDE904B30A9B0794CDE900733A
:1022F000324698E8030005F1200317F0C1F90FB04A
:10230000BDE8F08F6FF08000F9E72DE9F04F01395B
:102310000229844614468FB031D8012B2FD8436848
:10232000342B2CD1DCE902AB136805680B9353689E
:102330000022D5E9020609930DF13008DCF81030CF
:102340002F6BDCF81490414662600A93FFF78EFF12
:1023500090B9099BCDE9029A06930B9B0434CDE911
:1023600004B30A9B0794CDE90073324698E8030052
:1023700005F1200317F01EFA0FB0BDE8F08F6FF0E3
:102380008000F9E72DE9FF410024012900942AD1BA
:10239000012B28D14368342B25D1036815681969AE
:1023A000D3E9028701916A462960052001A9FFF758
:1023B00057FA044698B9019B02AE314640462B605D
:1023C000FFF754FF044638B996E806003B460098EC
:1023D00017F04AFB044610B12846FFF789FA204659
:1023E00004B0BDE8F0816FF08004F8E72DE9FF410B
:1023F0000024012900942AD1012B28D14368342BD1
:1024000025D1036815681969D3E9028701916A46E5
:102410002960052001A9FFF723FA044698B9019B1A
:1024200002AE314640462B60FFF720FF044638B924
:1024300096E806003B46009817F022FB044610B1D0
:102440002846FFF755FA204604B0BDE8F0816FF04A
:102450008004F8E737B50024012901941FD1012B2E
:102460001DD14368342B1AD15368042B17D103684C
:10247000156819690520296001AAFFF773FA38B9B0
:10248000019817F031FA0446284624B1FFF730FAD4
:10249000204603B030BDFFF72BFA0446F8E76FF093
:1024A0008004F5E72DE9F0471546002286B00129A2
:1024B00005922ED1023B012B2BD84368342B28D117
:1024C0006B68042B25D1D5E90478D5E9029A036815
:1024D0002E68196905203160EA606A6105AAFFF774
:1024E00041FA044688B905F10C03CDE901A342463F
:1024F00039460598CDF8009005F1140317F076FBE6
:10250000044610B93046FFF7F3F9204606B0BDE89F
:10251000F0876FF08004F8E773B5144600220129B4
:1025200001921CD1022B1AD14368342B17D1636856
:10253000042B14D1D4E902560368052019692368D5
:102540001960E26001AAFFF70DFA30B93246294658
:10255000019804F10C0318F0A5F802B070BD6FF0FB
:102560008000FAE737B5002401390129019419D810
:10257000012B17D14368342B14D15368042B11D18C
:10258000D0E90245036805201969136801AA19609A
:10259000FFF7E8F920B92A462146019817F07CFA9E
:1025A00003B030BD6FF08000FAE737B50024012991
:1025B000019419D1012B17D14368342B14D15368DE
:1025C000042B11D103680520D3E906451969136866
:1025D00001AA1960FFF7C6F920B92A4621460198D9
:1025E00017F07CFA03B030BD6FF08000FAE72DE9F8
:1025F000FF411446002201390129039221D8013BF1
:10260000012B1ED84368342B1BD16368042B18D1CF
:10261000D0E90256D4E90278036803AA196923684D
:1026200005201960FFF79EF940B90C343B4632464D
:102630002946CDE90084039817F0A6FA04B0BDE856
:10264000F0816FF08000F9E737B5002401390129E6
:10265000019419D8012B17D14368342B14D1536836
:10266000042B11D1D0E902450368052019691368CC
:1026700001AA1960FFF776F920B92A462146019888
:1026800017F058FA03B030BD6FF08000FAE72DE97B
:10269000FF47154600220229039228D1013B012B56
:1026A00025D84368342B22D16B68042B1FD1D0E985
:1026B000029AD5E9027803682E681969052031600D
:1026C00003AAFFF74FF9044668B942463946CDE9F7
:1026D000009A039805F10C0317F0C4FA044610B9E8
:1026E0003046FFF705F9204604B0BDE8F0876FF0EB
:1026F0008004F8E72DE9F04701390129144686B036
:102700001ED8012B1CD84368342B19D1D0E902788C
:10271000D2E9009A036804AD29469868DE68FFF79D
:10272000A5FD50B90434CDE902A4CDE900893B46AA
:1027300095E80300324616F0BDFB06B0BDE8F08711
:102740006FF08000F9E72DE9F0470139022986B0E2
:102750001CD8DBB94368342B18D1D0E90278D0E912
:10276000049A056804AC2146A868EE68FFF77EFD70
:1027700048B9CDE9019ACDF800803B4694E80300C2
:10278000324616F0F7FB06B0BDE8F0876FF0800028
:10279000F9E72DE9F04701390129144686B01ED822
:1027A000012B1CD84368342B19D1D0E90278D2E927
:1027B000009A036804AD29469868DE68FFF756FD65
:1027C00050B90434CDE902A4CDE900893B4695E82F
:1027D0000300324616F032FC06B0BDE8F0876FF019
:1027E0008000F9E72DE9F0470139022986B01CD8AD
:1027F000DBB94368342B18D1D0E90278D0E9049AC8
:10280000056804AC2146A868EE68FFF72FFD48B9BB
:10281000CDE9019ACDF800803B4694E803003246AA
:1028200016F06EFC06B0BDE8F0876FF08000F9E7A7
:102830002DE9F04F01390229144697B047D8012BF2
:1028400045D84368342B42D1D0E90283D4E900B69D
:1028500007930369026808934369D2E9029700214C
:1028600028220CA80AAD09930AF0F7FB294648462E
:10287000FFF7FCFC40BB95E803000CAA15F0A9FD8E
:1028800010BB0CA8BDF830A0BDF8329018F018F9B4
:1028900044F201012AF440528A4204D109F10703AB
:1028A000B6EBD30F16D3099B04340293089BCDE9F2
:1028B00004640193079BCDF80CB000933A4695E869
:1028C0000300434616F030FC17B0BDE8F08F6FF000
:1028D0008000F9E76FF08900F6E72DE9F04F013944
:1028E000022914468BB025D8012B23D84368342BFA
:1028F00020D1D0E90278D0E9049AD4E900B3026883
:1029000008AD29469068D6680793FFF7AFFC70B909
:10291000079BCDE9019ACDE903B304340594CDF8C2
:1029200000803B4695E80300324616F08DFC0BB064
:10293000BDE8F08F6FF08000F9E7000073B5044642
:1029400000200129009026D1012B24D150680428B1
:1029500021D16368342B1ED12368166819696A4631
:10296000019101A9DD68FEF77BFF044630B9019BA8
:1029700000983360094B9D4203D10560204602B0A8
:1029800070BD294617F0E7FC04460028F6D0304613
:10299000FEF7AEFFF2E76FF08004EFE7000F00B044
:1029A000012937B5044618D1012B16D14368342BC1
:1029B00013D15068042810D10025236814681969C0
:1029C00001AA0195FEF7CEFF10B1256003B030BD1E
:1029D0002146019817F0BEFAF8E76FF08000F5E79E
:1029E000012913B512D18BB94268342A0ED101687E
:1029F00001AA4C69042009690193FEF7B3FF18B9D5
:102A00002146019817F0AFFA02B010BD6FF08000B8
:102A1000FAE700002DE9F3410139012946D8002BDE
:102A200044D14268342A41D1D0E9026701686A463C
:102A3000B1F80480042009690093FEF793FF04466F
:102A400010BB009D1B4B2A689A4227D140F20123FC
:102A500098451DD101A8FEF721FE0446A0B907F153
:102A600004084146012014F015FA686298B1042266
:102A70000DEB02010AF077FA686A3A4631460430F3
:102A80000AF071FAC5F82880204602B0BDE8F0814E
:102A90006FF08604F8E76FF08C04F5E73B463246AA
:102AA0004146284617F076FC0446EDE76FF08004B7
:102AB000EAE700BF000F00B0012937B516D1012B9E
:102AC00014D84368342B11D1D2E9004500220368A1
:102AD00001920420196901AAFEF744FF20B92A4691
:102AE0002146019817F04EFA03B030BD6FF0800018
:102AF000FAE701297FB51BD1D3B94268342A17D12F
:102B0000016801AA8E688D88042009690193FEF787
:102B100029FF58B902AC21463046FFF7A7FB28B978
:102B200094E80C002946019817F03DFC04B070BDF4
:102B30006FF08000FAE700002DE9F041022990B023
:102B400057D1012B55D14368342B52D1C368142B74
:102B50004FD15668042E4CD1002503682946D3F87E
:102B600010808768146806A8282202950AF075FA72
:102B70004146304602AACDE90455FEF7F3FE48BBB4
:102B800003A8FEF78BFD28BB3846039906AAFFF77A
:102B900030FBF8B90298184B02689A421DD1BDF873
:102BA0001A300733B3F5027F4FEAD3061BD2002356
:102BB00000F16C05CDE900561A46D0E9090106F08E
:102BC000F7FA98B93246294604AB06A815F06EFD0F
:102BD000049B236010B0BDE8F081014604AA06A85A
:102BE00017F02CFBF4E76FF08C00F1E76FF0920028
:102BF000EEE76FF08000EDE7000F00B0012973B53C
:102C0000044638D1012B36D14368342B33D1506878
:102C1000042830D1236800241E69156831460194C8
:102C200001AA2E60FEF79EFE014608BB019C2E60A5
:102C30002268124B9A4212D1606A28B1A26A0AF045
:102C40000CFA606A14F02CF94FF408720021204647
:102C50000AF003FA2846FEF74BFE044608E0204639
:102C600017F024F804460028F4D02846FEF740FE6A
:102C7000204602B070BD6FF08004F9E7000F00B08D
:102C80002DE9F0410139012986B021D803BB426802
:102C9000342A1DD1D0E90267016803AAD1F808805F
:102CA0008D88042009690393FEF75CFE68B904ACC3
:102CB00021464046FFF7DAFA38B9CDE900672946E0
:102CC00094E80C00039817F0A1FB06B0BDE8F08172
:102CD0006FF08000F9E72DE9F0470139012914462A
:102CE00086B01ED8012B1CD84368342B19D1D0E9EB
:102CF000027AD2E90089036804AD29469868DE6843
:102D0000FFF7B4FA50B90434CDE90294CDE900A834
:102D10003B4695E80600304617F01FFD06B0BDE8BB
:102D2000F0876FF08000F9E7F0B5023901298FB024
:102D300029D8012B27D14368342B24D1C368142B05
:102D400021D15368042B1ED1D0E90456876814683A
:102D50000021282204A80AF080F9002301A8019389
:102D6000FEF79CFC68B93846019904AAFFF741FABE
:102D700038B902AB3246294604A815F097FC029BED
:102D800023600FB0F0BD6FF08000FAE730B5022984
:102D900085B020D1012B1ED14368342B1BD1C368D1
:102DA000042B18D15368042B15D1836801A81D6822
:102DB000002314680193FEF771FC50B9019B029542
:102DC000039302AA92E8030019F065FB08B9029B7D
:102DD000236005B030BD6FF08000FAE701291FB510
:102DE00014D19BB94268342A10D1026801A89468B2
:102DF0000193FEF753FC38B9019B0294039304AB93
:102E000013E9030019F065FB04B010BD6FF08000FA
:102E1000FAE701291FB514D19BB94268342A10D1B1
:102E2000026801A894680193FEF738FC38B9019B49
:102E30000294039304AB13E9030015F09FFA04B066
:102E400010BD6FF08000FAE730B501298FB024D1B2
:102E5000012B22D14368342B1FD15368142B1CD172
:102E6000036814680021282204A89D680AF0F5F878
:102E7000002301A80193FEF711FC60B9019B2846CD
:102E8000194604AA0295039315F0A3FA18B921462E
:102E900004A8FFF7D9F90FB030BD6FF08000FAE752
:102EA00010B501298CB020D1012B1ED14368342BE1
:102EB0001BD15368142B18D114680021282202A8B2
:102EC0000AF0CBF801A8FEF7E9FB60B920460199AA
:102ED00002AAFFF78EF930B902A817F0F1FD2146DA
:102EE00002A8FFF7B1F90CB010BD6FF08000FAE74F
:102EF000F0B50129144687B01CD1012B1AD84368BC
:102F0000342B17D1D2E90056036803A89F68002329
:102F10000393FEF7C3FB58B9039B0434059304974E
:102F2000009406A9334611E903002A4615F000FB78
:102F300007B0F0BD6FF08000FAE7F0B50129144644
:102F400087B01CD1012B1AD84368342B17D1D2E992
:102F50000056036803A89F6800230393FEF79EFBB7
:102F600058B9039B043405930497009406A933468B
:102F700011E903002A4615F05EFB07B0F0BD6FF0C3
:102F80008000FAE701291FB514D19BB94268342AA1
:102F900010D1026801A894680193FEF77FFB38B94D
:102FA000019B0294039304AB13E9030019F0AEFAFA
:102FB00004B010BD6FF08000FAE770B5022990B040
:102FC0002DD1012B2BD14368342B28D15368042BEE
:102FD00025D1C368142B22D103681468866828227F
:102FE000002106A89D680AF038F8002301A8019383
:102FF000FEF754FB88B93046019906AAFFF7F9F8A5
:1030000058B9019B28460593059902AB06AA049579
:1030100015F0BBFB08B9029B236010B070BD6FF0C8
:103020008000FAE730B502298FB026D1012B24D1D8
:103030004368342B21D1C368142B1ED15368042B51
:103040001BD1146885682822002104A80AF005F81D
:10305000002301A80193FEF721FB60B928460199DE
:1030600004AAFFF7C6F830B902A904A817F006FCB5
:1030700008B9029B23600FB030BD6FF08000FAE703
:10308000012908D1012B06D84368342B03D1D2E99A
:10309000000117F00BBA6FF08000704700F0C6B85F
:1030A0006FF47A72F0B54A4B0446186003688DB02D
:1030B0001344032B00F28980DFE803F0022A5073E7
:1030C000002300220021CDE9082303690691082B83
:1030D00002D06FF0800561E08569042DF9D1466961
:1030E00008AA406809F00AFF0828F2D12B460221FD
:1030F000606806AA09F002FF0428EAD1069BA068CE
:10310000CDE90063DDE9082300F008F9054645E054
:10311000002300220021CDE9082303690591082B33
:10312000D7D14569042DD4D1066A08AA406809F0B0
:10313000E5FE0828CDD12B460121606805AA09F0DB
:10314000DDFE0428C5D106ABCDE90163059BA0686F
:103150000093DDE9082300F035F9D7E700230022CA
:10316000CDE906230369082BB3D1076A0C2FB0D130
:103170000021406806AA09F0C1FE0828A9D1DDE9AE
:10318000062308AEA068009600F070F9054628B93D
:1031900001463B463246606809F0B2FE28460DB053
:1031A000F0BD00230022CDE908230369082B90D14C
:1031B0000021406808AA09F0A1FE082889D1DDE9AC
:1031C0000823A06800F078F9A0E76FF08505E5E72F
:1031D000885501280B46044910B40C6802460121A9
:1031E000606810BC09F08ABE885501280B46044966
:1031F00010B40C6802460021606810BC09F080BE63
:10320000885501281FB5084CCDE90023039003A978
:103210000422204609F0A7FE08226946201D09F075
:10322000A2FE04B010BD00BFBC59012870B5354BDB
:1032300086B09E6AB0470369012B03D06FF080000F
:1032400006B070BDB047304C8368A360B047037DC3
:103250006846237605F088FF0028EFD1009BA2681E
:1032600063609DF808305343019AE360B2FBF3F3C7
:103270002382B0470369012BE0D1B047234D836817
:10328000AB60B047037D03A82B7605F05BFF0028F9
:10329000D4D1039BAA686B609DF814302146534338
:1032A000049AEB60B2FBF3F319481A4A2B8200F040
:1032B0003AFA0028C4D1164800F075FAB0B9154A98
:1032C0001249154800F02FFA0028B9D1124800F031
:1032D0006AFA0028B4D0104800F07FFA0028AFD175
:1032E0000D4806B0BDE8704000F05DBA084800F037
:1032F00074FA0028A4D1064800F055FA00289FD19E
:10330000DDE700BFACAC0A02C0730028DC73002804
:103310008C590128E8530A02A45901282DE9FF47D6
:1033200052EA03010546DDE90C643BD034F007089E
:103330003BD1FFF767FF1E4F1E4B1F49B5F5807F3E
:1033400018BF1F461D4D38462A4600F048FA28B9D6
:10335000AB68DB0705D56FF0840020E010F18C0F1F
:103360001DD144F4403ADFF85090154CB6F5806F0B
:10337000354628BF4FF4806511482946FFF72AFFDC
:103380003346524649463846CDE90184009500F05F
:1033900049FA20B9761B2AF4403AA844E6D104B091
:1033A000BDE8F0876FF08600F9E76FF08500F6E77B
:1033B000A45901288C590128BC590128C859012851
:1033C0008C5501282DE9F74F52EA030104460C9E63
:1033D000DDF838903DD0FFF715FF1F4F1F4B2049F8
:1033E000B4F5807F18BF1F461E4C3846224600F0B9
:1033F000F6F9054600BB2468B4422AD30D9BA41BF2
:103400009C4228BF1C46DFF86080DFF854A0C9F852
:103410000040B4F5806FA34628BF4FF4806B33465D
:103420005A4651463846CDF8008000F0F4FA054679
:1034300030B10023C9F80030284603B0BDE8F08F52
:1034400059464046FFF7D2FEB4EB0B045E44E0D190
:10345000F2E76FF08605EFE7A45901288C5901289F
:10346000BC590128C85901288C55012870B552EA69
:1034700003010646049C13D0FFF7C4FE0A4D0B4817
:103480000B4B2A46B6F5807F18BF1846094900F055
:10349000A6F920B92B68C4E90033AB68A36070BDFE
:1034A0006FF08600FBE700BFC8590128A459012826
:1034B0008C590128BC59012852EA030138B5054648
:1034C00017D0FFF79FFE0E4C0E4B0F49B5F5807FCE
:1034D00018BF1C460D4D20462A4600F080F950B911
:1034E000AB68DB0708D42046BDE83840064900F049
:1034F00083BA6FF0860038BD6FF08400FBE700BF31
:10350000A45901288C590128BC590128C8590128FF
:1035100008B5036800209B689847002818BF6FF023
:10352000910008BDF8B51D46036804465B680E4669
:10353000174698470B4BC0F3410013F820206368EF
:103540000699E0681D442368B1FBF2F200FB0650C7
:1035500039469B6998470028B4BF6FF0910000205E
:10356000F8BD00BFDC530A020020704770B5044666
:103570000E460025E368AB4201D8002070BD6068AC
:1035800006FB030023682844DB69984710B9A36849
:103590001D44EFE76FF09100F0E700002DE9F347DD
:1035A0000A9C80469146002C54D04668C2681E444E
:1035B000036802FB01665B689847274BC0F3410034
:1035C00013F82070B6FBF7F57D43AE421ED0D8F855
:1035D0000030012228465B6901A99847002804DAD7
:1035E0006FF0910002B0BDE8F087711B63189F4235
:1035F0008EBF2546BB1BED1801AB2A464846194431
:1036000009F0B1FC641B02D10020EBE70025A742C2
:1036100010D8B4FBF7FAD8F8003052465B6909EBD2
:103620000501701998470028DADB0AFB07F7E41B4D
:103630003D44E9D0D8F8003001225B6901A9701936
:1036400098470028CCDB224601A909EB050009F0C8
:103650008AFCD9E72046C5E7DC530A022DE9F04F82
:1036600003688BB002AA04460D46DF6800F02FFC09
:1036700030BB07A800F011FF0146002850D1DDE95A
:10368000026A202202A8DDF8149009F0E6FC29461F
:10369000204602AA00F054FD90B983468046236874
:1036A000DB8A5B450FD83B464A4631462046CDE98A
:1036B00000A800F0DFF918B956BB204600F0F2FB75
:1036C0000BB0BDE8F08FAB451FD05946204602AA8B
:1036D00000F0FDFB0028F3D1029BB3420ED107A8F6
:1036E00000F0DBFE50B9039B534507D99F4228BF2A
:1036F0001F46A3EB09030393059B984459462046B4
:1037000002AA00F01DFD0028DAD10BF1010BC6E77B
:10371000204600F05DFE0028CFD06FF08300CFE799
:103720006FF08B00CCE7F8B50D4617460646B8B3E8
:10373000B1B3AAB3098AB5F814C00129EA68EB8AC3
:1037400028D9032929D00024022907D1A2F1140085
:10375000A0EB4310604538BF6FF08604944588BFE6
:103760006FF08604022908BF01214FF00C004FEAD8
:10377000431318BF0239083300FB01339A420FD3B9
:1037800034B918222146304609F067FCC6E90057D3
:103790002046F8BD6FF08604D6E76FF08604DDE7BB
:1037A0006FF08604F4E737B5054600F0B5FD044632
:1037B00058B94FF08071284601AA00F0E4FB38B9EF
:1037C00028460199FFF74AFF0446204603B030BD62
:1037D00010F18C0F18BF0446F7E700F0C1BC70B5BC
:1037E0008AB0144601AA06460D4600F0ABFB18B19C
:1037F0006FF08B000AB070BD3046019902AA00F04C
:1038000066FB0028F6D10C22284607A909F09BFB8D
:103810000028EDD1059B6360049B2360BDF8183040
:10382000A360E7E72DE9F04792B00AAF1646DDE95D
:103830001A8504468A46202200213846994609F016
:103840000CFC4FF6FF7316F07F4FCDE9053304D023
:103850006FF0860012B0BDE8F0875146204605AAF9
:1038600000F070FB002840F08B803A462046059916
:1038700000F02DFB10B16FF08B00EBE7B203059960
:1038800004D50D9B4B456ED10C900E9606914FF6CC
:10389000FF73069A9A427BD123689B8A4B45D7D304
:1038A000059907AB8A1ACDE9027306AB18BF01224E
:1038B000CDE9006351464B46204600F0DCFB002872
:1038C000C8D1B8F1000F6BD120460A9907AA00F0C1
:1038D00096FD002851D106993A46204600F030FC6A
:1038E0000146002849D1DDE905539D4228BF1D4608
:1038F00020462A4600F0FAFC00283ED14FF6FF721F
:10390000059B93420FD0069A93420CD09A4238BF3F
:103910001A462046691C00F0E9FC70BBDDE905533E
:103920009D4238BF1D4623682046DA8A691C00F094
:10393000DDFC10BB0A9B002B58D1B8F1000F55D00D
:10394000204600F0AFFA002884D14FF6FF730599A6
:1039500099423FF47FAF069B99423FF47BAF2046EC
:10396000FFF77CFE76E70E9B3A4643F080732046D5
:103970000E9300F0E5FB002889D06FF0830069E723
:1039800010F18C0F7FF466AFF3037FF574AF7EE721
:1039900020460A9907AA00F014FB002891D0ECE712
:1039A0000C9B9D42E9D8424629460D9800F069FDDE
:1039B0000028E2D11C9B3A46CDE9008320462B46E5
:1039C00007A900F0CCF80028D7D10C9B45449D42B4
:1039D0000A99204688BF0C95079D00F05EFA29469B
:1039E00007900A9A204600F0A8FB6DE7204600F0F9
:1039F000EFFC0028A4D0C0E713B501AA044600F0EC
:103A0000A1FA28B920460199FFF728FE02B010BD9F
:103A10006FF08B00FAE7F0B58DB0164603AA0446A6
:103A20000F461D4600F08EFA18B16FF08B000DB0F6
:103A3000F0BD2046039904AA00F049FAB8B90C2257
:103A4000384609A909F07FFA0028EED13246294606
:103A5000069800F016FD0028E9D1129B2A46009333
:103A60002046334604A900F059F80028DFD06FF053
:103A70008300DCE72DE9F04786B01646DDE90E8AC3
:103A800003AA05460F46994600F09BFA044660BB20
:103A9000059A394632442846059200F0FEF906465A
:103AA000BAF1000F15D1049A424522D33A4628466E
:103AB000039900F042FB3946284603AA039600F01A
:103AC0009EFC044608B33A463146284600F035FBD2
:103AD0000BE0014642462846CDE9009A039B00F0E0
:103AE000D7FB0028DFD06FF08304204606B0BDE886
:103AF000F087A8EB0203CDE9002331462846039B5B
:103B000000F0C6FB0028D1D0EDE7002FEDD06B68A8
:103B10003146DB68286898470446E6E72DE9FF410F
:103B20000D461646096801AA04461F46DDF828809E
:103B300000F047FA70B901994B1C0BD062686B68B2
:103B40000A9755684246AC462068334404B0BDE845
:103B5000F04160476FF0830004B0BDE8F0812DE9CB
:103B6000F3471546DDE90AA90F4698461168044651
:103B700000F093F96B687A689844A8EB0203064654
:103B80000146CDE9002320463B6800F081FB20BBC5
:103B90006368CDF800A0D3F808A04A4643463146F2
:103BA0002068D047C8B9EB686A68B9681A442368C6
:103BB0002046DB685B1A9B1ACDE9002331463B683F
:103BC00000F066FB48B92B683BB13146636820685A
:103BD000DB6802B0BDE8F047184702B0BDE8F087E7
:103BE00013B50C2404FB01F3416800948C6808337E
:103BF00041690068A04702B010BD008A022814BFC6
:103C000003380020704708B5FFF7F7FF0C2300FBCF
:103C1000033303EB4110083008BD2DE9F04F0024B9
:103C200005460F46904626464FF00C098BB0D5F856
:103C300000A05046FFF7E1FF013086420ED3002678
:103C40004FF02009D5F800A0BAF816309E421DD3D7
:103C5000002088F800400BB0BDE8F08F09FB06F3A8
:103C60006A68CDF80090D2F804B03946504608335F
:103C700002AAD8470028EED102AB13F8012B01307D
:103C80000C2884EA0204F8D10136D0E731465046C8
:103C9000FFF7B9FF6A68CDF800900346D2F804B088
:103CA0003946504602AAD8470028D4D102AB13F8AF
:103CB000012B0130202884EA0204F8D10136C1E743
:103CC00037B5837B01685A1CD2B28273097E0446E1
:103CD0009142416904BF02338373012900F10D024F
:103CE0000DD8FFF79AFF40B90822636800929D68DB
:103CF00061690346A2182068A84703B030BD6FF081
:103D00008600FAE713B50C4611462279012A09D03C
:103D1000022A04D10368A2791B7E9A420CD16FF06B
:103D2000830007E0036862791B7E9A420CBF6FF044
:103D30008300002002B010BD01290DD80DF107024B
:103D4000FFF76BFF0028F5D162799DF807309A42A2
:103D500018BF6FF09100EDE76FF08600EAE70822E8
:103D6000F0B5436887B000925C6800236A4405465A
:103D700019460068A0470246002836D000264FF0BA
:103D8000FF3408226B6800925F68012100232868D5
:103D900004AAB847002835D10122284604A9FFF714
:103DA000B1FF78BB66B32B689DF816201B7E9DF88B
:103DB0000E10B3FA83F35B099A4203D1501CC0B2D0
:103DC000814209D1994203D14B1CDBB29A4215D1F1
:103DD00091422CBF0026012634462C61B4FA84F4AB
:103DE000002064096C6107B0F0BD284602A9FFF706
:103DF00089FF04460028C1D10126C2E70026EBE76F
:103E00000124EAE7002EE8D16FF08300EBE7F0B57C
:103E10000025C3B00446FC22294603A8029509F0F8
:103E20001CF94FF48072636800925E6861692B46EA
:103E3000206802AAB04702AE334613F8012BFF2ACE
:103E400023D10135B5F5807FF7D12068038A022B95
:103E500012D9D4E901354FF4807200925F68294687
:103E6000002302AAB847002316F8012BFF2A06D127
:103E70000133B3F5807FF7D1002043B0F0BD636814
:103E800029461B6920689847F7E7636861691B69E1
:103E9000206898470028D8D0EFE709B940697047F3
:103EA0008068704710B50446FFF70AFF70B9636871
:103EB0006169DB682068984740B9D4E9042320464B
:103EC000C4E90432BDE81040FFF7A1BF10BDF7B54B
:103ED000066805463046FFF796FE034620206968CF
:103EE00000904F68304629691446B847064640B9E5
:103EF0002868FFF782FE23680130834204D36FF005
:103F00009706304603B0F0BD04F1140000F0C5FA86
:103F10000028F6D12D68E268AB8A9A42EFD8A368F0
:103F20009A42ECD3D4E900372BB92846E98AFFF747
:103F30006AFE8742E3D33946E86800F0A2FA002817
:103F4000DFD0DCE7F0B505460E461746002489B001
:103F50002B68DB8AA34202D86FF08B000CE06A4624
:103F600021462846FFF7B3FF50B90C22314605A879
:103F700008F0E9FF10B93C6009B0F0BD0134E7E793
:103F80006FF08300F8E7F0B505460E4617460024AB
:103F900089B02B68DB8AA34202D86FF08B0009E05E
:103FA0006A4621462846FFF792FF38B9049B1E4215
:103FB00002D03C6009B0F0BD0134EAE76FF0830045
:103FC000F8E773B506460C2000FB01F3716800901A
:103FD0004C683068316908331546A0470446B8B9C3
:103FE000336829681A8A914210D2D5E90112D8683B
:103FF00000F047FA044648B92B68012B03D8306813
:10400000C18AFFF700FE6B68834201D06FF097040E
:10401000204602B070BDF7B50C2606FB01F34168DF
:1040200000964F6808330169054600681446B84792
:104030000346E8B92B6821681A8A914216D2D4E95E
:104040000112D86800F01DFA034678B92268012AE7
:1040500009D82A681046FFF7D0FDD18A00FB066018
:104060004901083108446268824201D06FF0970329
:10407000184603B0F0BD2DE9F04F06468B46914639
:104080009846002789B0DDE9145A3068FFF7B5FD7E
:104090000130874202D36FF08D0421E05246394649
:1040A0003046FFF78EFF0446002835D1DAF80820A5
:1040B00090452FD833685946DB682F609B1A6B6098
:1040C0000C22C5F80C8005F1140008F04CFF129B7F
:1040D000AC602B61DAF80830A3EB0803CAF80830AB
:1040E00000253368DB8A9D4205D26A462946304660
:1040F000FFF7EDFE98B14FF6FF75139B1D60CCB92D
:104100004FF6FF739D4208BF6FF08D04204609B043
:10411000BDE8F08F0137B8E76FF08304E0E705A84A
:1041200000F0BBF920B1B9F1000FE6D14FF0010961
:104130000135D6E76FF08D04E8E702B18160704782
:1041400073B5056804462846FFF75DFD0346202049
:10415000616800908E6828466169B04702B070BD02
:1041600070B58CB00546FFF7FAFD002861D16E6985
:104170006B6831461B69286898470446002878D147
:10418000B6FA86F16B6828681B69490998470446A6
:1041900000286ED12A680126137EB3FA83F35B09E7
:1041A000AB73138AC5E90406022B0CBF012302235B
:1041B000AB6002232B73D18A1046FFF724FDD3682E
:1041C0000290181A2146039001AA28460196FFF78B
:1041D00007FD044600284CD106462B680290DB6898
:1041E00003932B681846FFF708FDB04223D8002C34
:1041F0004BD12B681846FFF700FDA04228D820229B
:10420000002104A808F029FF00242B68DB8AA342C0
:1042100032D82846FFF754FD48BB6B686969DB68F4
:1042200028689847044620BBD5E90423C5E9043231
:104230001FE000269CE7198A6A6802290CBF00214A
:104240000321184631441269904701360443C8E7F8
:104250001B8A2846022B0CBF00230323234401346E
:10426000214601AA0193FFF7BBFC0028C1D06FF0E3
:10427000830420460CB070BD2146284604AAFFF7EF
:104280005FFF0028F3D10134BFE76FF09104F0E73E
:104290002DE9F04F0446884616469946C3B0DDE93D
:1042A0004CA51DB9284643B0BDE8F08FB5F5807F19
:1042B0002F4628BF4FF4807763680097D3F804B087
:1042C00049465346206802AAD8470028EBD16368C4
:1042D0000097D3F808B041463346206802AAD84771
:1042E0000028E0D13E44BA44ED1BDAE773B5066816
:1042F00004463046FFF787FC1546024629463046FD
:10430000FFF781FCD4E90431801ACDE90020204672
:10431000FFF7BEFF02B070BD2DE9F04143680546CE
:104320001B68006886B09847044628B92846FFF7FE
:1043300016FD28B16FF08304204606B0BDE8F08179
:1043400008266B6805F108070096D3F804803A4602
:10435000234629692868C0470028EBD139462846FA
:104360002A69FFF7CFFC0028E4D12846FFF74FFD6C
:1043700004460028DED12B7B012B24D1014603AA61
:104380002846FFF748FE04460028D5D1059B2A6839
:10439000C3F1FF23D26803F57F03F8331344CDE95B
:1043A0000063324628462B696969FFF771FF0446AE
:1043B0000028C1D16B7B2846AB7302232B73FFF718
:1043C00071FD0446B8E7022B18BF6FF08304B3E712
:1043D00010B586B0002103AA0446FFF7F2FD60B9CC
:1043E000049A2068059BD118C36820465B1ACDE962
:1043F0000023D4E90431FFF74BFF06B010BDF0B540
:1044000004460D4687B009B9436913602946204622
:10441000FFF7E6FB0146D0B9D4E904768DB90C224A
:1044200000212068FFF7EFFB05FB02220832801A0B
:10443000CDE900203B4631462046FFF729FF07B073
:10444000F0BD204603AAFFF7BCFD014610B16FF096
:104450008300F4E7204603AA0396FFF7C1FB002878
:10446000F5D1012DDBD00C2314226B430C3B0193BF
:1044700031463B4620460092FFF70AFF0028CED087
:10448000DDE7814206D8401A904234BF6FF08600C3
:10449000002070476FF08600704700F10C039842CF
:1044A00002D16FF08B00704710F8012B002AF6D074
:1044B0000020704708B500F0E5FF002008BD30B5CA
:1044C00005468DB030220C466846002108F0C5FD37
:1044D0006946284608F010FD009B002B04DA0233E1
:1044E0000BDA08F011FD0CE003D0A3F2F233012B3C
:1044F000F7D86846A047014600E00021019808F07F
:1045000001FD0DB030BD0000002337B50446042284
:1045100001938DF8033000F11C0353F80409114690
:10452000013A08B10A4601E0002AF6D1042104F15B
:104530002C0353F80459084601390DB1014601E036
:104540000029F6D140F2F2302368834226D040F2AF
:10455000F330834202D12369042B01D001251AE0F4
:10456000012AFBD10029F9D1606801AA08F0C6FC34
:1045700023698342F2D101980228EFD81C4B53F8EB
:104580002020A3689342E9D1002BE7D004F01FFE5E
:10459000051E18BF0125284603B030BD2369042B32
:1045A000DCD1012ADAD10129D8D10021606801AA21
:1045B00008F0A4FC23698342D0D101980228CDD809
:1045C0000B4B53F82020A3689342C7D1002BC5D0D2
:1045D000216A0DF1030204F0EFFD05460028BDD16C
:1045E0000146236A60680DF1030208F089FCD2E7F6
:1045F000FC530A0238B504F0DDFD08B108F084FC74
:104600000B4C0C4D4FF000414FF0FF3008F072FCA6
:10461000C20604D529461020FFF751FFF2E74306F2
:1046200002D521464020F7E708F06EFCEAE700BF1C
:1046300009450A02B5440A026FF080007047000085
:1046400007B50021094801910369042B04D06FF0DC
:10465000800003B05DF804FB406801AA08F04EFC3E
:104660000428F4D1019800F0BFF9F2E7786D012831
:1046700010B500F09BF904460021012003F062FA16
:10468000204610BD70B500230446084A5079DDB2BB
:1046900020B11668A64201D10D7070BD0133042B04
:1046A00002F10802F2D10020F7E700BF586D01289F
:1046B000002130B5174D8FB02B690291042B04D027
:1046C0006FF0800420460FB030BD686802AA08F081
:1046D00015FC0428F4D1029803A900F05EF9044601
:1046E0000028EFD19DF814306BB902980DF1070145
:1046F000FFF7C8FF38B19DF80720074B03EBC20353
:104700001B798DF814302C230021686803AA08F067
:10471000F7FBD7E7786D0128586D012813B5002104
:10472000184801910369042B03D06FF0800002B098
:1047300010BD406801AA08F0E1FB0428F5D10198FA
:104740000DF10301FFF79EFFC0B10F4C9DF8033040
:1047500004EBC3031B7903F0FD02012A01D0052BF2
:10476000E3D1019800F00EF90028E0D19DF8033064
:1047700044F8330004EBC304A080D8E76FF0860050
:10478000D5E700BF786D0128586D01280021F0B5EC
:104790003E4C85B0A369CDE90211B3F5006F6ED828
:1047A0002369042B03D06FF0800005B0F0BD63696E
:1047B000042BF8D1606802AA08F0A0FB0428034685
:1047C000F1D10121606803AA08F098FB0428EAD11E
:1047D0000121084603F0B6F902980DF10701FFF731
:1047E00051FF2B4D98B19DF8073005EBC3052B7990
:1047F00003F0FD03012B45D14FF400620021254851
:1048000008F02BFC234FA569F5B92846CDE705EB49
:10481000C0025279C3B28AB902988DF8073000F00D
:1048200097F80028C1D19DF80730029A45F8332047
:1048300005EBC30540F20113AB80DDE7013004282E
:10484000E5D16FF08C00B0E7B5F5006F2E4628BFBC
:104850004FF400663A4633460221606808F04EFB8A
:104860008642A0D1DDE9020133463A4600F07BF8EA
:1048700000289AD1039BAD1B33440393C4E76FF028
:10488000860092E76FF09C008FE700BF786D0128EB
:10489000586D01285865012838B50C4C0D46214645
:1048A00008F02AFB014680B92368002B05DA0233A1
:1048B00006DABDE8384008F027BBFAD1A847014620
:1048C0006068BDE8384008F01DBB38BD786D012830
:1048D00070B500F09EFB08B108F016FB164C174DA2
:1048E000174E4FF000414FF0FF3008F003FBC106B8
:1048F00004D510201349FFF7CFFFF2E7820602D557
:1049000020201149F7E7430602D540200F49F2E77E
:10491000010602D531468020EDE7C20503D52946C0
:104920004FF48070E7E7830503D521464FF400700C
:10493000E1E708F0E9FAD4E741460A0271460A02C3
:10494000B1460A028D470A0239460A021D470A0289
:104950000346DBB2022BC0F3072001D100F05CBBA1
:104960006FF08600704710B40446C0F30720E4B22D
:1049700022B1022C02D110BC00F0E2BB6FF0860025
:1049800010BC70470346DBB2022BC0F3072001D1F5
:1049900000F06CBC6FF0860070470138C0B202288E
:1049A00034BF6FF083006FF08600704707B502F0E8
:1049B000C6FD80F0010001A9C0B200F0B3F870B9E3
:1049C0000121084A019800F078F840B90221054A0F
:1049D000019800F072F810B9019800F0BFF803B028
:1049E0005DF804FBEFBEADDEC0F3072000F014BCA1
:1049F00038B50546007802F0E1FB0446287802F05D
:104A0000E9FB2044A0F5805038BD000028B1012802
:104A1000034818BF4FF0FF3070470248704700BF8F
:104A200000B03C000050230008B5FFF7E1FF203044
:104A300008BD08B5FFF7DCFF403008BD002307B50F
:104A4000022901930ED003290FD0012910D1FFF7BD
:104A5000CFFF04220DEB020103F074F9019803B0BB
:104A60005DF804FBFFF7E0FFF3E7FFF7E2FFF0E795
:104A70001846EEE770B50C46064602F060FDC0B27F
:104A8000FFF7C4FF054602F05AFD80F00100C0B2F6
:104A9000631EFFF7BBFF022B0AD86301203B1D44B6
:104AA000B54208D00344981B18BF4FF0FF3070BDCB
:104AB0004FF0FF30FBE70020F9E7002330B5022973
:104AC00085B00D46019203930DD003290ED0012924
:104AD00006D1FFF78DFF29460446FFF7CBFF40B113
:104AE0004FF0FF301CE0FFF79FFFF4E7FFF7A1FF57
:104AF000F1E7042220460DEB020100F075F90028D1
:104B0000EED1042203A9204603F01CF9042203A9D4
:104B10000DEB020008F017FA003818BF01204042E0
:104B200005B030BD0B4B30B51A6800230A4C9A42D1
:104B300003DC06D14FF0FF3008E01D012D5D8542FA
:104B400005D10020044A02EB03130B6030BD013392
:104B5000EDE700BFA4AB0A022076012870470000F1
:104B600030B50D46002189B01C22044601A80091F1
:104B700008F073FA202269464FF4805003F0E2F8FF
:104B80009DF80030632B09D0B4F5005F1CD221469C
:104B9000284801F0B5FD4FF0FF302FE09DF80130BF
:104BA000542BF1D19DF80230722BEDD19DF80330DA
:104BB0004C2BE9D19DF80430022BE5D1B4F5005F10
:104BC0001ED221461C48E4E7A4F54053B3F5805FAC
:104BD000DDD3B4F5405F08D26319B3F5405FD6D892
:104BE0002544B5F5A04F08D9D1E7A4F5A043B3F506
:104BF000903FCCD3B4F5A04FF2D3002009B030BD24
:104C0000A4F58043B3F5805FDBD3B4F5804F08D2C1
:104C10006319B3F5804FD4D82544B5F5B83FECD926
:104C2000CFE7A4F5B833B3F5903FCAD3B4F5B83F96
:104C3000E3D2F1E708540A021C540A02F8B51446FC
:104C4000064630B385680D4428461146FFF788FFB5
:104C50003378082B1FD8DFE803F0051F1E354C639F
:104C60007A91A9005E4FB2683B68B2F5202F16BF5B
:104C700043F0010323F001034FF0FF30B5F5202F7F
:104C80003B6003D3574E2C44B44204D943F0010394
:104C90003B604FF0FF30F8BD514F524AB1683B685E
:104CA000914216BF43F0020323F002034FF0FF309E
:104CB00095423B6003D32C44B4F5731FEBD943F00A
:104CC0000203E5E7464FB2683B68B2F5405F16BFA6
:104CD00043F0080323F008034FF0FF30B5F5405FC1
:104CE0003B6003D32C44B4F5804FD4D943F0080380
:104CF000CEE73B4FB2683B68B2F5804F16BF43F03A
:104D0000100323F010034FF0FF30B5F5804F3B60E8
:104D100003D32C44B4F5A04FBDD943F01003B7E73B
:104D20002F4FB2683B68B2F5A04F16BF43F0200387
:104D300023F020034FF0FF30B5F5A04F3B6003D3C5
:104D40002C44B4F5B83FA6D943F02003A0E7244F84
:104D5000B2683B68B2F5B83F16BF43F0400323F09A
:104D600040034FF0FF30B5F5B83F3B6003D32C4410
:104D7000B4F5243F8FD943F0400389E7184FB26858
:104D80003B68B2F5005F16BF43F0800323F0800359
:104D90004FF0FF30B5F5005F3B6004D32C44B4F511
:104DA000405F7FF678AF43F0800371E70C4AB1684B
:104DB0001368B1F5243F16BF43F4807323F4807366
:104DC0004FF0FF30B5F5243F136004D32C44B4F505
:104DD000283F7FF660AF43F48073136059E700BF4C
:104DE000A875012800602300F7B505460E46684601
:104DF00001A9174601F026FE03F0C0F80446002082
:104E000003F0BEF83A463146284602F0F7FF204646
:104E100003F0B6F8DDE9000101F020FE002003B048
:104E2000F0BD08B50B461146184402F059FB0020AE
:104E300008BD000070B506460C461546FFF7FEFE9D
:104E400030B9B06829462044BDE8704002F048BB44
:104E5000064BB2681968064801F052FC2A46214602
:104E6000044801F04DFC4FF0FF3070BDA8750128DB
:104E700030540A024F540A022DE9F74F0C4691466E
:104E80001F46054608B9012073E0184602F014F9E0
:104E900006460028F7D0684601A901F0D3FD3A463E
:104EA00021462846FFF7CAFE60B1334B33481968E4
:104EB00001F026FCDDE9000101F0D0FD304602F0F2
:104EC000F7F8E0E72B78D5F808B0012B36D802F0D8
:104ED00036FB80F0010002F07DF9DFF8A480294B59
:104EE000D8F800101A68A0F5805A01328A451A6075
:104EF00024D3C4F30B026AB94FF480522846FFF75B
:104F000099FF0028D6D1D8F800201E4B02F5805218
:104F1000C8F800201B689B0710D1D8F800108A45FC
:104F20000CD34FF480522846FFF784FF0028C1D1EC
:104F3000D8F8003003F58053C8F800305C443A4696
:104F40004946204602F05AFF3A463146204602F0D2
:104F5000F9FE3A463146484607F0F5FF0446002878
:104F6000A8D1DDE9000101F079FD304602F0A0F89A
:104F7000204603B0BDE8F08FA875012863540A02EB
:104F8000AC750128B0750128002330B5074A1579A2
:104F9000DCB2854202D101200C7030BD0133042BFC
:104FA00002F10C02F3D10020F7E700BFB47501282D
:104FB0004FF0A8434FF4B4004FF42501C3F80006A6
:104FC000C3F800164FF0A9439A6842F002029A60B3
:104FD0001861196170470338082817D8DFE800F016
:104FE00005080C0E101616121400002008707047E9
:104FF000112300200B7070471223FAE71323F8E700
:105000001423F6E71523F4E71623F2E74FF0FF30F9
:105010007047002070470000002373B50DF10201B6
:1050200005468DF80230FFF7D6FF0446002840F011
:105030008280032D4FD102F082FA80F0010001A995
:10504000C0B2FFF76FFD002840D19DF802000DF1BE
:105050000301FFF799FF394A034640B90C2101FBD0
:1050600003F69659D8B2002E54D18DF803000C21C6
:105070009DF80330032D01FB03F39DF8021002EBB2
:10508000030001710199D1504FF00003836047D1B3
:1050900002F055FA80F0010601A9F0B2FFF742FDD7
:1050A000304602F097F80646FFF782FF032D3CD109
:1050B000019B1878FFF7AAFC4FF480520021FFF7FC
:1050C000B0FE78BB0198FFF749FD01E06FF0830463
:1050D000204602B070BD9DF802307BB1112B0FD07D
:1050E000122B0FD0132B0FD0142B0FD0152B0FD04A
:1050F000162B0CBF0820FF2001A9A2E70120FBE727
:105100000320F9E70420F7E70520F5E70620F3E799
:105110000720F1E70133042BA1D16FF08C04D7E70E
:10512000CE68C1E76FF08E04D2E7324600210198C5
:10513000FFF780FEC5E76FF08604C9E7B475012864
:105140002DE9F7431E460023884617468DF80630A2
:105150002AB96FF08604204603B0BDE8F0830DF154
:105160000601FFF738FF04460028F2D19DF806003B
:105170000DF10701FFF708FF0028EAD04FF00C09F6
:105180009DF807000A4D09FB00F033463A464146B8
:105190002858FFF771FE38B99DF8073009FB035511
:1051A000AB683344AB60D6E76FF08304D3E700BF4E
:1051B000B475012838B50D4603210446FFF73EFCBF
:1051C00010F5803F21D0013008D103212046104A3C
:1051D000FFF773FCC8B16FF0830038BD2846FFF7B6
:1051E00015FC4FF480520021FFF71BFE01212046E1
:1051F000084AFFF762FC0028EDD102212046054A4B
:10520000FFF75BFC0028E0D0E5E70020E5E700BF02
:105210000000FFFFEFBEADDE37B502F090F9C5B27A
:1052200001A904462846FFF77DFC29460198FFF7AF
:10523000C1FF054620B16FF08304204603B030BDA6
:10524000019884F00104FFF789FC01A9E0B2FFF79F
:1052500069FC2A4603210198FFF72FFC0446002829
:10526000E9D10198FFF77AFCE7E700000023F7B5E2
:105270000DF106018DF80630FFF7ADFE044620B1B2
:105280006FF08604204603B0F0BD9DF806000DF1D6
:105290000701FFF779FE0028F2D00C279DF80720C0
:1052A000094D7A43AE58FFF783FEF2682146304637
:1052B000FFF7C0FD3046FFF751FC9DF807307B43F8
:1052C000EA18EC509460DDE7B4750128492E0A0213
:1052D000A12E0A028D2D0A02DD2D0A02292D0A02B5
:1052E000132E0A02F12E0A023B2F0A02852F0A0210
:1052F000BB2F0A02C91E0A02031F0A02DF1C0A0290
:10530000351D0A027B1D0A02DB1D0A022F1E0A023E
:105310007F1E0A0255210A02A7210A022F1F0A0234
:105320009D1F0A020B200A0251200A02B1200A0224
:1053300005210A023B1C0A028D1C0A024F1A0A02AE
:10534000BD1A0A02B1190A02071A0A022B1B0A0225
:10535000871B0A02E91B0A0291220A020B230A0296
:1053600085230A02ED230A0219250A0265250A028D
:10537000AB250A0249260A02EF250A02A5240A02E1
:105380008F260A0255240A02F5260A0247270A0236
:1053900093270A02E5270A0231280A02DB280A02BB
:1053A0003D290A02A1290A02E1290A02152A0A0254
:1053B000F32A0A02812C0A02B92A0A02392B0A02AC
:1053C000FD2B0A02D72C0A0281300A0225300A027C
:1053D00050008001E8002002B00100000100000040
:1053E000020000000400000011350A029D350A0287
:1053F00025350A0269350A026D350A0200010000EE
:10540000000100000001000041204552524F52208F
:10541000616464723A307825780D0A004220455262
:10542000524F5220616464723A307825780D0A0038
:105430004572617365206164647220696E76616C87
:1054400069643A307825782C307825780D0A006F19
:1054500066665F6C656E3A307825782C30782578F2
:105460000D0A00577269746520617265612061647C
:10547000647220696E76616C69643A307825780DC3
:105480000A00000008B501F027F910B10E4801F03C
:1054900037F900212D2002F0B3FE0021012002F097
:1054A000AFFE0021022002F0ABFE4FF088431A68E5
:1054B00042F080721A60054AC3F89420044AC3F887
:1054C000942072B6FEE700BF14AD0A02AA554B4203
:1054D00055AAB4BD0000000000000000000000005C
:1054E0006FF47A72F0B5504B0446186003688DB0C3
:1054F0001344042B0ED8DFE803F0032C5275890007
:10550000002300220021CDE9082303698668082BC7
:10551000069102D06FF0800561E08569042DF9D114
:10552000406808AA07F0EAFC0828F3D12B460221BC
:10553000606806AA07F0E2FC0428EBD1069B30461F
:10554000019363690093DDE9082300F09BF80546A9
:1055500045E0002300220021CDE9082303690591DD
:10556000082BD7D14569042DD4D1406808AA07F08B
:10557000C5FC0828CED12B460121606805AA07F09A
:10558000BDFC0428C6D106AB0293236AA068019330
:10559000059B0093DDE9082300F08BF8D7E7002393
:1055A0000022CDE906230369082BB3D1076A0C2F2B
:1055B000B0D10021406806AA07F0A0FC0828A9D1B4
:1055C000DDE9062308AEA068009600F086F80546DF
:1055D00028B901463B463246606807F091FC2846F0
:1055E0000DB0F0BD00230022CDE908230369082B8C
:1055F00090D10021406808AA07F080FC082889D1D2
:10560000DDE90823A06800F078F8A0E7056A042D1A
:1056100080D100F085F82B4608900021606808AA28
:1056200007F06EFC0025DAE74008002800F01EB8FD
:1056300038B5074B02461D680C460B4668680121C9
:1056400007F05CFC844214BF6FF08000002038BD7E
:10565000400800280B46044910B40C68024600219B
:10566000606810BC07F04CBC4008002808B500F08A
:1056700065F830B100F088F918B9BDE8084000F0CD
:105680005DB808BD194610B404461046DDE9012393
:1056900050EA010C06D033F0070C07D1224610BCAB
:1056A00000F092B86FF0860010BC70476FF0850074
:1056B000FAE730B4194604461046DDE9023250EAF2
:1056C000010C049D05D0CDE90225224630BC00F036
:1056D00043B86FF0860030BC7047194610B40446DA
:1056E000104650EA0102019B03D0224610BC00F094
:1056F000E9B86FF0860010BC7047194652EA010302
:1057000010B50446104608D0224600F005F910F105
:10571000950F08BF6FF0830010BD6FF08600FBE7A8
:105720000020704710B5044600F078FB014620B910
:105730002046BDE8104010F0B3B810BD10B5044CC1
:1057400004F1400000F0FCF9024B5C6010BD00BFAA
:1057500050080028440800282DE9F047DFF860A031
:105760001F46534681468846164600F013FB044602
:1057700000BB144DDAF800002946C5E90898AE626E
:1057800000F080FC044678B92E6BBE4215D3089910
:10579000F61B8E4228BF0E4605F1400031463844C4
:1057A000FFF758FF099B1E604FF48A6200210548ED
:1057B00007F053FC2046BDE8F0876FF08604F3E75E
:1057C00044080028500800282DE9F74F9B4640F276
:1057D0000C43DDF830A080469A450F46914669D8C3
:1057E000364E334600F0D6FA0446002844D1344DF4
:1057F00030682946C5E90887C5F8289000F042FCC2
:10580000044678BBAB6BDB0751D40123C5E90DAB74
:10581000D6F800B02A4D514605F140000193FFF73C
:1058200007FF0446F0B9019B24491846C5F830A08B
:1058300000F02EFA0446A8B929463068C5E9088761
:10584000C5F8289000F07AFC044658B94A4640460C
:1058500039461A4B00F048FA0446E8B10021306896
:1058600010F01EF84FF48A620021154807F0F5FB8E
:10587000204603B0BDE8F08F10F18C0FF2D1104C30
:105880004FF48A620021204607F0E7FBC4E90DAB24
:1058900002234FF0000BBDE7BBF1000F03D100F076
:1058A000BDFA0446DEE75846FFF73CFFF9E76FF024
:1058B0008404D7E76FF08604DAE700BF44080028C5
:1058C000500800282DE9F047DFF844A01E46534653
:1058D00081468846174600F05DFA0446A0B90D4D92
:1058E000DAF800002946C5E90898AF6200F0CAFB63
:1058F000044618B92B6B7360AB6BB3604FF48A62CC
:105900000021044807F0A9FB2046BDE8F08700BF4E
:1059100044080028500800282DE9F843DFF860808B
:10592000074643460E46914600F034FA044600BB53
:10593000144DD8F800002946C5E90876C5F8289026
:1059400000F0A0FB044670B9AB6BDB0714D44A46E9
:105950003846314600F036FA044620B9D8F800003F
:10596000FFF7E0FE04464FF48A620021054807F085
:1059700074FB2046BDE8F8836FF08404F3E700BFB2
:10598000440800285008002800F0C6B8F0B50025EB
:105990000A4CD4E912768E4208BF874205D1266DA3
:1059A000964202D100201D60F0BD0135152D04F195
:1059B0002004EED16FF08B00F6E700BFA00C0028AA
:1059C000002313B5044601A90120019300F018FC3F
:1059D00058B16FF0830002B010BD012000F01BFC35
:1059E0000028F8D1019B01330193019BA342F4D31A
:1059F000022001A900F004FC0028EAD1019BA34287
:105A000001D30020E7E7022000F005FC0028E2D1E6
:105A1000019B01330193F1E770B551F82060ADF5BA
:105A20002C7DCB6804460D464FF42A7206F13001F6
:105A300001A8AB9307F097FA4FF42B72304601A9F7
:105A400000F0FEFA2C4420B9022323720DF52C7DC0
:105A500070BD2B690BB90123F7E74FF42B72304669
:105A600001A9AB9300F0ECFA002814BF0123032333
:105A7000EBE70000002070B5ADF52E7D029000F040
:105A8000CAFB044618BB02A900F0BAFB0446F0B9F1
:105A900010211F4800F0CCF90446C0B91D4D029EEC
:105AA000284600F01BFA044678B94FF42A7205F133
:105AB000300103A8AD9607F056FA4FF42B72284632
:105AC00003A900F099FA044628B100F0F3F9204642
:105AD0000DF52E7D70BD00F0EDF904460028F6D1DD
:105AE00095F8D96200902B464FF436720021701C55
:105AF0000FF078FE04460028E9D195F8D8320298D4
:105B000085F8D93285F8D862FFF75AFF0446DEE7F8
:105B100020080028A00C002810B5084C4FF438725B
:105B20002046002107F099FA0123A4F8D83284F81E
:105B30003030BDE81040FFF79DBF00BFA00C00282B
:105B4000002270B5504E88B002AD04904FF4367309
:105B500001200021CDE90065CDE906220396ADF8CC
:105B600014200FF05DFE10B101238DF81430049B5A
:105B70000022009302204FF43673002101950FF0AC
:105B80004FFE10B101238DF8153010213F4800F071
:105B90004FF9044600286BD106A9029000F030FBB3
:105BA000044600286CD12946012000F029FB044658
:105BB000002865D1022007A900F022FB0446002836
:105BC0005ED1079A029B9A429DF8143018BF079045
:105BD000012B03D0002003A9FFF71EFF9DF815300D
:105BE000012B03D0012003A9FFF716FF00F062F993
:105BF000044600283CD1039B049993F83030012BD4
:105C00001CBF01238DF8143091F83030012B1CBFDC
:105C100001238DF8153040F20113BDF814209A428B
:105C20002BD09DF81430012B07D14FF43672164853
:105C3000A6F8D83207F097F907E09DF81530022B47
:105C400019D04FF48073A6F8D83296F8D902002103
:105C500001300FF025FE044610B110F18C0F07D172
:105C60000698FFF7ADFE044610B9074800F02EF97C
:105C7000204608B070BD0123D7E76FF08304F7E733
:105C800000F018F9F4E700BFA00C00282008002855
:105C900070B50D4618B300231C46124AD2E91261B2
:105CA000314308BF234604F1010408BF00F1FF306F
:105CB000152C0BD020320028F0D1DC1C204600210E
:105CC0000FF0EEFD38B900202C6007E00028F4D07A
:105CD0006FF08D0002E010F18C0FF4D070BD6FF00A
:105CE0008600FBE7A00C00282DE9F0431E460023A8
:105CF0008146884617468BB0244D02AC01930FCDE8
:105D00000FC495E80F0084E80F003A464846414624
:105D100001ABFFF73BFE1E4D044678B901992022E6
:105D200005EB4111383102A807F01DF90198202236
:105D300005EB40102146383007F08FF93468716860
:105D4000033C05EB44131C4638341022C3E9129877
:105D50001F65204607F007F9FFF78CFE064680B165
:105D6000DDE90623134307D00198202205EB4010FC
:105D700002A9383007F0F7F820220021204607F06A
:105D80006CF930460BB0BDE8F08300BF28620A0210
:105D9000A00C002837B51D4601ABFFF7F7FD044600
:105DA00050B9019B0649DA1C01EB43112A6068686F
:105DB0001022383107F0D7F8204603B030BD00BFBD
:105DC000A00C0028002330B58BB0019301ABFFF786
:105DD000DDFD0446E0B9104D0199202205EB41118B
:105DE000383102A807F0BFF80198214605EB4010B2
:105DF0002022383007F031F9FFF73CFE044638B175
:105E00000198202205EB401002A9383007F0ABF8CA
:105E100020460BB030BD00BFA00C0028034B002172
:105E200093F8D90201300FF03BBD00BFA00C002851
:105E300030B587B004460D461422002101A807F0B2
:105E40000CF9002300934DB344B34FF44072154B4B
:105E50006846CDE90423144B144901930FF056FC16
:105E6000D0B92B46224640F2012168460FF070FC63
:105E700068B90F4C6946224601A80FF08DFC30B975
:105E800068460FF023FC38B120680FF06BFB6846C2
:105E90000FF01CFC6FF0830007B030BD6FF0860080
:105EA000FAE700BF0001500500248000000F00B099
:105EB0008C0F002808B5044B18680FF053FB00281E
:105EC00018BF6FF0830008BD8C0F002800F110018F
:105ED0000C22014807F047B8800F00281FB50822A0
:105EE000184904460DEB020007F03DF8042216495C
:105EF0000DEB020007F037F8029B039A013342F1E1
:105F00000002CDE90232134314D008220D480DEBF4
:105F1000020107F028F804220B480DEB020107F0FC
:105F200022F80C22074904F1100007F01CF80020A9
:105F300004B010BD019B01330193002BE5D16FF03C
:105F40008300F5E7800F0028880F0028F0B505468C
:105F500089B010980F9FCDE90012CDE904700E981A
:105F6000119ECDE902300C4806960C230B490068BF
:105F700005F110020FF012FB044650B931681022EF
:105F8000103931602846394406F0EDFF204609B04B
:105F9000F0BD6FF08304F9E78C0F00280001500575
:105FA0002DE9F0411D460F469046044688B00E9EEE
:105FB00001461022981906F0D6FF119B1036069361
:105FC000109BCDE902560593CDE900780F9B084858
:105FD000049308490C2304F1100200680FF02AFB17
:105FE000002818BF6FF0940008B0BDE8F08100BF32
:105FF0008C0F00280001500500B58BB009AB06934B
:106000001023CDE904030023CDE90012CDE90233CA
:1060100000F1100208480C23084900680FF0BEFA8E
:1060200038B9099B102B18BF6FF083000BB05DF8D7
:1060300004FB6FF08300F9E78C0F00280001500586
:1060400000B58BB009AB06930023CDE904331023D0
:10605000CDE90012CDE9020300F1100207480C233C
:10606000074900680FF0E6FA099B034314BF6FF07D
:10607000940000200BB05DF804FB00BF8C0F0028DB
:106080000001500500222DE9F0412B4C8AB005ABF0
:106090000E46019311464FF48563009480460FF03D
:1060A000BFFB002841D1059D06F130070C3D2A4673
:1060B0002146384606F057FF0C22611906F1100000
:1060C00006F051FFD6E90823CDE90823B36A04227C
:1060D000CDF8188007A920460DF12008079306F097
:1060E00042FF41460822201D06F03DFF0C212046BC
:1060F000FFF79EFEC8B92A463946204606F033FF10
:106100004FF484630422CDE9017330462346CDF871
:106110000C80009506A9FFF743FF10B9089B9D422C
:1061200006D0FFF7C7FE6FF083000AB0BDE8F0812C
:10613000FFF7C0FEF9E700BF900F00282DE9F047F8
:10614000D1E9082388B02D4ECDE906238B6A0422BD
:10615000D1F83080049007460D46304605A90DF170
:106160001809059306F0FFFE08224946301D06F087
:10617000FAFE0C213046FFF75BFE0446F0B92846D4
:10618000FFF7ACFE0446C8B940F22C4308F1100AF0
:1061900005F13004CDE90163042223462846CDF8F9
:1061A0000C90CDF800A004A9FFF7D0FE10B9069B13
:1061B0009A4507D0FFF77EFE6FF08304204608B0B3
:1061C000BDE8F08752463146204606F0CCFEFFF788
:1061D00071FE04460028F1D10C2205F1100106EBF6
:1061E0000A0006F0C0FE214600943346384608F106
:1061F0001C020FF0F7FA0446E0E700BF900F0028FA
:106200000A4608B504210FF082FB002814BF6FF086
:106210008300002008BD08B50FF058FB002814BF0C
:106220006FF08300002008BD0000000000000000A7
:10623000000000000000000000000000000000005E
:10624000000000000000000000000000000000004E
:10625000000000000000000000000000000000003E
:10626000146C0000010000000000000000000000AD
:10627000000000000000000000000000000000001E
:1062800038B5584A584B9A609A6FD20715D55A6953
:1062900012F4003211D1BFF34F8FBFF36F8FC3F8E9
:1062A0005022BFF34F8FBFF36F8F5A6942F4003211
:1062B0005A61BFF34F8FBFF36F8F4B4A936F9B07AA
:1062C00069D50023C2F88430BFF34F8FD2F88030F5
:1062D000C3F3C900C3F34E335B01014603F4FF551A
:1062E00045EA81740139C2F87442F9D2203B13F1B6
:1062F000200FF2D1BFF34F8FBFF36F8F0023C2F88F
:106300008430BFF34F8F536923F480335361BFF35D
:106310004F8FD2F88030344CC3F3C901C3F34E33EE
:106320005B010A4603F4FF5545EA8270013AC4F85E
:106330007402F9D2203B13F1200FF2D1BFF34F8F3B
:10634000BFF36F8F00F08CF8636913F4803322D1B0
:10635000C4F88430BFF34F8FD4F880302249C3F3A0
:10636000C900C3F34E335B01024603F4FF5545EA0F
:106370008274013AC1F86042F9D2203B13F1200F38
:10638000F2D1BFF34F8F4B6943F480334B61BFF3BE
:106390004F8FBFF36F8F154B154A16491360164A7E
:1063A0001360164B1A6942F001021A610A6842F042
:1063B00003020A605A6942F001025A61A3F573436D
:1063C0005A6A42F480325A625A6A42F400225A628D
:1063D0005A6A42F480225A625A6A42F400325A627D
:1063E00038BD00BF00100A0200ED00E0005A620252
:1063F0000476012800E501E00076012800E001E0D4
:106400004FF6FF73024A1361C2F81031704700BFA4
:1064100000E501E0BFF35F8F074B5A6A22F4803238
:106420005A62D3F8942022F00102C3F89420BFF3FB
:106430004F8FBFF36F8F704700ED00E0BFF35F8FAA
:106440000722064BC3F894205A6A42F480325A62FB
:10645000BFF34F8FBFF36F8F704700BF00ED00E0B9
:1064600070B5FFF7D7FF0023134A1449072B02F139
:10647000080216D10022FF26114C104914F8013BE6
:10648000D1F8C000934006FA02F543402B40083291
:106490004340202AC1F8C030F0D1BDE87040FFF77A
:1064A000CDBF52E90240C1F89830C1F89C40013399
:1064B000C1F8A000DAE700BF14A90A0200ED00E06D
:1064C00010A90A0238B5EFF3948111F002041ED02E
:1064D000EFF3898400F00AF928B123460021134A1A
:1064E000134800F00DF980212046124C00F02AF9E3
:1064F000206808B100F0F0F90F4B20681C686408B0
:10650000640021462246234620F032F9FEE7EFF3ED
:10651000888500F0EBF828B12B462146034A07484E
:1065200000F0EEF880212846DFE700BF4CA90A0200
:106530004EA90A02408B0128448B01286BA90A024C
:106540002DE9F00F7046EFF30881EFF30982002385
:1065500000F05CF94FF03023D3F8F82F0A4B9A4241
:1065600000D1FEE74FF0A943084A1A6102F59602EE
:106570001A6100F0BBF820B10021054A054800F07F
:10658000BFF8FFF79FFF00BF55AA55AAF0FF5A00BA
:106590004CA90A0288A90A022DE9F00F7046EFF310
:1065A0000881EFF30982012300F030F900F09EF832
:1065B00020B10021024A034800F0A2F8FFF782FF51
:1065C0004CA90A0299A90A022DE9F00F7046EFF3CF
:1065D0000881EFF30982022300F018F900F086F831
:1065E00020B10021024A034800F08AF8FFF76AFF51
:1065F0004CA90A02A9A90A022DE9F00F7046EFF38F
:106600000881EFF30982032300F000F900F06EF82F
:1066100020B10021024A034800F072F8FFF752FF50
:106620004CA90A02B9A90A022DE9F00F7046EFF34E
:106630000881EFF30982042300F0E8F800F056F82F
:1066400020B10021024A034800F05AF8FFF73AFF50
:106650004CA90A02C9A90A022DE9F00F7046EFF30E
:106660000881EFF30982002300F0D0F800F03EF833
:1066700020B10021024A034800F042F8FFF722FF50
:106680004CA90A02D9A90A0208B500F02FF830B1C6
:10669000BDE808400021024A024800F031B808BDB8
:1066A0004CA90A02E9A90A0208B500F01FF830B1A6
:1066B000BDE808400021024A024800F021B808BDA8
:1066C0004CA90A02F9A90A02024BD3E9000102F01F
:1066D00095BE00BF488B0128034B186880F480707A
:1066E000C0F30020704700BF508B0128034B18688F
:1066F00080F40070C0F34020704700BF508B012829
:106700000FB470B500258EB012AC54F8046B294656
:106710002C2203A8029506F0A0FC234632462F2126
:1067200002A8019420F0B4F90446014602A88DF8AD
:10673000375000F057F820460EB0BDE8704004B066
:10674000704700002DE9F74F07460C46FFF7C4FFDE
:1067500090B10025DFF8748007F00306B5420ED132
:106760004FF0000B641BDFF86880DFF86890DFF8FB
:1067700068A0A4085C4509D803B0BDE8F08F29469D
:106780007A5D4046FFF7BCFF0135E7E75E465946B4
:106790004046FFF7B5FF7B190193B44212D9019B24
:1067A000504653F82610FFF7ABFF01360BF10802F5
:1067B0009642F2D10948FFF7A3FF0948FFF7A0FF6F
:1067C000B346D7E74846FFF79BFFEEE709AA0A0260
:1067D00014AA0A0221AA0A021BAA0A0223AA0A026E
:1067E0007AB10A0237B5084C6369984748B9E56A37
:1067F000A847C307FCD4236A019303B0BDE8304027
:106800001847002003B030BD28AA0A0238B50D464B
:106810001146EFF303832C4CC4E900052366A26004
:10682000EFF31483E360EFF388832361EFF389834D
:106830006361EFF39483A361EFF3948342063BD546
:1068400000F00C000C2818BF294620221F48E161E7
:1068500002F0F7FC00231E4AE9580433202B42F8CB
:10686000041BF9D11B4B9A6AA266D96AE166986B40
:10687000206702F400406067586BA06702F0800058
:10688000E0679A62D962D3F8E420C4F88020D3F894
:10689000E810C4F8841002F04001C4F88810C3F86E
:1068A000E4202268D4E9011302F00C020C2A18BF7C
:1068B0000B46C4F88C3038BD9B0702D5EFF38981B5
:1068C000C3E7EFF38881C0E7548B0128748B01285C
:1068D000948B012800ED00E0204B30B41A68D96990
:1068E00002601A6E00F13C0402665A6842609A68BF
:1068F00082601A6902615A694261024642F81C1FAD
:1069000003F1200151F8045B42F8045FA242F9D17F
:10691000134900F15C0451F8045B42F8045FA242A1
:10692000F9D130BC9A6ED3F88C1082661A6F903011
:1069300040F8202CDA6E40F8242CD3F8802040F860
:10694000102CD3F8842040F80C2CD3F8882040F881
:10695000082C4FF4807202F074BC00BF548B0128E5
:10696000948B0128002382B00193019802B07047F4
:10697000014B5868704700BF08760128FFF7F2BF47
:106980001FB54FF4E13203230446CDE9012301236F
:106990008DF80C3000F050F800F008FA00F0CEF856
:1069A000207801A900F0F8F8002004B010BD000024
:1069B0000148FFF7E5BF00BF0876012808B500F0E1
:1069C000DDF8002008BD10B50C46E3B2012B1146DE
:1069D00002D06FF0030010BD00F072F958B914F442
:1069E000E06FF6D114F4405F08D114F4404F18BFA3
:1069F0006FF00A00EFE76FF00700ECE76FF00900B7
:106A0000E9E70000024B0A4601461878FFF7DBBFB2
:106A10000876012838B50C46014640B13CB1054D19
:106A20002246287800F078F900206C6038BD6FF0BD
:106A30000400FBE70876012800F0BEBA03F048BF67
:106A400000F0FABA044A936903F0400123F04003CE
:106A500001609361704700BF00000441034A9369DD
:106A600010B143F040039361704700BF0000044140
:106A70000128014606D0022806D040B90121022093
:106A800000F02ABB0A20FBE701210B20F8E7704742
:106A90000128014605D0022806D040B9022000F0A6
:106AA0001BBB00210A20FAE700210B20F7E7704703
:106AB00070B50C25044601234543184E03FA04F231
:106AC0007019037A214623EA0203037200F0D9F910
:106AD00000227359012C1A615A6118D0022C19D066
:106AE00014B9102000F0FCFA0D4E2046FFF7D0FF3D
:106AF00056F824503DB1286900F0DAFA0023284600
:106B00002B6100F0D5FA002346F8243070BD4FF415
:106B10000040E7E74FF48030E4E700BFE48C012851
:106B2000388D01280C235843034B1B589A69D20215
:106B3000FCD50020D9617047E48C012838B50B4D95
:106B40002C7884B930222146094800F0AFFA20227F
:106B50002146084800F0AAFA20222146064800F003
