:020000040200F8
:10400000C0DF06284141000200000000000000005F
:1040100000000000000000000000000000000000A0
:104020000000000000000000000000000000000090
:104030000000000000000000000000001544000225
:104040000000000000000000000000000000000070
:10405000D14406080000000000000000000000003D
:104060000000000000000000000000000000000050
:104070000000000000000000000000000000000040
:104080000000000000000000000000000000000030
:104090000000000000000000000000000000000020
:1040A0000000000000000000000000000000000010
:1040B00000000000400100000001000000000000BE
:1040C00000000000000000000000000000000000F0
:1040D00000000000000000000000000000000000E0
:1040E00000000000000000000000000000000000D0
:1040F00000000000000000000000000000000000C0
:10410000424B2E534200000000000000000000005F
:10411000000000000000000000000000000000009F
:10412000000000000000000000000000000000008F
:10413000000000000000000000000000000000007F
:10414000174B83F30A8800F05FFC01F089F801F057
:104150008BF8144B14498B4213D30020134B144992
:104160008B421AD300F04AF8186850F82240586879
:1041700040F8224001329868B2EB900FF4D30C3330
:10418000E9E70022F7E71C6844F8220001325C6886
:10419000B2EB940FF7D30833E2E70022F7E700BF52
:1041A000C0970628B49D0002D89D0002D89D000249
:1041B000E09D000210B5054C237833B9044B13B1D0
:1041C000044800E000BF0123237010BD544B0628B3
:1041D00000000000D48D000208B5034B1BB1034959
:1041E000034800E000BF08BD00000000584B06284F
:1041F000D48D0002A3F5803A704700BF174B002B07
:1042000008BF134B9D46FFF7F5FF00218B460F4675
:104210001348144A121A02F0F2FD0E4B002B00D084
:1042200098470D4B002B00D0984700200021040038
:104230000D000D48002802D00C4800E000BF02F03D
:104240009DFD2000290000F021F802F083FD00BF51
:10425000000008000000000000000000C0DF062889
:10426000544B0628B8970628000000000000000004
:1042700008B501F0AFFE10B1024B186808BD024B43
:10428000FBE700BF004A0628746B062810B501F052
:104290006DFB00F01BFE30B101F086FB10B14F4802
:1042A00002F094FEFEE700F0E3FE00F053FE01F0A2
:1042B00085FB28B101F02AF903F0AEFD01F032F9D7
:1042C00001F076FE01F070FB18B14549454802F057
:1042D0007DFE4FF40051444802F0B6FA01F064FB51
:1042E00010B1424802F072FE00F088FBD0B100F03D
:1042F00069FBB8B1002000F025FE4FF0884304466A
:10430000D3F8EC011860C0F3800001F01DFB04F548
:104310008F501F3020F4FF7020F0010000F100707A
:1043200000F0F2FD00F040FF01F052FB00F07DFFD5
:1043300030B101F039FB10B12D4802F047FEFEE725
:10434000FFF796FF2B4B1B68834206D001F02CFB36
:1043500010B1294802F03AFEFEE700F0CDFD30B181
:1043600001F022FB10B1254802F030FEFEE701F01B
:104370001BFB10B1224802F029FE4FF4FA5001F065
:1043800039FB00F097F810F0FF0420D101F00CFB8E
:1043900010B11C4802F01AFE204601F0D5FA0020A8
:1043A00000F0D0FD044601F0FFFA18B1214616488E
:1043B00002F00CFE04F1007404F5805401F0F4FAEC
:1043C00018B12146114802F001FE2046A8E701F08D
:1043D000EBFA0028E0D00E48DCE700BF287E0002A0
:1043E0008D420002457E0002704B06285D7E000271
:1043F0007D7E0002746B0628A67E0002DC7E000231
:10440000FE7E0002187F0002637F0002817F0002AF
:104410003D7F0002024A136801331360704700BFFA
:10442000706B0628A022002110B51D4802F0E7FCA1
:104430001B4800F0CDF800280ADA01F0B5FA18B9E7
:104440004FF0FF34204610BD164802F0BFFDF7E7DD
:10445000134800F023F9044601F0A6FA18B12146EA
:10446000114802F0B3FD012C10D9042CE8D8E7D193
:104470000B4800F0C7F9044601F096FA18B121463E
:104480000A4802F0A3FD44EAE474DBE701F08CFA89
:104490000028D7D02146064802F098FDD2E700BF99
:1044A000786B0628967F0002CE7F0002ED7F000227
:1044B0001B800002FFF7B6BF10B5044641B90420C7
:1044C00000F0BEFDD4F80D301B1A5842584110BD03
:1044D000024800F06AFED4F81130F5E73A80000295
:1044E0004FF0FF3210B5084C411E00F6FB7011F87A
:1044F000013F5340DBB254F82330884283EA122252
:10450000F5D1D04310BD00BF5884000230B500255E
:104510000446ADF5805D85B040F6FC72294605A8DD
:10452000049502F06CFCA36813B1237B012B16D910
:1045300001F03AFA20B900200DF5805D05B030BDDC
:10454000D4F8113000210293D4F80D30184A0193A9
:10455000237B18480093636802F038FDEBE74FF4C3
:104560008052FF2104A802F04AFC4A22214604A8F6
:1045700002F038FC05A8FFF7B3FF2368834214D08C
:1045800001F012FA0028D6D0D4F81130294603934E
:10459000D4F80D30064A0293237B074801936368E1
:1045A0000093236802F012FDC5E70120C4E700BFB5
:1045B0004A800002558000029C800002024620B121
:1045C000036883F00100106070474FF0FF307047C0
:1045D00037B5044660B901F0E7F918B94FF0FF307C
:1045E00003B030BD2146274A274802F0EFFCF5E72B
:1045F00001F0DAF940B1022300210093214A40F290
:104600005F13224802F0E2FC4A22214804F109012A
:1046100000F0EAFF051E0BDA01F0C6F940B10021F7
:104620004FF4B373174A1B480195009102F0CEFC7A
:104630004A22194804F1530100F0D6FF051E13DA8F
:1046400001F0B2F90028C9D00123002100930D4ADE
:104650004FF4B37301950F4802F0B8FCBEE7013286
:104660000BD000202060BBE7D4F80D20D4F85730E1
:104670009A42F4D8F5D00133F3D00123002023600F
:10468000AEE700BF4A800002F480000218810002F9
:1046900000E0FF004481000200F0FF0073B54FF01E
:1046A000FF310446CDE9001190B10568002D67D1B6
:1046B0000930FFF72BFF064660B101F075F930B104
:1046C0004FF4D0732946454A454802F07FFC617D8E
:1046D000084653E004F15300FFF718FF054678B190
:1046E00001F062F930B140F2A51331463B4A3D4832
:1046F00002F06CFC94F85F102046FFF75FFFE7E7DD
:1047000001F052F930B140F2AB132946334A364832
:1047100002F05CFC042000F093FC0546334800F0F6
:1047200044FD04220446694605F1100000F05CFFD8
:10473000042205460DEB020104F1100000F054FFC5
:10474000002D044608DA01F02FF928B12B4600218C
:10475000224A274802F03AFC002C08DA01F024F93A
:1047600028B1234600211D4A224802F02FFCDDE932
:104770000032134001330CBF0320042002B070BD8F
:104780005330FFF7C3FE064660B101F00DF930B1BA
:104790004FF4E4730021114A174802F017FC94F813
:1047A0005F1095E704F10900FFF7B0FE054658B128
:1047B00001F0FAF830B140F2CD133146074A0F4804
:1047C00002F004FC617D97E701F0EEF80028A1D02B
:1047D00040F2D3132946014A094899E74A8000026A
:1047E000758100029E810002DF8100023A80000292
:1047F0001A820002528200028C820002B5820002FC
:10480000F68200022DE9FF41054650B901F0CCF8CF
:1048100020B12946644A654802F0D8FB4FF0FF30CA
:10482000B9E0012303724FF0FF330420CDE90233D6
:1048300000F006FC042202A9063000F0D5FE041E9A
:104840000BDA01F0B1F828B123460021564A584846
:1048500002F0BCFB4FF0FF330293564800F0A5FC7A
:10486000042203A9063000F0BFFE041E0BDA01F09B
:104870009BF828B1234600214B4A4F4802F0A6FB83
:104880004FF0FF330393DDE90232934205F109074C
:1048900024D2013225D001213846FFF70DFE002831
:1048A00059D1012105F15300FFF706FE0646002805
:1048B00058D101F079F80124002855D101F074F89D
:1048C00048B1022300210093374A40F24D333B4860
:1048D000019402F07BFB0020286015E016D0013324
:1048E000D9D000213846FFF7E7FD014688BB05F126
:1048F0005300FFF7E1FD04460028DFD001204A23E2
:10490000286003FB00550020687544E0002138460C
:10491000FFF7D2FD044690BB05F15308014640461F
:10492000FFF7CAFD064670BB01213846FFF7C4FDFC
:10493000A0BB01214046FFF7BFFD064688BB01F042
:1049400033F802240028B9D04FF45273CDE9004463
:104950000FE00020D3E700204A23286003FB005526
:104960000120D1E70120F7E70223009340F2323320
:10497000019431460C4A124802F028FB9EE70021C0
:1049800008460E4602E02146204601264A2202FB46
:1049900006532E60597504B0BDE8F0810121084628
:1049A000F4E70121ECE700BF4A800002F480000236
:1049B000318300023A8000026C830002008400020E
:1049C000A983000203220B4B82B001930A4B9A6029
:1049D00001221A615A69D20505D5586980F0040090
:1049E000C0F3800004E00198421E01920028F1D13A
:1049F00002B0704760900F00000088444FF0884379
:104A00001868C0F340007047002238B56B4BC3F8FC
:104A10008420BFF34F8FD3F88020C2F3C900C2F3C4
:104A20004E325201014602F4FF5545EA81740139C4
:104A3000C3F87442F9D2203A12F1200FF2D1BFF339
:104A40004F8FBFF36F8FBFF34F8FBFF36F8F002276
:104A5000C3F85022BFF34F8FBFF36F8F584A9A604D
:104A60009A6FD20715D55A6912F4003211D1BFF3EB
:104A70004F8FBFF36F8FC3F85022BFF34F8FBFF339
:104A80006F8F5A6942F400325A61BFF34F8FBFF300
:104A90006F8F4A4A936F9B0769D50023C2F8843011
:104AA000BFF34F8FD2F88030C3F3C900C3F34E3346
:104AB0005B01014603F4FF5545EA81740139C2F8F0
:104AC0007442F9D2203B13F1200FF2D1BFF34F8F84
:104AD000BFF36F8F0023C2F88430BFF34F8F536949
:104AE00023F480335361BFF34F8FD2F88030334CBF
:104AF000C3F3C901C3F34E335B010A4603F4FF5508
:104B000045EA8270013AC4F87402F9D2203B13F1ED
:104B1000200FF2D1BFF34F8FBFF36F8F00F082F8F9
:104B2000636913F4803322D1C4F88430BFF34F8F0C
:104B3000D4F880302149C3F3C900C3F34E335B017D
:104B4000024603F4FF5545EA8274013AC1F8604217
:104B5000F9D2203B13F1200FF2D1BFF34F8F4B69F5
:104B600043F480334B61BFF34F8FBFF36F8F154B0F
:104B7000154A16491360164A1360164B1A6942F01B
:104B800001021A610A6842F003020A605A6942F09F
:104B900001025A61A3F573435A6A42F480325A62A1
:104BA0005A6A42F400225A625A6A42F480225A62D5
:104BB0005A6A42F400325A6238BD00BF00ED00E08C
:104BC00000400608005A6202084A062800E501E093
:104BD000044A062800E001E0BFF35F8F074B5A6AE2
:104BE00022F480325A62D3F8942022F00102C3F8F2
:104BF0009420BFF34F8FBFF36F8F704700ED00E03D
:104C0000BFF35F8F0722064BC3F894205A6A42F421
:104C100080325A62BFF34F8FBFF36F8F704700BF70
:104C200000ED00E070B5FFF7D7FF0023134A1449E9
:104C3000082B02F1080216D10022FF26114C104960
:104C400014F8013BD1F8C000934006FA02F5434046
:104C50002B4008324340202AC1F8C030F0D1BDE8D3
:104C60007040FFF7CDBF52E90240C1F89830C1F85B
:104C70009C400133C1F8A000DAE700BF5C88000265
:104C800000ED00E058880002114A30B5936F9B0791
:104C90001CD50023C2F88430BFF34F8FD2F8803088
:104CA000C3F3C900C3F34E335B01014603F4FF5560
:104CB00045EA81740139C2F87442F9D2203B13F1FC
:104CC000200FF2D1BFF34F8FBFF36F8F30BD00BF06
:104CD00000ED00E0064B82B01868002382B262F358
:104CE0000F03000C60F31F43184602B0704700BF6B
:104CF000F0880002082070476FF003007047000042
:104D0000014B1868704700BF186C0628014B1B68E0
:104D100058687047144A062808B500F037FD00208F
:104D200008BD000008B500F09FFD002000F05CFD0C
:104D300000F0FAFD024B000B1860002008BD00BF18
:104D40001C6C062870B5144662B1094B094E1B68ED
:104D500036685B6815189B687343013B9D4203D816
:104D600000F042FC204670BD6FF00400FBE700BF7E
:104D7000144A06281C6C0628B0F5B83F06D3014437
:104D8000B1F5C83F0BD9B0F5C83F01D2002004E00F
:104D9000B1F5D83F8CBF00200120013870470020BA
:104DA0007047000070B500210546FFF7E5FF044697
:104DB00038B12946124802F009F96FF0060420467E
:104DC00070BD104B1B685B6899680F4BB5FBF1F227
:104DD0001B6801FB12524B43013B72B99D420CD838
:104DE00000F000FD0646204600F0FEFC284603F0D9
:104DF000F3FF304600F0F8FCE1E76FF00404DEE773
:104E00009C880002144A06281C6C06282DE9F041F3
:104E10000F4611460646FFF7AFFF1446054640B160
:104E200031461D4802F0D2F86FF006052846BDE86D
:104E3000F081002AFAD0194B1B685868B318184A39
:104E40000169126880684243013A9342B6FBF1F26D
:104E500001FB12624FF0FF3398BF0023003A18BFE6
:104E6000012252421343B4FBF1F201FB12410B4306
:104E70000FD100F0B7FC8046284600F0B5FC224672
:104E80003946304600F002FC404600F0ADFC2546B5
:104E9000CCE76FF00405C9E7B7880002144A06287A
:104EA0001C6C062870470746FFF7FCFF00200146F0
:104EB000024603460446054606468046814682462B
:104EC0008346844686463847FEE7000010B500F06A
:104ED0009DFD074B00209B689847044628B900F0C9
:104EE00023FD044B1860204610BD0124FBE700BFE2
:104EF000F4880002206C062808B501F0B7FE0038DF
:104F000018BF012008BD000008B5044601F0B4FE3A
:104F100000B1FEE7094BDB68984700B1FEE7084B9C
:104F20001C6080F30A88226882F30888BFF34F8FE1
:104F3000BFF36F8F1B685868FFF7B5FFF488000256
:104F4000246C0628024B03EB00139868704700BFDF
:104F5000184A062870B5002000F07EF805460020AB
:104F600000F06EF8244C254EA06035400120E5602D
:104F700000F066F8A061012000F06EF8E061012009
:104F800000F06AF83040A169E061A0680A1A00F0F8
:104F9000D1FC0B2000F054F8A0620B2000F05CF86C
:104FA000E0620C2000F04CF8A0630C2000F054F8F4
:104FB000E0630D2000F044F8A0640D2000F04CF8F0
:104FC000E0640E2000F03CF8A0650E2000F044F8EC
:104FD000E0650F2000F034F8A0660F2000F03CF8E8
:104FE000E066102000F02CF8A067102000F034F8E4
:104FF000E067002070BD00BF184A062800F0FFFFE0
:1050000020F02003413B192B05D9303809288CBFEB
:105010000020012070470120704710B54218435C02
:105020005478D0781B0643EA04430343907843EA5C
:10503000002010BD425C0844407840EA02207047DE
:1050400010289FBF28235843024B185888BF0020C0
:10505000704700BF286C062810289FBF2822034BEA
:1050600002FB0030406888BF00207047286C06288B
:105070002DE9F04F20208DB000F0E0F80546002823
:1050800073D04FF410564FF00008202229463046C6
:1050900000F0AAFA2878FFF7B3FF80B306AA00232E
:1050A0009146E95CFF2904D00133142B02F8011B5F
:1050B000F7D1002730336B44DFF8DCA0374C03F81E
:1050C000188C49465AF8040B01F0A8FF70B9162154
:1050D0002846FFF7A2FF1A2120602846FFF79DFF10
:1050E0001E2160602846FFF7A5FFA0600137112F41
:1050F00004F12804E5D12036B6F5295FC5D1002694
:105100000127264CDFF89090DFF89480636803B3A2
:105110004FF0000ADFF88CE00DF1040CBEE80F0040
:10512000ACE80F00DEF800300DF1040BCCF80030D5
:105130005BF8041B59F8260001F070FFC0B10AF1BA
:10514000010ABAF1050FF3D1002384F8243084F862
:1051500025700136112E04F12804D7D1284600F01D
:1051600068F800200DB0BDE8F08F4FF0FF30F9E790
:105170004FF48050D4E9002102F58F531F3303EA26
:1051800008030A44C4E90613E360D31AC4E904001F
:1051900084F824702362DAE7984A0628286C0628E7
:1051A00000FEFFFFD089000270472DE9F04107465D
:1051B00086B020B90024204606B0BDE8F08120204A
:1051C00000F03CF805460028F4D04FF410564FF09C
:1051D000000820222946304600F006FA2878FFF71A
:1051E0000FFF0446B8B16A4600231046E95CFF2968
:1051F00004D00133142B02F8011BF7D118336B4490
:10520000394603F8188C01F009FF40B916212846E9
:10521000FFF703FF0446284600F00BF8CBE72036E3
:10522000B6F5295FD5D10024F5E70020704701F0DD
:10523000E6BD08B101F0CEBD7047000010B50446D0
:1052400001F0C0FD044A04449442034602D9FFF72A
:10525000F0FF0023184610BDC01F072800F00BBC4C
:1052600000F0FEBD02F0C8BD08B5032000F00EFC42
:10527000022000F003FC002000F008FCBDE808401C
:10528000032000F023BD0369002BFCDB7047F8B559
:1052900000250326FFF7F7FFC561FFF7F4FF436D15
:1052A00066F31C634365036943F0005303610369BC
:1052B00043F080430361FFF7E6FF446A0129E4B24B
:1052C00030D00627436D67F31C634365036943F0E1
:1052D00000530361036943F080430361FFF7D3FF89
:1052E000436A0229DBB244EA03241BD01521C369B7
:1052F00043F40033C361C36961F30F23C361436D9A
:1053000066F31C634365036943F00053036103695B
:1053100043F080430361FFF7B6FF436AC561DBB228
:1053200044EA03442046F8BD38B5FFF7ACFF836A72
:1053300095B265F399238362FFF7A5FF012904461F
:105340000DD10422436D62F31C636365236943F04E
:1053500000532361236943F08043236157E002290E
:1053600055D11421FFF78FFF436D61F31C63436533
:10537000036943F000530361036943F08043036111
:10538000FFF781FF016A254B9942436D44D1042107
:1053900061F31C6343650369C2F30F2243F00053BA
:1053A0000361036943F080430361FFF76CFF836A85
:1053B00062F3992331228362FFF765FFFFF763FFF2
:1053C000C36962F307030122C361C36943F48033F5
:1053D000C361FFF758FFFFF756FF436D61F31C638E
:1053E0004365036943F000530361036943F080435D
:1053F0000361FFF748FFFFF746FFC36962F3070346
:10540000C361C3696FF31043C361FFF73CFF2046DC
:10541000BDE83840FFF737BF072294E71640C800C1
:1054200048B90A4B19B101221A60002070471A6866
:1054300022F00102F8E70128F7D1054B09B1022259
:10544000F2E71A6822F00202EEE700BFEC6E0628CF
:10545000E86E0628162238B505462B4C2068FFF763
:1054600012FF836A6FF308138362436D6FF31703B0
:105470004365436D62F31C634365036943F0005366
:105480000361036943F080430361FFF7FCFE0020E2
:10549000FFF7E8FE022D0CD101222068FFF7F3FE92
:1054A000836A62F3081383620120FFF7DBFE0020AA
:1054B00038BD042DF8D1E36820689A7EFFF7E3FE3B
:1054C000436A62F39D534362E3685B7E012B13D111
:1054D0002068FFF7D8FEE36820681979FFF7D7FE48
:1054E000E1684B7E0A7E03FA02F2104204D10243C5
:1054F00009792068FFF718FFE3682068DA7EFFF774
:10550000C2FE836ACDE700BFD46E0628044BDB6879
:105510001B7B042B02D10220FFF79CBF704700BF0A
:10552000D46E0628034BDB68187B042801D1FFF7F3
:1055300091BF7047D46E062870B51E4E0446F368BE
:105540000D469B6883421CD91B4BA1F10D02B0F59F
:10555000B83F53F8223003D3C218B2F5C83F12D96E
:10556000B4F5C83F03D32344B3F5D83F0BD9134B4D
:105570001A68134B1B68134305D12146114801F0EB
:1055800025FD114815E0FFF7C1FF3068FFF77BFEEE
:10559000436D64F317034365436D65F31C63436513
:1055A000036943F000530361FFF76DFEFFF7BAFF95
:1055B000002070BDD46E06282C8A0002EC6E0628EE
:1055C000E86E0628E4890002FEC8FFFF0E2907D016
:1055D0000F2903D00D2905D103F0FEBB03F004BC55
:1055E00003F007BC002070472DE9F043254F044627
:1055F000FB680E469B681546834289B03FD920223E
:105600000021684601F0FBFB1DB9002009B0BDE890
:10561000F0834FF0050924F01F083868FFF733FEC8
:105620003868FFF730FE436D6A4668F31703436539
:10563000436D08F1200869F31C634365036943F077
:1056400000530361FFF71FFE0023386881690133AF
:10565000082B42F8041BF9D1334604F01F021DF851
:105660000210013D03F8011B03EB0401A1EB06014D
:10567000CBD00132202AF2D11E460C46CDE702489B
:10568000C4E700BFD46E0628FEC8FFFF2DE9F04333
:10569000394F0446FB680E469B681546834289B025
:1056A00017D9B0F5B83F03D38318B3F5C83F12D963
:1056B000B4F5C83F03D36319B3F5D83F0BD92F4BCB
:1056C0001A682F4B1B68134305D121462D4801F062
:1056D0007DFC2D480AE0FFF719FFFB6824F01F0846
:1056E0009B68984505D3FFF71DFF002009B0BDE872
:1056F000F0839D42F7D805EB08029342F3D3002DC7
:10570000F1D02022FF216846FFF791FD324604F0D8
:105710001F0312F8011B013D0DF8031002EB0401F9
:10572000A1EB060102D00133202BF2D13868FFF73C
:10573000AAFD6E46002456F8049B38680134FFF732
:10574000A2FD082CC0F81490F5D10C243868FFF79E
:105750009AFD436D164668F317034365436D08F1E0
:10576000200864F31C63436503690C4643F000534F
:105770000361FFF788FDC2E7D46E0628EC6E0628A9
:10578000E86E0628078A0002FEC8FFFF034B1A785E
:105790000AB100221A700020704700BFE46E06288C
:1057A00010B50446FFF7B2FE044B21461868FFF718
:1057B0006EFD0446FFF7B6FEA0B210BDD46E0628FB
:1057C00038B504460D46FFF7A1FE054B2A4618687A
:1057D0002146FFF7A9FDFFF7A5FE002038BD00BF59
:1057E000D46E062800207047F8B51D4D2B78A3BB5A
:1057F0001C4EFFF78BFEF368306819795C8A9A7C3F
:10580000FFF745FDF168240A91F80EC0CB7B20FA22
:105810000CFE0EEA030E96454F7B05D120FA07FEDB
:105820000EF0010EA64514D003FA0CFE134003FA45
:105830000CF220EA0E001043012204F00104BA40E9
:1058400020EA020004FA07F2024309793068FFF700
:105850006BFD01232B70FFF765FE0020F8BD00BF34
:10586000E56E0628D46E062870B5284E3578002DD2
:1058700048D1274C102229462046FFF7D8FC204665
:1058800000F074FB0220FFF7E5FD14222068FFF70B
:10589000FAFC436D62F31C63436503691D4A43F0E0
:1058A00000530361036943F080430361FFF7EBFC9E
:1058B000036A1360184AA360934203D0174A9342C5
:1058C00022D101251C23164903FB05150320E560A1
:1058D000FFF78AFF2068FFF7D6FC836A6FF349233E
:1058E0008362E368187BFFF7B5FD05222068FFF7A8
:1058F000CAFC836A62F3030383620120FFF7B2FCF0
:1059000001233370002070BD064DDFE7E46E0628EA
:10591000D46E0628D06E06281765C80018400B0004
:10592000388A0002548A0002014BDB68986870478D
:10593000D46E0628034B02441B689865081ADA6582
:1059400018667047D46E062808B572B6003818BFBE
:105950000120054B1B685A6E60F300025A66FFF780
:1059600093F962B608BD00BFD46E062810B50B4C83
:10597000236B1A0409D5236C1B0704D4084BD3F8F6
:105980003C24084B1A60002010BD0A20236B02F053
:105990002BFA0A20236C02F027FAEFE700000144FB
:1059A0000000104BF06E0628034B186880F400705E
:1059B000C0F34020704700BFF06E0628034B186804
:1059C00080F48060C0F38020704700BFF06E06282E
:1059D000024B0348196801F0F9BA00BFF06E0628BF
:1059E000708A0002024A936A43F00C039362704784
:1059F0000000014408B5FFF7F5FF4FF0894340F47C
:105A0000B40240F425001A61186108BD4FF6FF701A
:105A1000FFF7F0BF0122064B016003449B080549D4
:105A200002FA03F3D1F8E8201A42FBD1704700BF15
:105A300000FFFEBB0000014430B4046802FA01F527
:105A40001A4024EA050402FA01F1214330BCFFF7B1
:105A5000E1BF00000346012209210148FFF7ECBF26
:105A60002001014482B00190019B5A1E0192002B3B
:105A7000FAD102B07047002070470000024B5A6A0A
:105A800060F319625A62704700000144024B5A6A7F
:105A900060F39B625A62704700000144F0B587B022
:105AA0006C4607460E46074D0FCD0FC495E8030020
:105AB00084E8030006AB03EBC70757F8143C1E60ED
:105AC00007B0F0BD7C8A000270B586B06C46064611
:105AD000074D0FCD0FC495E8030084E8030006AB23
:105AE00003EBC60656F8143C186806B070BD00BF3C
:105AF0007C8A0002012870B506460C461D4647D830
:105B00000F2945D8012A43D8049B012B40D8012DE9
:105B10003ED80020FFF7D8FFC0F30010B04217D9DD
:105B20000020FFF7D1FF20F010010020FFF7B6FFA3
:105B30000020FFF7C9FF20F00F0121430020FFF7ED
:105B4000ADFF154B1A6965F304121A61002070BD90
:105B500024B9114B1A6965F304121A610020FFF78A
:105B6000B3FF20F00F0121430020FFF797FF24B17E
:105B7000094B1A6965F304121A610020FFF7A4FFAC
:105B800020F0100141EA06110020FFF787FFDDE752
:105B90004FF0FF30DBE700BF000001440D4B10B5B4
:105BA000D3F820310446C3F3034398420FD00120B9
:105BB000FFF750FF23460F2210210748FFF73CFF55
:105BC0000020FFF747FF4FF47A60FFF74BFF0020FC
:105BD00010BD00BF000001442001014413B5052899
:105BE00031D8DFE800F02A25201B11030123002211
:105BF000194618460093FFF77DFF04460D20FFF776
:105C0000CDFF204602B010BD0123002202210093E7
:105C10001846FFF76FFF04460920F0E70123002232
:105C200003210093F4E70123002205210093EFE70D
:105C30000123002207210093EAE7002201231146F5
:105C400010460093E5E70024DBE707B505283AD8BE
:105C5000DFE800F03028201810030D20FFF79EFF2A
:105C600001230022194600931846FFF743FF03B0B3
:105C70005DF804FB0920FFF791FF012300220221B8
:105C80000093F1E70920FFF789FF01230022032198
:105C90000093E9E70920FFF781FF01230022052196
:105CA0000093E1E70920FFF779FF01230022072194
:105CB0000093D9E70920FFF771FF00220123114665
:105CC00010460093D1E70020D1E7000038B5074D1A
:105CD00004462B78834203D004D9FFF77FFF2C7052
:105CE000002038BDFFF7B1FFF9E700BFF46E0628CA
:105CF00001280CD0022813D040B90E4B02299A6A11
:105D00000CBF42F4805260F30C329A627047094B28
:105D100002299A6A0CBF42F400526FF34D32F4E745
:105D2000044B02299A6A0CBF42F480426FF38E3210
:105D3000EBE700BF00000144012808D002280BD087
:105D400078B9094B986AC0F3003001307047064BB0
:105D5000986AC0F34030F8E7034B986AC0F380308C
:105D6000F3E70120704700BF000001440023012237
:105D70000F210148FFF760BE0401014401230F21F8
:105D80001A460148FFF758BE0401014438B52D4BAF
:105D90000446D3F884502C4825F40022C3F884200C
:105DA00001230B211A46FFF747FE00230122102191
:105DB0000430FFF741FE4FF4AA70FFF753FEFFF7E0
:105DC000D5FF9CB340F64850FFF74CFEFFF7D6FFD7
:105DD0007CB340F64850FFF745FEFFF7C7FF5CB3C2
:105DE00040F64850FFF73EFEFFF7C8FF3CB340F6D1
:105DF0004850FFF737FE00F0B2F87F22034601213A
:105E00001248FFF719FE012310211A46FFF714FE6E
:105E1000002301220B210438FFF70EFE2B0303D5CC
:105E20004FF4002001F0D8FF002038BD4FF4AA70D5
:105E3000CAE74FF4AA70CEE74FF4AA70D2E74FF446
:105E4000AA70D6E7000001440001014404010144A6
:105E500008B50120FFF79AFFBDE8084000F04CBBF1
:105E600038B500F077F82C4B2C4DD3F814110446BC
:105E700041F020012846FFF7CDFDA5F11400284987
:105E8000FFF7C8FD27490430FFF7C4FD2649043059
:105E9000FFF7C0FD25490430FFF7BCFD4FF08041FE
:105EA0000430FFF7B7FD28462149FFF7B3FD21492C
:105EB0000430FFF7AFFD20490430FFF7ABFD1F4969
:105EC0000430FFF7A7FD0120FFF7C4FD1C481D4962
:105ED000FFF7A0FD1C490430FFF79CFD00210430B2
:105EE000FFF798FD4FF480110430FFF793FD4FF456
:105EF00000210430FFF78EFD14490430FFF78AFDBE
:105F000013490430FFF786FD0020FFF7A3FD20466C
:105F1000BDE83840FFF79CBF000001441401014474
:105F2000E097211D00FA2EC03625C9FF640BFCFD49
:105F300060AF0784008108802695E257E4727CF800
:105F40002401014427135DB59AB8EEF70800A800B4
:105F5000F60988524FF08843D3F8F00170474FF0AC
:105F60008843D3F8F401C0F386307047034B0360D5
:105F70009A68002042F001029A60704700000344D2
:105F800037B5084C6369984748B9E56AA847C3071D
:105F9000FCD4236A019303B0BDE8304018470020C9
:105FA00003B030BD948A000208461146FFF7E8BFEF
:105FB00010B5074C0020A3689847A46A4FF4E1315C
:105FC0000120A0472346BDE81040012115201847B5
:105FD000948A00020020704700207047014B5868E7
:105FE000704700BFF86E0628002382B00193019825
:105FF00002B0704738B50C46014640B13CB1054D82
:106000002246287800F048F900206C6038BD6FF017
:106010000400FBE7F86E06281FB54FF4E1320323B6
:106020000446CDE9012301238DF80C30FFF716F962
:1060300000F07CF900F050F8207801A900F06CF82D
:10604000002004B010BD00000148FFF7E5BF00BF0D
:10605000F86E062810B50C46E3B2012B114602D0AB
:106060006FF0030010BD00F0EBF858B914F4E06FC6
:10607000F6D114F4405F08D114F4404F18BF6FF00C
:106080000A00EFE76FF00700ECE76FF00900E9E7BF
:10609000024B0A4601461878FFF7DCBFF86E062867
:1060A0000128014606D0022806D040B9012102206D
:1060B00000F072BA0A20FBE701210B20F8E77047D5
:1060C0000C235843034B1B589A69D202FCD500207D
:1060D000D9617047046F062838B50B4D2C7884B908
:1060E000302221460948FFF7A2F82022214608481D
:1060F000FFF79DF8202221460648FFF798F8012374
:106100002B70002038BD00BF346F0628046F0628AE
:10611000386F0628586F0628F8B5434B04461B789D
:106120000F46002B77D0002978D0032878D80B6849
:106130003E4AA3F59853123B934273D80C263C4D2C
:1061400006FB00563071304600F03EF92046FFF75E
:10615000A7FF0121204600F021FA012C35D0022CA6
:1061600046D09CB90B2000F0DCF80A2000F0D9F8EA
:106170001F210B2000F0CAF820210A2000F0C6F8E9
:106180000B2000F0DFF80A2000F0DCF80C230121DE
:1061900003FB045301FA04F2187A52B21043187246
:1061A000587A02435A723B7A2046022B08BF19469E
:1061B00000F0F4F93A462146304600F05DF92146F8
:1061C000304600F013F90020F8BD002000F0A9F8D7
:1061D000204600F0A6F82121002000F097F82221A7
:1061E000204600F093F8002000F0ACF82046CBE702
:1061F000292000F096F8282000F093F82321292088
:1062000000F084F82421282000F080F8292000F0F4
:1062100099F82820B8E76FF41050D5E70548D3E780
:106220000548D1E70548CFE7346F0628EEFE790030
:10623000046F0628F7EFFFFFFEDBFFFFFBDBFFFF2E
:1062400038B5104B04461B780D46A3B1032815D86A
:106250000D4AA1F59853123B934211D8FFF76CFDFC
:1062600021460C24024609482B4604FB010000F09D
:10627000C9F8002038BD6FF41050FBE70448F9E777
:106280000448F7E7346F0628EEFE7900046F06280D
:10629000FEDBFFFFFBDBFFFF104B70B51B780546F5
:1062A0000C46A3B1032815D80C210D4B01FB00337C
:1062B0001B7A0341DB070FD5A618B44201D1002099
:1062C00070BD284614F8011BFFF7FAFEF5E76FF4DE
:1062D0001050F5E70348F3E70348F1E7346F062869
:1062E000046F0628FEDBFFFFFADBFFFF38B504462C
:1062F000084600F029F805460021204600F050F835
:1063000029462046BDE8384000F03AB808B5FFF706
:10631000EDFF002008BD08B5002100F041F8002085
:1063200008BD08B5FFF7F7FF002008BD10B5044C05
:1063300023781BB900F014F801232370002010BD4E
:10634000786F062800F02EB8013880B2B0F59A7F39
:106350009ABF024B185C5F20704700BFCC8A0002D6
:1063600010B5064C23783BB900F0E0F84FF400007C
:1063700000F016F901232370002010BD796F062864
:10638000172804D85E2904D8C0B200F0E5B8024846
:1063900070470248704700BFF5DFFFFFFBB3FFFF08
:1063A00000F0D4B8172810B5044608D8012100F031
:1063B000E9F82046BDE81040012100F0D9B80148B5
:1063C00010BD00BFF5DFFFFF0379022B96BF054A22
:1063D000054B52F8233003609A68002042F0010216
:1063E0009A607047048C000200DCFFFF0368002005
:1063F0001A6942F001021A611A6942F002021A6136
:1064000070470000022A0CBF064A074AB2FBF3F3AA
:106410000268013B11699BB263F3172100201161EF
:10642000704700BF000E2707005A6202036819690F
:1064300042B962F3451119611969002062F38611AE
:106440001961704741F020011961511E4A424A41C9
:10645000F2E703680020996A6FF307019962996A6D
:1064600062F30F2199629A6A42F400329A629A6A40
:1064700042F480229A627047F8B5154600274FF61D
:10648000FF7204460E4603681F62DA611A6995F8C6
:1064900004C06CF3C4021A6195F806C01A696CF363
:1064A000C7121A616A79FFF7C1FF31462B682A7A51
:1064B0002046FFF7A7FF202123685A6961F30702EE
:1064C00040215A615A6961F30F225A615A6967F390
:1064D00011425A619F62EB794BB1802231462046CE
:1064E000FFF7B7FF2268936A43F48033936200207A
:1064F0002368D862F8BD00000B4B9A6842F0010295
:106500009A604FF0FF321A61DA6942F00102DA61F3
:10651000A3F500031A6B42F010021A631A6A42F4E0
:1065200080121A62704700BF00008144064A0020B2
:10653000936843F001039360A2F50202136B43F0EA
:1065400080031363704700BF00008344014B800049
:106550001950704700018344044B80001A58C9B297
:1065600061F31F621A500020704700BF000183448E
:10657000034B80001A5861F304121A500020704730
:1065800000018344034B80001A5861F345121A50EE
:10659000002070470001834401F036BCFFF7A8BB20
:1065A00001F01ABC01680E4A0346914215D1C16937
:1065B000A2F11022A2F1EF1291420ED18268012ABB
:1065C0000BD8C26812B101698A4206D0586928B155
:1065D0009B691B1A5842584170470120704700BF01
:1065E00055AA00FF0D4B70B59E68A6B13046FFF767
:1065F000D9FF044678B9F3686BB935690DB92046FF
:1066000070BD2846FFF7CEFF28B9EB68B34202D130
:106610002E462D69F2E70124F1E700BF70940628A9
:106620002DE9F843404F3C68D4B1BC68C4B10028A0
:106630004DD000294BD001FB00F5B5FBF0F08842AE
:1066400045D1281D43D8A9070DD025F003060436EF
:10665000FC6803E06368B3423BD2A469002CF9D123
:106660002046BDE8F8832E46F2E7F86044E006F1E4
:10667000200C04EB0C03203959600021DFF8ACE05A
:10668000C3E902142169196144F80CE0DFF8A0C0E5
:10669000C3F81CC001B1CB60C3E90520AAB1936166
:1066A0009A6902B15361236100234FF00109C4E9E3
:1066B00005333B69C4E90169DB072DD5FFF792FF7C
:1066C00050B31C4B48461B6825E0FB60E8E70024FC
:1066D000C6E7A3681BB1174B01201B689847D4E994
:1066E0000520616804F12008891B2329BFD80123F4
:1066F000A360002AB9D09061A36903B15A61002355
:10670000C4E905333B69DA0706D5FFF76BFF18B11B
:106710000120084B1B6898472A4600214046444602
:1067200000F06DFB9CE700BF7094062855AA00FF9F
:10673000669911EEE04A06282DE9F0410546002849
:106740007CD03F4F3B68002B78D0BA68002A75D0C8
:10675000834203D87A681344984203D3394B01200B
:106760001B689847A5F120042046FFF71BFF18B1CE
:10677000344B01201B68984755F8183C012B03D077
:10678000304B01201B689847002355F8146C45F8DE
:10679000183CAEB1B26892B955F81C3C03F1200226
:1067A00073681344736055F8103C336103B1DE60C5
:1067B00020462022002100F022FB234634461E46BC
:1067C0002069002832D08368002B2FD1636842688B
:1067D0002033134463600369D4E905212361DAB9E6
:1067E00001BB426981696261A161EAB19461A269F8
:1067F00002B1546103B1DC602022002100F0FFFAF5
:106800003B699B071AD5FFF7EDFEB8B1BDE8F04133
:106810000C4B01201B6818479161A1690029E0D049
:106820004A61DEE7F960F8E7FC60E0E7002EE7D1B7
:10683000FB68A36103B15C61FC60E1E7BDE8F08146
:1068400070940628E04A062838B50D461422002127
:106850000446124800F0D3FA1149124800F032F809
:10686000232D1AD914F003031FBF043DED18C3F103
:106870000403E4182A460021204600F0C0FA074B22
:10688000094AC3E900459C602260A2F11022203D24
:10689000A2F1EF126560E261DC6038BD70940628F9
:1068A000396700022166000255AA00FF00207047E8
:1068B0007047704718B1024B1B6803B11847704707
:1068C000E44A0628024B1860024B0020196070470A
:1068D000DC4A0628E44A06280E4B1A681368042886
:1068E00015D8DFE800F003080B0E110043F0010398
:1068F00000201360704743F00203F9E743F00403FC
:10690000F6E743F00803F3E743F01003F0E74FF036
:10691000FF3070478494062808B50A4B1860036856
:1069200023F02003036000F01DF80020FFF7D4FFE0
:1069300000F09CF800F000F900F05AF900F0BCF803
:10694000002008BD8494062808B500F031F800F056
:106950006BF9BDE8084000F000B8704700207047B0
:1069600000207047114B82B019680A6842F0040297
:106970000A6019684A6842F004004860196822F009
:1069800004024A6043F224111A688B580193019B58
:1069900043F001030193019B23F0F00343F08003D4
:1069A0000193019B8B5002B000F022B8849406281A
:1069B000034B1A68136823F00403136000F002B855
:1069C0008494062810B5094C0220FFF7C7FFD4F8BD
:1069D0000C0300F08DF920464FF44472002100F0C2
:1069E0001FF9BDE810400220FFF7BABF88940628BF
:1069F00037B543F22C12184B184C2360184B1B6808
:106A0000D358C3F38143012B20D0022B21D0DBB913
:106A10004FF48063002563606A4661680E48009504
:106A20008DF8045000F02EF94FF421722946C4F875
:106A30000C030C4800F0F4F82023802229460A4871
:106A4000C4F8083300F0ECF803B030BD4FF4006335
:106A5000E0E74FF48053DDE700000628889406281D
:106A600084940628109506289094062807B50020DF
:106A70000190FFF731FF0F4B19684A680192019AA4
:106A800042F001020192019A4A6019684A68019233
:106A9000019A22F001020192019A4A60019A1B6850
:106AA00042F00102019243F284220199D15003B0D5
:106AB0005DF804FB849406281FB500231D4C019348
:106AC0002368D3F8001411F001012FD11A68019244
:106AD000019A42F008020192019A1A6022685368F2
:106AE0000193019B43F008030193019B5360019BB9
:106AF00023F008030193019A23685A6022680291E7
:106B0000D2F800340293029B23F480730293029B19
:106B1000C2F800342368D3F800340393039BDB07E7
:106B200004D44FF4FA6000F07DF8F3E7002004B0DD
:106B300010BD00BF84940628002307B501200193EF
:106B4000FFF7CAFE0E4B19684A680192019A42F09B
:106B500002020192019A4A60019A22F00202019215
:106B600001991A685160019A1B6842F00102019272
:106B700043F204220199D15003B05DF804FB00BF39
:106B800084940628124B01681A68C2F804121A6825
:106B90004168C2F808121A688168C2F80C121A68B3
:106BA000C168C2F810121A680169C2F814121A6892
:106BB0004169C2F824120F211A68C2F820121A681B
:106BC000D2F88C3243F00103C2F88432704700BF20
:106BD00084940628054A11684B6843F01000486009
:106BE000126823F010035360704700BF8494062896
:106BF00008B5FFF7EFFFBDE808400148FFF7C2BF47
:106C0000248D000238B50546FEF718FB044618B17E
:106C10002A46002100F0F3F8204638BDFEF709BBF4
:106C200000F0EDB870470000F8B50E4E3368012B48
:106C300008D10D4C6068A04205D10368834202D19F
:106C400000233360F8BD00274568A042F8D0D0E9A2
:106C5000002353601A60C0E90077FFF72BFE284637
:106C60006D68F2E7989706289C9706280148FFF779
:106C700053BE00BF0000114B08B5FFF765FE0020B2
:106C800008BD0000F8B50D461646074610B90024A9
:106C90002046F8BD0029FAD0002AF8D0136823B1A5
:106CA000013B40EA01021342F1D12020FFF7AAFF85
:106CB00004460028EBD00D4B0360FB1C23F00303BC
:106CC0003279C360DB1BED1A336825F003050272CD
:106CD000056143603AB100F037F8606104F11803D0
:106CE000C4E90633D4E74261F8E700BF56414D4797
:106CF000F8B5044638B3037A13B1406900F026F8BA
:106D0000E06904F1180585420ED1A3699D420BD1BB
:106D1000237A13B1606900F01BF80023236020463A
:106D2000BDE8F840FFF77ABF002746688542EFD0FC
:106D3000D0E9002353601A60C0E90077FFF76EFFC7
:106D400030467668F2E7F8BD0020704700207047B3
:106D50000020704708B5074B044613B1002100E03E
:106D600000BF054B1868836A03B19847204601F0BD
:106D700025F800BF000000003C8D000270B50D4DED
:106D800000260D4C641BA410A64209D10B4D002611
:106D90000B4C01F015F8641BA410A64205D170BD80
:106DA00055F8043B01369847EEE755F8043B0136A9
:106DB0009847F2E74C4B06284C4B06284C4B0628CC
:106DC000504B0628024B0146186800F08BB800BFF4
:106DD000E84A0628024B0146186800F019B800BFBF
:106DE000E84A06280A44431E914200D1704710B574
:106DF00011F8014B914203F8014FF9D110BD024443
:106E00000346934200D1704703F8011BF9E70000E5
:106E100038B50546002941D051F8043C0C1F002B21
:106E2000B8BFE41800F0FCF91D4A136833B9636079
:106E300014602846BDE8384000F0F8B9A34208D9EC
:106E4000206821188B4201BF19685B68091821600E
:106E5000EDE71A465B680BB1A342FAD911685018E6
:106E6000A0420BD120680144501811608342E0D148
:106E700018685B68014453601160DAE702D90C239B
:106E80002B60D6E7206821188B4202BF19685B6827
:106E90000918636008BF21605460CAE738BD00BFAD
:106EA000A497062870B50E4E0C460546316811B9F8
:106EB00000F0A4F830602146284600F09FF8431CFB
:106EC0000AD0C41C24F00304A04207D0211A28468B
:106ED00000F094F8013001D14FF0FF34204670BD2E
:106EE000A89706282DE9F041CD1C074625F003059B
:106EF00008350C2D38BF0C25002D01DBA94205D922
:106F00000C2300263B603046BDE8F0812E4E00F099
:106F100087F933681C4634BB29463846FFF7C2FF61
:106F2000431C04464DD134682646002E40D12368C8
:106F30003146384604EB030800F060F880453AD14A
:106F40002168033538466D1A25F0030508350C2DE8
:106F500038BF0C252946FFF7A5FF01302BD0236849
:106F60002B4423600EE02268521B1ED40B2A16D934
:106F70006119A342256018BF5960636808BF31607A
:106F800062514B6004F10B06384600F04FF9231DA7
:106F900026F00706F21AB6D09B1BA350B3E762682F
:106FA000A3420CBF32605A60ECE723466468B2E744
:106FB00034467668B9E70C2338463B6000F036F972
:106FC000A1E72560DEE700BFA49706280FB40A4BAF
:106FD00013B51C6824B1A36913B9204600F080F8EA
:106FE00005AB049AA1682046019300F04DF902B068
:106FF000BDE8104004B07047E84A062838B50023C1
:10700000054D044608462B6000F0C8FE431C02D123
:107010002B6803B1236038BDB097062810F8012B08
:1070200011F8013B012A28BF9A42F7D0D01A7047C5
:10703000002310B504468360818119464366C281EE
:1070400008228361C0E90033C0E904335C30FFF7F4
:10705000D6FE054B24626362044BA362044BE362D9
:10706000044B236310BD00BF15780002377800027F
:107070006F78000293780002014900F0AFB800BFBA
:10708000617B000270B568224D1E0E46554305F126
:107090007401FFF727FF044640B1002105F16802A3
:1070A000C0E900160C30A060FFF7A9FE204670BDB5
:1070B000014800F0B3B800BFAD970628014800F0C2
:1070C000AEB800BFAD970628014800F0A7B800BFD2
:1070D000AE970628014800F0A2B800BFAE97062878
:1070E00010B50446FFF7F0FFA3691BB1BDE81040DF
:1070F000FFF7F0BFC4E9123323652046124B134A51
:107100001B68A262A34204BF0123A36100F020F820
:107110006060204600F01CF8A060204600F018F8DF
:1071200000220421E0606068FFF782FF012209214C
:10713000A068FFF77DFF02221221E068FFF778FFC9
:107140000123A361D2E700BF3C8D000279700002E9
:10715000F8B50746FFF7ACFF1E4B1E68B36913B9BD
:107160003046FFF7BDFF4836D6E90134013B03D571
:1071700033680BB33668F7E7B4F90C50D5B9164B42
:1071800004F158006566E36000F047F8FFF796FFEA
:107190000822294604F15C002560A561C4E9015577
:1071A000C4E90455FFF72BFEC4E90D55C4E9125597
:1071B0002046F8BD6834D9E704213846FFF762FF5E
:1071C000044630600028D5D1FFF778FF0C233B60E0
:1071D000EEE700BF3C8D00020100FFFF2DE9F84300
:1071E0000646884600F148040027D4E90195B9F124
:1071F000010905D52468002CF7D13846BDE8F8838D
:10720000AB89012B07D9B5F90E30013303D02946DC
:107210003046C04707436835E9E770477047704715
:107220000148FFF7FBBF00BFAC9706280148FFF7F6
:10723000F6BF00BFAC9706289368013B002B936014
:1072400010B407DA9469A34201DB0A2902D110BC09
:1072500000F024BB1368581C10600846197010BC5D
:107260007047F8B506460F461446D518AC4201D112
:10727000002007E03A4614F8011B3046FFF7DCFF18
:10728000431CF3D1F8BD00002DE9F04F0D469DB031
:1072900014469846064618B183690BB9FFF720FFDC
:1072A000894B9D421BD175686B6ED90705D4AB899C
:1072B0009A0502D4A86DFFF7B1FFAB891B0701D572
:1072C0002B69EBB92946304600F04CFBC0B16B6E20
:1072D000DC070ED54FF0FF301DB0BDE8F08F7B4BC3
:1072E0009D4201D1B568DFE7794B9D4208BFF56843
:1072F000DAE7AB899805EDD4A86DFFF790FFE9E7D1
:107300000023CDF80C804FF00109DFF8C881099304
:1073100020238DF8293030238DF82A3023469A46D1
:1073200013F8012B0AB1252AF9D1BAEB040B0BD0C3
:107330005B46224629463046FFF793FF013000F0B6
:10734000AA80099A5A4409929AF80030002B00F05A
:10735000A28000234FF0FF320AF1010A0493079341
:107360008DF853301A93CDE9052354460522594828
:1073700014F8011B00F0A8FC049AD8B9D10644BF48
:1073800020238DF85330130744BF2B238DF853303F
:107390009AF800302A2B15D0079A544600204FF057
:1073A0000A0C214611F8013B303B092B4ED9B0B1F4
:1073B000079214E0A0EB0803A24609FA03F3134373
:1073C0000493D2E7039B191D1B68002B0391BBBFDD
:1073D0005B4242F0020207930793B8BF04922378FE
:1073E0002E2B0CD163782A2B35D1039B02341A1D26
:1073F0001B68002B0392B8BF4FF0FF330593DFF8F3
:10740000D8A003222178504600F05EFC40B1402312
:10741000A0EB0A00013403FA00F0049B0343049339
:1074200014F8011B06222D488DF8281000F04CFCA2
:1074300000283FD02A4B1BBB039B073323F00703D5
:1074400008330393099B3B44099367E70CFB023223
:107450000C460120A5E7002301344FF00A0C194621
:107460000593204610F8012B303A092A03D9002B46
:10747000C5D00591C3E70CFB012104460123F0E7C9
:1074800003AB2A4604A930460093164B00E000BF28
:107490000746781CD6D16B6ED90705D4AB899A05FF
:1074A00002D4A86DFFF7BBFEAB895B063FF512AFB8
:1074B000099811E703AB2A4604A930460093094B0B
:1074C00000F082F8E4E700BF608D0002808D0002CA
:1074D000408D0002A08D0002A68D0002AA8D000240
:1074E00000000000637200022DE9F047164699463D
:1074F0008A6807460B690C46DDF820809342B8BFC6
:107500001346336091F843200AB101333360236896
:10751000990642BF336802333360256815F00605CB
:1075200006D104F1190AE36832689B1AAB4229DCE0
:1075300094F84320131E226818BF012392062ED40C
:1075400004F1430249463846C047013021D0236840
:107550001A3454F80E5C03F0060332680026042B3C
:1075600054F8123C08BFAD1A54F80A2C14BF002579
:1075700025EAE5759342C4BF9B1AED18B5421AD1AE
:10758000002008E00123524649463846C0470130F2
:1075900003D14FF0FF30BDE8F0870135C3E7E118B4
:1075A0005A1C30200233224481F8430094F84510DD
:1075B00082F84310C4E70123224649463846C047B3
:1075C0000130E6D00136D9E72DE9FF470F7E91461D
:1075D00080460C46782F9A460C9D01F1430207D84D
:1075E000622F0AD8002F00F0D880582F00F0A38017
:1075F00004F1420584F842703AE0A7F16303152BC9
:10760000F6D801A151F823F06176000275760002E8
:10761000F1750002F1750002F1750002F1750002CA
:1076200075760002F1750002F1750002F175000235
:10763000F175000281770002A576000263770002EF
:10764000F1750002F1750002A3770002F1750002E6
:10765000A5760002F1750002F17500026B77000259
:107660002B681A1D1B682A6004F1420584F8423019
:107670000123A3E020682968060601F104030AD566
:107680000E682B60002E03DA2D23764284F84330F7
:107690005E480A2319E00E6810F0400F2B6018BFF7
:1076A00036B2EFE72B682068191D2960010601D565
:1076B0001E6802E04606FBD51E886F2F53480CBF9C
:1076C00008230A23002184F843106568002DA56073
:1076D000A2BF216821F0040121600EB9002D4DD018
:1076E0001546B6FBF3F103FB1167C75D05F8017D95
:1076F00037460E46BB42F4D9082B0BD12368DE0770
:1077000008D5236961689942DEBF302305F8013C42
:1077100005F1FF35521B22614B4603AA2146404624
:10772000CDF800A0FFF7E0FE01304CD14FF0FF3064
:1077300004B0BDE8F087354881F8457029682368B2
:1077400051F8046B29601D0614D5DF0744BF43F0D0
:10775000200323601EB9236823F020032360102335
:10776000B0E7236843F0200323607823284884F897
:107770004530E3E7590648BFB6B2E6E71546BBE732
:107780002B682668181D6169286035061B6801D5BD
:10779000196002E07006FBD51980002315462361AD
:1077A000BAE72B6800211A1D2A601D686268284606
:1077B00000F08AFA08B1401B60606368236100230F
:1077C00084F84330A8E723692A4649464046D04713
:1077D0000130ABD023689B0713D4E068039B984229
:1077E000B8BF1846A4E70123324649464046D04771
:1077F00001309BD00135E36803995B1AAB42F2DCA0
:10780000EBE7002504F11906F5E700BFB18D000292
:10781000C28D000210B50C46B1F90E1000F062FAEC
:107820000028ABBF636DA3891B1823F48053ACBF42
:107830006365A38110BD2DE9F0411F468B89054684
:107840000C46DB05164605D502230022B1F90E10C1
:1078500000F0C2F9A3893246B4F90E10284623F489
:107860008053A3813B46BDE8F04100F069B810B5F4
:107870000C46B1F90E1000F0AFF9431CA38915BFF7
:10788000606523F4805343F48053A38118BFA38120
:1078900010BDB1F90E1000F0D3B80000F8B50E46D7
:1078A0001446054618B183690BB9FFF719FC214B43
:1078B0009C422BD16C68A369A360A3891A072FD5BA
:1078C00023696BB32369F6B220683746C01A63692F
:1078D000834204DC2146284600F042F930BBA3680D
:1078E0000130013BA36023685A1C22601E7063694B
:1078F000834204D0A389DB0706D50A2E04D1214692
:10790000284600F02DF988B93846F8BD0A4B9C424C
:1079100001D1AC68CFE7094B9C4208BFEC68CAE7CD
:107920002146284600F01EF80028CBD04FF0FF3744
:10793000EAE700BF608D0002808D0002408D0002EA
:1079400038B50446064D0846114600222A601A46FC
:10795000FEF72AFB431C02D12B6803B1236038BD1C
:10796000B0970628324B70B51D6806460C4625B107
:10797000AB6913B92846FFF7B3FB2E4B9C420FD1DE
:107980006C68A389B4F90C2019072CD4DD0611D436
:107990000923336042F040034FF0FF30A3813EE003
:1079A000254B9C4201D1AC68EBE7244B9C4208BFBD
:1079B000EC68E6E7580712D5616B41B104F1440366
:1079C000994202D03046FFF723FA00236363A3896C
:1079D00023F02403A3810023636023692360A38928
:1079E00043F00803A38123694BB9A38903F42073EF
:1079F000B3F5007F03D02146304600F025F9A08979
:107A0000B4F90C2010F001030AD00023A3606369CD
:107A10005B42A361236943B910F08000BAD170BD05
:107A2000810758BF6369A360F4E70020F7E700BF50
:107A3000E84A0628608D0002808D0002408D000219
:107A400038B50023054D044608462B6000F07EF94A
:107A5000431C02D12B6803B1236038BDB0970628C0
:107A60008A89F8B5054610070C4657D44B68002B99
:107A700004DC0B6C002B01DC0020F8BDE66A002E54
:107A8000FAD0002312F480522F682B6032D0606D40
:107A9000A3895A0705D56368C01A636B0BB1236CC1
:107AA000C01A00230246E66A2846216AB047431CF2
:107AB000A38906D129681D292CD8284ACA40D6078F
:107AC00028D50022D90462602269226004D5421CB4
:107AD00001D12B6803B96065616B2F600029CBD0A1
:107AE00004F14403994202D02846FFF791F900209F
:107AF0006063C2E7216A01232846B047411CC7D111
:107B00002B68002BC4D01D2B01D0162B01D12F6068
:107B1000B2E7A38943F04003A381AEE70F69002FCA
:107B2000AAD093070E680F600CBF4B690023F61BA9
:107B30008B60002EA0DD33463A46216A2846D4F8F1
:107B400028C0E047002806DCA3894FF0FF3043F04F
:107B50004003A38191E70744361AEAE70100402079
:107B600038B50B6905460C4613B90025284638BDC3
:107B700018B183690BB9FFF7B3FA144B9C421BD1C0
:107B80006C68B4F90C30002BEFD0626ED00704D4CF
:107B9000990502D4A06DFFF741FB28462146FFF767
:107BA0005FFF636E0546DA07E0D4A3899B05DDD449
:107BB000A06DFFF734FBD9E7054B9C4201D1AC68BF
:107BC000DFE7044B9C4208BFEC68DAE7608D0002F7
:107BD000808D0002408D000238B50446064D0846EF
:107BE000114600222A601A4600F0C8F8431C02D150
:107BF0002B6803B1236038BDB097062870B50E46D8
:107C0000B1F90E1096B0144600291D4608DAB6F9EF
:107C10000C3000222A601A0610D44FF480630EE064
:107C20006A4600F071F80028F1DB019A02F4704214
:107C3000A2F500535A425A412A60EEE74023002041
:107C4000236016B070BD00008B8973B59D07064692
:107C50000C4607D504F147032360236101236361C8
:107C600002B070BD01AB6A46FFF7C8FF0099054638
:107C70003046FFF737F948B9B4F90C309A05EFD41C
:107C800023F0030343F00203A381E3E70D4BB36248
:107C9000A389206043F080032061A381009B63617E
:107CA000019B5BB1B4F90E10304600F03FF828B1EB
:107CB000A38923F0030343F00103A381A0890543B3
:107CC000A581CDE779700002C9B20346024410B520
:107CD0009342184601D1002003E0047801338C421E
:107CE000F6D110BD38B50446064D084611460022AF
:107CF0002A601A4600F04AF8431C02D12B6803B1EF
:107D0000236038BDB097062838B50023064D0446D9
:107D1000084611462B6000F021F8431C02D12B6865
:107D200003B1236038BD00BFB097062838B50023E3
:107D3000054D044608462B6000F018F8431C02D19C
:107D40002B6803B1236038BDB0970628024B582238
:107D50004FF0FF301A607047B0970628024B582248
:107D60004FF0FF301A607047B0970628024B582238
:107D700000201A60704700BFB0970628024B5822B7
:107D80004FF0FF301A607047B0970628024B582218
:107D90004FF0FF301A607047B0970628054A034637
:107DA000106810B103441360704703480344136024
:107DB000704700BFB4970628C0DF0628FEE700BF63
:107DC000F8B500BFF8BC08BC9E467047F8B500BFC8
:107DD000F8BC08BC9E46704701B40248844601BC0A
:107DE000604700BF9D40060801B40248844601BCBC
:107DF000604700BF1B43060801B40248844601BC2B
:107E0000604700BFE140060801B40248844601BC57
:107E1000604700BFB140060801B40248844601BC77
:107E2000604700BF094406085B4552525D20506C14
:107E30006174666F726D20696E6974206661696C29
:107E400065640D0A005B464F5243455D20206D611D
:107E5000696E2030782570200D0A0D0A005B464FB0
:107E60005243455D205374617274696E6720626F7E
:107E70006F746C6F616465720D0A0D0A005B455288
:107E8000525D204F54502073797374656D20696E74
:107E9000697469616C697A6174696F6E2066616981
:107EA0006C65640D0A005B4552525D204572726F2D
:107EB00072207768696C6520696E697469616C69A4
:107EC0007A696E672074686520736563757269747A
:107ED0007920636F756E7465720D0A005B455252AE
:107EE0005D20506C6174666F726D20706F737420CA
:107EF000696E6974206661696C65640D0A005B4691
:107F00004F5243455D2076657269667920737461CE
:107F10007274200D0A0D0A005B464F5243455D20E6
:107F20000A4A756D70696E6720746F2074686520E9
:107F3000666972737420736C6F740D0A005B464F30
:107F40005243455D200A4A756D70696E6720746FF3
:107F500020746865207365636F6E6420736C6F7442
:107F60000D0A005B464F5243455D207072696D619A
:107F700072795F6F66663A20307825780D0A0D0AAF
:107F8000005B464F5243455D2076743A2030782599
:107F9000700D0A0D0A005B464F5243455D20626F2B
:107FA0006F745F6765745F686967686573745F6243
:107FB000705F76657273696F6E5F706172746974F9
:107FC000696F6E206661696C200D0A0D0A005B46C0
:107FD0004F5243455D206163746976655F736C6FD2
:107FE00074203A30782578200D0A0D0A005B464F40
:107FF0005243455D20646F207265636F76657279C8
:108000002073746570312C6163746976655F736C7D
:108010006F74203A25640D0A0D0A005B464F5243E7
:10802000455D206E6F726D616C20736C6F74203AC9
:1080300030782578200D0A0D0A007365636F6E6431
:108040006172795F74666D5F7300626F6F745F70E9
:108050006172616D004520282564292025733A202E
:10806000496E76616C696420646174612E20766566
:10807000723A2025752C2061637469766520696EDB
:108080006465783A2025752C206164647265737389
:1080900065733A2025782C2025780A00452028256C
:1080A00064292025733A20496E76616C69642063E7
:1080B000726333322076616C75652C206372633392
:1080C000322025752C207665723A2025752C20618A
:1080D000637469766520696E6465783A2025752C2D
:1080E000206164647265737365733A2025782C206F
:1080F00025780A004520282564292025733A204246
:108100006F6F7420706172616D20696E666F206997
:1081100073204E554C4C0A00452028256429202503
:10812000733A206C696E655B25645D2C20434F4E6D
:108130004649475F4E554D5F4150505320203A20ED
:1081400025640A004520282564292025733A206CDF
:10815000696E655B25645D2C4661696C20746F20D7
:108160007265616420425025642C206572726E6FC6
:108170002025640A004520282564292025733A20FB
:108180006C696E655B25645D2C42503020637263C0
:1081900020766572696679206F6B200D0A00452094
:1081A000282564292025733A206C696E655B256457
:1081B0005D2C425030206372632076657269667967
:1081C000206661696C20616E6420425031206372C8
:1081D0006320766572696679206F6B200D0A004511
:1081E00020282564292025733A206C696E655B255B
:1081F000645D2C4250302063726320616E642042C3
:108200005031206372632076657269667920616CF3
:108210006C206661696C200D0A00452028256429C0
:108220002025733A204661696C656420746F207262
:10823000656164207072696D617279207369676E1F
:10824000206D616769632C206572726E6F202564F2
:108250000A004520282564292025733A20466169B3
:108260006C656420746F2072656164207365636F50
:108270006E64617279207369676E206D61676963EE
:108280002C206572726E6F2025640A004520282517
:1082900064292025733A206C696E655B25645D2C2A
:1082A0004250312063726320766572696679206F6F
:1082B0006B200D0A004520282564292025733A20CB
:1082C0006C696E655B25645D2C425031206372637E
:1082D00020766572696679206661696C20616E64DA
:1082E000204250302063726320766572696679207F
:1082F0006F6B200D0A004520282564292025733A3C
:10830000206C696E655B25645D2C42503120637280
:108310006320616E64204250302063726320766572
:108320007269667920616C6C206661696C200D0A47
:10833000004520282564292025733A204661696C70
:10834000656420746F2072656164207072696D616C
:10835000727920696D6167652076657273696F6EE9
:108360002C206572726E6F2025640A004520282536
:1083700064292025733A204661696C656420746F16
:108380002072656164207365636F6E646172792029
:10839000696D6167652076657273696F6E2C206503
:1083A00072726E6F2025640A0045202825642920FA
:1083B00025733A206C696E655B25645D2C736C6F68
:1083C00074302626736C6F7431206B65726E656C29
:1083D0002062206164647220697320696E766C612A
:1083E00069642062705F696478203D2025642C20D8
:1083F000736C6F745F696478203D202564200A00E7
:108400004520282564292025733A206C696E655B18
:1084100025645D2C646F20657865637574652061E3
:108420006C6C5F736C6F745F616464725F69735FBF
:10843000696E76616C6964202062705F696478207F
:108440003D2025642C20736C6F745F696478203D37
:10845000202564200A000000000000009630077705
:108460002C610EEEBA51099919C46D078FF46A7028
:1084700035A563E9A395649E3288DB0EA4B8DC7948
:108480001EE9D5E088D9D2972B4CB609BD7CB17EC8
:10849000072DB8E7911DBF906410B71DF220B06A98
:1084A0004871B9F3DE41BE847DD4DA1AEBE4DD6DA8
:1084B00051B5D4F4C785D38356986C13C0A86B64A8
:1084C0007AF962FDECC9658A4F5C0114D96C0663C8
:1084D000633D0FFAF50D088DC8206E3B5E10694CA8
:1084E000E44160D5727167A2D1E4033C47D4044BE8
:1084F000FD850DD26BB50AA5FAA8B5356C98B242C8
:10850000D6C9BBDB40F9BCACE36CD832755CDF4547
:10851000CF0DD6DC593DD1ABAC30D9263A00DE5177
:108520008051D7C81661D0BFB5F4B42123C4B35667
:108530009995BACF0FA5BDB89EB802280888055FE7
:10854000B2D90CC624E90BB1877C6F2F114C685847
:10855000AB1D61C13D2D66B69041DC760671DB0135
:10856000BC20D2982A10D5EF8985B1711FB5B60607
:10857000A5E4BF9F33D4B8E8A2C9077834F9000F47
:108580008EA8099618980EE1BB0D6A7F2D3D6D08E7
:10859000976C6491015C63E6F4516B6B62616C1CD7
:1085A000D83065854E0062F2ED95066C7BA5011B07
:1085B000C1F4088257C40FF5C6D9B06550E9B712A7
:1085C000EAB8BE8B7C88B9FCDF1DDD62492DDA1567
:1085D000F37CD38C654CD4FB5861B24DCE51B53A87
:1085E0007400BCA3E230BBD441A5DF4AD795D83D87
:1085F0006DC4D1A4FBF4D6D36AE96943FCD96E34C7
:10860000468867ADD0B860DA732D0444E51D0333A6
:108610005F4C0AAAC97C0DDD3C710550AA410227B6
:1086200010100BBE86200CC925B56857B3856F2086
:1086300009D466B99FE461CE0EF9DE5E98C9D929E6
:108640002298D0B0B4A8D7C7173DB359810DB42E26
:108650003B5CBDB7AD6CBAC02083B8EDB6B3BF9A72
:108660000CE2B6039AD2B1743947D5EAAF77D29DFE
:108670001526DB048316DC73120B63E3843B6494DE
:108680003E6A6D0DA85A6A7A0BCF0EE49DFF0993DE
:1086900027AE000AB19E077D44930FF0D2A308874E
:1086A00068F2011EFEC206695D5762F7CB676580FE
:1086B00071366C19E7066B6E761BD4FEE02BD389FE
:1086C0005A7ADA10CC4ADD676FDFB9F9F9EFBE8E5E
:1086D00043BEB717D58EB060E8A3D6D67E93D1A19E
:1086E000C4C2D83852F2DF4FF167BBD16757BCA67E
:1086F000DD06B53F4B36B248DA2B0DD84C1B0AAF1E
:10870000F64A0336607A0441C3EF60DF55DF67A89D
:10871000EF8E6E3179BE69468CB361CB1A8366BC2D
:10872000A0D26F2536E2685295770CCC03470BBB7D
:10873000B91602222F260555BE3BBAC5280BBDB27D
:10874000925AB42B046AB35CA7FFD7C231CFD0B51D
:108750008B9ED92C1DAEDE5BB0C2649B26F263EC0F
:108760009CA36A750A936D02A906099C3F360EEB1D
:108770008567077213570005824ABF95147AB8E2DD
:10878000AE2BB17B381BB60C9B8ED2920DBED5E5BD
:10879000B7EFDC7C21DFDB0BD4D2D38642E2D4F10D
:1087A000F8B3DD686E83DA1FCD16BE815B26B9F69D
:1087B000E177B06F7747B718E65A0888706A0FFFFD
:1087C000CA3B06665C0B0111FF9E658F69AE62F8BD
:1087D000D3FF6B6145CF6C1678E20AA0EED20DD7BD
:1087E0005483044EC2B30339612667A7F71660D0DD
:1087F0004D476949DB776E3E4A6AD1AEDC5AD6D91D
:10880000660BDF40F03BD83753AEBCA9C59EBBDE3C
:108810007FCFB247E9FFB5301CF2BDBD8AC2BACAEC
:108820003093B353A6A3B4240536D0BA9306D7CD5C
:108830002957DE54BF67D9232E7A66B3B84A61C47C
:10884000021B685D942B6F2A37BE0BB4A18E0CC33C
:108850001BDF055A8DEF022DAA4400FF0200000025
:10886000E1FFFF271A000028E3FFFF3F1B00004045
:10887000E5FFFF5F02000060E1FF036003000460AA
:10888000E7FFFF6303000064E7FFFF670300006882
:10889000E7FFFF6B0300006CE5FFFF6F4950535F7C
:1088A00065204E4F20504D49545B616464723A30EC
:1088B0007825785D0D0A004950535F77204E4F2090
:1088C000504D49545B616464723A307825782030A9
:1088D0007825785D0D0A00000000000000100000FF
:1088E000001000000010000001000000FF00000068
:1088F00001020101D54C0002F54C0002254D000299
:10890000194D000200000000454D00020D4E00020E
:10891000A54D0002F94C0002014D00020D4D000270
:108920007072696D6172795F74666D5F73007072E9
:10893000696D6172795F74666D5F6E7300707269E4
:108940006D6172795F637075305F61707000626C29
:108950003200626C325F42007072696D6172795FE1
:10896000616C6C007365636F6E646172795F616CDA
:108970006C006F746100706172746974696F6E006D
:108980007379735F6F74705F6E76007379735F7065
:1089900073007379735F6974730073730070726925
:1089A0006D6172795F6D616E696665737400736580
:1089B000636F6E646172795F6D616E696665737411
:1089C00000706172746974696F6E5F42000000002C
:1089D000208900022E8900023D8900024E89000292
:1089E00052890002466C617368206F705F65206E6B
:1089F0006F74207065726D69745B616464723A3083
:108A00007825785D0D0A00466C617368206F705F91
:108A100077206E6F74207065726D69745B61646439
:108A2000723A307825785D0D0A00000000100000D1
:108A300000800000000001001765C800020000006F
:108A400000008000040E021F1F0000000E000E0038
:108A50000901A00218400B00020000000000000104
:108A60000400020F0F0000000A000E000901A0021E
:108A700065667573653D25780D0A000000000000ED
:108A80002000014401000000240001440200000015
:108A900028000144000000000000000049600002BE
:108AA000D95F000200000000F55F00020000000036
:108AB00000000000DD5F0002000000009160000285
:108AC000E95F000200000000000000002C2D2E2FA6
:108AD00030313233343536375F5F5F5F5F5F5F5F02
:108AE0005F5F5F5F5F5F5F5F5F5F535255545756D5
:108AF0001E1F20215F5F474645444B4A49485F5F40
:108B00005F5F252623245F5F5F5F5F5F5F5F5F5F5F
:108B10005F5F5F3E3F404142435F5F5F5F50515F39
:108B20005F5F5F5F5F5F5F5F5F5F5F5F5F5F5F397B
:108B30003A3B3C5F5F5F285C04095F5F5F5F5F5F9C
:108B40005F5F5F5F225F5F5F5F5F5F5F5F5F5F5F72
:108B50005F5F5F5F5F5F5F5F5F5F5F5F5F5F5F5F25
:108B60005F5F5F5F5F5F5F5F5F5F5F5F5F5F5F5F15
:108B70005F5F5F5F5F5F5F5F3D38050607085F5FB0
:108B80005F0A5F5F5F5F5F5F5F5F5F0D0E0F1011DA
:108B900012131415161718191A1B1C5F5F5F5F5FFD
:108BA0005F5F5F5F5F5F5F5F5F5F5F5F5F5F5F5FD5
:108BB0005F5F5F5F5F5F5F5F5F5F5F5F5F5F5F5FC5
:108BC0005F5F5F5F5F5F5F5F5F5F5F5F5F5F5F5FB5
:108BD0005F5F5F5F5F5F5F5F5F5F5F5F5F5F5F5FA5
:108BE0005F5F5F5F5F5F5F5F5F5F5F5F5F5F5F5F95
:108BF0005F5F5F4E4F0C0B1D5D5E4C4D5B5A5958CD
:108C000027000000000082440000834500008445E6
:108C10007468652070726F74656374656420616444
:108C2000647221200D0A00007468652070726F74F0
:108C300065637465642061646472200D0A0000003D
:108C40000200000069910002030000001998000270
:108C50000E000000D99000020F0000006197000292
:108C600010000000218F00027000000071940002CB
:108C7000AA000000C998000206000000219000022E
:108C8000080000009992000209000000D99100023A
:108C90000B000000B19300020C00000041930002A1
:108CA0000D000000319500020E000000D195000279
:108CB0000F00000089960002466F72626964206F9F
:108CC0007065726174696E6720666C61736820629A
:108CD00065666F72652054464D20706172746974C8
:108CE000696F6E2C20616464723A20307825782C8C
:108CF000206C656E3A20307825782C20626F756E76
:108D0000646172793A20307825780D0A00657261C5
:108D1000736520636D64206572726F7221200D0A85
:108D2000000000000F000000640003005476000003
:108D3000014000004D2E570001010101EC4A0628B8
:108D40000000000000000000000000000000000023
:108D50000000000000000000000000000000000013
:108D60000000000000000000000000000000000003
:108D700000000000000000000000000000000000F3
:108D800000000000000000000000000000000000E3
:108D900000000000000000000000000000000000D3
:108DA000232D302B2000686C4C00656667454647D4
:108DB0000030313233343536373839414243444557
:108DC00046003031323334353637383961626364C6
:088DD0006566000000000000D0
:108DD800034602480D211840FCF7AABB00F0FF002B
:108DE8000F2100F47F00FCF7A3BB034602480E21C5
:0C8DF8001840FCF79DBB00BF0080FF008E
:108E0800F0B50446042283B004F10C0631460DEB9C
:108E18000200FDF7E3FF0B20FCF70EF90420FCF736
:108E28000BF9019B984252D84FF48071184600F014
:108E38006BF800284BD0019B13F0FF0750D104F5C5
:108E48008054B4F87620043B13440193B4F874308A
:108E58001644FF32934219DC36E031464FF48072F3
:108E68000198FCF70FFCB4F87630019A03F580738B
:108E78009BB2B4F8741003F1FF0002F580728842C7
:108E88000192A4F8763006F580761DDA4FF420407A
:108E980000F032F80B20FCF7CFF805460420FCF769
:108EA800CBF8019A954201D890421BD84FF48071B3
:108EB800104600F029F80028CFD10A230B4884F87F
:108EC80078300227FEF77EF8384603B0F0BD0A2353
:108ED8000227384604F5805484F8783003B0F0BD92
:108EE8000623F5E70A230248E9E700BF288C0002B9
:108EF800108C00020000000001B40248844601BC46
:108F0800604700BFD943060801B40248844601BC43
:088F1800604700BF7144060828
:108F200070B500234FF0FF3586B00729CDE9013336
:108F3000039502D8012006B070BD04220146064602
:108F40000DEB0200FDF74EFF042202A8B118FDF759
:108F500049FF00F05DF8DDE901239A421DD84FF486
:108F6000204000F045F8DDE901040134241AB4F58D
:108F7000807F28BF4FF4807431462246FCF734FBD3
:108F800022462846314600F03BF8DDE9012314442F
:108F90009C42054601940390E1D94FF6E04410232A
:108FA0001049114A04910DF116000DF10F01ADF8B1
:108FB00014408DF816309369DC02FCD511F8013F9E
:108FC0008842D361F7D1084A03A904A89369DB0258
:108FD000FCD511F8013B8842D361F7D1002006B0DF
:108FE00070BD00BF040E08010000824400000000B4
:108FF00001B40248844601BC604700BFD94306085B
:1090000001B40248844601BC604700BF9142060893
:1090100001B40248844601BC604700BF61420608B3
:10902000032901D801207047F0B585B004220E460F
:10903000044601466846FDF7D5FE0B20FCF700F814
:109040000420FBF7FDFF0746043E009831468742A7
:109050008CBF0A27002700F037F828BB0A27251DF8
:109060004FF4C063144A8DF80E700192134A2671B2
:109070000292134A01A80DF10F01ADF80C3093696B
:10908000DE02FCD510F8013B8142D361F7D10C4AD6
:10909000601E9369DB02FCD510F8013F8542D36165
:1090A000F7D1002005B0F0BD251D324629460098B5
:1090B000FCF7ECFAD4E700BF040EFF01E0FCF40774
:1090C000000082440000000001B40248844601BC54
:0890D000604700BF714406086F
:1090D80071B300B5037883B0A52B23D000210846CF
:1090E800FCF79AF94FF6E04C0E231249124A009108
:1090F8000DF106000DF1FF31ADF804C08DF8063012
:109108009369DB02FCD511F8013F8842D361F7D19E
:10911800094A9369DB02FCD5A5230020D36103B07B
:109128005DF804FB00F014F8052000F009F8FEE7EC
:1091380001207047040E0501000082440000000071
:1091480001B40248844601BC604700BFD943060801
:1091580001B40248844601BC604700BFCD440608FC
:109168004FF0010C30B503204FF6E044144A154D7A
:10917800137883B06344DBB21370134B134A8DF832
:10918800060000930DF1FF3185F800C0ADF80440EA
:109198000DF106009369DC02FCD511F8013F884205
:1091A800D361F7D1094A9369DB02FCD50024012178
:1091B8002046D461FCF730F9204603B030BD00BF2B
:1091C800806F06286C900628040E05010000824472
:1091D800F0B5054600230C4685B0042229466846AA
:1091E8000093FDF7FBFD4FF41163042C0CBF002620
:1091F800042601A801461E4AADF80C301D4B019209
:109208001D4A8DF80E6002930DF10F049369DF0279
:10921800FCD511F8013B8C42D361F7D16946164A57
:109228009369DC02FCD511F8013B8142D361F7D187
:109238002027114C4FF4204000F022F880222946C4
:109248000098FCF7CDF986B96A1E05F17F01A3697C
:10925800DB02FCD512F8013F9142E361F7D1009B94
:10926800013F03F180030093E4D1002005B0F0BD75
:10927800040EFF01E0FCF406000082440000000038
:1092880001B40248844601BC604700BFD9430608C0
:1092980070B504460D4684B0042268462146FDF7A1
:1092A8009DFD052D33D04FF0040C002206236146A6
:1092B8008DF80B3008238DF80C204FF6E0428DF81E
:1092C8000D30F423ADF80820194A8DF80E100192DC
:1092D800184A01A90DF10F008DF80A309369DD02D3
:1092E800FCD511F8013B8142D361F7D10CF1FF3075
:1092F80080B2104A611E20449369DB02FCD511F844
:10930800013F8842D361F7D1002004B070BD2146E7
:1093180011F8045F00982A46AEB2FCF761F9AB1D5C
:10932800B21D002106F1040CDBB2120AC0E700BF2F
:08933800040EFF010000824455
:1093400009B90120704710B5044684B00120FCF72C
:1093500027FA4FF4406E0023DFF848C0124A01A9F3
:10936000CDE901C2114A0DF10F0C6070ADF80CE0AF
:109370008DF80E309369D802FCD511F8013B8C456D
:10938000D361F7D109498B69DA02FCD52378074A02
:10939000CB619369DB02FCD500206378D36104B014
:1093A00010BD00BF040EFF01E0FCF4040000824485
:1093B00070B5044684B0042268460D462146FDF788
:1093C00011FD0420FBF73CFE064600984FF4805147
:1093D000B04234BF0A26002600F042F818B1042D2E
:1093E00034D0042600E00A264FF6E0431A49F4225E
:1093F00001910B21ADF80830AB1C8DF80A208DF8D7
:109400000B30164A1B128DF80D108DF80E600DF101
:10941000040C8DF80C300DF10F019369D802FCD5C6
:109420001CF8013B6145D361F7D165B1681E80B27C
:109430000A4A611E20449369DB02FCD511F8013F02
:109440008142D361F7D1002004B070BD0D21009896
:10945000FCF7BCF8C8E700BF040EFF01000082441F
:1094600001B40248844601BC604700BF714406084D
:1094700003293BD910B5037882B0532B02D143782E
:10948000452B35D004240E2301EB040C01228DF86A
:1094900002C08DF800404FF0E00CFC248DF8013044
:1094A00070238DF80320184A8DF804C00DF1060EC4
:1094B0000DF1FF3C8DF805408DF806309369DC0214
:1094C000FCD51CF8013FF445D361F7D14B1E9BB28C
:1094D0000D4A411E18449369DB02FCD511F8013F87
:1094E0008142D361F7D1002002B010BD0120704746
:1094F0008378412BC6D1C3784E2BC3D100F008F836
:10950000052000F00DF8FEE7000082440000000096
:1095100001B40248844601BC604700BFCD44060840
:1095200001B40248844601BC604700BFD943060825
:10953000012947D930B50D46417885B0022D044642
:10954000ADF8021034D10120FCF73AF91E48AB1CEB
:10955000F4228DF80B301B124FF6E04101908DF88C
:109560000C3000200D238DF80A20184AADF80810A1
:109570008DF80E008DF80D300DF1040C0DF10F017A
:109580009369D802FCD51CF8013B6145D361F7D142
:10959000681E80B20D4A611E20449369DB02FCD52F
:1095A00011F8013F8142D361F7D1002005B030BDF1
:1095B0000222411C0DEB0200FDF714FC0220BDF855
:1095C0000210C1E701207047040EFF010000824431
:1095D000B1F5006F4ED830B5274B02781B689F2A33
:1095E0004FEA136280F834284FEA13420C46234DA9
:1095F00080F835284FEA132285B080F836284FF6D8
:10960000E0420CBF002106214FF00E0E0195F4251B
:1096100080F83738A31C8DF80B30ADF80820C3F361
:109620000723174A8DF80E108DF80C300DF1040C3D
:109630000DF10F018DF80A508DF80DE09369DD02F0
:10964000FCD51CF8013B6145D361F7D17CB1013CED
:1096500000F63403A4B20A4A00F6330118199369DC
:10966000DB02FCD511F8013F8142D361F7D1002024
:1096700005B030BD01207047D06E0628040EFF01F2
:049680000000824420
:10968800F0B504460D46214685B011F8017B042249
:109698006846FDF7A3FB0420FBF7CEFC06460098BE
:1096A8003946B04234BF0A26002600F04DF818B1FA
:1096B800052D33D0042600E00A264FF6E0431F4963
:1096C800F42201910F21ADF80830AB1C8DF80A2067
:1096D8008DF80B301A4A1B128DF80D108DF80E609C
:1096E8000DF1040C8DF80C3069449369D802FCD54F
:1096F8001CF8013B6145D361F7D165B1681E80B2A2
:109708000F4A611E20449369DB02FCD511F8013F22
:109718008142D361F7D1002005B0F0BD202F08D0D9
:10972800D82F08D0522FC8D10E210098FBF74AFF36
:10973800C3E70D21F9E70F21F7E700BF040EFF018A
:10974800000082440000000001B40248844601BCC5
:08975800604700BF99440608B8
:10976000042901D801207047042270B5044684B052
:109770000D4601460DEB0200FDF734FB2679402132
:10978000019800F039F8304600F03EF804216818DE
:109790000E238DF80A00E02001228DF80C008DF8D0
:1097A0000930FC200F238DF80B20114A8DF808108A
:1097B0000DF1070C0DF10E018DF80D008DF80E3036
:1097C0009369D802FCD51CF8013F8C45D361F7D1D1
:1097D000681E80B2064A611E20449369DB02FCD5F4
:1097E00011F8013F8142D361F7D1002004B070BD70
:1097F000000082440000000001B40248844601BC1D
:10980000604700BF0542060801B40248844601BC17
:08981000604700BF3B4306085E
:1098180070B5002684B00329CDE9006602D801207E
:1098280004B070BD0D460446014604226846FDF7A3
:10983800D5FA009BA3F195423F2A4FF0040288BF56
:109848001E680DEB020101961B68A0180193FDF735
:10985800C5FA04210E220123681880B28DF8092068
:1098680042188DF80A20E0228DF808108DF80B3088
:109878000321FC238DF80C20104A8DF80E108DF86A
:109888000D300DF1070C0DF10E019369DE02FCD5C8
:109898001CF8013F8C45D361F7D160B1E81C80B258
:1098A800064A611E20449369DB02FCD511F8013F8A
:1098B8008142D361F7D1002004B070BD000082441A
:1098C80000293AD00378552B01D00220704730B5D3
:1098D8000424012383B01A4D0E228DF800400C1980
:1098E8002B708DF80240E025FC248DF80330AA2364
:1098F8008DF80120134A0DF1FF3C0DF1060E8DF88D
:1099080004508DF805408DF806309369DC02FCD5CB
:109918001CF8013FF445D361F7D14B1E9BB2094AAD
:10992800411E18449369DB02FCD511F8013F8142BE
:10993800D361F7D1002003B030BD0120704700BFCC
:089948006C9006280000824427
:1099500000B5038983B0022B2CD0032B38D00E2BFB
:109960003AD00F2B36D0102B3AD0702B36D0AA2BF2
:1099700008BF06221FD04FF6E04C1A491A4A009140
:109980008DF806300DF1FF310DF10600ADF804C081
:109990009369DB02FCD511F8013F8842D361F7D10E
:1099A000114A9369DB02FCD507230120D36103B080
:1099B0005DF804FB0022C1880C4B013903EBC203A4
:1099C0005B6889B20C309847002003B05DF804FB57
:1099D0000122F0E70322EEE70222ECE70522EAE7A4
:1099E0000422E8E7040E050100008244408C0002D6
:1099F00041F2050330B5C28804469A4285B02ED0A4
:109A000004210B4600F5805585F87810013AA5F839
:109A100076204FF4E0652049204A8DF80E30CDE9DC
:109A200001121F4A01A90DF10F00ADF80C50936906
:109A3000DD02FCD511F8013B8842D361F7D1184A09
:109A400004F10B0104F10F009369DB02FCD511F85E
:109A5000013F8842D361F7D1002005B030BD00F549
:109A6000805595F87830002BD0D1B5F874100329C3
:109A7000CFD9B5F8762042B1FF329142C9DD2046F8
:109A8000FFF7C2F995F87830C3E7042040F20312DB
:109A9000A5F87600F1E700BF040EFF01E0FCF40634
:049AA00000008244FC
:109AA40000B5038985B0062B2DD0082B39D0092B9E
:109AB40039D00B2B39D00C2B39D00D2B3BD00E2B9E
:109AC40037D00F2B08BF07221ED04FF0000E4FF0E7
