:020000040200F8
:1040000020E00628414100020000000000000000FE
:1040100000000000000000000000000000000000A0
:104020000000000000000000000000000000000090
:10403000000000000000000000000000A144000299
:104040000000000000000000000000000000000070
:10405000D944060800000000000000000000000035
:104060000000000000000000000000000000000050
:104070000000000000000000000000000000000040
:104080000000000000000000000000000000000030
:104090000000000000000000000000000000000020
:1040A0000000000000000000000000000000000010
:1040B00000000000400100000001000000000000BE
:1040C00000000000000000000000000000000000F0
:1040D00000000000000000000000000000000000E0
:1040E00000000000000000000000000000000000D0
:1040F00000000000000000000000000000000000C0
:10410000424B2E534200000000000000000000005F
:10411000000000000000000000000000000000009F
:10412000000000000000000000000000000000008F
:10413000000000000000000000000000000000007F
:10414000174B83F30A8801F00BF801F021FC01F012
:1041500023FC144B14498B4213D30020134B1449F6
:104160008B421AD300F04AF8186850F82240586879
:1041700040F8224001329868B2EB900FF4D30C3330
:10418000E9E70022F7E71C6844F8220001325C6886
:10419000B2EB940FF7D30833E2E70022F7E700BF52
:1041A00020980628001B0102241B0102241B010287
:1041B0002C1B010210B5054C237833B9044B13B105
:1041C000044800E000BF0123237010BD644B0628A3
:1041D000000000004008010208B5034B1BB1034971
:1041E000034800E000BF08BD00000000684B06283F
:1041F00040080102A3F5803A704700BF174B002B1F
:1042000008BF134B9D46FFF7F5FF00218B460F4675
:104210001348144A121A09F0B2F90E4B002B00D0C1
:1042200098470D4B002B00D0984700200021040038
:104230000D000D48002802D00C4800E000BF09F036
:1042400043F92000290000F021F809F029F900BF06
:1042500000000800000000000000000020E0062828
:10426000644B06280C98062800000000000000009F
:1042700008B502F053FA10B1024B186808BD024BA2
:10428000FBE700BF004A0628846B062838B501F01A
:10429000DDFE01F0B3F930B101F01CFF10B16D4843
:1042A00009F054FAFEE701F07BFA01F0EBF94FF464
:1042B0000051694802F07EFE01F0B6F930B101F01C
:1042C00009FF10B1654809F041FAFEE701F00CFF63
:1042D00028B101F08DFC0AF057FB01F095FC02F0CB
:1042E0000BFA01F0F7FE18B15D495E4809F02EFAAD
:1042F0004FF4FA5001F022FF01F0ECFE10B15A48E1
:1043000009F024FA00F026FFD0B100F007FFB8B1A1
:10431000002001F0AFF94FF088430446D3F8EC01D8
:104320001860C0F3800001F07FFE04F58F501F304D
:1043300020F4FF7020F0010000F1007001F07CF922
:1043400001F0CAFA01F0E8FE01F007FB30B101F01C
:10435000C1FE10B1454809F0F9F9FEE7FFF788FF03
:10436000434B1B68834206D001F0B4FE10B14148B4
:1043700009F0ECF9FEE701F0ADFE10B13E4809F09E
:10438000E5F94FF4FA5001F0D9FE01F0A3FE10B1A7
:104390003A4809F0DBF900F0D3F8C4B2204600F047
:1043A00035FE70BB01F096FE18B12146344809F085
:1043B000CDF9C4F10104204600F028FE68B901F0EF
:1043C00089FE18B121462E4809F0C0F901F082FE9D
:1043D00010B12C4809F0BAF9FEE700F0B3F8051E59
:1043E00008DA01F077FE20B12A469C21264809F020
:1043F000ADF9FEE701F06EFE10B1244809F0A6F910
:10440000E4B204BB01F066FE10B1214809F09EF948
:10441000204601F009FE002001F02CF9044601F0CD
:1044200059FE18B121461B4809F090F904F10074B7
:1044300004F5805401F04EFE18B12146164809F0EB
:1044400085F920467AE701F045FE0028E0D01348C0
:10445000DCE700BF98E90002804B0628B5E90002BE
:104460008D420002D7E90002EFE900020FEA0002E4
:10447000846B062838EA00026EEA000288EA00022D
:10448000B3EA0002E7EA000216EB000260EB00026A
:104490009CEB0002E7EB000205EC0002C1EB00021E
:1044A000024A136801331360704700BF806B06280F
:1044B000A022002110B51D4809F061F81B4800F04A
:1044C0000FF900280ADA01F005FE18B94FF0FF34A1
:1044D000204610BD164809F039F9F7E7134800F0F7
:1044E00065F9044601F0F6FD18B12146114809F0BE
:1044F0002DF9012C10D9042CE8D8E7D10B4800F095
:10450000A5FC044601F0E6FD18B121460A4809F071
:104510001DF944EAE474DBE701F0DCFD0028D7D0A4
:104520002146064809F012F9D2E700BF886B062839
:10453000C9EC000201ED000220ED00024EED000288
:10454000FFF7B6BF10B5094800F0FAFA041E0BDAFF
:1045500001F0C0FD28B1224640F25E71044809F026
:10456000F5F84FF0FF3000E0002010BD886B062802
:1045700052EC000237B505460C4671B901F0AAFDB0
:1045800018B94FF0FF3003B030BD2B462146124A18
:104590001248009409F0DAF8F3E7B1F5805F0BD91F
:1045A00001F098FD0028ECD04FF4805300210093D7
:1045B000094A23460A48EDE7D24303460444094822
:1045C00013F8011B5140C9B250F821109C4281EAF6
:1045D0001222F5D1D043D6E76DED000278ED00024E
:1045E000A7ED00021CF5000210B5044641B90420F5
:1045F00001F0BEF8D4F80D301B1A5842584110BDD6
:10460000024801F06AF9D4F81130F5E7D5ED00025F
:10461000002240F6FC71FFF7ADBF000070B5002529
:104620000446ADF5805D84B040F6FC72294605A8CD
:10463000049508F0A4FFA36813B1237B012B16D9BE
:1046400001F048FD20B900200DF5805D04B070BD7B
:10465000D4F8113000210293D4F80D30184A019398
:10466000237B18480093636809F070F8EBE74FF478
:104670008052FF2104A808F082FF4A22214604A8A4
:1046800008F056FF05A82668FFF7C2FF864214D03F
:1046900001F020FD0028D6D0D4F81130294603932C
:1046A000D4F80D30064A0293237B074801936368D0
:1046B0000093236809F04AF8C5E70120C4E700BF6A
:1046C0006DED0002E5ED00022CEE0002024620B185
:1046D000036883F00100106070474FF0FF307047AF
:1046E00037B5044660B901F0F5FC18B94FF0FF305A
:1046F00003B030BD2146274A274809F027F8F5E7DF
:1047000001F0E8FC40B1022300210093214A4FF45C
:10471000B173224809F01AF84A22214804F109012C
:1047200001F0D4FA051E0BDA01F0D4FC40B10021EF
:1047300040F26913174A1B480195009109F006F8E9
:104740004A22194804F1530101F0C0FA051E13DA98
:1047500001F0C0FC0028C9D00123002100930D4ABC
:1047600040F2691301950F4808F0F0FFBEE70132EF
:104770000BD000202060BBE7D4F80D20D4F85730D0
:104780009A42F4D8F5D00133F3D0012300202360FE
:10479000AEE700BF6DED000284EE0002A8EE00025D
:1047A00000E0FF00D4EE000200F0FF0073B54FF010
:1047B000FF310446CDE9001190B10568002D67D1A5
:1047C0000930FFF72BFF064660B101F083FC30B1E2
:1047D00040F2A3132946454A454808F0B7FF617DDA
:1047E000084653E004F15300FFF718FF054678B17F
:1047F00001F070FC30B14FF4D47331463B4A3D4870
:1048000008F0A4FF94F85F102046FFF75FFFE7E78A
:1048100001F060FC30B14FF4D7732946334A364873
:1048200008F094FF042000F0A3FF0546334801F090
:1048300054F804220446694605F1100001F046FAD6
:10484000042205460DEB020104F1100001F03EFACE
:10485000002D044608DA01F03DFC28B12B4600216A
:10486000224A274808F072FF002C08DA01F032FCD7
:1048700028B1234600211D4A224808F067FFDDE9E0
:104880000032134001330CBF0320042002B070BD7E
:104890005330FFF7C3FE064660B101F01BFC30B198
:1048A00040F2CB130021114A174808F04FFF94F84B
:1048B0005F1095E704F10900FFF7B0FE054658B117
:1048C00001F008FC30B14FF4E8733146074A0F4855
:1048D00008F03CFF617D97E701F0FCFB0028A1D0C8
:1048E0004FF4EB732946014A094899E76DED000240
:1048F00005EF00022EEF00026FEF0002D5ED00027F
:10490000AAEF0002E2EF00021CF0000245F00002F4
:1049100086F00002F7B505460C4669B901F0DAFBEE
:1049200020B94FF0FF34204603B0F0BD21461A4AAB
:104930001A4808F00BFFF4E701280CD901F0CAFB74
:104940000028EED0012300210093134A2B4614487F
:1049500008F0FCFEE5E70121084601F0D3F801F07C
:10496000B3FA0746002001F0B1FA0E4E0E4B002DAF
:1049700018BF1E4630460BF065FF4FF480522146AB
:10498000304601F0F5F900210446012001F0BAF8A3
:10499000384601F09BFAC6E76DED0002C1F0000257
:1049A000E7F0000200E0FF0000F0FF002DE9F04713
:1049B000ADF5825D0F46044686B088B901F08AFBEA
:1049C00030B94FF0FF300DF5825D06B0BDE8F087DD
:1049D00040F219232146544A544808F0B7FEF0E744
:1049E00001290CD901F076FB0028EAD04FF40873B6
:1049F00000214D4A4E48009708F0A8FEE1E74FF429
:104A00008052FF2116A808F0BAFD4A2202FB07F6E1
:104A100004EB060A9AF81580B8F1010F0BD901F0E2
:104A200059FB0028CDD040F2292300213E4A4148BD
:104A3000CDF80080E0E7042000F09AFE81463E4871
:104A400000F04BFF87F001054A22B8F1000F55D165
:104A5000DAF81A300AF1140E83422ED106F1090158
:104A6000214403A808F064FD002F0CBF022301239A
:104A70003D4604934A2203A988F0010816A88DF840
:104A8000188008F055FD17A8FFF7C2FD16A916906B
:104A900085F00100FFF73EFF051E43DA01F01AFB27
:104AA00000288ED001952368002100931E4A40F211
:104AB0006D23224808F04AFE83E702FB05F16318E4
:104AC00003F1140CD3F81A3083420AD1093121447E
:104AD00003A808F02DFD012F0CBF0223012304932E
:104AE000C8E7CEF80600CCF80600012506F109015A
:104AF000214403A808F01CFD0495BBE7DAF8163042
:104B00000AF1100C4B45A9D002FB05F1631803F123
:104B10001000D3F816304B45D8D0CCF80690C0F82A
:104B20000690E2E700204EE76DED000217F100026B
:104B300040F1000271F10002D5ED00029FF1000288
:104B40002DE9F04F0446ADF5835D85B04FF48052FA
:104B5000FF211CA808F013FD44B12568002D11DACF
:104B600001F0B8FA28B94FF0FF3012E04FF0FF35EE
:104B7000F6E740F27F230021A84AA948009508F0F3
:104B8000E5FDF0E7237A032B08D129462046FFF7FD
:104B90000DFF0DF5835D05B0BDE8F08F4A2225BB02
:104BA00004F1090109A808F0C3FC237A022B40F0A4
:104BB0001A814A26002D0CBF022301236E4304EB09
:104BC000060A0A939AF81530012B8DF830300FD968
:104BD00001F080FA0028C6D09DF830300021009303
:104BE0008E4A40F2A1238F48C9E704F15301D9E767
:104BF000042000F0BDFD81468B4800F06EFE9DF85C
:104C000030708046002F40F0C780DAF816304B45F0
:104C100019D001F05FFA78B19DF83030394602338F
:104C200006EB83062644D6F80E307C4A00937F4874
:104C30004FF42B7308F08AFD9DF830301CAA02EB6C
:104C4000830343F83F9C4A27794808F0E5FD6F430A
:104C500007F11F062644421C7549304608F0E4FD62
:104C600090B101F037FA30B14FF42F7300216B4A45
:104C7000704808F06BFD0F226D490DF13A0008F005
:104C8000E7FD00238DF849304A2303FB054393F8E1
:104C90002F30022B28BF00238DF84A309DF8393081
:104CA000032B0CD001F016FA30B140F2C6230021DC
:104CB0005A4A614808F04AFD03238DF839304FF015
:104CC000010907F1300607F11003DFF870B126443F
:104CD0000DF1240803934FF0000A1021584A4B4667
:104CE00005A808F05BFD05A88DF823A008F094FD49
:104CF00005A9421C304608F097FDA0B101F0EAF981
:104D000040B140F2D62351465846444ACDF800906F
:104D100008F01CFD0F2205A908F1270008F098FDF6
:104D2000002388F83630039AF31B9B5C1136022B64
:104D300028BF0023B9F1020F88F8373008F11108B5
:104D40004ED14A2303FB054393F85230022B28BF70
:104D500000238DF86D304A2209A91CA808F0E8FB51
:104D60001DA8FFF755FC85F001051C901CA92846DD
:104D7000FFF7D0FD051E4EDA01F0ACF900283FF434
:104D8000F2AE236800210093244A40F2FB230195F0
:104D90002C4808F0DBFCE6E6023706EB87072744E1
:104DA000D7F80E3083423FF44EAF01F093F978B15B
:104DB0009DF830300021023306EB83062644D6F8F6
:104DC0000E30164A009319484FF42D7308F0BEFCBC
:104DD0009DF830301CAA02EB830343F83F8C32E786
:104DE0004FF0020977E70A9B5A1C12D101F072F9C1
:104DF00030B140F2E9230021084A134808F0A6FC2C
:104E000001230A939DF8303083F001038DF8303090
:104E1000A1E70133F5E70020BBE600BF6DED00021E
:104E2000D1F1000271F10002D5ED000213F200028F
:104E30001CF9000234F2000260F200028FF200025C
:104E400089F200029FF10002BCF200022DE9FF414D
:104E5000054650B901F03EF920B12946644A65483B
:104E600008F074FC4FF0FF30B9E0012303724FF0FB
:104E7000FF330420CDE9023300F07AFC042202A9BA
:104E8000063000F023FF041E0BDA01F023F928B1ED
:104E900023460021564A584808F058FC4FF0FF338B
:104EA0000293564800F019FD042203A9063000F0D1
:104EB0000DFF041E0BDA01F00DF928B12346002185
:104EC0004B4A4F4808F042FC4FF0FF330393DDE9B3
:104ED0000232934205F1090724D2013225D0012183
:104EE0003846FFF781FB002859D1012105F1530015
:104EF000FFF77AFB0646002858D101F0EBF80124B1
:104F0000002855D101F0E6F848B1022300210093B2
:104F1000374A4FF455733B48019408F017FC0020C2
:104F2000286015E016D00133D9D000213846FFF7AC
:104F30005BFB014688BB05F15300FFF755FB0446B8
:104F40000028DFD001204A23286003FB0055002001
:104F5000687544E000213846FFF746FB044690BBE5
:104F600005F1530801464046FFF73EFB064670BB7D
:104F700001213846FFF738FBA0BB01214046FFF76F
:104F800033FB064688BB01F0A5F802240028B9D0FF
:104F900040F24F33CDE900440FE00020D3E700207A
:104FA0004A23286003FB00550120D1E70120F7E7E1
:104FB0000223009340F23933019431460C4A1248DF
:104FC00008F0C4FB9EE7002108460E4602E0214699
:104FD000204601264A2202FB06532E60597504B072
:104FE000BDE8F08101210846F4E70121ECE700BFAC
:104FF0006DED000284EE0002FCF20002D5ED00022D
:1050000037F30002CBF3000274F300022DE9F047FE
:10501000ADF5805D064686B0C0B9042000F0A8FB5F
:10502000102202A9054600F051FE044620B301F00B
:1050300051F8A0B10021324A324B3348002E08BF4C
:105040001346324A009408F081FB08E0012803D19E
:105050002C4800F042FCE3E701F03CF828B90020BE
:105060000DF5805D06B0BDE8F08733460021274A84
:10507000274808F06BFBF2E7DDF8129009F1FF33E7
:10508000033302D8BDF80C1041B901F023F8002811
:10509000E5D0334600211D4A1E48EAE7024603A830
:1050A000FFF768FA07461035A9EB0408B8F5805FEA
:1050B00028BF4FF4805806A94246281900F006FE82
:1050C000824670B101F006F80028C8D00C4A0D4B9A
:1050D0000021002E08BF13460F480C4ACDF800A04F
:1050E000B1E73A46414606A8FFF744FA4444A145D1
:1050F0000746D9D80298C31B58425841B0E700BFB1
:1051000021F40002D5ED000267F400026DED00020B
:105110002FF40002AAF40002D9F4000203220B4B80
:1051200082B001930A4B9A6001221A615A69D20532
:1051300005D5586980F00400C0F3800004E00198B0
:10514000421E01920028F1D102B0704760900F001A
:10515000000088444FF088431868C0F3400070474F
:10516000002238B5634BC3F88420BFF34F8FD3F8C8
:105170008020C2F3C900C2F34E325201014602F44C
:10518000FF5545EA81740139C3F87442F9D2203AD7
:1051900012F1200FF2D1BFF34F8FBFF36F8FBFF328
:1051A0004F8FBFF36F8F0022C3F85022BFF34F8F92
:1051B000BFF36F8F504A9A609A6FD20715D55A691C
:1051C00012F4003211D1BFF34F8FBFF36F8FC3F8CA
:1051D0005022BFF34F8FBFF36F8F5A6942F40032F2
:1051E0005A61BFF34F8FBFF36F8F424A936F9B0794
:1051F00069D50023C2F88430BFF34F8FD2F88030D6
:10520000C3F3C900C3F34E335B01014603F4FF55FA
:1052100045EA81740139C2F87442F9D2203B13F196
:10522000200FF2D1BFF34F8FBFF36F8F0023C2F86F
:105230008430BFF34F8F536923F480335361BFF33E
:105240004F8FD2F880302B4CC3F3C901C3F34E33D8
:105250005B010A4603F4FF5545EA8270013AC4F83F
:105260007402F9D2203B13F1200FF2D1BFF34F8F1C
:10527000BFF36F8F00F06EF8636913F4803322D1AF
:10528000C4F88430BFF34F8FD4F880301949C3F38A
:10529000C900C3F34E335B01024603F4FF5545EAF0
:1052A0008274013AC1F86042F9D2203B13F1200F19
:1052B000F2D1BFF34F8F4B6943F480334B61BFF39F
:1052C0004F8FBFF36F8F0D4B0D4A13600D4A136064
:1052D000084B5A6A42F480325A625A6A42F40022F7
:1052E0005A625A6A42F480225A625A6A42F400327E
:1052F0005A6238BD00ED00E000400608005A620224
:10530000084A0628044A0628BFF35F8F074B5A6AEB
:1053100022F480325A62D3F8942022F00102C3F8BA
:105320009420BFF34F8FBFF36F8F704700ED00E005
:10533000BFF35F8F0722064BC3F894205A6A42F4EA
:1053400080325A62BFF34F8FBFF36F8F704700BF39
:1053500000ED00E070B5FFF7D7FF0023134A1449B2
:10536000082B02F1080216D10022FF26114C104929
:1053700014F8013BD1F8C000934006FA02F543400F
:105380002B4008324340202AC1F8C030F0D1BDE89C
:105390007040FFF7CDBF52E90240C1F89830C1F824
:1053A0009C400133C1F8A000DAE700BF28F90002F1
:1053B00000ED00E023F90002114A30B5936F9B071E
:1053C0001CD50023C2F88430BFF34F8FD2F8803051
:1053D000C3F3C900C3F34E335B01014603F4FF5529
:1053E00045EA81740139C2F87442F9D2203B13F1C5
:1053F000200FF2D1BFF34F8FBFF36F8F30BD00BFCF
:1054000000ED00E0064B82B01868002382B262F320
:105410000F03000C60F31F43184602B0704700BF33
:10542000BCF90002082070476FF0030070470000CD
:10543000014B1868704700BF286C0628014B1B6899
:1054400058687047144A062808B500F011FD00207E
:1054500008BD000008B500F079FD002000F036FD21
:1054600000F0D2FD024B000B1860002008BD00BF09
:105470002C6C062870B5144662B1094B094E1B68A6
:1054800036685B6815189B687343013B9D4203D8DF
:1054900000F01CFC204670BD6FF00400FBE700BF6D
:1054A000144A06282C6C0628B0F5B83F06D30144F0
:1054B000B1F5C83F0BD9B0F5C83F01D2002004E0D8
:1054C000B1F5D83F8CBF0020012001387047002083
:1054D0007047000070B500210546FFF7E5FF044660
:1054E00038B12946124808F031F96FF00604204619
:1054F00070BD104B1B685B6899680F4BB5FBF1F2F0
:105500001B6801FB12524B43013B72B99D420CD800
:1055100000F0DAFC0646204600F0D8FC28460BF0E6
:1055200091F9304600F0D2FCE1E76FF00404DEE7C9
:1055300068F90002144A06282C6C06282DE9F0416F
:105540000F4611460646FFF7AFFF1446054640B129
:1055500031461D4808F0FAF86FF006052846BDE808
:10556000F081002AFAD0194B1B685868B318184A02
:105570000169126880684243013A9342B6FBF1F236
:1055800001FB12624FF0FF3398BF0023003A18BFAF
:10559000012252421343B4FBF1F201FB12410B43CF
:1055A0000FD100F091FC8046284600F08FFC224687
:1055B0003946304600F0DCFB404600F087FC2546CB
:1055C000CCE76FF00405C9E783F90002144A062806
:1055D0002C6C062870470746FFF7FCFF00200146A9
:1055E00002460346044605460646804681468246F4
:1055F0008346844686463847FEE7000010B500F033
:10560000A9FD074B00209B689847044628B900F085
:10561000FBFC044B1860204610BD0124FBE700BFD3
:10562000C0F90002306C062808B507F021FD0038EB
:1056300018BF012008BD000008B5044607F01EFD94
:1056400000B1FEE7094BDB68984700B1FEE7084B65
:105650001C6080F30A88226882F30888BFF34F8FAA
:10566000BFF36F8F1B685868FFF7B5FFC0F90002E2
:10567000346C0628024B03EB00139868704700BF98
:10568000184A062870B5002000F07EF80546002074
:1056900000F06EF8244C254EA06035400120E560F6
:1056A00000F066F8A061012000F06EF8E0610120D2
:1056B00000F06AF83040A169E061A0680A1A00F0C1
:1056C000A9FC0B2000F054F8A0620B2000F05CF85D
:1056D000E0620C2000F04CF8A0630C2000F054F8BD
:1056E000E0630D2000F044F8A0640D2000F04CF8B9
:1056F000E0640E2000F03CF8A0650E2000F044F8B5
:10570000E0650F2000F034F8A0660F2000F03CF8B0
:10571000E066102000F02CF8A067102000F034F8AC
:10572000E067002070BD00BF184A062800F0FFFFA8
:1057300020F02003413B192B05D9303809288CBFB4
:105740000020012070470120704710B54218435CCB
:105750005478D0781B0643EA04430343907843EA25
:10576000002010BD425C0844407840EA02207047A7
:1057700010289FBF28235843024B185888BF002089
:10578000704700BF386C062810289FBF2822034BA3
:1057900002FB0030406888BF00207047386C062844
:1057A0002DE9F04F20208DB000F0E0F805460028EC
:1057B00073D04FF410564FF000082022294630468F
:1057C00000F084FA2878FFF7B3FF80B306AA00231D
:1057D0009146E95CFF2904D00133142B02F8011B28
:1057E000F7D1002730336B44DFF8DCA0374C03F8E7
:1057F000188C49465AF8040B08F004F870B91621C1
:105800002846FFF7A2FF1A2120602846FFF79DFFD8
:105810001E2160602846FFF7A5FFA0600137112F09
:1058200004F12804E5D12036B6F5295FC5D100265C
:105830000127264CDFF89090DFF89480636803B36B
:105840004FF0000ADFF88CE00DF1040CBEE80F0009
:10585000ACE80F00DEF800300DF1040BCCF800309E
:105860005BF8041B59F8260007F0CCFFC0B10AF121
:10587000010ABAF1050FF3D1002384F8243084F82B
:1058800025700136112E04F12804D7D1284600F0E6
:1058900068F800200DB0BDE8F08F4FF0FF30F9E759
:1058A0004FF48050D4E9002102F58F531F3303EAEF
:1058B00008030A44C4E90613E360D31AC4E90400E8
:1058C00084F824702362DAE7984A0628386C0628A0
:1058D00000FEFFFF8CFA000270472DE9F0410746F9
:1058E00086B020B90024204606B0BDE8F081202013
:1058F00000F03CF805460028F4D04FF410564FF065
:10590000000820222946304600F0E0F92878FFF709
:105910000FFF0446B8B16A4600231046E95CFF2930
:1059200004D00133142B02F8011BF7D118336B4458
:10593000394603F8188C07F065FF40B91621284650
:10594000FFF703FF0446284600F00BF8CBE72036AC
:10595000B6F5295FD5D10024F5E70020704707F0A0
:105960000EBE08B107F0DCBD7047000010B504465C
:1059700007F0CEFD044A04449442034602D9FFF7DF
:10598000F0FF0023184610BD2020072800F017BCA8
:1059900000F00ABE08F0E8BF08B5032000F01AFCCA
:1059A000022000F00FFC002000F014FCBDE80840CD
:1059B000052000F02FBD0369002BFCDB7047F8B514
:1059C00000250326FFF7F7FFC561FFF7F4FF436DDE
:1059D00066F31C634365036943F000530361036985
:1059E00043F080430361FFF7E6FF446A0129E4B214
:1059F00030D00627436D67F31C634365036943F0AA
:105A000000530361036943F080430361FFF7D3FF51
:105A1000436A0229DBB244EA03241BD01521C3697F
:105A200043F40033C361C36961F30F23C361436D62
:105A300066F31C634365036943F000530361036924
:105A400043F080430361FFF7B6FF436AC561DBB2F1
:105A500044EA03442046F8BD38B5FFF7ACFF836A3B
:105A600095B265F399238362FFF7A5FF01294FF0F3
:105A70000401436D044661F31C634365036943F00D
:105A800000530361036943F08043036104D120465E
:105A9000BDE83840FFF78FBFFFF78DFF836AC2F381
:105AA0000F2262F3992331228362FFF784FFFFF70D
:105AB00082FFC36962F307030122C361C36943F430
:105AC0008033C361FFF777FFFFF775FF436D61F325
:105AD0001C634365036943F000530361036943F0AA
:105AE00080430361FFF767FFFFF765FFC36962F358
:105AF0000703C361C3696FF31043C361FFF75BFF23
:105B0000C5E7000048B90A4B19B101221A6000200C
:105B100070471A6822F00102F8E70128F7D1054B17
:105B200009B10222F2E71A6822F00202EEE700BF92
:105B3000FC6E0628F86E0628162238B505462B4C52
:105B40002068FFF738FF836A6FF308138362436DA1
:105B50006FF317034365436D62F31C634365036989
:105B600043F000530361036943F080430361FFF78F
:105B700022FF0020FFF70EFF022D0CD1012220682A
:105B8000FFF719FF836A62F3081383620120FFF7AE
:105B900001FF002038BD042DF8D1E36820689A7E0B
:105BA000FFF709FF436A62F39D534362E3685B7E3C
:105BB000012B13D12068FFF7FEFEE36820681979F6
:105BC000FFF7FDFEE1684B7E0A7E03FA02F2104207
:105BD00004D1024309792068FFF73EFFE36820689B
:105BE000DA7EFFF7E8FE836ACDE700BFE46E0628A1
:105BF000044BDB681B7B042B02D10220FFF79CBF08
:105C0000704700BFE46E0628034BDB68187B04284E
:105C100001D1FFF791BF7047E46E062870B51E4EA4
:105C20000446F3680D469B6883421CD91B4BA1F1C7
:105C30000D02B0F5B83F53F8223003D3C218B2F5C5
:105C4000C83F12D9B4F5C83F03D32344B3F5D83FB6
:105C50000BD9134B1A68134B1B68134305D121460C
:105C6000114807F073FD114815E0FFF7C1FF3068D8
:105C7000FFF7A1FE436D64F317034365436D65F3BE
:105C80001C634365036943F000530361FFF793FE10
:105C9000FFF7BAFF002070BDE46E0628E8FA0002A4
:105CA000FC6E0628F86E0628A0FA0002FEC8FFFF68
:105CB0000E2907D00F2903D00D2905D10AF0C2BD46
:105CC0000AF0C8BD0AF0CBBD002070472DE9F043B3
:105CD000254F0446FB680E469B681546834289B0F3
:105CE0003FD920220021684607F049FC1DB9002059
:105CF00009B0BDE8F0834FF0050924F01F083868AB
:105D0000FFF759FE3868FFF756FE436D6A4668F3A1
:105D100017034365436D08F1200869F31C6343656D
:105D2000036943F000530361FFF745FE0023386821
:105D300081690133082B42F8041BF9D1334604F082
:105D40001F021DF80210013D03F8011B03EB0401C3
:105D5000A1EB0601CBD00132202AF2D11E460C461F
:105D6000CDE70248C4E700BFE46E0628FEC8FFFF87
:105D70002DE9F043394F0446FB680E469B681546F3
:105D8000834289B017D9B0F5B83F03D38318B3F570
:105D9000C83F12D9B4F5C83F03D36319B3F5D83F50
:105DA0000BD92F4B1A682F4B1B68134305D1214683
:105DB0002D4807F0CBFC2D480AE0FFF719FFFB68E0
:105DC00024F01F089B68984505D3FFF71DFF0020AE
:105DD00009B0BDE8F0839D42F7D805EB0802934275
:105DE000F3D3002DF1D02022FF216846FFF7B7FD45
:105DF000324604F01F0312F8011B013D0DF8031099
:105E000002EB0401A1EB060102D00133202BF2D1F9
:105E10003868FFF7D0FD6E46002456F8049B3868BA
:105E20000134FFF7C8FD082CC0F81490F5D10C24FC
:105E30003868FFF7C0FD436D164668F317034365E6
:105E4000436D08F1200864F31C63436503690C4645
:105E500043F000530361FFF7AEFDC2E7E46E06288E
:105E6000FC6E0628F86E0628C3FA0002FEC8FFFF83
:105E7000034B1A780AB100221A700020704700BF45
:105E8000F46E062810B50446FFF7B2FE044B214617
:105E90001868FFF794FD0446FFF7B6FEA0B210BDE8
:105EA000E46E062838B504460D46FFF7A1FE054B03
:105EB0002A4618682146FFF7CFFDFFF7A5FE002010
:105EC00038BD00BFE46E062800207047F8B51D4DB0
:105ED0002B78A3BB1C4EFFF78BFEF3683068197953
:105EE0005C8A9A7CFFF76BFDF168240A91F80EC07A
:105EF000CB7B20FA0CFE0EEA030E96454F7B05D1B4
:105F000020FA07FE0EF0010EA64514D003FA0CFE8F
:105F1000134003FA0CF220EA0E001043012204F0B1
:105F20000104BA4020EA020004FA07F202430979A8
:105F30003068FFF791FD01232B70FFF765FE00200D
:105F4000F8BD00BFF56E0628E46E0628F8B5294EA8
:105F50003578002D46D1284C294610222046FFF7DF
:105F6000FEFC204600F0A6FB0220FFF7E5FD142210
:105F700029461C252068FFF71EFD436D62F31C6354
:105F80004365036943F000530361036943F08043B1
:105F90000361FFF710FD026A184BA2601A60184BEC
:105FA00005FB01F0C75897421ED103440320E3606C
:105FB000FFF78CFF2068FFF7FEFC836A6FF349232D
:105FC0008362E368187BFFF7B7FD05222068FFF7BF
:105FD000F2FC836A62F3030383620120FFF7DAFCB9
:105FE000012333700020F8BD01310829D8D1054BB9
:105FF000DCE700BFF46E0628E46E0628E06E062893
:10600000F4FA0002B8FB0002014BDB6898687047A5
:10601000E46E0628034B02441B689865081ADA658B
:1060200018667047E46E062808B572B6003818BFC7
:106030000120054B1B685A6E60F300025A66FFF799
:10604000BBF962B608BD00BFE46E062810B5174C58
:10605000236B1A0412D5236C1B070DD4144B15495E
:10606000D3F83C24144B1A60144A154B53F8040B14
:106070008B4242F8040BF9D1002010BD0A20236B9B
:1060800008F062FC0A20236C08F05EFC084B09490A
:10609000D3F83C24084B1A60084A094B53F8040B08
:1060A0008B4242F8040BF9D1E6E700BF000001443F
:1060B0000000104BE806104B406F0628006F0628C2
:1060C000A806104B024B1868C0F3C000704700BF11
:1060D000406F0628034B186880F40070C0F340201E
:1060E000704700BF406F0628034B186880F480603B
:1060F000C0F38020704700BF406F062808B538B154
:106100003F2905D94022034907F012FA012008BDB2
:106110000020FCE7006F0628024B0348196807F0CF
:1061200015BB00BF406F0628D4FB0002024A936AE9
:1061300043F00C03936270470000014408B5FFF779
:10614000F5FF4FF0894340F4B40240F425001A6192
:10615000186108BD4FF6FF70FFF7F0BF0122064B34
:10616000016003449B08054902FA03F3D1F8E820D3
:106170001A42FBD1704700BF00FFFEBB0000014484
:1061800030B4046802FA01F51A4024EA050402FA60
:1061900001F1214330BCFFF7E1BF000003460122BB
:1061A00009210148FFF7ECBF2001014482B00190B2
:1061B000019B5A1E0192002BFAD102B070470020B9
:1061C00070470000024B5A6A60F319625A627047C6
:1061D00000000144024B5A6A60F39B625A627047A6
:1061E00000000144F0B587B06C4607460E46074DE7
:1061F0000FCD0FC495E8030084E8030006AB03EB62
:10620000C70757F8143C1E6007B0F0BDE0FB000262
:1062100070B586B06C460646074D0FCD0FC495E8A5
:10622000030084E8030006AB03EBC60656F8143CF3
:10623000186806B070BD00BFE0FB0002012870B511
:1062400006460C461D4647D80F2945D8012A43D893
:10625000049B012B40D8012D3ED80020FFF7D8FF2A
:10626000C0F30010B04217D90020FFF7D1FF20F093
:1062700010010020FFF7B6FF0020FFF7C9FF20F054
:106280000F0121430020FFF7ADFF154B1A6965F39D
:1062900004121A61002070BD24B9114B1A6965F30C
:1062A00004121A610020FFF7B3FF20F00F01214311
:1062B0000020FFF797FF24B1094B1A6965F3041218
:1062C0001A610020FFF7A4FF20F0100141EA061137
:1062D0000020FFF787FFDDE74FF0FF30DBE700BF6F
:1062E000000001440D4B10B5D3F820310446C3F330
:1062F000034398420FD00120FFF750FF23460F229F
:1063000010210748FFF73CFF0020FFF747FF4FF43D
:106310007A60FFF74BFF002010BD00BF0000014472
:106320002001014413B5052831D8DFE800F02A2503
:10633000201B110301230022194618460093FFF782
:106340007DFF04460D20FFF7CDFF204602B010BDB3
:1063500001230022022100931846FFF76FFF044635
:106360000920F0E70123002203210093F4E7012331
:10637000002205210093EFE701230022072100936B
:10638000EAE700220123114610460093E5E70024C6
:10639000DBE707B505283AD8DFE800F030282018F9
:1063A00010030D20FFF79EFF0123002219460093E2
:1063B0001846FFF743FF03B05DF804FB0920FFF721
:1063C00091FF0123002202210093F1E70920FFF74A
:1063D00089FF0123002203210093E9E70920FFF749
:1063E00081FF0123002205210093E1E70920FFF747
:1063F00079FF0123002207210093D9E70920FFF745
:1064000071FF00220123114610460093D1E70020BE
:10641000D1E7000038B5074D04462B78834203D0FE
:1064200004D9FFF77FFF2C70002038BDFFF7B1FFC4
:10643000F9E700BF446F062801280CD0022813D0CA
:1064400040B90E4B02299A6A0CBF42F4805260F3A5
:106450000C329A627047094B02299A6A0CBF42F4C7
:1064600000526FF34D32F4E7044B02299A6A0CBFD5
:1064700042F480426FF38E32EBE700BF000001442C
:10648000012808D002280BD078B9094B986AC0F3CC
:10649000003001307047064B986AC0F34030F8E78F
:1064A000034B986AC0F38030F3E70120704700BFC8
:1064B00000000144002301220F210148FFF760BEC4
:1064C0000401014401230F211A460148FFF758BE79
:1064D0000401014438B52D4B0446D3F884502C48B0
:1064E00025F40022C3F8842001230B211A46FFF76C
:1064F00047FE0023012210210430FFF741FE4FF434
:10650000AA70FFF753FEFFF7D5FF9CB340F6485043
:10651000FFF74CFEFFF7D6FF7CB340F64850FFF77D
:1065200045FEFFF7C7FF5CB340F64850FFF73EFE5D
:10653000FFF7C8FF3CB340F64850FFF737FE00F0C6
:10654000B2F87F22034601211248FFF719FE01230A
:1065500010211A46FFF714FE002301220B210438F4
:10656000FFF70EFE2B0303D54FF4002008F0F4F9DB
:10657000002038BD4FF4AA70CAE74FF4AA70CEE7E6
:106580004FF4AA70D2E74FF4AA70D6E70000014496
:10659000000101440401014408B50120FFF79AFFFE
:1065A000BDE8084000F05EBB38B500F077F82C4B32
:1065B0002C4DD3F81411044641F020012846FFF772
:1065C000CDFDA5F114002849FFF7C8FD2749043087
:1065D000FFF7C4FD26490430FFF7C0FD254904300C
:1065E000FFF7BCFD4FF080410430FFF7B7FD2846B0
:1065F0002149FFF7B3FD21490430FFF7AFFD2049E2
:106600000430FFF7ABFD1F490430FFF7A7FD012061
:10661000FFF7C4FD1C481D49FFF7A0FD1C490430CD
:10662000FFF79CFD00210430FFF798FD4FF4801127
:106630000430FFF793FD4FF400210430FFF78EFD87
:1066400014490430FFF78AFD13490430FFF786FD33
:106650000020FFF7A3FD2046BDE83840FFF79CBFB0
:106660000000014414010144E097211D00FA2EC0EE
:106670003625C9FF640BFCFD60AF078400810880EC
:106680002695E257E4727CF82401014427135DB596
:106690009AB8EEF70800A800F60988524FF0884330
:1066A000D3F8F00170474FF08843D3F8F401C0F3FA
:1066B00086307047034B03609A68002042F0010265
:1066C0009A6070470000034437B5084C63699847E7
:1066D00048B9E56AA847C307FCD4236A019303B00D
:1066E000BDE830401847002003B030BDF8FB000281
:1066F00008461146FFF7E8BF10B5074C0020A36815
:106700009847A46A4FF4E1310120A0472346BDE831
:106710001040012115201847F8FB000200207047A7
:1067200000207047014B5868704700BF486F06282B
:10673000002382B00193019802B0704738B50C462F
:10674000014640B13CB1054D2246287800F04EF993
:1067500000206C6038BD6FF00400FBE7486F06282E
:106760001FB54FF4E13203230446CDE90123012391
:106770008DF80C30FFF70AF900F082F900F056F8B6
:10678000207801A900F072F8002004B010BD0000CC
:106790000148FFF7E5BF00BF486F062810B50C465B
:1067A000E3B2012B114602D06FF0030010BD00F0E0
:1067B000F1F858B914F4E06FF6D114F4405F08D141
:1067C00014F4404F18BF6FF00A00EFE76FF00700B6
:1067D000ECE76FF00900E9E7024B0A46014618783A
:1067E000FFF7DCBF486F0628014B1868704700BFF1
:1067F000DC4A06280128014606D0022806D040B906
:106800000121022000F07EBA0A20FBE701210B20C3
:10681000F8E770470C235843034B1B589A69D20280
:10682000FCD50020D9617047546F062838B50B4D50
:106830002C7884B9302221460948FFF790F82022AD
:1068400021460848FFF78BF8202221460648FFF72B
:1068500086F801232B70002038BD00BF846F062806
:10686000546F0628886F0628A86F0628F8B5434B92
:1068700004461B780F46002B77D0002978D00328D8
:1068800078D80B683E4AA3F59853123B934273D8CD
:106890000C263C4D06FB00563071304600F03EF9A8
:1068A0002046FFF7A7FF0121204600F02DFA012C1A
:1068B00035D0022C46D09CB90B2000F0DCF80A2021
:1068C00000F0D9F81F210B2000F0CAF820210A207F
:1068D00000F0C6F80B2000F0DFF80A2000F0DCF82A
:1068E0000C23012103FB045301FA04F2187A52B27B
:1068F00010431872587A02435A723B7A2046022B90
:1069000008BF194600F000FA3A462146304600F02A
:1069100069F92146304600F01FF90020F8BD00203B
:1069200000F0A9F8204600F0A6F82121002000F090
:1069300097F82221204600F093F8002000F0ACF8F0
:106940002046CBE7292000F096F8282000F093F8A5
:106950002321292000F084F82421282000F080F849
:10696000292000F099F82820B8E76FF41050D5E7F7
:106970000548D3E70548D1E70548CFE7846F0628E7
:10698000EEFE7900546F0628F7EFFFFFFEDBFFFFF6
:10699000FBDBFFFF38B5104B04461B780D46A3B157
:1069A000032815D80D4AA1F59853123B934211D8EC
:1069B000FFF766FD21460C24024609482B4604FBDE
:1069C000010000F0D5F8002038BD6FF41050FBE74F
:1069D0000448F9E70448F7E7846F0628EEFE7900DB
:1069E000546F0628FEDBFFFFFBDBFFFF104B70B58B
:1069F0001B7805460C46A3B1032815D80C210D4B76
:106A000001FB00331B7A0341DB070FD5A618B44204
:106A100001D1002070BD284614F8011BFFF7FAFED3
:106A2000F5E76FF41050F5E70348F3E70348F1E7A3
:106A3000846F0628546F0628FEDBFFFFFADBFFFF9A
:106A400038B50446084600F029F8054600212046DE
:106A500000F050F829462046BDE8384000F03AB82A
:106A600008B5FFF7EDFF002008BD08B5002100F0D4
:106A700041F8002008BD08B5FFF7F7FF002008BD6A
:106A800010B5044C23781BB900F014F801232370CF
:106A9000002010BDC86F062800F02EB8013880B263
:106AA000B0F59A7F9ABF024B185C5F20704700BF19
:106AB00030FC000210B5064C23783BB900F0ECF82E
:106AC0004FF4000000F022F901232370002010BDD4
:106AD000C96F0628172804D85E2904D8C0B200F070
:106AE000F1B8024870470248704700BFF5DFFFFF6A
:106AF000FBB3FFFF00F0E0B8172810B5044608D834
:106B0000012100F0F5F82046BDE81040012100F019
:106B1000E5B8014810BD00BFF5DFFFFF10B50379F0
:106B20000446012B0BD0022B0BD063B9FFF75CFEA0
:106B30002060836843F001038360002010BD034898
:106B4000F6E70348F4E70348F2E700BF0000834597
:106B50000000844500DCFFFF036800201A6942F052
:106B600001021A611A6942F002021A6170470000BC
:106B7000022A0CBF064A074AB2FBF3F30268013B44
:106B800011699BB263F3172100201161704700BFA8
:106B9000000E2707005A62020368196942B962F3BE
:106BA000451119611969002062F386111961704756
:106BB00041F020011961511E4A424A41F2E703683F
:106BC0000020996A6FF307019962996A62F30F21B5
:106BD00099629A6A42F400329A629A6A42F4802276
:106BE0009A627047F8B5154600274FF6FF720446C3
:106BF0000E4603681F62DA611A6995F804C06CF3E7
:106C0000C4021A6195F806C01A696CF3C7121A61BA
:106C10006A79FFF7C1FF31462B682A7A2046FFF7D1
:106C2000A7FF202123685A6961F3070240215A61B6
:106C30005A6961F30F225A615A6967F311425A6126
:106C40009F62EB794BB1802231462046FFF7B7FFB8
:106C50002268936A43F48033936200202368D862E9
:106C6000F8BD00000B4B9A6842F001029A604FF0A9
:106C7000FF321A61DA6942F00102DA61A3F500031A
:106C80001A6B42F010021A631A6A42F480121A62F6
:106C9000704700BF00008144064A0020936843F01B
:106CA00001039360A2F50202136B43F080031363A8
:106CB000704700BF00008344014B800019507047AB
:106CC00000018344044B80001A58C9B261F31F626B
:106CD0001A500020704700BF00018344034B80001E
:106CE0001A5861F304121A500020704700018344BF
:106CF000034B80001A5861F345121A500020704768
:106D00000001834407F038BEFFF796BB07F024BEAE
:106D100001680E4A0346914215D1C169A2F11022C1
:106D2000A2F1EF1291420ED18268012A0BD8C268FB
:106D300012B101698A4206D0586928B19B691B1AB1
:106D40005842584170470120704700BF55AA00FFC4
:106D50000D4B70B59E68A6B13046FFF7D9FF0446CB
:106D600078B9F3686BB935690DB9204670BD28460E
:106D7000FFF7CEFF28B9EB68B34202D12E462D694A
:106D8000F2E70124F1E700BFC09406282DE9F8439B
:106D9000404F3C68D4B1BC68C4B100284DD0002934
:106DA0004BD001FB00F5B5FBF0F0884245D1281D22
:106DB00043D8A9070DD025F003060436FC6803E08C
:106DC0006368B3423BD2A469002CF9D12046BDE8E8
:106DD000F8832E46F2E7F86044E006F1200C04EB5D
:106DE0000C03203959600021DFF8ACE0C3E902143C
:106DF0002169196144F80CE0DFF8A0C0C3F81CC099
:106E000001B1CB60C3E90520AAB193619A6902B1CF
:106E10005361236100234FF00109C4E905333B6945
:106E2000C4E90169DB072DD5FFF792FF50B31C4B76
:106E300048461B6825E0FB60E8E70024C6E7A36836
:106E40001BB1174B01201B689847D4E905206168E6
:106E500004F12008891B2329BFD80123A360002A3D
:106E6000B9D09061A36903B15A610023C4E9053325
:106E70003B69DA0706D5FFF76BFF18B10120084B15
:106E80001B6898472A4600214046444606F077FB97
:106E90009CE700BFC094062855AA00FF669911EE32
:106EA000E44A06282DE9F041054600287CD03F4FF2
:106EB0003B68002B78D0BA68002A75D0834203D88B
:106EC0007A681344984203D3394B01201B689847D2
:106ED000A5F120042046FFF71BFF18B1344B012019
:106EE0001B68984755F8183C012B03D0304B012004
:106EF0001B689847002355F8146C45F8183CAEB150
:106F0000B26892B955F81C3C03F12002736813442F
:106F1000736055F8103C336103B1DE6020462022D7
:106F2000002106F02CFB234634461E46206900282B
:106F300032D08368002B2FD163684268203313441A
:106F400063600369D4E905212361DAB901BB4269B1
:106F500081696261A161EAB19461A26902B154617F
:106F600003B1DC602022002106F009FB3B699B078E
:106F70001AD5FFF7EDFEB8B1BDE8F0410C4B01208A
:106F80001B6818479161A1690029E0D04A61DEE7DA
:106F9000F960F8E7FC60E0E7002EE7D1FB68A36149
:106FA00003B15C61FC60E1E7BDE8F081C0940628B4
:106FB000E44A062838B50D4614220021044612483A
:106FC00006F0DDFA1149124800F03CF8232D1AD9D9
:106FD00014F003031FBF043DED18C3F10403E418CC
:106FE0002A460021204606F0CAFA074B094AC3E99F
:106FF00000459C602260A2F11022203DA2F1EF1218
:107000006560E261DC6038BDC0940628A56E0002B0
:107010008D6D000255AA00FF002070470FB40020BC
:1070200004B0704770477047014B1B68184700BF9A
:10703000E04A062818B1024B1B6803B11847704795
:10704000E84A0628024B1860024B0020196070477E
:10705000E04A0628E84A06280A4619B1024B0021F0
:107060001B681847704700BFF04A06280E4B1A6885
:107070001368042815D8DFE800F003080B0E110090
:1070800043F0010300201360704743F00203F9E767
:1070900043F00403F6E743F00803F3E743F010037B
:1070A000F0E74FF0FF307047D494062808B50A4B3C
:1070B0001860036823F02003036000F01DF800202F
:1070C000FFF7D4FF03F022F903F0A0FB03F0FAFB73
:1070D00003F05CFB002008BDD494062808B500F03E
:1070E00031F804F0E1FBBDE8084000F000B870475B
:1070F0000020704700207047114B82B019680A6861
:1071000042F004020A6019684A6842F004004860CC
:10711000196822F004024A6043F224111A688B585D
:107120000193019B43F001030193019B23F0F003C2
:1071300043F080030193019B8B5002B003F05CB8D5
:10714000D4940628034B1A68136823F004031360D1
:1071500003F03CB8D49406289202DB0303F47823AE
:1071600002F4F8421A4300F01F00490101F478715B
:1071700002430A4343F22011014B1B68CA50704777
:10718000D49406282DE9F04385B022B13F2A02F0BD
:107190003F0404D864BB002005B0BDE8F083930928
:1071A0008D04CA0105F4F80502F478622A43050645
:1071B00005F0E0652A4343F22C1E002543F2281710
:1071C00042F0A042DFF890C042F47C32DCF800606C
:1071D00006EB0E09D9F80080CDF80480DDF80480B4
:1071E00018F0200FF6D10135AB42F251EED1D1E7C4
:1071F000CB0103F47866184B89041D68000605F579
:107200004452202C01F4F80100F0E06002F12C025D
:1072100013D9A4F1210340EA033040EA06030B43EB
:1072200043F0A04343F400331168029102998806A9
:10723000FAD443F22812AB50ADE7631E40EA0330A4
:1072400040EA06030B4343F0A043116803910399FE
:107250008906FAD4EDE700BFD49406282DE9F0435F
:1072600085B022B13F2A02F03F0404D864BB00205D
:1072700005B0BDE8F08393098D04CA0105F4F80553
:1072800002F478622A43050605F0E0652A4343F2DA
:107290002C1E002543F2281742F08042DFF890C0F0
:1072A00042F47C32DCF8006006EB0E09D9F800806D
:1072B000CDF80480DDF8048018F0200FF6D10135F8
:1072C000AB42F251EED1D1E7CB0103F47866184B13
:1072D00089041D68000605F54452202C01F4F801CC
:1072E00000F0E06002F12C0213D9A4F1210340EA7E
:1072F000033040EA06030B4343F0804343F400337A
:107300001168029102998806FAD443F22812AB5010
:10731000ADE7631E40EA033040EA06030B4343F047
:1073200080431168039103998906FAD4EDE700BF01
:10733000D4940628F0B500062D4D120300F0E06746
:1073400002F4F83289042E6801F4F80142EA0704D5
:107350000C4344F0605406F5445085B044F04004BA
:107360002C30D0F800C0CDF800C0DDF800C01CF013
:10737000200FF6D143F2281043F22C1C34502C6815
:1073800004EB0C06306801900198DDF804E0000C75
:1073900010F00200F6D11EF0100FF3D054F80CC01C
:1073A0001CF4807F22D1DB0103F4786313433B4359
:1073B0000B4343F0805332680292029A9706FAD444
:1073C00043F22812A35043F22C122B68D018016804
:1073D0000391039C0399A403F9D4C906F7D5D358A4
:1073E00013F4007F0CBF01204FF0FF3005B0F0BD5B
:1073F000D4940628C901000601F4786100F0E06029
:10740000920402F4F80201431B03114303F4F8331E
:107410001943094B82B01A6841F0006102F54453E8
:107420002C3318680190019810F02000F9D143F234
:107430002813D15002B07047D4940628F0B5000646
:10744000CD0105F4786500F0E064920445EA04009B
:1074500002F4F8020243254E180300F4F830024308
:10746000306885B000F5445342F080522C331F68D9
:107470000097009FBF06FAD443F22813C25043F28C
:107480002C133268D71838680190DDF804C00198D1
:107490001CF4003FF7D1C006F5D5D358C3F3402004
:1074A0009B0520D58B0403F4F8032B43234343F0BF
:1074B000605141F47C313C680294029CA506FAD4E8
:1074C00043F228141151316843F0006301F544522E
:1074D00043F404332C3214680394039CA406FAD4B6
:1074E00043F228128B5005B0F0BD00BFD49406289B
:1074F000C901000601F4786100F0E060920402F432
:10750000F80201431B03114303F4F8330A4A1943F9
:1075100041F00063116882B001F5445243F4003336
:107520002C3210680190019810F02000F9D143F23C
:1075300028128B5002B07047D4940628F0B500068C
:10754000CD0105F4786500F0E064920445EA04009A
:1075500002F4F8020243264E180300F4F830024306
:10756000306842F0805200F5445385B042F4003256
:107570002C331F680097009FBF06FAD443F22813EC
:10758000C25043F22C133268D71838680190DDF8E6
:1075900004C001981CF4003FF7D1C006F5D5D358BC
:1075A000C3F340209B0520D58B0403F4F8032B4341
:1075B000234343F0605141F47C313C680294029CC7
:1075C000A506FAD443F228141151316843F0006340
:1075D00001F5445243F404332C3214680394039CA1
:1075E000A406FAD443F228128B5005B0F0BD00BFB8
:1075F000D4940628F7B51D4E9DF820500006C90109
:107600009B0400F0E06001F4786103F4F80437684B
:107610002D03014305F4F8352143294307F544536D
:1076200041F0C0512C33D3F800C0CDF800C0DDF8D4
:1076300000C01CF0200FF6D143F22813D201F950FC
:1076400002F4786331682B430343234301F544522A
:1076500043F0C0432C3210680190019810F02000D4
:10766000F9D143F228128B5003B0F0BDD494062810
:107670002DE9F04F8BB09DF854506E4F4FEAC51C6A
:107680000CF4786C0006D7F800804CF4003CAD0494
:1076900000F0E06005F4F80540EA0C0601932E4383
:1076A00008F5445E9DF850309DF8584046F020564D
:1076B0000EF12C0EDEF80090CDF80890DDF8089061
:1076C00019F0200FF6D143F2281E48F80E604FEA59
:1076D000C41EA604D7F800A00EF4786E06F4F806CF
:1076E0004EF40039064346EA09060AF5445846F0C6
:1076F000205608F12C08D8F800B0CDF80CB0DDF811
:107700000CB01BF0200FF6D143F228184AF808609D
:10771000019ED7F80080B60406F4F80646EA0C0687
:10772000064308F5445C46F040560CF12C0CDCF89E
:1077300000A0CDF810A0DDF810A01AF0200FF6D1AF
:1077400043F2281CFF2948F80C602FD11B0303F4D7
:10775000F8333C682B4343EA0E03034304F54451DA
:1077600043F000532C310E680596059EB606FAD4F8
:1077700043F228116350FF2A14D0D20102F4786238
:1077800015433A68284340F0405002F5445340F412
:1077900000302C331968099109998906FAD443F20B
:1077A0002813D05000200BB0BDE8F08FD7F800C0F0
:1077B0004FEAC11E0CF5445699420EF4786E06F15C
:1077C0002C0623D18B0403F4F803034343EA09098D
:1077D00049F040533168069106998906FAD443F27C
:1077E000281124034CF8013004F4F83445EA0E0360
:1077F00023433C68034304F5445143F000532C31C8
:107800000E680796079EB606FAD4B1E71B0303F489
:10781000F8332B4343EA0E03034343F0005331682C
:10782000089108998C06FAD443F228114CF80130DB
:10783000A1E700BFD49406282DE9F04F91B09DF840
:1078400068C001924FEA8C4202F4F80B4FEACC1464
:10785000BC4A090604F47864176801F0E06144EA60
:107860000B040C4344F0205407F544529DF86C502F
:107870001C9E44F400342C32D2F800E0CDF808E02D
:10788000DDF808E01EF0200FF6D143F22812BC50BC
:10789000EA01AF0402F4786207F4F80742F4003812
:1078A00041EA070E4EEA080E4EF0205ECDF800E0E9
:1078B000DFF890E2DEF8009009F5445E0EF12C0E40
:1078C000DEF800A0CDF80CA0DDF80CA01AF0200F17
:1078D000F6D143F2281E000600F0E060DDF800A0BB
:1078E00040EA08089B04974849F80EA003F4F803FF
:1078F00048EA0303D0F8008043F0405308F5445EA3
:107900000EF12C0EDEF80090CDF81090DDF81090FE
:1079100019F0200FF6D143F2281E902E48F80E30B1
:1079200063D8473606F01F02002A14BF0123002344
:1079300003EB56164FF0010343F22C17D0F800E08A
:1079400018BF93400EF5405252F82C2008BF013664
:107950000EEB0708D8F800C0CDF814C0DDF814907D
:10796000DDF814C019F4003FF4D11CF0100FF1D071
:10797000013A164443F230124EF8026043F23416D4
:1079800002682D03B350019B05F4F835DA0102F4C7
:10799000786242EA0B0203681543294341F0005123
:1079A0001F443A680692069A9206FAD443F22812C5
:1079B000D150026802F544532C3319680E910E9988
:1079C0008D06FAD443F22813D450026802F54453CA
:1079D0002C3319680F910F998906FAD443F22813B2
:1079E0000099D15011B0BDE8F08F036803F5405EF7
:1079F0005EF82CC003F5445E0EF12C0EDEF800801C
:107A0000CDF81C80DDF81C90DDF81C8019F4003FD7
:107A1000F4D118F0100FF1D043F2301E0CF1060C27
:107A200043F80EC043F2341C4FF40003D0F800E0DA
:107A30003A434CF80E30A6F190039C46002BD0F848
:107A400000E0B8BFA6F1510C0A435E4206F03F06C3
:107A500042F010270EF5445803F03F034FEAAC1CE8
:107A600058BF734247F4003708F12C08D8F800607B
:107A70000896089E16F02006F8D143F2281942F025
:107A800080484EF8097048F47C380768664507F569
:107A9000445E0EF12C0E3CDB002B11DD202B45DD6E
:107AA000213B42EA033343F0804343F40033DEF8E2
:107AB00000600A960A9EB606F9D443F22816BB5116
:107AC000066842F0006206F5445342F404322C3357
:107AD0001F680C970C9FBF06FAD443F22813F2508C
:107AE000019B2D03DA0102F4786242EA0B0205F4ED
:107AF000F83515430268294302F5445341F000511B
:107B00002C331D680D950D9DAE06FAD443F2281353
:107B10004EE7DEF800A0CDF824A0DDF824A01AF08E
:107B2000200FF6D147F809800136AEE7013B42EA63
:107B3000033343F08043DEF800600B960B9EB606DD
:107B4000F9D4BAE7D49406280006F0B500F0E06452
:107B5000D80100F478609204204302F4F802024352
:107B6000244842F04052066885B006F5445542F478
:107B700000322C352F680097009FBF06FAD443F2DD
:107B800028159B04725103F4F802CB01056803F435
:107B900078631343234305F5445143F020432C31CC
:107BA0000E680196019EB606FAD443F228116B5076
:107BB0000168114B2243134301F544522C321468DF
:107BC0000294029CA506FAD443F228128B5043F289
:107BD0002C120368D01801680391039C0399A40335
:107BE000F9D4C906F7D5D058C0F30020013805B044
:107BF000F0BD00BFD494062840100238F0B500064E
:107C000085B091429DF828C09DF82C602C4D00F065
:107C1000E0601BD18A0402F4F8024FEACC17D5F8D1
:107C200000E0024307F478673A430EF5445442F00B
:107C300040522C3442F4003227680197019FBF065E
:107C4000FAD443F228144EF80420624699421AD11D
:107C5000F40104F478648F04D5F800C0044307F4F9
:107C6000F8073C430CF5445344F040542C3344F49F
:107C700000341F680297029FBF06FAD443F228130C
:107C80004CF8034033461B0303F4F833C90101F4F5
:107C9000786103430B439204296802F4F80213430A
:107CA00001F5445243F018432C32106803900398B6
:107CB00010F02000F9D143F228128B5005B0F0BD2E
:107CC000D4940628C901000601F4786100F0E06050
:107CD000920402F4F80201431B03114303F4F83346
:107CE0001943094B82B01A6841F0104102F5445320
:107CF0002C3318680190019810F02000F9D143F25C
:107D00002813D15002B07047D4940628C901000648
:107D1000920401F4786100F0E06002F4F80301439A
:107D20000A4A194341F04053116882B001F54452A8
:107D300043F400332C3210680190019810F02000B9
:107D4000F9D143F228128B5002B07047D494062820
:107D5000074B82B01B6803F544532C331A68019219
:107D60000199019A8903F9D4D206F7D502B0704778
:107D7000D4940628F7B5114C02F54062236853F8F5
:107D8000225003F544522C3216680196019F019E41
:107D9000BF03F9D4F606F7D543F238129D5043F2EB
:107DA0003C1300EB8101884201D103B0F0BD226891
:107DB0009A580092009A40F8042BF4E7D4940628CD
:107DC000F7B52A4D1C462B6800F5406053F820603B
:107DD00003F544502C3007680097DDF800C0009F81
:107DE0001CF4003FF7D1FF06F5D543F230101E50CA
:107DF00043F2341002EB84039A422AD1234643F221
:107E000034100027621C22F001029A4228D8C8B21E
:107E100001F0B6FF84421AD2296801F544532C338D
:107E20001A680192019A019F120C12F00202F7D116
:107E3000FF06F5D543F230132644CE5043F23411F9
:107E40001646001B2B6801329042CE50FAD803B080
:107E5000F0BD52F8047BD5F800C040F80C70CBE7B9
:107E6000D5F800C0013340F80C70CEE7D494062852
:107E700073B5114D00F540602C6854F8203004F5BE
:107E8000445019442C3003680193019B019E1B0C44
:107E900013F00203F7D1F606F5D543F23010215066
:107EA00043F234111846934201D102B070BD2C68E0
:107EB00001330851F7E700BFD49406282DE9F04FAD
:107EC000970407F4F8080F78E94E4FEA023CFF01E7
:107ED0000CF4F83C000607F47867D6F8009000F040
:107EE000E06047EA0C0799B0074348EA070709F53D
:107EF000445E9DF888509DF88C4047F018470EF17D
:107F00002C0EDEF800A0CDF800A0DDF800A01AF0DD
:107F1000200FF6D143F2281E49F80E700F7891F821
:107F200001E04FEA07394FEACE1E09F4F8390EF4A2
:107F3000786E4EEA090EBF04D6F800904EEA000EA5
:107F400007F4F80747EA0E0709F5445E47F00847CB
:107F50000EF12C0EDEF800A0CDF804A0DDF804A090
:107F60001AF0200FF6D143F2281E49F80E709F0434
:107F700007F4F80E8F78D6F800A0FF0107F47867B1
:107F800047EA0E074FEA033909F4F839074347EA8D
:107F900009070AF5445947F0184709F12C09D9F89F
:107FA00000B0CDF808B0DDF808B01BF0200FF6D116
:107FB00043F228194AF80970CF78D6F80090FF01EB
:107FC00007F4786747EA080791F8028007434FEA09
:107FD000083808F4F83847EA080709F5445847F024
:107FE000184708F12C08D8F800A0CDF80CA0DDF84F
:107FF0000CA01AF0200FF6D143F2281849F80870A7
:10800000CF7891F804804FEA07394FEAC81809F48D
:10801000F83908F4786848EA0908BF04D6F80090EF
:1080200048EA000807F4F80747EA080709F5445842
:1080300047F0084708F12C08D8F800A0CDF810A0A8
:10804000DDF810A01AF0200FF6D143F2281849F8F5
:1080500008708F7891F805804FEA07394FEAC81801
:1080600009F4F83908F4786848EA0908BF04D6F832
:10807000009048EA000807F4F80747EA080709F5FE
:10808000445847F0184708F12C08D8F800A0CDF85C
:1080900014A0DDF814A01AF0200FF6D143F228182E
:1080A00049F808704F7991F806804FEA07394FEA8E
:1080B000C81809F4F83908F4786848EA0908BF04D0
:1080C000D6F8009048EA000807F4F80747EA0807DE
:1080D00009F5445847F0084708F12C08D8F800A0E3
:1080E000CDF818A0DDF818A01AF0200FF6D143F251
:1080F000281849F808708F7991F807804FEA0739F6
:108100004FEAC81809F4F83908F4786848EA090809
:10811000BF04D6F8009048EA000807F4F80747EAD9
:10812000080709F5445847F0084708F12C08D8F823
:1081300000A0CDF81CA0DDF81CA01AF0200FF6D18D
:1081400043F2281849F808700F7A91F80180FF016E
:108150004FEA083808F4F83807F4786747EA080760
:1081600091F80080D6F800904FEA884808F4F808A3
:10817000074348EA070709F5445847F0084708F15C
:108180002C08D8F800A0CDF820A0DDF820A01AF027
:10819000200FF6D143F2281849F808700F7991F8AA
:1081A00009804FEA07394FEAC81809F4F83908F48A
:1081B000786848EA0908BF04D6F8009048EA000841
:1081C00007F4F80747EA080709F5445847F0084755
:1081D00008F12C08D8F800A0CDF824A0DDF824A0E0
:1081E0001AF0200FF6D143F2281849F80870CF7919
:1081F00091F80A804FEA07394FEAC81809F4F839AC
:1082000008F4786848EA0908BF04D6F8009048EAFC
:10821000000807F4F80747EA080709F5445847F04B
:10822000084708F12C08D8F800A0CDF828A0DDF800
:1082300028A01AF0200FF6D143F2281849F8087048
:108240002F0307F4F83747EA0E0791F80BE0D6F84A
:1082500000804FEACE1E0EF4786E47EA0E07074301
:1082600008F5445E47F018470EF12C0E02E000BFFF
:10827000D4940628DEF80090CDF82C90DDF82C90F0
:1082800019F0200FF6D143F2281E48F80E70D6F8E8
:10829000009009F5445808F12C08D8F800700C97A4
:1082A000DDF830E00C9F1EF4003FF6D1FF06F4D558
:1082B00091F800E091F808A0A7044FEACE1E4FEA1B
:1082C0000A3A07F4F8070EF4786E0AF4F83A07430E
:1082D0004EEA0A0E4EEA070E4EF0084ED8F800A0FD
:1082E000CDF834A0DDF834A01AF0200FF6D143F217
:1082F000281849F808E091F800E091F801804FEA69
:108300000E394FEAC81808F4786809F4F83948EAD1
:1083100009084FEA8E4E48EA00080EF4F80E4EEABD
:10832000080ED6F800804EF0184E08F544562C364C
:10833000D6F80090CDF83890DDF8389019F0200F7D
:10834000F6D143F2281648F806E04E7A91F80280FA
:108350004FEA063E4FEAC8180EF4F83E08F4786873
:1083600048EA0E084FEA864E954E48EA0008D6F8CD
:1083700000900EF4F80E4EEA080E09F544584EF03F
:10838000084E08F12C08D8F800A0CDF83CA0DDF884
:108390003CA01AF0200FF6D143F2281849F808E063
:1083A00091F802E0D2014FEA0E3E0EF4F83E02F4DC
:1083B00078624EEA020242EA000E4A78D6F800805D
:1083C000920402F4F80242EA0E0208F5445E42F01A
:1083D00010420EF12C0EDEF80090CDF84090DDF842
:1083E000409019F0200FF6D143F2281E48F80E20D5
:1083F000CA78D6F800E0D20102F4786242EA0C0CA6
:108400004A7A4CEA000C920402F4F80242EA0C02A6
:108410000EF5445C42F010420CF12C0CDCF80080AC
:10842000CDF84480DDF8448018F0200FF6D143F2F7
:10843000281C4EF80C200A7991F803C0D2014FEAAB
:108440000C3C0CF4F83C02F4786242EA0C0242EA7A
:10845000000C0A78D6F800E0920402F4F80242EA2E
:108460000C020EF5445C42F018420CF12C0CDCF8C6
:108470000080CDF84880DDF8488018F0200FF6D154
:1084800043F2281C4EF80C208A7A91F804C012039B
:108490004FEA8C4C0CF4F80C02F4F832DB0142EA9F
:1084A0000C0203F47863D6F800C0134303430CF5C1
:1084B000445243F010432C32D2F800E0CDF84CE0A7
:1084C000DDF84CE01EF0200FF6D143F228124CF8F4
:1084D0000230CA7AEB0103F47863150305F4F8352A
:1084E00003432B439204356802F4F802134305F565
:1084F000445243F008432C32D2F800C0CDF850C0AB
:10850000DDF850C01CF0200FF6D143F22812AB501A
:108510009DF89030012B50D18B7A4A791D03D201FE
:1085200005F4F83502F478622A439B043568024367
:1085300003F4F803134305F5445243F008432C3287
:10854000D2F800C0CDF854C0DDF854C01CF0200FA4
:10855000F6D143F22812AB508B794A79DB01120332
:1085600002F4F83203F47863134332681F4302F5D0
:10857000445347F018472C331D681695169DAD06D9
:10858000FAD443F22813E401D75004F4786420436A
:108590008C793268A40404F4F804204340F00840C5
:1085A00002F5445340F400302C33196817911799A1
:1085B0008906FAD443F22813D05019B0BDE8F08FE1
:1085C000D49406282DE9F04798B09DF880500F7894
:1085D000DFF898C32C03FF0104F4F834000607F415
:1085E0007867DCF800E0AE0400F0E060274306F4B2
:1085F000F806074337430EF5445C47F018470CF183
:108600002C0CDCF80080CDF80480DDF8048018F034
:10861000200FF6D143F2281C4EF80C704F78FF0162
:1086200007F47867274347EA000C0F78BF0407F484
:10863000F80747EA0C07DFF834C347F01847DCF8BF
:1086400000E00EF5445C0CF12C0CDCF80080CDF859
:108650000880DDF8088018F0200FF6D143F2281CBE
:108660004EF80C708F7891F800C0FF014FEA0C3C77
:1086700007F478670CF4F83C47EA0C0C9DF884701A
:10868000BF0407F4F80747EA0C07DFF8E0C2074326
:10869000DCF800E047F018470EF5445C0CF12C0CB8
:1086A000DCF80080CDF80C80DDF80C8018F0200F8D
:1086B000F6D143F2281C4EF80C70CF7891F801C027
:1086C000FF014FEA0C3C07F478670CF4F83C47EAEA
:1086D0000C0C9DF88870BF0407F4F80747EA0C07F4
:1086E000DFF888C20743DCF800E047F018470EF5D2
:1086F000445C0CF12C0CDCF80080CDF81080DDF827
:10870000108018F0200FF6D143F2281C4EF80C70A0
:108710000F7991F802E0FF014FEA8E4E0EF4F80E49
:1087200007F4786747EA0E07DFF840E24FEA023CB9
:10873000DEF800800CF4F83C4CEA000C47EA0C0729
:1087400008F5445E47F010470EF12C0EDEF800905D
:10875000CDF81490DDF8149019F0200FF6D143F203
:10876000281E48F80E7091F804E04F794FEA0E3851
:10877000FF0108F4F83807F4786747EA08074FEA7A
:108780008E4E0EF4F80E07434EEA0707DFF8DCE1E1
:1087900047F01847DEF8008008F5445E0EF12C0E15
:1087A000DEF80090CDF81890DDF8189019F0200F41
:1087B000F6D143F2281E48F80E70CF7991F804E004
:1087C000FF0107F4786737434FEA0E3E0EF4F83E98
:1087D000074347EA0E07DFF894E147F01847DEF851
:1087E000008008F5445E0EF12C0EDEF80090CDF806
:1087F0001C90DDF81C9019F0200FF6D143F2281ED2
:1088000048F80E7091F808E01F0307F4F8374FEAB4
:10881000CE1E0EF4786E074347EA0E0791F803E088
:108820004FEA8E4E0EF4F80E47EA0E07DFF83CE1F1
:1088300047F01047DEF8008008F5445E0EF12C0E7C
:10884000DEF80090CDF82090DDF8209019F0200F90
:10885000F6D143F2281E48F80E7091F808E04F7ADE
:108860004FEA0E38FF0108F4F83807F4786747EA52
:1088700008074FEA8E4E0EF4F80E07434EEA07073C
:10888000DFF8E8E047F01847DEF8008008F5445EBE
:108890000EF12C0EDEF80090CDF82490DDF8249037
:1088A00019F0200FF6D143F2281E48F80E708F7A87
:1088B00091F805E0FF014FEA0E3E0EF4F83E07F492
:1088C000786747EA0E0791F804E007434FEA8E4EB7
:1088D0000EF4F80E4EEA0707DFF890E047F018476D
:1088E000DEF8008008F5445E0EF12C0EDEF80090F4
:1088F000CDF82890DDF8289019F0200FF6D143F23A
:10890000281E48F80E7091F80BE0970407F4F8075A
:108910004FEACE1E0EF4786E074347EA0E0791F831
:1089200005E04FEA0E3E0EF4F83E47EA0E07DFF888
:108930003CE047F01847DEF8008008F5445E0EF191
:108940002C0EDEF80090CDF82C90DDF82C9019F06C
:10895000200FF6D143F2281E48F80E70034FD7F8C7
:10896000008008F5445E0EF12C0E01E0D494062838
:10897000DEF800700C97DDF830900C9F19F4003F82
:10898000F6D1FF06F4D5CF7A91F800904FEA073A76
:108990004FEAC91909F478690AF4F83A49EA0A0968
:1089A000BF0449EA000907F4F80747EA090747F056
:1089B0000847DEF80090CDF83490DDF8349019F0D7
:1089C000200FF6D143F2281E48F80E704F7891F828
:1089D00000E0FF014FEA0E3E0EF4F83E07F4786720
:1089E00047EA0E0791F80AE007434FEA8E4E0EF46D
:1089F000F80E4EEA0707DFF88CE247F00847DEF88A
:108A0000008008F5445E0EF12C0EDEF80090CDF8E3
:108A10003890DDF8389019F0200FF6D143F2281E77
:108A200048F80E704F78D20102F478623F0307F4E1
:108A3000F83702433A434F7ABF0407F4F8073A4342
:108A4000904F42F01042D7F8008008F5445E0EF1D6
:108A50002C0EDEF80090CDF83C90DDF83C9019F03B
:108A6000200FF6D143F2281E48F80E208A7891F89C
:108A70000BE0D2014FEA8E4E0EF4F80E02F478624B
:108A800042EA0E02D7F800E042EA0C0C4CF0104229
:108A90000EF5445C0CF12C0CDCF80080CDF8408025
:108AA000DDF8408018F0200FF6D143F2281C4EF874
:108AB0000C20CA7891F802C0D2014FEA0C3C0CF4A9
:108AC000F83C02F4786242EA0C0242EA000C0A7AAC
:108AD000D7F800E0920402F4F80242EA0C020EF524
:108AE000445C42F018420CF12C0CDCF80080CDF80C
:108AF0004480DDF8448018F0200FF6D143F2281CA2
:108B00004EF80C2091F804C09A0402F4F8024FEADF
:108B1000CC1C0CF4786C024342EA0C0291F80AC0B7
:108B2000D7F800E04FEA0C3C0CF4F83C42EA0C02A7
:108B30000EF5445C42F018420CF12C0CDCF800807D
:108B4000CDF84880DDF8488018F0200FF6D143F2C8
:108B5000281C4EF80C200A79DB0103F47863120319
:108B600002F4F83203431343CA78D7F800C09204E2
:108B700002F4F80213430CF5445243F010432C3234
:108B8000D2F800E0CDF84CE0DDF84CE01EF0200F0C
:108B9000F6D143F228124CF80230CB79ED019B0458
:108BA00005F4786503F4F8032B433D68034343F071
:108BB000084305F5445243F400332C32D2F800C088
:108BC000CDF850C0DDF850C01CF0200FF6D143F2B4
:108BD0002812AB509DF89430012B4FD14B793A6855
:108BE000DB01344303F4786304431C4302F544532C
:108BF00044F018442C331D681595159DAE06FAD423
:108C000043F22813D4504B798A791C03D20104F41F
:108C1000F83402F4786222439B043C68024303F474
:108C2000F803134304F5445243F018432C321568FB
:108C30001695169DAD06FAD443F22812A3509DF85E
:108C40008C303A689B0403F4F80318439DF8903085
:108C5000DB0103F4786318438B791B0303F4F833C7
:108C6000184302F5445340F018402C33196817910B
:108C700017998906FAD443F22813D05018B0BDE8EA
:108C8000F08700BFD49406282DE9F0419CB00C7801
:108C90009DF8A4600006E401350300F0E06004F4F0
:108CA000786405F4F8370443D14DB60406F4F806A9
:108CB0003C4334432E689DF898C006F5445544F073
:108CC00018442C35D5F800E0CDF804E0DDF804E0D8
:108CD0001EF0200FF6D143F2281574514FEA0C34E0
:108CE00004F4F8364C78C24D4FEA8C4CE4010CF495
:108CF000F80C04F47864D5F800E044EA0C0404436A
:108D000034430EF5445544F018442C35D5F8008012
:108D1000CDF80880DDF8088018F0200FF6D143F276
:108D200028154EF805408D780C78ED01A40404F464
:108D3000F80405F478652543AD4C0543D4F800E00C
:108D40003D430EF5445445F018452C34D4F80080CA
:108D5000CDF80C80DDF80C8018F0200FF6D143F22E
:108D600028144EF80450CC784D78E401AD0405F495
:108D7000F80504F478642C439D4D34432E68044375
:108D800006F5445544F018442C35D5F800E0CDF8EC
:108D900010E0DDF810E01EF0200FF6D143F22815A8
:108DA00074510C790D78E401AD0405F4F80504F470
:108DB00078642C439DF890502D0305F4F8352C432E
:108DC0008B4D04432E6844F0184406F544552C3569
:108DD000D5F800E0CDF814E0DDF814E01EF0200F27
:108DE000F6D143F2281574519DF89C404D79240327
:108DF000ED0104F4F834044305F4786525434C7818
:108E0000A40404F4F8042543794C45F01845D4F83B
:108E100000E00EF544562C36D6F80080CDF81880C8
:108E2000DDF8188018F0200FF6D143F228164EF81E
:108E300006509DF894508E792D0305F4F835F6010F
:108E400006F47866054335438E78D4F800E0B6041E
:108E500006F4F80635430EF5445645F018452C3611
:108E6000D6F80080CDF81C80DDF81C8018F0200FAB
:108E7000F6D143F228164EF806509DF8A060CD7941
:108E8000360306F4F836ED0105F4786506432E4303
:108E9000CD78D4F800E0AD0405F4F8052E430EF5C6
:108EA000445546F018462C35D5F80080CDF8208082
:108EB000DDF8208018F0200FF6D143F228154EF887
:108EC00005600D7AED0105F4786545EA0C053D4332
:108ED0002768054307F5445645F018452C36D6F863
:108EE00000C0CDF824C0DDF824C01CF0200FF6D15E
:108EF00043F22816BD514D7A4E79ED01360306F442
:108F0000F83605F47865354345EA00060D7927689B
:108F1000AD0405F4F805354307F5445645F0104512
:108F20002C36D6F800C0CDF828C0DDF828C01CF0DB
:108F3000200FF6D143F22816BD518D7ACE79ED017E
:108F4000360306F4F83605F47865354345EA00063D
:108F50008D792768AD0405F4F805354307F54456C7
:108F600045F010452C36D6F800C0CDF82CC0DDF801
:108F70002CC01CF0200FF6D143F22816BD51CD7A3B
:108F80004E79ED01360306F4F83605F4786535437D
:108F900045EA00060D792768AD0405F4F805354368
:108FA00007F5445645F008452C36D6F800C0CDF8F4
:108FB00030C0DDF830C01CF0200FF6D143F2281687
:108FC000BD510D7BCE79ED01360306F4F83605F47C
:108FD0007865354345EA00068D792768AD0405F4C8
:108FE000F805354307F5445645F008452C3601E0B1
:108FF000D4940628D6F800C0CDF834C0DDF834C0CB
:109000001CF0200FF6D143F22816BD519DF88C506C
:109010004E7AED0105F47865360306F4F83605431B
:1090200035430E7A2768B60406F4F806354307F58B
:10903000445645F018452C36D6F800C0CDF838C057
:10904000DDF838C01CF0200FF6D143F22816BD51D0
:10905000D4F800C00CF544572C373D680F950F9E8F
:109060000F9DB603F9D4ED06F7D58D7A0E784FEA49
:10907000053EF60106F478660EF4F83E46EA0E0662
:10908000AD04064305F4F805354345F018453E6840
:109090001096109EB606FAD443F228164CF80650E5
:1090A0004D7A4E782F03F60107F4F83706F4786608
:1090B0003E43AD042768064305F4F805354307F53C
:1090C000445645F018452C36D6F800C0CDF844C0BB
:1090D000DDF844C01CF0200FF6D143F22816BD5134
:1090E0008D784E78ED01360306F4F83605F4786590
:1090F000354345EA0006CD7A2768AD0405F4F80546
:10910000354307F5445645F018452C36D6F800C0CF
:10911000CDF848C0DDF848C01CF0200FF6D143F26E
:109120002816BD518E78DD0105F47865360306F406
:10913000F836054335430E782768B60406F4F8067A
:10914000354307F5445645F010452C36D6F800C097
:10915000CDF84CC0DDF84CC01CF0200FF6D143F226
:109160002816BD511D039B0405F4F83503F4F803DC
:109170002B43CD780343ED0105F478652B43256837
:1091800043F0084305F544542C3426681496149E85
:10919000B606FAD443F228142B510B79CC78DB01B4
:1091A000240304F4F83403F47863234343EA00040B
:1091B0008B789B0403F4F8032343614C43F0104382
:1091C000266806F544552C352F681597159FBF0660
:1091D000FAD443F2281573514B798D7ADB012D03B4
:1091E00005F4F83503F478632B4343EA00050B7963
:1091F00026689B0403F4F8032B4306F5445543F01B
:1092000018432C352F681697169FBF06FAD443F2E1
:10921000281573518B794D7ADB012D0305F4F83550
:1092200003F478632B4343EA00054B7826689B04DC
:1092300003F4F8032B4306F5445543F018432C354B
:109240002F681797179FBF06FAD443F2281573515A
:10925000CB798D79DB012D0305F4F83503F47863C0
:109260002B4343EA00050B7B26689B0403F4F803B9
:109270002B4306F5445543F018432C352F681897B7
:10928000189FBF06FAD443F2281573510B7ACD7993
:10929000DB012D0305F4F83503F478632B4343EA2F
:1092A00000054B7926689B0403F4F8032B4306F56D
:1092B000445543F010432C352F681997199FBF066A
:1092C000FAD443F22815735193044A7A256803F4BB
:1092D000F803D20102F478620343134305F54452C4
:1092E00043F080432C3216681A961A9EB606FAD4BA
:1092F00043F22812AB509DF888300A7ADB0103F460
:1093000078630343500000F03E000343487A920420
:109310000003216800F4F83002F4F8020343134319
:1093200001F5445243F038432C3210681B901B98CF
:109330008006FAD443F228128B501CB0BDE8F081AD
:10934000D49406282DE9F04FB5B0CDE90512DDE93A
:109350003E16402938BF40210446AA4F02913A6880
:1093600002F544512C3108680D900D9D0D98AD0308
:10937000F9D4C506F7D5029902F544529B0442F888
:10938000241003F4F803039333782506DB01039AD2
:1093900005F0E06503F4786339682B43134343F029
:1093A000405301F5445243F400332C3210680E90C0
:1093B0000E988006FAD443F228128B50069B396827
:1093C0009B0403F4F80C904B45EA0C02134301F59F
:1093D00044522C3210680F900F988006FAD443F252
:1093E00028128B5043F22C133A68D0180168109160
:1093F000DDF840E010991EF4003FF7D1C906F5D51D
:10940000D3587178DB0540F1DF81CB0103F4786339
:109410002B4343EA0C0343F0405343F40033016809
:10942000119111998906FAD443F228115350059BE2
:109430003968DB0103F4786304937378049A1B039F
:1094400003F4F8331343039A13432B4301F54452B7
:1094500043F0C0532C321068129012988006FAD450
:1094600043F228128B507378039A1B0303F4F833EA
:109470002B43134332783968D20102F478621343E4
:1094800001F5445243F0C0432C32106813901398F6
:109490008006FAD443F228128B50059B39689B044E
:1094A00003F4F8030993099A049B13432B4343F0F5
:1094B000102301F5445243F400332C321068149009
:1094C00014988006FAD443F228128B50337843F272
:1094D0002C120193B37896F8018000933B6803F552
:1094E000445151F82490134419F03F0718BF012745
:1094F00007EB9917BF01B7F57A6F40F273811868CF
:109500002690DDF898C026981CF4003FF7D1C006DD
:10951000F5D54FF4FA5341F824304FEAC81303F459
:10952000786307934FEA884303F4F8030893079B93
:10953000089934482B430068194341F0205343F401
:10954000003300EB020CDCF800202792279A9206E9
:10955000F9D443F2281283502A4B1B6803F5445276
:109560002C3210682890DDF8A0C028981CF4003F29
:10957000F7D1C006F5D54FF47A6203F5445343F8AA
:109580002420204A41F04053116843F4043301F58C
:1095900044522C321068299029988006FAD443F25C
:1095A000281220468B50C7F5FA524146FDF7EAFDD6
:1095B000144B1B6803F544522C3211682A912A98E7
:1095C0002A998003F9D4C906F7D54FF4FA5203F566
:1095D000445343F82420009B089A4FEAC319019B87
:1095E00009F478691B0303F4F8332B431343054A4A
:1095F00043EA0903116843F0C05301F544522C3289
:1096000004E000BFD49406284010023810682B9064
:109610002B988006FAD443F228128B50069B079AA7
:109620004FEA033A009B0AF4F83A4FEA834B0BF4F3
:10963000F80B45EA0B0343EA0A031343684A43F075
:109640000053116801F544522C3210682C902C986C
:109650008006FAD443F228128B50614B1B6803F545
:1096600044522C3211682D912D982D998003F9D4F4
:10967000C906F7D503F5445207F1C00342F8243078
:1096800007F10042A2F57A625200009920460B933E
:109690000A92FDF777FDDDE90A235149096801F5D2
:1096A00044502C30D0F800C0CDF8B8C0DDF8B8E098
:1096B000DDF8B8C01EF4003FF4D11CF0100FF1D05B
:1096C0004FF4FA5001F5445141F8240001994448FF
:1096D000C90101F478612943D0F800C041EA0B0BBD
:1096E0004BF040510CF5445041F400312C30D0F88F
:1096F00000E0CDF8BCE0DDF8BCE01EF0200FF6D1B4
:1097000043F228104CF800103549096801F544501F
:109710002C30D0F800C0CDF8C0C0DDF8C0E0DDF8D6
:10972000C0C01EF4003FF4D11CF0100FF1D001F5C1
:10973000445141F82430019B29499B0403F4F80368
:109740002B43086843EA0A0A4AEA090900F544512A
:1097500049F000532C31D1F800C0CDF8C4C0DDF879
:10976000C4C01CF0200FF6D143F2281143501C4B0B
:109770001B6803F544512C3108683290DDF8C8C0ED
:1097800032981CF4003FF7D1C006F5D503F54453D9
:10979000414643F824702046FDF7F4FC009B079AED
:1097A0001B0303F4F8332B431343089A13430C4A67
:1097B00043F00063116801F544522C321068339075
:1097C00033988006FAD4F2E02046B3783278FEF778
:1097D000BBF900283FF42BAE35B0BDE8F08F00BFD9
:1097E000D494062818681C90DDF870C01C981CF4EE
:1097F000003FF7D1C006F5D54FEAC81ADFF8C4C25A
:109800004FEA49030AF4786A4FEA884B41F824305A
:109810000BF4F80B45EA0A01DCF800C041EA0B0141
:1098200041F0205040F400300CEB020EDEF8002036
:109830001D921D9A9206F9D443F228124CF80200A8
:10984000A04A126802F544502C30D0F800C0CDF880
:1098500078C0DDF878E0DDF878C01EF4003FF4D180
:109860001CF0100FF1D002F5445242F8249041F060
:109870004052944942F40432086800F544512C31B6
:10988000D1F800C0CDF87CC0DDF87CC01CF0200F02
:10989000F6D143F2281142508A4A126802F5445127
:1098A0002C3108682090DDF880C020981CF4003F1F
:1098B000F7D1C006F5D502F5445209F1400142F84E
:1098C000241020463A4641460793FDF75BFC7D4A4B
:1098D000079B126802F544512C3108682190219FA2
:1098E0002198BF03F9D4C706F7D502F5445242F8D0
:1098F0002430019B734A1B0303F4F8332B4343EAE0
:109900000B0B009B1168DB0103F478634BEA030344
:1099100001F5445243F0C0532C3210682290229833
:109920008006FAD443F228128B50009B069A9B04BF
:1099300003F4F803120345EA030102F4F8320A4380
:10994000604942EA0A0A08684AF0005200F54451A8
:109950002C310F682397239FBF06FAD443F22811B6
:1099600042505848026802F544512C310F68249740
:10997000DDF890C0249F1CF4003FF7D1FF06F5D519
:1099800002F5445242F82490019A0168D20102F48F
:1099900078622A43134343F0405301F5445243F4A1
:1099A00000332C321068259025988706FAD443F2AC
:1099B00028128B50B3784349DB01099A03F478638A
:1099C00008682B43134343F0405300F5445243F4DB
:1099D00000332C3217681597159FBF06FAD443F24F
:1099E000281283500B6803F544522C3210681690ED
:1099F000169F1698BF03F9D4C006F7D5029A03F54F
:109A00004453C03243F82420B2780868930403F426
:109A1000F803D20102F478622B4313433278120325
:109A200002F4F832134300F5445243F000632C3241
:109A300017681797179FBF06FAD443F2281283506E
:109A4000B378069A9B0403F4F803120302F4F83285
:109A50002B43134332780868D20102F4786213432F
:109A600000F5445243F000532C3217681897189FA2
:109A7000BF06FAD443F2281283500B6803F5445210
:109A80002C3210681990199F1998BF03F9D4C70692
:109A9000F7D5029A03F5445343F824207378049AC7
:109AA0009B0403F4F8032B43134332780868120332
:109AB00002F4F832134300F5445243F000632C32B1
:109AC00002E000BFD494062816681A961A9EB606BD
:109AD000FAD443F228128350059B049A1B0303F423
