:020000040200F8
:10400000C0DF06284141000200000000000000005F
:1040100000000000000000000000000000000000A0
:104020000000000000000000000000000000000090
:10403000000000000000000000000000A144000299
:104040000000000000000000000000000000000070
:10405000D944060800000000000000000000000035
:104060000000000000000000000000000000000050
:104070000000000000000000000000000000000040
:104080000000000000000000000000000000000030
:104090000000000000000000000000000000000020
:1040A0000000000000000000000000000000000010
:1040B00000000000400100000001000000000000BE
:1040C00000000000000000000000000000000000F0
:1040D00000000000000000000000000000000000E0
:1040E00000000000000000000000000000000000D0
:1040F00000000000000000000000000000000000C0
:10410000424B2E534200000000000000000000005F
:10411000000000000000000000000000000000009F
:10412000000000000000000000000000000000008F
:10413000000000000000000000000000000000007F
:10414000174B83F30A8801F001F801F017FC01F026
:1041500019FC144B14498B4213D30020134B144900
:104160008B421AD300F04AF8186850F82240586879
:1041700040F8224001329868B2EB900FF4D30C3330
:10418000E9E70022F7E71C6844F8220001325C6886
:10419000B2EB940FF7D30833E2E70022F7E700BF52
:1041A000C097062854AE000278AE000278AE000236
:1041B00080AE000210B5054C237833B9044B13B11F
:1041C000044800E000BF0123237010BD584B0628AF
:1041D00000000000749E000208B5034B1BB10349A8
:1041E000034800E000BF08BD000000005C4B06284B
:1041F000749E0002A3F5803A704700BF174B002B56
:1042000008BF134B9D46FFF7F5FF00218B460F4675
:104210001348144A121A03F0ACF90E4B002B00D0CD
:1042200098470D4B002B00D0984700200021040038
:104230000D000D48002802D00C4800E000BF03F03C
:104240003DF92000290000F021F803F023F900BF18
:10425000000008000000000000000000C0DF062889
:10426000584B0628BC9706280000000000000000FC
:1042700008B502F03DFA10B1024B186808BD024BB8
:10428000FBE700BF004A0628786B062838B501F026
:10429000FBFE01F0A9F930B101F014FF10B16D4837
:1042A00003F04EFAFEE701F071FA01F0E1F901F0D6
:1042B00013FF28B101F0B8FC04F03EFB01F0C0FC94
:1042C00002F004FA01F0FEFE18B16349634803F0FE
:1042D00037FA4FF4FA5001F01BFF4FF400516048D9
:1042E00002F052FE01F0EEFE10B15E4803F028FA33
:1042F00000F026FFD0B100F007FFB8B1002001F0B8
:10430000AFF94FF088430446D3F8EC011860C0F3CE
:10431000800001F0A7FE04F58F501F3020F4FF70DD
:1043200020F0010000F1007001F07CF901F0CAFA00
:1043300001F0DCFE01F007FB30B101F0C3FE10B16B
:10434000494803F0FDF9FEE7FFF792FF474B1B6872
:10435000834206D001F0B6FE10B1454803F0F0F9F3
:10436000FEE701F057F930B101F0ACFE10B1414861
:1043700003F0E6F9FEE701F0A5FE10B13E4803F0B8
:10438000DFF94FF4FA5001F0C3FE01F09BFE10B1CB
:104390003A4803F0D5F900F0D3F8C4B2204600F053
:1043A0002BFE70BB01F08EFE18B12146344803F09D
:1043B000C7F9C4F10104204600F01EFE68B901F0FF
:1043C00081FE18B121462E4803F0BAF901F07AFEB9
:1043D00010B12C4803F0B4F9FEE700F0B3F8051E65
:1043E00008DA01F06FFE20B12A469C21264803F02E
:1043F000A7F9FEE701F066FE10B1244803F0A0F92A
:10440000E4B204BB01F05EFE10B1214803F098F95C
:10441000204601F027FE002001F022F9044601F0B9
:1044200051FE18B121461B4803F08AF904F10074CB
:1044300004F5805401F046FE18B12146164803F0F9
:104440007FF9204670E701F03DFE0028E0D01348D8
:10445000DCE700BF888900028D420002A5890002C6
:10446000744B0628BD890002DD890002786B06289E
:10447000068A00023C8A00025E8A0002788A0002F4
:10448000A38A0002D78A0002068B0002508B00022A
:104490008C8B0002D78B0002F58B0002B18B0002DF
:1044A000024A136801331360704700BF746B06281B
:1044B000A022002110B51D4803F05BF81B4800F056
:1044C0000FF900280ADA01F0FDFD18B94FF0FF34AA
:1044D000204610BD164803F033F9F7E7134800F003
:1044E00065F9044601F0EEFD18B12146114803F0CC
:1044F00027F9012C10D9042CE8D8E7D10B4800F09B
:104500009BFC044601F0DEFD18B121460A4803F089
:1045100017F944EAE474DBE701F0D4FD0028D7D0B2
:104520002146064803F00CF9D2E700BF7C6B062851
:10453000B98C0002F18C0002108D00023E8D000249
:10454000FFF7B6BF10B5094800F0FAFA041E0BDAFF
:1045500001F0B8FD28B1224640F25E71044803F034
:10456000EFF84FF0FF3000E0002010BD7C6B062814
:10457000428C000237B505460C4671B901F0A2FD28
:1045800018B94FF0FF3003B030BD2B462146124A18
:104590001248009403F0D4F8F3E7B1F5805F0BD92B
:1045A00001F090FD0028ECD04FF4805300210093DF
:1045B000094A23460A48EDE7D24303460444094822
:1045C00013F8011B5140C9B250F821109C4281EAF6
:1045D0001222F5D1D043D6E75D8D0002688D00022E
:1045E000978D00020C95000210B5044641B90420D5
:1045F00001F0B4F8D4F80D301B1A5842584110BDE0
:10460000024801F060F9D4F81130F5E7C58D0002D9
:10461000002240F6FC71FFF7ADBF000070B5002529
:104620000446ADF5805D84B040F6FC72294605A8CD
:10463000049502F09EFFA36813B1237B012B16D9CA
:1046400001F040FD20B900200DF5805D04B070BD83
:10465000D4F8113000210293D4F80D30184A019398
:10466000237B18480093636803F06AF8EBE74FF484
:104670008052FF2104A802F07CFF4A22214604A8B0
:1046800002F050FF05A82668FFF7C2FF864214D04B
:1046900001F018FD0028D6D0D4F811302946039334
:1046A000D4F80D30064A0293237B074801936368D0
:1046B0000093236803F044F8C5E70120C4E700BF76
:1046C0005D8D0002D58D00021C8E0002024620B1D5
:1046D000036883F00100106070474FF0FF307047AF
:1046E00037B5044660B901F0EDFC18B94FF0FF3062
:1046F00003B030BD2146274A274803F021F8F5E7EB
:1047000001F0E0FC40B1022300210093214A4FF464
:10471000B173224803F014F84A22214804F1090138
:1047200001F0F0FA051E0BDA01F0CCFC40B10021DB
:1047300040F26913174A1B480195009103F000F8F5
:104740004A22194804F1530101F0DCFA051E13DA7C
:1047500001F0B8FC0028C9D00123002100930D4AC4
:1047600040F2691301950F4802F0EAFFBEE70132FB
:104770000BD000202060BBE7D4F80D20D4F85730D0
:104780009A42F4D8F5D00133F3D0012300202360FE
:10479000AEE700BF5D8D0002748E0002988E0002AD
:1047A00000E0FF00C48E000200F0FF0073B54FF080
:1047B000FF310446CDE9001190B10568002D67D1A5
:1047C0000930FFF72BFF064660B101F07BFC30B1EA
:1047D00040F2A3132946454A454802F0B1FF617DE6
:1047E000084653E004F15300FFF718FF054678B17F
:1047F00001F068FC30B14FF4D47331463B4A3D4878
:1048000002F09EFF94F85F102046FFF75FFFE7E796
:1048100001F058FC30B14FF4D7732946334A36487B
:1048200002F08EFF042000F099FF0546334801F0A6
:104830004AF804220446694605F1100001F062FAC4
:10484000042205460DEB020104F1100001F05AFAB2
:10485000002D044608DA01F035FC28B12B46002172
:10486000224A274802F06CFF002C08DA01F02AFCEB
:1048700028B1234600211D4A224802F061FFDDE9EC
:104880000032134001330CBF0320042002B070BD7E
:104890005330FFF7C3FE064660B101F013FC30B1A0
:1048A00040F2CB130021114A174802F049FF94F857
:1048B0005F1095E704F10900FFF7B0FE054658B117
:1048C00001F000FC30B14FF4E8733146074A0F485D
:1048D00002F036FF617D97E701F0F4FB0028A1D0DC
:1048E0004FF4EB732946014A094899E75D8D0002B0
:1048F000F58E00021E8F00025F8F0002C58D000240
:104900009A8F0002D28F00020C90000235900002B4
:1049100076900002F7B505460C4669B901F0D2FB66
:1049200020B94FF0FF34204603B0F0BD21461A4AAB
:104930001A4802F005FFF4E701280CD901F0C2FB88
:104940000028EED0012300210093134A2B4614487F
:1049500002F0F6FEE5E70121084601F0EFF801F06C
:10496000CFFA0746002001F0CDFA0E4E0E4B002D77
:1049700018BF1E46304605F07FFA4FF4805221469C
:10498000304601F011FA00210446012001F0D6F86A
:10499000384601F0B7FAC6E75D8D0002B19000021B
:1049A000D790000200E0FF0000F0FF002DE9F04783
:1049B000ADF5825D0F46044686B088B901F082FBF2
:1049C00030B94FF0FF300DF5825D06B0BDE8F087DD
:1049D00040F219232146544A544802F0B1FEF0E750
:1049E00001290CD901F06EFB0028EAD04FF40873BE
:1049F00000214D4A4E48009702F0A2FEE1E74FF435
:104A00008052FF2116A802F0B4FD4A2202FB07F6ED
:104A100004EB060A9AF81580B8F1010F0BD901F0E2
:104A200051FB0028CDD040F2292300213E4A4148C5
:104A3000CDF80080E0E7042000F090FE81463E487B
:104A400000F041FF87F001054A22B8F1000F55D16F
:104A5000DAF81A300AF1140E83422ED106F1090158
:104A6000214403A802F05EFD002F0CBF02230123A6
:104A70003D4604934A2203A988F0010816A88DF840
:104A8000188002F04FFD17A8FFF7C2FD16A9169077
:104A900085F00100FFF73EFF051E43DA01F012FB2F
:104AA00000288ED001952368002100931E4A40F211
:104AB0006D23224802F044FE83E702FB05F16318F0
:104AC00003F1140CD3F81A3083420AD1093121447E
:104AD00003A802F027FD012F0CBF0223012304933A
:104AE000C8E7CEF80600CCF80600012506F109015A
:104AF000214403A802F016FD0495BBE7DAF816304E
:104B00000AF1100C4B45A9D002FB05F1631803F123
:104B10001000D3F816304B45D8D0CCF80690C0F82A
:104B20000690E2E700204EE75D8D0002079100024B
:104B30003091000261910002C58D00028F91000248
:104B40002DE9F04F0446ADF5835D85B04FF48052FA
:104B5000FF211CA802F00DFD44B12568002D11DADB
:104B600001F0B0FA28B94FF0FF3012E04FF0FF35F6
:104B7000F6E740F27F230021A34AA448009502F003
:104B8000DFFDF0E7237A032B08D129462046FFF703
:104B90000DFF0DF5835D05B0BDE8F08F4A2225BB02
:104BA00004F1090109A802F0BDFC237A022B40F0B0
:104BB00010814A26002D0CBF022301236E4304EB13
:104BC000060A0A939AF81530012B8DF830300FD968
:104BD00001F078FA0028C6D09DF83030002100930B
:104BE000894A40F2A1238A48C9E704F15301D9E771
:104BF000042000F0B3FD8146864800F064FE9DF875
:104C000030708046002F40F0BD80DAF816304B45FA
:104C100019D001F057FA78B19DF830303946023397
:104C200006EB83062644D6F80E30774A00937A487E
:104C30004FF42B7302F084FD9DF830301CAA02EB78
:104C4000830343F83F9C4A27744802F0DFFD6F431B
:104C500007F11F062644421C7049304602F0DEFD73
:104C600090B101F02FFA30B14FF42F730021664A52
:104C70006B4802F065FD0F2268490DF13A0002F021
:104C8000E1FD00238DF849304A2303FB054393F8E7
:104C90002F30022B28BF00238DF84A309DF8393081
:104CA000032B0CD001F00EFA30B140F2C6230021E4
:104CB000554A5C4802F044FD03238DF839304FF02B
:104CC000010907F1300607F11003DFF85CB1264453
:104CD0000DF1240803934FF0000A1021534A4B466C
:104CE00005A802F055FD05A88DF823A002F08EFD61
:104CF00005A9421C304602F091FDA0B101F0E2F995
:104D000040B140F2D623514658463F4ACDF8009074
:104D100002F016FD0F2205A908F1270002F092FD0E
:104D2000002388F83630039AF31B9B5C1136022B64
:104D300028BF0023B9F1020F88F8373008F11108B5
:104D400044D14A2209A91CA802F0ECFB1DA8FFF7D8
:104D50005FFC85F001051C901CA92846FFF7DAFDD1
:104D6000051E4EDA01F0AEF900283FF4FCAE2368D0
:104D700000210093244A40F2F72301952C4802F0C9
:104D8000DFFCF0E6023706EB87072744D7F80E3042
:104D900083423FF458AF01F095F978B19DF8303077
:104DA0000021023306EB83062644D6F80E30164A5D
:104DB000009319484FF42D7302F0C2FC9DF8303077
:104DC0001CAA02EB830343F83F8C3CE74FF0020937
:104DD00081E70A9B5A1C12D101F074F930B140F2FC
:104DE000E5230021084A134802F0AAFC01230A9394
:104DF0009DF8303083F001038DF83030A1E70133A6
:104E0000F5E70020C5E600BF5D8D0002C1910002FC
:104E100061910002C58D0002039200020C9900020C
:104E200024920002509200027F92000279920002C6
:104E30008F910002AC9200022DE9FF41054650B966
:104E400001F040F920B12946644A654802F078FC37
:104E50004FF0FF30B9E0012303724FF0FF3304201D
:104E6000CDE9023300F07AFC042202A9063000F0FA
:104E700049FF041E0BDA01F025F928B12346002171
:104E8000564A584802F05CFC4FF0FF3302935648F4
:104E900000F019FD042203A9063000F033FF041EC0
:104EA0000BDA01F00FF928B1234600214B4A4F4895
:104EB00002F046FC4FF0FF330393DDE902329342E8
:104EC00005F1090724D2013225D001213846FFF728
:104ED0008BFB002859D1012105F15300FFF784FB1A
:104EE0000646002858D101F0EDF80124002855D1DC
:104EF00001F0E8F848B1022300210093374A4FF44B
:104F000054733B48019402F01BFC0020286015E01C
:104F100016D00133D9D000213846FFF765FB014692
:104F200088BB05F15300FFF75FFB04460028DFD084
:104F300001204A23286003FB00550020687544E0E7
:104F400000213846FFF750FB044690BB05F153089B
:104F500001464046FFF748FB064670BB0121384634
:104F6000FFF742FBA0BB01214046FFF73DFB064691
:104F700088BB01F0A7F802240028B9D040F24B33D7
:104F8000CDE900440FE00020D3E700204A23286049
:104F900003FB00550120D1E70120F7E7022300932E
:104FA00040F23533019431460C4A124802F0C8FBF6
:104FB0009EE7002108460E4602E0214620460126D3
:104FC0004A2202FB06532E60597504B0BDE8F081F9
:104FD00001210846F4E70121ECE700BF5D8D0002E6
:104FE000748E0002EC920002C58D0002279300022D
:104FF000BB930002649300022DE9F047ADF5805D9C
:10500000064686B0C0B9042000F0A8FB102202A911
:10501000054600F077FE044620B301F053F8A0B136
:105020000021324A324B3348002E08BF1346324A21
:10503000009402F085FB08E0012803D12C4800F021
:1050400042FCE3E701F03EF828B900200DF5805D51
:1050500006B0BDE8F08733460021274A274802F012
:105060006FFBF2E7DDF8129009F1FF33033302D84A
:10507000BDF80C1041B901F025F80028E5D0334601
:1050800000211D4A1E48EAE7024603A8FFF772FA0C
:1050900007461035A9EB0408B8F5805F28BF4FF428
:1050A000805806A94246281900F02CFE824670B1AD
:1050B00001F008F80028C8D00C4A0D4B0021002E42
:1050C00008BF13460F480C4ACDF800A0B1E73A4696
:1050D000414606A8FFF74EFA4444A1450746D9D8F1
:1050E0000298C31B58425841B0E700BF1194000218
:1050F000C58D0002579400025D8D00021F940002CE
:105100009A940002C994000203220B4B82B00193CF
:105110000A4B9A6001221A615A69D20505D558696D
:1051200080F00400C0F3800004E00198421E019268
:105130000028F1D102B0704760900F000000884451
:105140004FF088431868C0F340007047002238B51C
:10515000634BC3F88420BFF34F8FD3F88020C2F392
:10516000C900C2F34E325201014602F4FF5545EA2E
:1051700081740139C3F87442F9D2203A12F1200F38
:10518000F2D1BFF34F8FBFF36F8FBFF34F8FBFF3DA
:105190006F8F0022C3F85022BFF34F8FBFF36F8F82
:1051A000504A9A609A6FD20715D55A6912F40032A4
:1051B00011D1BFF34F8FBFF36F8FC3F85022BFF3EE
:1051C0004F8FBFF36F8F5A6942F400325A61BFF3B9
:1051D0004F8FBFF36F8F424A936F9B0769D50023B0
:1051E000C2F88430BFF34F8FD2F88030C3F3C900C8
:1051F000C3F34E335B01014603F4FF5545EA817466
:105200000139C2F87442F9D2203B13F1200FF2D1D8
:10521000BFF34F8FBFF36F8F0023C2F88430BFF30B
:105220004F8F536923F480335361BFF34F8FD2F80C
:1052300080302B4CC3F3C901C3F34E335B010A46E4
:1052400003F4FF5545EA8270013AC4F87402F9D2BA
:10525000203B13F1200FF2D1BFF34F8FBFF36F8FBD
:1052600000F06EF8636913F4803322D1C4F88430FF
:10527000BFF34F8FD4F880301949C3F3C900C3F38B
:105280004E335B01024603F4FF5545EA8274013A4E
:10529000C1F86042F9D2203B13F1200FF2D1BFF3E5
:1052A0004F8F4B6943F480334B61BFF34F8FBFF394
:1052B0006F8F0D4B0D4A13600D4A1360084B5A6AED
:1052C00042F480325A625A6A42F400225A625A6A9E
:1052D00042F480225A625A6A42F400325A6238BD5D
:1052E00000ED00E000400608005A6202084A062865
:1052F000044A0628BFF35F8F074B5A6A22F48032B4
:105300005A62D3F8942022F00102C3F89420BFF32C
:105310004F8FBFF36F8F704700ED00E0BFF35F8FDB
:105320000722064BC3F894205A6A42F480325A622C
:10533000BFF34F8FBFF36F8F704700BF00ED00E0EA
:1053400070B5FFF7D7FF0023134A1449082B02F169
:10535000080216D10022FF26114C104914F8013B17
:10536000D1F8C000934006FA02F543402B400832C2
:105370004340202AC1F8C030F0D1BDE87040FFF7AB
:10538000CDBF52E90240C1F89830C1F89C400133CA
:10539000C1F8A000DAE700BF1899000200ED00E0B4
:1053A00013990002114A30B5936F9B071CD5002357
:1053B000C2F88430BFF34F8FD2F88030C3F3C900F6
:1053C000C3F34E335B01014603F4FF5545EA817494
:1053D0000139C2F87442F9D2203B13F1200FF2D107
:1053E000BFF34F8FBFF36F8F30BD00BF00ED00E004
:1053F000064B82B01868002382B262F30F03000CE0
:1054000060F31F43184602B0704700BFAC9900021A
:10541000082070476FF0030070470000014B1868C8
:10542000704700BF1C6C0628014B1B68586870470A
:10543000144A062808B500F037FD002008BD00001A
:1054400008B500F09FFD002000F05CFD00F0FAFDC3
:10545000024B000B1860002008BD00BF206C06281E
:1054600070B5144662B1094B094E1B6836685B681B
:1054700015189B687343013B9D4203D800F042FC22
:10548000204670BD6FF00400FBE700BF144A0628F9
:10549000206C0628B0F5B83F06D30144B1F5C83FEB
:1054A0000BD9B0F5C83F01D2002004E0B1F5D83FD8
:1054B0008CBF002001200138704700207047000099
:1054C00070B500210546FFF7E5FF044638B12946CF
:1054D000124802F035F96FF00604204670BD104BFB
:1054E0001B685B6899680F4BB5FBF1F21B6801FB09
:1054F00012524B43013B72B99D420CD800F000FDA3
:105500000646204600F0FEFC284604F0B5FC304676
:1055100000F0F8FCE1E76FF00404DEE758990002C0
:10552000144A0628206C06282DE9F0410F46114642
:105530000646FFF7AFFF1446054640B131461D4809
:1055400002F0FEF86FF006052846BDE8F081002A5B
:10555000FAD0194B1B685868B318184A01691268C9
:1055600080684243013A9342B6FBF1F201FB1262BA
:105570004FF0FF3398BF0023003A18BF0122524278
:105580001343B4FBF1F201FB12410B430FD100F0C6
:10559000B7FC8046284600F0B5FC22463946304626
:1055A00000F002FC404600F0ADFC2546CCE76FF071
:1055B0000405C9E773990002144A0628206C0628DE
:1055C00070470746FFF7FCFF0020014602460346EE
:1055D0000446054606468046814682468346844602
:1055E00086463847FEE7000010B500F09DFD074BEA
:1055F00000209B689847044628B900F023FD044B1F
:105600001860204610BD0124FBE700BFB0990002DE
:10561000246C062808B501F0C9FE003818BF012027
:1056200008BD000008B5044601F0C6FE00B1FEE763
:10563000094BDB68984700B1FEE7084B1C6080F31C
:105640000A88226882F30888BFF34F8FBFF36F8FF9
:105650001B685868FFF7B5FFB0990002286C062850
:10566000024B03EB00139868704700BF184A0628E6
:1056700070B5002000F07EF80546002000F06EF8BE
:10568000244C254EA06035400120E56000F066F80E
:10569000A061012000F06EF8E061012000F06AF8DE
:1056A0003040A169E061A0680A1A00F0D1FC0B202B
:1056B00000F054F8A0620B2000F05CF8E0620C20CF
:1056C00000F04CF8A0630C2000F054F8E0630D20CB
:1056D00000F044F8A0640D2000F04CF8E0640E20C7
:1056E00000F03CF8A0650E2000F044F8E0650F20C3
:1056F00000F034F8A0660F2000F03CF8E0661020BF
:1057000000F02CF8A067102000F034F8E0670020CB
:1057100070BD00BF184A062800F0FFFF20F02003EC
:10572000413B192B05D9303809288CBF00200120B6
:1057300070470120704710B54218435C5478D07808
:105740001B0643EA04430343907843EA002010BD5C
:10575000425C0844407840EA0220704710289FBF0E
:1057600028235843024B185888BF0020704700BFB9
:105770002C6C062810289FBF2822034B02FB003008
:10578000406888BF002070472C6C06282DE9F04F38
:1057900020208DB000F0E0F80546002873D04FF4CB
:1057A00010564FF0000820222946304600F0AAFA91
:1057B0002878FFF7B3FF80B306AA00239146E95C7F
:1057C000FF2904D00133142B02F8011BF7D1002765
:1057D00030336B44DFF8DCA0374C03F8188C4946B3
:1057E0005AF8040B02F008F870B916212846FFF7A2
:1057F000A2FF1A2120602846FFF79DFF1E2160604E
:105800002846FFF7A5FFA0600137112F04F12804F7
:10581000E5D12036B6F5295FC5D100260127264CF3
:10582000DFF89090DFF89480636803B34FF0000ACC
:10583000DFF88CE00DF1040CBEE80F00ACE80F00BF
:10584000DEF800300DF1040BCCF800305BF8041BDF
:1058500059F8260001F0D0FFC0B10AF1010ABAF1EF
:10586000050FF3D1002384F8243084F82570013625
:10587000112E04F12804D7D1284600F068F8002042
:105880000DB0BDE8F08F4FF0FF30F9E74FF48050D6
:10589000D4E9002102F58F531F3303EA08030A44B9
:1058A000C4E90613E360D31AC4E9040084F8247041
:1058B0002362DAE7984A06282C6C062800FEFFFFD0
:1058C0007C9A000270472DE9F041074686B020B966
:1058D0000024204606B0BDE8F081202000F03CF80E
:1058E00005460028F4D04FF410564FF0000820224F
:1058F0002946304600F006FA2878FFF70FFF0446E5
:10590000B8B16A4600231046E95CFF2904D0013390
:10591000142B02F8011BF7D118336B44394603F8F6
:10592000188C01F069FF40B916212846FFF703FFE4
:105930000446284600F00BF8CBE72036B6F5295F81
:10594000D5D10024F5E70020704701F012BE08B160
:1059500001F0E0BD7047000010B5044601F0D2FD33
:10596000044A04449442034602D9FFF7F0FF00239F
:10597000184610BDC01F072800F00BBC00F0FEBD8C
:1059800002F0E2BF08B5032000F00EFC022000F098
:1059900003FC002000F008FCBDE80840052000F0F2
:1059A00023BD0369002BFCDB7047F8B500250326F7
:1059B000FFF7F7FFC561FFF7F4FF436D66F31C6364
:1059C0004365036943F000530361036943F0804377
:1059D0000361FFF7E6FF446A0129E4B230D00627ED
:1059E000436D67F31C634365036943F00053036130
:1059F000036943F080430361FFF7D3FF436A022941
:105A0000DBB244EA03241BD01521C36943F40033FD
:105A1000C361C36961F30F23C361436D66F31C6304
:105A20004365036943F000530361036943F0804316
:105A30000361FFF7B6FF436AC561DBB244EA034482
:105A40002046F8BD38B5FFF7ACFF836A95B265F321
:105A500099238362FFF7A5FF012904460DD1042293
:105A6000436D62F31C636365236943F00053236154
:105A7000236943F08043236157E0022955D1142163
:105A8000FFF78FFF436D61F31C634365036943F0C8
:105A900000530361036943F080430361FFF781FF13
:105AA000016A254B9942436D44D1042161F31C6383
:105AB00043650369C2F30F2243F000530361036996
:105AC00043F080430361FFF76CFF836A62F399231D
:105AD00031228362FFF765FFFFF763FFC36962F35B
:105AE00007030122C361C36943F48033C361FFF735
:105AF00058FFFFF756FF436D61F31C63436503696D
:105B000043F000530361036943F080430361FFF7EF
:105B100048FFFFF746FFC36962F30703C361C36928
:105B20006FF31043C361FFF73CFF2046BDE83840E8
:105B3000FFF737BF072294E71640C80048B90A4B61
:105B400019B101221A60002070471A6822F0010280
:105B5000F8E70128F7D1054B09B10222F2E71A68EC
:105B600022F00202EEE700BFF06E0628EC6E062877
:105B7000162238B505462B4C2068FFF712FF836AC2
:105B80006FF308138362436D6FF317034365436D2F
:105B900062F31C634365036943F0005303610369C7
:105BA00043F080430361FFF7FCFE0020FFF7E8FEAF
:105BB000022D0CD101222068FFF7F3FE836A62F305
:105BC000081383620120FFF7DBFE002038BD042D9F
:105BD000F8D1E36820689A7EFFF7E3FE436A62F338
:105BE0009D534362E3685B7E012B13D12068FFF76E
:105BF000D8FEE36820681979FFF7D7FEE1684B7E8D
:105C00000A7E03FA02F2104204D1024309792068A5
:105C1000FFF718FFE3682068DA7EFFF7C2FE836AA9
:105C2000CDE700BFD86E0628044BDB681B7B042B36
:105C300002D10220FFF79CBF704700BFD86E062834
:105C4000034BDB68187B042801D1FFF791BF704735
:105C5000D86E062870B51E4E0446F3680D469B6844
:105C600083421CD91B4BA1F10D02B0F5B83F53F88C
:105C7000223003D3C218B2F5C83F12D9B4F5C83FD9
:105C800003D32344B3F5D83F0BD9134B1A68134BF6
:105C90001B68134305D12146114801F051FD1148FD
:105CA00015E0FFF7C1FF3068FFF77BFE436D64F33B
:105CB00017034365436D65F31C634365036943F054
:105CC00000530361FFF76DFEFFF7BAFF002070BDC0
:105CD000D86E0628D89A0002F06E0628EC6E0628C8
:105CE000909A0002FEC8FFFF0E2907D00F2903D0AB
:105CF0000D2905D104F0C0B804F0C6B804F0C9B845
:105D0000002070472DE9F043254F0446FB680E46FE
:105D10009B681546834289B03FD9202200216846FE
:105D200001F027FC1DB9002009B0BDE8F0834FF059
:105D3000050924F01F083868FFF733FE3868FFF7BD
:105D400030FE436D6A4668F317034365436D08F1FF
:105D5000200869F31C634365036943F00053036142
:105D6000FFF71FFE0023386881690133082B42F8D2
:105D7000041BF9D1334604F01F021DF80210013D47
:105D800003F8011B03EB0401A1EB0601CBD00132A8
:105D9000202AF2D11E460C46CDE70248C4E700BFD8
:105DA000D86E0628FEC8FFFF2DE9F043394F0446A0
:105DB000FB680E469B681546834289B017D9B0F53B
:105DC000B83F03D38318B3F5C83F12D9B4F5C83F21
:105DD00003D36319B3F5D83F0BD92F4B1A682F4B58
:105DE0001B68134305D121462D4801F0A9FC2D481D
:105DF0000AE0FFF719FFFB6824F01F089B6898452D
:105E000005D3FFF71DFF002009B0BDE8F0839D42D8
:105E1000F7D805EB08029342F3D3002DF1D02022EE
:105E2000FF216846FFF791FD324604F01F0312F888
:105E3000011B013D0DF8031002EB0401A1EB06016B
:105E400002D00133202BF2D13868FFF7AAFD6E464D
:105E5000002456F8049B38680134FFF7A2FD082C93
:105E6000C0F81490F5D10C243868FFF79AFD436D03
:105E7000164668F317034365436D08F1200864F381
:105E80001C63436503690C4643F000530361FFF74D
:105E900088FDC2E7D86E0628F06E0628EC6E06284C
:105EA000B39A0002FEC8FFFF034B1A780AB1002222
:105EB0001A700020704700BFE86E062810B504462F
:105EC000FFF7B2FE044B21461868FFF76EFD04464B
:105ED000FFF7B6FEA0B210BDD86E062838B504464E
:105EE0000D46FFF7A1FE054B2A4618682146FFF72D
:105EF000A9FDFFF7A5FE002038BD00BFD86E06281B
:105F000000207047F8B51D4D2B78A3BB1C4EFFF742
:105F10008BFEF368306819795C8A9A7CFFF745FD3F
:105F2000F168240A91F80EC0CB7B20FA0CFE0EEA31
:105F3000030E96454F7B05D120FA07FE0EF0010EA9
:105F4000A64514D003FA0CFE134003FA0CF220EA23
:105F50000E001043012204F00104BA4020EA0200BE
:105F600004FA07F2024309793068FFF76BFD012359
:105F70002B70FFF765FE0020F8BD00BFE96E062814
:105F8000D86E062870B5284E3578002D48D1274C9C
:105F9000102229462046FFF7D8FC204600F074FB6B
:105FA0000220FFF7E5FD14222068FFF7FAFC436D9D
:105FB00062F31C63436503691D4A43F000530361A8
:105FC000036943F080430361FFF7EBFC036A13604E
:105FD000184AA360934203D0174A934222D1012565
:105FE0001C23164903FB05150320E560FFF78AFF14
:105FF0002068FFF7D6FC836A6FF349238362E36866
:10600000187BFFF7B5FD05222068FFF7CAFC836AFD
:1060100062F3030383620120FFF7B2FC01233370B4
:10602000002070BD064DDFE7E86E0628D86E062812
:10603000D46E06281765C80018400B00E49A0002C9
:10604000009B0002014BDB6898687047D86E0628F9
:10605000034B02441B689865081ADA651866704796
:10606000D86E062808B572B6003818BF0120054B57
:106070001B685A6E60F300025A66FFF793F962B626
:1060800008BD00BFD86E062810B50B4C236B1A0450
:1060900009D5236C1B0704D4084BD3F83C24084BC8
:1060A0001A60002010BD0A20236B02F065FC0A2054
:1060B000236C02F061FCEFE7000001440000104B8C
:1060C000F46E0628034B186880F40070C0F340207B
:1060D000704700BFF46E0628034B186880F4806098
:1060E000C0F38020704700BFF46E0628024B0348BF
:1060F000196801F025BB00BFF46E06281C9B000246
:10610000024A936A43F00C03936270470000014413
:1061100008B5FFF7F5FF4FF0894340F4B40240F4AF
:1061200025001A61186108BD4FF6FF70FFF7F0BF38
:106130000122064B016003449B08054902FA03F360
:10614000D1F8E8201A42FBD1704700BF00FFFEBB28
:106150000000014430B4046802FA01F51A4024EA50
:10616000050402FA01F1214330BCFFF7E1BF000052
:106170000346012209210148FFF7ECBF2001014439
:1061800082B00190019B5A1E0192002BFAD102B0FD
:106190007047002070470000024B5A6A60F3196292
:1061A0005A62704700000144024B5A6A60F39B62D6
:1061B0005A62704700000144F0B587B06C4607464C
:1061C0000E46074D0FCD0FC495E8030084E8030089
:1061D00006AB03EBC70757F8143C1E6007B0F0BDD1
:1061E000289B000270B586B06C460646074D0FCD61
:1061F0000FC495E8030084E8030006AB03EBC60672
:1062000056F8143C186806B070BD00BF289B000209
:10621000012870B506460C461D4647D80F2945D8BB
:10622000012A43D8049B012B40D8012D3ED80020E1
:10623000FFF7D8FFC0F30010B04217D90020FFF7D6
:10624000D1FF20F010010020FFF7B6FF0020FFF77C
:10625000C9FF20F00F0121430020FFF7ADFF154BD0
:106260001A6965F304121A61002070BD24B9114B3C
:106270001A6965F304121A610020FFF7B3FF20F0DA
:106280000F0121430020FFF797FF24B1094B1A6942
:1062900065F304121A610020FFF7A4FF20F010013B
:1062A00041EA06110020FFF787FFDDE74FF0FF30DE
:1062B000DBE700BF000001440D4B10B5D3F82031DF
:1062C0000446C3F3034398420FD00120FFF750FF69
:1062D00023460F2210210748FFF73CFF0020FFF75D
:1062E00047FF4FF47A60FFF74BFF002010BD00BF5F
:1062F000000001442001014413B5052831D8DFE82E
:1063000000F02A25201B11030123002219461846FC
:106310000093FFF77DFF04460D20FFF7CDFF2046D9
:1063200002B010BD01230022022100931846FFF79E
:106330006FFF04460920F0E70123002203210093A8
:10634000F4E70123002205210093EFE70123002257
:1063500007210093EAE7002201231146104600932B
:10636000E5E70024DBE707B505283AD8DFE800F0C9
:106370003028201810030D20FFF79EFF0123002274
:10638000194600931846FFF743FF03B05DF804FB7E
:106390000920FFF791FF0123002202210093F1E77A
:1063A0000920FFF789FF0123002203210093E9E779
:1063B0000920FFF781FF0123002205210093E1E777
:1063C0000920FFF779FF0123002207210093D9E775
:1063D0000920FFF771FF00220123114610460093A8
:1063E000D1E70020D1E7000038B5074D04462B78EF
:1063F000834203D004D9FFF77FFF2C70002038BD03
:10640000FFF7B1FFF9E700BFF86E062801280CD0AE
:10641000022813D040B90E4B02299A6A0CBF42F4ED
:10642000805260F30C329A627047094B02299A6AD3
:106430000CBF42F400526FF34D32F4E7044B0229D3
:106440009A6A0CBF42F480426FF38E32EBE700BFD2
:1064500000000144012808D002280BD078B9094B6C
:10646000986AC0F3003001307047064B986AC0F359
:106470004030F8E7034B986AC0F38030F3E701201F
:10648000704700BF00000144002301220F21014892
:10649000FFF760BE0401014401230F211A460148A1
:1064A000FFF758BE0401014438B52D4B0446D3F81C
:1064B00084502C4825F40022C3F8842001230B21AA
:1064C0001A46FFF747FE0023012210210430FFF790
:1064D00041FE4FF4AA70FFF753FEFFF7D5FF9CB3C0
:1064E00040F64850FFF74CFEFFF7D6FF7CB340F66E
:1064F0004850FFF745FEFFF7C7FF5CB340F6485032
:10650000FFF73EFEFFF7C8FF3CB340F64850FFF7E9
:1065100037FE00F0B2F87F22034601211248FFF750
:1065200019FE012310211A46FFF714FE0023012251
:106530000B210438FFF70EFE2B0303D54FF4002088
:1065400002F012FA002038BD4FF4AA70CAE74FF4E7
:10655000AA70CEE74FF4AA70D2E74FF4AA70D6E73C
:1065600000000144000101440401014408B5012078
:10657000FFF79AFFBDE8084000F05EBB38B500F0B9
:1065800077F82C4B2C4DD3F81411044641F0200120
:106590002846FFF7CDFDA5F114002849FFF7C8FDF7
:1065A00027490430FFF7C4FD26490430FFF7C0FD3A
:1065B00025490430FFF7BCFD4FF080410430FFF760
:1065C000B7FD28462149FFF7B3FD21490430FFF705
:1065D000AFFD20490430FFF7ABFD1F490430FFF742
:1065E000A7FD0120FFF7C4FD1C481D49FFF7A0FDD2
:1065F0001C490430FFF79CFD00210430FFF798FD93
:106600004FF480110430FFF793FD4FF40021043064
:10661000FFF78EFD14490430FFF78AFD134904305B
:10662000FFF786FD0020FFF7A3FD2046BDE83840B8
:10663000FFF79CBF0000014414010144E097211DB5
:1066400000FA2EC03625C9FF640BFCFD60AF07843D
:10665000008108802695E257E4727CF82401014409
:1066600027135DB59AB8EEF70800A800F60988521E
:106670004FF08843D3F8F00170474FF08843D3F8C8
:10668000F401C0F386307047034B03609A68002022
:1066900042F001029A6070470000034437B5084C8D
:1066A0006369984748B9E56AA847C307FCD4236AD9
:1066B000019303B0BDE830401847002003B030BD5F
:1066C000409B000208461146FFF7E8BF10B5074C93
:1066D0000020A3689847A46A4FF4E1310120A04745
:1066E0002346BDE81040012115201847409B0002B9
:1066F0000020704700207047014B5868704700BF6A
:10670000FC6E0628002382B00193019802B0704706
:1067100038B50C46014640B13CB1054D22462878BB
:1067200000F04EF900206C6038BD6FF00400FBE70C
:10673000FC6E06281FB54FF4E13203230446CDE971
:10674000012301238DF80C30FFF716F900F082F9D0
:1067500000F056F8207801A900F072F8002004B08B
:1067600010BD00000148FFF7E5BF00BFFC6E062822
:1067700010B50C46E3B2012B114602D06FF00300B6
:1067800010BD00F0F1F858B914F4E06FF6D114F42C
:10679000405F08D114F4404F18BF6FF00A00EFE7D4
:1067A0006FF00700ECE76FF00900E9E7024B0A46DB
:1067B00001461878FFF7DCBFFC6E0628014B18680D
:1067C000704700BFDC4A06280128014606D002288F
:1067D00006D040B90121022000F07EBA0A20FBE772
:1067E00001210B20F8E770470C235843034B1B583B
:1067F0009A69D202FCD50020D9617047086F06283B
:1068000038B50B4D2C7884B9302221460948FFF762
:106810009CF8202221460848FFF797F820222146BD
:106820000648FFF792F801232B70002038BD00BF07
:10683000386F0628086F06283C6F06285C6F06280C
:10684000F8B5434B04461B780F46002B77D0002940
:1068500078D0032878D80B683E4AA3F59853123BAA
:10686000934273D80C263C4D06FB005630713046DF
:1068700000F03EF92046FFF7A7FF0121204600F077
:106880002DFA012C35D0022C46D09CB90B2000F0FB
:10689000DCF80A2000F0D9F81F210B2000F0CAF81C
:1068A00020210A2000F0C6F80B2000F0DFF80A20B3
:1068B00000F0DCF80C23012103FB045301FA04F27D
:1068C000187A52B210431872587A02435A723B7ABD
:1068D0002046022B08BF194600F000FA3A4621462E
:1068E000304600F069F92146304600F01FF90020DB
:1068F000F8BD002000F0A9F8204600F0A6F82121FC
:10690000002000F097F82221204600F093F80020A4
:1069100000F0ACF82046CBE7292000F096F82820BC
:1069200000F093F82321292000F084F82421282066
:1069300000F080F8292000F099F82820B8E76FF4DB
:106940001050D5E70548D3E70548D1E70548CFE71C
:10695000386F0628EEFE7900086F0628F7EFFFFF74
:10696000FEDBFFFFFBDBFFFF38B5104B04461B7857
:106970000D46A3B1032815D80D4AA1F59853123B33
:10698000934211D8FFF766FD21460C2402460948C0
:106990002B4604FB010000F0D5F8002038BD6FF451
:1069A0001050FBE70448F9E70448F7E7386F06287A
:1069B000EEFE7900086F0628FEDBFFFFFBDBFFFF22
:1069C000104B70B51B7805460C46A3B1032815D8AB
:1069D0000C210D4B01FB00331B7A0341DB070FD564
:1069E000A618B44201D1002070BD284614F8011B3E
:1069F000FFF7FAFEF5E76FF41050F5E70348F3E709
:106A00000348F1E7386F0628086F0628FEDBFFFF12
:106A1000FADBFFFF38B50446084600F029F80546C2
:106A20000021204600F050F829462046BDE83840B5
:106A300000F03AB808B5FFF7EDFF002008BD08B533
:106A4000002100F041F8002008BD08B5FFF7F7FF6E
:106A5000002008BD10B5044C23781BB900F014F8D1
:106A600001232370002010BD7C6F062800F02EB893
:106A7000013880B2B0F59A7F9ABF024B185C5F2054
:106A8000704700BF789B000210B5064C23783BB9D5
:106A900000F0ECF84FF4000000F022F9012323701D
:106AA000002010BD7D6F0628172804D85E2904D861
:106AB000C0B200F0F1B8024870470248704700BF0A
:106AC000F5DFFFFFFBB3FFFF00F0E0B8172810B5BC
:106AD000044608D8012100F0F5F82046BDE8104032
:106AE000012100F0E5B8014810BD00BFF5DFFFFF50
:106AF00010B503790446012B0BD0022B0BD063B9E0
:106B0000FFF75CFE2060836843F001038360002090
:106B100010BD0348F6E70348F4E70348F2E700BF77
:106B2000000083450000844500DCFFFF036800206F
:106B30001A6942F001021A611A6942F002021A61EE
:106B400070470000022A0CBF064A074AB2FBF3F363
:106B50000268013B11699BB263F3172100201161A8
:106B6000704700BF000E2707005A620203681969C8
:106B700042B962F3451119611969002062F3861167
:106B80001961704741F020011961511E4A424A4182
:106B9000F2E703680020996A6FF307019962996A26
:106BA00062F30F2199629A6A42F400329A629A6AF9
:106BB00042F480229A627047F8B5154600274FF6D6
:106BC000FF7204460E4603681F62DA611A6995F87F
:106BD00004C06CF3C4021A6195F806C01A696CF31C
:106BE000C7121A616A79FFF7C1FF31462B682A7A0A
:106BF0002046FFF7A7FF202123685A6961F30702A7
:106C000040215A615A6961F30F225A615A6967F348
:106C100011425A619F62EB794BB180223146204686
:106C2000FFF7B7FF2268936A43F480339362002032
:106C30002368D862F8BD00000B4B9A6842F001024D
:106C40009A604FF0FF321A61DA6942F00102DA61AC
:106C5000A3F500031A6B42F010021A631A6A42F499
:106C600080121A62704700BF00008144064A00206B
:106C7000936843F001039360A2F50202136B43F0A3
:106C800080031363704700BF00008344014B800002
:106C90001950704700018344044B80001A58C9B250
:106CA00061F31F621A500020704700BF0001834447
:106CB000034B80001A5861F304121A5000207047E9
:106CC00000018344034B80001A5861F345121A50A7
:106CD000002070470001834401F03EBEFFF796BBE1
:106CE00001F042BE01680E4A0346914215D1C169C6
:106CF000A2F11022A2F1EF1291420ED18268012A74
:106D00000BD8C26812B101698A4206D0586928B10D
:106D10009B691B1A5842584170470120704700BFB9
:106D200055AA00FF0D4B70B59E68A6B13046FFF71F
:106D3000D9FF044678B9F3686BB935690DB92046B7
:106D400070BD2846FFF7CEFF28B9EB68B34202D1E9
:106D50002E462D69F2E70124F1E700BF749406285E
:106D60002DE9F843404F3C68D4B1BC68C4B1002859
:106D70004DD000294BD001FB00F5B5FBF0F0884267
:106D800045D1281D43D8A9070DD025F003060436A8
:106D9000FC6803E06368B3423BD2A469002CF9D1DC
:106DA0002046BDE8F8832E46F2E7F86044E006F19D
:106DB000200C04EB0C03203959600021DFF8ACE013
:106DC000C3E902142169196144F80CE0DFF8A0C09E
:106DD000C3F81CC001B1CB60C3E90520AAB193611F
:106DE0009A6902B15361236100234FF00109C4E99C
:106DF00005333B69C4E90169DB072DD5FFF792FF35
:106E000050B31C4B48461B6825E0FB60E8E70024B4
:106E1000C6E7A3681BB1174B01201B689847D4E94C
:106E20000520616804F12008891B2329BFD80123AC
:106E3000A360002AB9D09061A36903B15A6100230D
:106E4000C4E905333B69DA0706D5FFF76BFF18B1D4
:106E50000120084B1B6898472A46002140464446BB
:106E600000F087FB9CE700BF7494062855AA00FF3A
:106E7000669911EEE44A06282DE9F04105460028FE
:106E80007CD03F4F3B68002B78D0BA68002A75D081
:106E9000834203D87A681344984203D3394B0120C4
:106EA0001B689847A5F120042046FFF71BFF18B187
:106EB000344B01201B68984755F8183C012B03D030
:106EC000304B01201B689847002355F8146C45F897
:106ED000183CAEB1B26892B955F81C3C03F12002DF
:106EE00073681344736055F8103C336103B1DE607E
:106EF00020462022002100F03CFB234634461E465B
:106F00002069002832D08368002B2FD16368426843
:106F10002033134463600369D4E905212361DAB99E
:106F200001BB426981696261A161EAB19461A269B0
:106F300002B1546103B1DC602022002100F019FB92
:106F40003B699B071AD5FFF7EDFEB8B1BDE8F041EC
:106F50000C4B01201B6818479161A1690029E0D002
:106F60004A61DEE7F960F8E7FC60E0E7002EE7D170
:106F7000FB68A36103B15C61FC60E1E7BDE8F081FF
:106F800074940628E44A062838B50D4614220021D8
:106F90000446124800F0EDFA1149124800F032F8A8
:106FA000232D1AD914F003031FBF043DED18C3F1BC
:106FB0000403E4182A460021204600F0DAFA074BC1
:106FC000094AC3E900459C602260A2F11022203DDD
:106FD000A2F1EF126560E261DC6038BD74940628AE
:106FE000796E0002616D000255AA00FF0020704713
:106FF0007047704718B1024B1B6803B118477047C0
:10700000E84A0628024B1860024B002019607047BE
:10701000E04A0628E84A06280E4B1A681368042836
:1070200015D8DFE800F003080B0E110043F0010350
:1070300000201360704743F00203F9E743F00403B4
:10704000F6E743F00803F3E743F01003F0E74FF0EF
:10705000FF3070478894062808B50A4B186003680B
:1070600023F02003036000F01DF80020FFF7D4FF99
:1070700000F09CF800F000F900F05AF900F0BCF8BC
:10708000002008BD8894062808B500F031F800F00B
:107090006BF9BDE8084000F000B870470020704769
:1070A00000207047114B82B019680A6842F0040250
:1070B0000A6019684A6842F004004860196822F0C2
:1070C00004024A6043F224111A688B580193019B11
:1070D00043F001030193019B23F0F00343F080038D
:1070E0000193019B8B5002B000F022B888940628CF
:1070F000034B1A68136823F00403136000F002B80E
:107100008894062810B5094C0220FFF7C7FFD4F871
:107110000C0300F08DF920464FF44472002100F07A
:107120001FF9BDE810400220FFF7BABF8C94062873
:1071300037B543F22C12184B184C2360184B1B68C0
:10714000D358C3F38143012B20D0022B21D0DBB9CC
:107150004FF48063002563606A4661680E480095BD
:107160008DF8045000F02EF94FF421722946C4F82E
:107170000C030C4800F0F4F82023802229460A482A
:10718000C4F8083300F0ECF803B030BD4FF40063EE
:10719000E0E74FF48053DDE7000006288C940628D2
:1071A00088940628149506289494062807B500208C
:1071B0000190FFF731FF0F4B19684A680192019A5D
:1071C00042F001020192019A4A6019684A680192EC
:1071D000019A22F001020192019A4A60019A1B6809
:1071E00042F00102019243F284220199D15003B08E
:1071F0005DF804FB889406281FB500231D4C0193FD
:107200002368D3F8001411F001012FD11A680192FC
:10721000019A42F008020192019A1A6022685368AA
:107220000193019B43F008030193019B5360019B71
:1072300023F008030193019A23685A60226802919F
:10724000D2F800340293029B23F480730293029BD2
:10725000C2F800342368D3F800340393039BDB07A0
:1072600004D44FF4FA6000F07DF8F3E7002004B096
:1072700010BD00BF88940628002307B501200193A4
:10728000FFF7CAFE0E4B19684A680192019A42F054
:1072900002020192019A4A60019A22F002020192CE
:1072A00001991A685160019A1B6842F0010201922B
:1072B00043F204220199D15003B05DF804FB00BFF2
:1072C00088940628124B01681A68C2F804121A68DA
:1072D0004168C2F808121A688168C2F80C121A686C
:1072E000C168C2F810121A680169C2F814121A684B
:1072F0004169C2F824120F211A68C2F820121A68D4
:10730000D2F88C3243F00103C2F88432704700BFD8
:1073100088940628054A11684B6843F010004860BD
:10732000126823F010035360704700BF889406284A
:1073300008B5FFF7EFFFBDE808400148FFF7C2BFFF
:10734000C49D000238B50546FEF706FB044618B199
:107350002A46002100F00DF9204638BDFEF7F7BAA5
:1073600000F007B970470000F8B50E4E3368012BE6
:1073700008D10D4C6068A04205D10368834202D158
:1073800000233360F8BD00274568A042F8D0D0E95B
:10739000002353601A60C0E90077FFF72BFE2846F0
:1073A0006D68F2E79C970628A09706280148FFF72A
:1073B00053BE00BF0000114B08B5FFF765FE00206B
:1073C00008BD0000F8B50D461646074610B9002462
:1073D0002046F8BD0029FAD0002AF8D0136823B15E
:1073E000013B40EA01021342F1D12020FFF7AAFF3E
:1073F00004460028EBD00D4B0360FB1C23F0030375
:107400003279C360DB1BED1A336825F00305027285
:10741000056143603AB100F037F8606104F1180388
:10742000C4E90633D4E74261F8E700BF56414D474F
:10743000F8B5044638B3037A13B1406900F026F872
:10744000E06904F1180585420ED1A3699D420BD174
:10745000237A13B1606900F01BF8002323602046F3
:10746000BDE8F840FFF77ABF002746688542EFD0B5
:10747000D0E9002353601A60C0E90077FFF76EFF80
:1074800030467668F2E7F8BD00207047002070476C
:107490000020704708B5074B044613B1002100E0F7
:1074A00000BF054B1868836A03B19847204601F076
:1074B00035FA00BF00000000DC9D000270B50D4DE4
:1074C00000260D4C641BA410A64209D10B4D0026CA
:1074D0000B4C01F025FA641BA410A64205D170BD27
:1074E00055F8043B01369847EEE755F8043B013662
:1074F0009847F2E7504B0628504B0628504B062879
:10750000544B0628024B0146186800F0A5B800BF8E
:10751000EC4A0628024B0146186800F033B800BF59
:10752000EC4A06280A44431E914200D1704710B528
:1075300011F8014B914203F8014FF9D110BD884277
:1075400010B501EB020402D98442234607D8431E3A
:10755000A14208D011F8012B03F8012FF8E70244EB
:1075600001468A4200D110BD13F8014D02F8014DC9
:10757000F7E702440346934200D1704703F8011B2A
:10758000F9E7000038B50546002941D051F8043C20
:107590000C1F002BB8BFE41800F060FA1D4A1368F6
:1075A00033B9636014602846BDE8384000F05CBA27
:1075B000A34208D9206821188B4201BF19685B6873
:1075C00009182160EDE71A465B680BB1A342FAD9AE
:1075D00011685018A0420BD1206801445018116066
:1075E0008342E0D118685B68014453601160DAE7B8
:1075F00002D90C232B60D6E7206821188B4202BFEA
:1076000019685B680918636008BF21605460CAE7A5
:1076100038BD00BFA897062870B50E4E0C4605462B
:10762000316811B900F0A4F830602146284600F016
:107630009FF8431C0AD0C41C24F00304A04207D0C6
:10764000211A284600F094F8013001D14FF0FF34A0
:10765000204670BDAC9706282DE9F041CD1C0746A9
:1076600025F0030508350C2D38BF0C25002D01DB56
:10767000A94205D90C2300263B603046BDE8F081C5
:107680002E4E00F0EBF933681C4634BB29463846D1
:10769000FFF7C2FF431C04464DD134682646002E36
:1076A00040D123683146384604EB030800F060F807
:1076B00080453AD12168033538466D1A25F0030517
:1076C00008350C2D38BF0C252946FFF7A5FF0130E2
:1076D0002BD023682B4423600EE02268521B1ED45B
:1076E0000B2A16D96119A342256018BF5960636837
:1076F00008BF316062514B6004F10B06384600F060
:10770000B3F9231D26F00706F21AB6D09B1BA3502F
:10771000B3E76268A3420CBF32605A60ECE72346CD
:107720006468B2E734467668B9E70C2338463B60B4
:1077300000F09AF9A1E72560DEE700BFA8970628C8
:107740000FB40A4B13B51C6824B1A36913B92046C2
:1077500000F0E4F805AB049AA1682046019300F01C
:107760003BFB02B0BDE8104004B07047EC4A06286D
:1077700038B50023054D044608462B6001F0BEF8DD
:10778000431C02D12B6803B1236038BDB49706288F
:107790000CB4184B30B50C1E9DB01D6808DA8B2355
:1077A0004FF0FF302B601DB0BDE8304002B0704795
:1077B0004FF402730290069002A9ADF8143014BF82
:1077C00004F1FF332346209A2846049307934FF68B
:1077D000FF73ADF8163021AB019300F0D5F9431CCF
:1077E000BCBF8B232B60002CDDD0029B00221A70C3
:1077F000D9E700BFEC4A062810F8012B11F8013B2D
:10780000012A28BF9A42F7D0D01A7047034613F8CE
:10781000012B002AFBD1181A01387047034610B516
:1078200072B10139841813F8010B11F8012F90423D
:1078300001D1A34201D1801A10BD0028F3D1FAE78B
:107840001046F9E70139034610B532B111F8014F7E
:10785000013A03F8014B002CF7D11A44002193425E
:1078600000D110BD03F8011BF9E70000002310B59B
:1078700004468360818119464366C2810822836180
:10788000C0E90033C0E904335C30FFF772FE054BFA
:1078900024626362044BA362044BE362044B2363E0
:1078A00010BD00BF6583000287830002BF83000212
:1078B000E3830002014900F0AFB800BFB1860002C7
:1078C00070B568224D1E0E46554305F17401FFF751
:1078D000C3FE044640B1002105F16802C0E900166C
:1078E0000C30A060FFF745FE204670BD014800F057
:1078F000B3B800BFB1970628014800F0AEB800BF8A
:10790000B1970628014800F0A7B800BFB297062833
:10791000014800F0A2B800BFB297062810B504468F
:10792000FFF7F0FFA3691BB1BDE81040FFF7F0BF00
:10793000C4E9123323652046124B134A1B68A26226
:10794000A34204BF0123A36100F020F86060204639
:1079500000F01CF8A060204600F018F80022042176
:10796000E0606068FFF782FF01220921A068FFF74D
:107970007DFF02221221E068FFF778FF0123A36157
:10798000D2E700BFDC9D0002B5780002F8B50746DB
:10799000FFF7ACFF1E4B1E68B36913B93046FFF703
:1079A000BDFF4836D6E90134013B03D533680BB33C
:1079B0003668F7E7B4F90C50D5B9164B04F1580006
:1079C0006566E36000F047F8FFF796FF0822294656
:1079D00004F15C002560A561C4E90155C4E90455C2
:1079E000FFF7C7FDC4E90D55C4E912552046F8BD9F
:1079F0006834D9E704213846FFF762FF0446306057
:107A00000028D5D1FFF778FF0C233B60EEE700BFDD
:107A1000DC9D00020100FFFF2DE9F8430646884681
:107A200000F148040027D4E90195B9F1010905D511
:107A30002468002CF7D13846BDE8F883AB89012BC8
:107A400007D9B5F90E30013303D029463046C04777
:107A500007436835E9E77047704770470148FFF70B
:107A6000FBBF00BFB09706280148FFF7F6BF00BF75
:107A7000B09706282DE9F041804614460E4621B9FC
:107A80001146BDE8F041FFF7E7BD2AB92546FFF7EB
:107A900079FD2846BDE8F08100F0CCFE844207461F
:107AA00002D8B4EB500F12D821464046FFF7D4FD60
:107AB00005460028EDD0BC422246314628BF3A4652
:107AC000FFF730FD31464046FFF75CFDE1E7354604
:107AD000DFE72DE9F0478E6882460C4690469E42CD
:107AE0001F4638D88A8912F4906F32D02568013346
:107AF0000969A5EB0109656905EB45054B4405EBF3
:107B0000D5756D109D4238BF1D46530531D52946A8
:107B1000FFF7A2FD064650B90C234FF0FF30CAF81C
:107B20000030A38943F04003A381BDE8F0874A46B3
:107B30002169FFF7F7FCA38923F4906343F08003E6
:107B4000A38126614E446561A5EB090526603E468A
:107B5000A560BE4200D93E46324641462068FFF746
:107B6000EEFCA36800209B1BA360236833442360C2
:107B7000DBE72A46FFF77EFF06460028E1D12169B0
:107B80005046FFF7FFFCC7E72DE9F04F98468B8979
:107B90009DB007461B060D4614460ED50B6963B90A
:107BA0004021FFF759FD2860286120B90C233B6074
:107BB0004FF0FF30D1E040236B610023CDF80C8003
:107BC0004FF00109DFF8AC81099320238DF82930AB
:107BD00030238DF82A3023469A4613F8012B0AB138
:107BE000252AF9D1BAEB040B0BD05B462246294675
:107BF0003846FFF76EFF013000F0AA80099A5A4418
:107C000009929AF80030002B00F0A28000234FF078
:107C1000FF320AF1010A049307938DF853301A9347
:107C2000CDE9052354460522524814F8011B00F003
:107C3000F3FD049AD8B9D00644BF20238DF8533001
:107C4000110744BF2B238DF853309AF800302A2BAC
:107C500015D0079A544600204FF00A0C214611F81F
:107C6000013B303B092B4ED9B0B1079214E0A0EB99
:107C70000803A24609FA03F313430493D2E7039BD4
:107C8000191D1B68002B0391BBBF5B4242F002022F
:107C900007930793B8BF049223782E2B0CD16378F7
:107CA0002A2B35D1039B02341A1D1B68002B03922B
:107CB000B8BF4FF0FF330593DFF8BCA00322217853
:107CC000504600F0A9FD40B14023A0EB0A0001346A
:107CD00003FA00F0049B0343049314F8011B0622EB
:107CE00026488DF8281000F097FD002838D0244B46
:107CF0001BBB039B073323F0070308330393099B44
:107D00003344099367E70CFB02320C460120A5E7D8
:107D1000002301344FF00A0C19460593204610F851
:107D2000012B303A092A03D9002BC5D00591C3E7AE
:107D30000CFB012104460123F0E703AB2A4604A90A
:107D4000384600930F4B00E000BF421C0646D6D1D8
:107D5000AB895B063FF52CAF09981DB0BDE8F08FED
:107D600003AB2A4604A938460093064B00F0D4F929
:107D7000EBE700BF409E0002469E00024A9E0002C2
:107D800000000000D37A00029368013B002B93604F
:107D900010B407DA9469A34201DB0A2902D110BCAE
:107DA00000F024BB1368581C10600846197010BC02
:107DB0007047F8B506460F461446D518AC4201D1B7
:107DC000002007E03A4614F8011B3046FFF7DCFFBD
:107DD000431CF3D1F8BD00002DE9F04F0D469DB0D6
:107DE00014469846064618B183690BB9FFF796FD0D
:107DF000894B9D421BD175686B6ED90705D4AB8941
:107E00009A0502D4A86DFFF727FEAB891B0701D5A1
:107E10002B69EBB92946304600F04CFBC0B16B6EC4
:107E2000DC070ED54FF0FF301DB0BDE8F08F7B4B67
:107E30009D4201D1B568DFE7794B9D4208BFF568E7
:107E4000DAE7AB899805EDD4A86DFFF706FEE9E700
:107E50000023CDF80C804FF00109DFF8C8810993A9
:107E600020238DF8293030238DF82A3023469A4676
:107E700013F8012B0AB1252AF9D1BAEB040B0BD068
:107E80005B46224629463046FFF793FF013000F05B
:107E9000AA80099A5A4409929AF80030002B00F0FF
:107EA000A28000234FF0FF320AF1010A04930793E6
:107EB0008DF853301A93CDE90523544605225948CD
:107EC00014F8011B00F0A8FC049AD8B9D10644BFED
:107ED00020238DF85330130744BF2B238DF85330E4
:107EE0009AF800302A2B15D0079A544600204FF0FC
:107EF0000A0C214611F8013B303B092B4ED9B0B199
:107F0000079214E0A0EB0803A24609FA03F3134317
:107F10000493D2E7039B191D1B68002B0391BBBF81
:107F20005B4242F0020207930793B8BF04922378A2
:107F30002E2B0CD163782A2B35D1039B02341A1DCA
:107F40001B68002B0392B8BF4FF0FF330593DFF897
:107F5000D8A003222178504600F05EFC40B14023B7
:107F6000A0EB0A00013403FA00F0049B03430493DE
:107F700014F8011B06222D488DF8281000F04CFC47
:107F800000283FD02A4B1BBB039B073323F007037A
:107F900008330393099B3B44099367E70CFB0232C8
:107FA0000C460120A5E7002301344FF00A0C1946C6
:107FB0000593204610F8012B303A092A03D9002BEB
:107FC000C5D00591C3E70CFB012104460123F0E76E
:107FD00003AB2A4604A930460093164B00E000BFCD
:107FE0000746781CD6D16B6ED90705D4AB899A05A4
:107FF00002D4A86DFFF731FDAB895B063FF512AFE8
:10800000099811E703AB2A4604A930460093094BAF
:1080100000F082F8E4E700BF009E0002209E00020C
:10802000E09D0002409E0002469E00024A9E000221
:1080300000000000B37D00022DE9F0471646994686
:108040008A6807460B690C46DDF820809342B8BF6A
:108050001346336091F843200AB10133336023683B
:10806000990642BF336802333360256815F0060570
:1080700006D104F1190AE36832689B1AAB4229DC85
:1080800094F84320131E226818BF012392062ED4B1
:1080900004F1430249463846C047013021D02368E5
:1080A0001A3454F80E5C03F0060332680026042BE1
:1080B00054F8123C08BFAD1A54F80A2C14BF00251E
:1080C00025EAE5759342C4BF9B1AED18B5421AD153
:1080D000002008E00123524649463846C047013097
:1080E00003D14FF0FF30BDE8F0870135C3E7E11859
:1080F0005A1C30200233224481F8430094F8451082
:1081000082F84310C4E70123224649463846C04757
:108110000130E6D00136D9E72DE9FF470F7E9146C1
:1081200080460C46782F9A460C9D01F1430207D8F1
:10813000622F0AD8002F00F0D880582F00F0A380BB
:1081400004F1420584F842703AE0A7F16303152B6D
:10815000F6D801A151F823F0B1810002C5810002D7
:1081600041810002418100024181000241810002FF
:10817000C58100024181000241810002418100026B
:1081800041810002D1820002F5810002B382000227
:108190004181000241810002F3820002418100021C
:1081A000F58100024181000241810002BB82000290
:1081B0002B681A1D1B682A6004F1420584F84230BE
:1081C0000123A3E020682968060601F104030AD50B
:1081D0000E682B60002E03DA2D23764284F843309C
:1081E0005E480A2319E00E6810F0400F2B6018BF9C
:1081F00036B2EFE72B682068191D2960010601D50A
:108200001E6802E04606FBD51E886F2F53480CBF40
:1082100008230A23002184F843106568002DA56017
:10822000A2BF216821F0040121600EB9002D4DD0BC
:108230001546B6FBF3F103FB1167C75D05F8017D39
:1082400037460E46BB42F4D9082B0BD12368DE0714
:1082500008D5236961689942DEBF302305F8013CE7
:1082600005F1FF35521B22614B4603AA21464046C9
:10827000CDF800A0FFF7E0FE01304CD14FF0FF3009
:1082800004B0BDE8F087354881F845702968236857
:1082900051F8046B29601D0614D5DF0744BF43F075
:1082A000200323601EB9236823F0200323601023DA
:1082B000B0E7236843F0200323607823284884F83C
:1082C0004530E3E7590648BFB6B2E6E71546BBE7D7
:1082D0002B682668181D6169286035061B6801D562
:1082E000196002E07006FBD5198000231546236152
:1082F000BAE72B6800211A1D2A601D6862682846AB
:1083000000F08AFA08B1401B6060636823610023B3
:1083100084F84330A8E723692A4649464046D047B7
:108320000130ABD023689B0713D4E068039B9842CD
:10833000B8BF1846A4E70123324649464046D04715
:1083400001309BD00135E36803995B1AAB42F2DC44
:10835000EBE7002504F11906F5E700BF519E000286
:10836000629E000210B50C46B1F90E1000F06AFAD8
:108370000028ABBF636DA3891B1823F48053ACBFE7
:108380006365A38110BD2DE9F0411F468B89054629
:108390000C46DB05164605D502230022B1F90E1066
:1083A00000F0C2F9A3893246B4F90E10284623F42E
:1083B0008053A3813B46BDE8F04100F069B810B599
:1083C0000C46B1F90E1000F0AFF9431CA38915BF9C
:1083D000606523F4805343F48053A38118BFA381C5
:1083E00010BDB1F90E1000F0D3B80000F8B50E467C
:1083F0001446054618B183690BB9FFF78FFA214B74
:108400009C422BD16C68A369A360A3891A072FD55E
:1084100023696BB32369F6B220683746C01A6369D3
:10842000834204DC2146284600F042F930BBA368B1
:108430000130013BA36023685A1C22601E706369EF
:10844000834204D0A389DB0706D50A2E04D1214636
:10845000284600F02DF988B93846F8BD0A4B9C42F1
:1084600001D1AC68CFE7094B9C4208BFEC68CAE772
:108470002146284600F01EF80028CBD04FF0FF37E9
:10848000EAE700BF009E0002209E0002E09D00027D
:1084900038B50446064D0846114600222A601A46A1
:1084A000FEF710F9431C02D12B6803B1236038BDDD
:1084B000B4970628324B70B51D6806460C4625B1A8
:1084C000AB6913B92846FFF729FA2E4B9C420FD10E
:1084D0006C68A389B4F90C2019072CD4DD0611D4DB
:1084E0000923336042F040034FF0FF30A3813EE0A8
:1084F000254B9C4201D1AC68EBE7244B9C4208BF62
:10850000EC68E6E7580712D5616B41B104F144030A
:10851000994202D03046FFF735F800236363A38900
:1085200023F02403A3810023636023692360A389CC
:1085300043F00803A38123694BB9A38903F4207393
:10854000B3F5007F03D02146304600F025F9A0891D
:10855000B4F90C2010F001030AD00023A360636972
:108560005B42A361236943B910F08000BAD170BDAA
:10857000810758BF6369A360F4E70020F7E700BFF5
:10858000EC4A0628009E0002209E0002E09D0002A8
:1085900038B50023054D044608462B6000F086F9E7
:1085A000431C02D12B6803B1236038BDB497062861
:1085B0008A89F8B5054610070C4657D44B68002B3E
:1085C00004DC0B6C002B01DC0020F8BDE66A002EF9
:1085D000FAD0002312F480522F682B6032D0606DE5
:1085E000A3895A0705D56368C01A636B0BB1236C66
:1085F000C01A00230246E66A2846216AB047431C97
:10860000A38906D129681D292CD8284ACA40D60733
:1086100028D50022D90462602269226004D5421C58
:1086200001D12B6803B96065616B2F600029CBD045
:1086300004F14403994202D02846FEF7A3FF00202C
:108640006063C2E7216A01232846B047411CC7D1B5
:108650002B68002BC4D01D2B01D0162B01D12F600D
:10866000B2E7A38943F04003A381AEE70F69002F6F
:10867000AAD093070E680F600CBF4B690023F61B4E
:108680008B60002EA0DD33463A46216A2846D4F896
:1086900028C0E047002806DCA3894FF0FF3043F0F4
:1086A0004003A38191E70744361AEAE7010040201E
:1086B00038B50B6905460C4613B90025284638BD68
:1086C00018B183690BB9FFF729F9144B9C421BD1F0
:1086D0006C68B4F90C30002BEFD0626ED00704D474
:1086E000990502D4A06DFFF7B7F928462146FFF798
:1086F0005FFF636E0546DA07E0D4A3899B05DDD4EE
:10870000A06DFFF7AAF9D9E7054B9C4201D1AC68EF
:10871000DFE7044B9C4208BFEC68DAE7009E0002EA
:10872000209E0002E09D000238B50446064D084632
:10873000114600222A601A4600F0D0F8431C02D1EC
:108740002B6803B1236038BDB497062870B50E4678
:10875000B1F90E1096B0144600291D4608DAB6F994
:108760000C3000222A601A0610D44FF480630EE009
:108770006A4600F079F80028F1DB019A02F47042B1
:10878000A2F500535A425A412A60EEE740230020E6
:10879000236016B070BD00008B8973B59D07064637
:1087A0000C4607D504F1470323602361012363616D
:1087B00002B070BD01AB6A46FFF7C8FF00990546DD
:1087C0003046FEF749FF48B9B4F90C309A05EFD4AA
:1087D00023F0030343F00203A381E3E70D4BB362ED
:1087E000A389206043F080032061A381009B636123
:1087F000019B5BB1B4F90E10304600F047F828B188
:10880000A38923F0030343F00103A381A089054357
:10881000A581CDE7B5780002C9B20346024410B580
:108820009342184601D1002003E0047801338C42C2
:10883000F6D110BD51F8043C181F002BBCBF0B58DB
:10884000C018704738B50446064D08461146002248
:108850002A601A4600F04AF8431C02D12B6803B183
:10886000236038BDB497062838B50023064D04466A
:10887000084611462B6000F021F8431C02D12B68FA
:1088800003B1236038BD00BFB497062838B5002374
:10889000054D044608462B6000F018F8431C02D131
:1088A0002B6803B1236038BDB4970628024B5822C9
:1088B0004FF0FF301A607047B4970628024B5822D9
:1088C0004FF0FF301A607047B4970628024B5822C9
:1088D00000201A60704700BFB4970628024B582248
:1088E0004FF0FF301A607047B4970628024B5822A9
:1088F0004FF0FF301A607047B4970628054A0346C8
:10890000106810B1034413607047034803441360B8
:10891000704700BFB8970628C0DF0628FEE700BFF3
:10892000F8B500BFF8BC08BC9E467047F8B500BF5C
:10893000F8BC08BC9E46704701B40248844601BC9E
:10894000604700BF1144060801B40248844601BCD8
:10895000604700BFE140060801B40248844601BCFC
:10896000604700BFB140060801B40248844601BC1C
:10897000604700BF9D40060801B40248844601BC20
:10898000604700BF234306085B4552525D20506C90
:108990006174666F726D20696E6974206661696CBE
:1089A00065640D0A005B464F5243455D20206D61B2
:1089B000696E2030782570200D0A0D0A005B464F45
:1089C0005243455D205374617274696E6720626F13
:1089D0006F746C6F616465720D0A0D0A005B45521D
:1089E000525D204F54502073797374656D20696E09
:1089F000697469616C697A6174696F6E2066616916
:108A00006C65640D0A005B4552525D204572726FC1
:108A100072207768696C6520696E697469616C6938
:108A20007A696E672074686520736563757269740E
:108A30007920636F756E7465720D0A005B45525242
:108A40005D20506C6174666F726D20706F7374205E
:108A5000696E6974206661696C65640D0A005B4625
:108A60004F5243455D207665726966792073746163
:108A70007274200D0A0D0A005B464F5243455D207B
:108A8000646F5F626F6F745F776974686F75745F2E
:108A90007369676E696E67207374617274200D0A62
:108AA0000D0A005B4552525D204B65726E656C206D
:108AB0006865616465722063726333322069732074
:108AC0006E6F742076616C69642120736C6F742002
:108AD0003D2025640D0A005B4552525D20616C6C9F
:108AE000204B65726E656C206865616465722063F9
:108AF00072633332206973206E6F742076616C6903
:108B00006421200D0A005B4552525D20626F6F7434
:108B10005F7570646174655F62705F706172616DD2
:108B20005F736C6F745F776974686F75745F736976
:108B3000676E696E67206661696C65643A6C696E20
:108B4000652025642C207265743A2025640D0A0086
:108B50005B464F5243455D20626F6F745F75706472
:108B60006174655F62705F706172616D5F736C6F7D
:108B7000745F776974686F75745F7369676E696E27
:108B80006720737563636573730D0A005B464F520C
:108B900043455D200A4A756D70696E6720746F20C9
:108BA00074686520666972737420736C6F740D0A43
:108BB000005B464F5243455D200A4A756D70696EF1
:108BC0006720746F20746865207365636F6E64201E
:108BD000736C6F740D0A005B464F5243455D207005
:108BE00072696D6172795F6F66663A2030782578B8
:108BF0000D0A0D0A005B464F5243455D20646F5FCE
:108C0000626F6F745F776974686F75745F7369679B
:108C10006E696E6720656E642076743A2030782520
:108C2000700D0A0D0A00737761702066726F6D20F7
:108C3000736C6F743120746F20736C6F7430200DFF
:108C40000A005B464F5243455D20626F6F745F754B
:108C500070646174655F62705F706172616D5F7096
:108C60006172746974696F6E206661696C65643ADB
:108C70006C696E652025642C207265743A20256429
:108C80000D0A00737761702066726F6D20736C6FD0
:108C9000743020746F20736C6F7431200D0A0020C3
:108CA000736C6F74302020736C6F743120616C6C46
:108CB000206661696C200D0A005B464F5243455D9A
:108CC00020626F6F745F6765745F6869676865735A
:108CD000745F62705F76657273696F6E5F706172E8
:108CE000746974696F6E206661696C200D0A0D0AE3
:108CF000005B464F5243455D206163746976655F52
:108D0000736C6F74203A30782578200D0A0D0A00B4
:108D10005B464F5243455D20646F207265636F76FA
:108D20006572792073746570312C6163746976653E
:108D30005F736C6F74203A25640D0A0D0A005B4660
:108D40004F5243455D206E6F726D616C20736C6F86
:108D500074203A30782578200D0A0D0A00626F6F72
:108D6000745F706172616D0045202825642920259B
:108D7000733A20496E76616C6964204352432069DE
:108D80006E7075743A207372633D25702C206C658B
:108D90006E3D257A750A0045202825642920257313
:108DA0003A20435243206C656E67746820257A75BB
:108DB0002065786365656473206D6178696D756D94
:108DC0002025640A007365636F6E646172795F7455
:108DD000666D5F73004520282564292025733A209D
:108DE000496E76616C696420646174612E207665D9
:108DF000723A2025752C2061637469766520696E4E
:108E00006465783A2025752C2061646472657373FB
:108E100065733A2025782C2025780A0045202825DE
:108E200064292025733A20496E76616C6964206359
:108E3000726333322076616C75652C206372633304
:108E4000322025752C207665723A2025752C2061FC
:108E5000637469766520696E6465783A2025752C9F
:108E6000206164647265737365733A2025782C20E1
:108E700025780A004520282564292025733A2042B8
:108E80006F6F7420706172616D20696E666F20690A
:108E900073204E554C4C0A00452028256429202576
:108EA000733A206C696E655B25645D2C20434F4EE0
:108EB0004649475F4E554D5F4150505320203A2060
:108EC00025640A004520282564292025733A206C52
:108ED000696E655B25645D2C4661696C20746F204A
:108EE0007265616420425025642C206572726E6F39
:108EF0002025640A004520282564292025733A206E
:108F00006C696E655B25645D2C4250302063726332
:108F100020766572696679206F6B200D0A00452006
:108F2000282564292025733A206C696E655B2564C9
:108F30005D2C4250302063726320766572696679D9
:108F4000206661696C20616E64204250312063723A
:108F50006320766572696679206F6B200D0A004583
:108F600020282564292025733A206C696E655B25CD
:108F7000645D2C4250302063726320616E64204235
:108F80005031206372632076657269667920616C66
:108F90006C206661696C200D0A0045202825642933
:108FA0002025733A204661696C656420746F2072D5
:108FB000656164207072696D617279207369676E92
:108FC000206D616769632C206572726E6F20256465
:108FD0000A004520282564292025733A2046616926
:108FE0006C656420746F2072656164207365636FC3
:108FF0006E64617279207369676E206D6167696361
:109000002C206572726E6F2025640A004520282589
:1090100064292025733A206C696E655B25645D2C9C
:109020004250312063726320766572696679206FE1
:109030006B200D0A004520282564292025733A203D
:109040006C696E655B25645D2C42503120637263F0
:1090500020766572696679206661696C20616E644C
:1090600020425030206372632076657269667920F1
:109070006F6B200D0A004520282564292025733AAE
:10908000206C696E655B25645D2C425031206372F3
:109090006320616E642042503020637263207665E5
:1090A0007269667920616C6C206661696C200D0ABA
:1090B000004520282564292025733A20426F6F74CB
:1090C00020706172616D20627566666572206973D9
:1090D000204E554C4C0A0045202825642920257334
:1090E0003A20496E76616C696420696E7573655FBC
:1090F00062703A20256420286D75737420626520A3
:10910000302D2564290A004520282564292025734F
:109110003A206C696E655B25645D2C20426F6F742C
:1091200020706172616D206973204E554C4C0A00AD
:109130004520282564292025733A206C696E655BDB
:1091400025645D2C20496E76616C696420696E75BA
:1091500073655F627020696E6465783A2025640AE1
:10916000004520282564292025733A206C696E6506
:109170005B25645D2C20496E76616C6964206163B7
:10918000746976655F736C6F743A2025750A0045C3
:1091900020282564292025733A206C696E655B259B
:1091A000645D2C4661696C20746F20777269746508
:1091B00020425025642C206572726E6F2025640A4F
:1091C000004520282564292025733A206C696E65A6
:1091D0005B25645D2C4661696C20746F2067657443
:1091E0002074686520686967686573742062702000
:1091F00076657273696F6E2C206572726E6F2025B2
:10920000640A004520282564292025733A206C69CA
:109210006E655B25645D2C616464723A30782578F4
:1092200020200A004520282564292025733A206C37
:10923000696E655B25645D2C20436F6D6D6F6E20DC
:109240006E616D65206D69736D61746368200A00DD
:109250004520282564292025733A206C696E655BBA
:1092600025645D2C20496E76616C696420617070A4
:109270005F636F756E74200A00617070256400452D
:1092800020282564292025733A206C696E655B25AA
:10929000645D2C204170705B25645D206E616D659E
:1092A000206D69736D61746368200A00452028256C
:1092B00064292025733A206C696E655B25645D2CFA
:1092C0002076657273696F6E206F766572666C6F5B
:1092D000772064657465637465642C2072657365BA
:1092E0007474696E6720746F20310A004520282548
:1092F00064292025733A204661696C656420746F87
:109300002072656164207072696D61727920696D87
:109310006167652076657273696F6E2C2065727265
:109320006E6F2025640A00452028256429202573B6
:109330003A204661696C656420746F2072656164CF
:10934000207365636F6E6461727920696D61676512
:109350002076657273696F6E2C206572726E6F2055
:1093600025640A004520282564292025733A206CAD
:10937000696E655B25645D2C736C6F743026267393
:109380006C6F7431206B65726E656C206220616455
:10939000647220697320696E766C61696420627002
:1093A0005F696478203D2025642C20736C6F745FA6
:1093B000696478203D202564200A00452028256422
:1093C000292025733A206C696E655B25645D2C64E9
:1093D0006F206578656375746520616C6C5F736C74
:1093E0006F745F616464725F69735F696E76616CEC
:1093F0006964202062705F696478203D2025642CB8
:1094000020736C6F745F696478203D202564200AA6
:10941000007072696D6172795F74666D5F7300458B
:1094200020282564292025733A20496E76616C69CD
:109430006420736C6F7420256420666F72206B65E6
:10944000726E656C206865616465722043524320CA
:10945000636865636B0A004520282564292025730D
:109460003A204661696C656420746F20726561649E
:10947000206B65726E656C2068656164657220663C
:10948000726F6D20257320706172746974696F6EDC
:109490002C207265743D25640A0045202825642926
:1094A0002025733A20496E76616C6964206B657281
:1094B0006E656C2062696E6172795F73697A65208E
:1094C000736C6F743D25640A0045202825642920AB
:1094D00025733A204661696C656420746F2072655B
:1094E0006164206B65726E656C2062696E61727971
:1094F0002066726F6D2025732070617274697469C3
:109500006F6E2C207265743D25640A000000000017
:10951000963007772C610EEEBA51099919C46D0780
:109520008FF46A7035A563E9A395649E3288DB0EDB
:10953000A4B8DC791EE9D5E088D9D2972B4CB609BE
:10954000BD7CB17E072DB8E7911DBF906410B71D9B
:10955000F220B06A4871B9F3DE41BE847DD4DA1AD4
:10956000EBE4DD6D51B5D4F4C785D38356986C1305
:10957000C0A86B647AF962FDECC9658A4F5C01147E
:10958000D96C0663633D0FFAF50D088DC8206E3B5C
:109590005E10694CE44160D5727167A2D1E4033C6E
:1095A00047D4044BFD850DD26BB50AA5FAA8B53595
:1095B0006C98B242D6C9BBDB40F9BCACE36CD83284
:1095C000755CDF45CF0DD6DC593DD1ABAC30D9262B
:1095D0003A00DE518051D7C81661D0BFB5F4B4212E
:1095E00023C4B3569995BACF0FA5BDB89EB802282B
:1095F0000888055FB2D90CC624E90BB1877C6F2FB0
:10960000114C6858AB1D61C13D2D66B69041DC76AA
:109610000671DB01BC20D2982A10D5EF8985B17183
:109620001FB5B606A5E4BF9F33D4B8E8A2C9077832
:1096300034F9000F8EA8099618980EE1BB0D6A7FC9
:109640002D3D6D08976C6491015C63E6F4516B6B82
:1096500062616C1CD83065854E0062F2ED95066C37
:109660007BA5011BC1F4088257C40FF5C6D9B065AC
:1096700050E9B712EAB8BE8B7C88B9FCDF1DDD6209
:10968000492DDA15F37CD38C654CD4FB5861B24D6F
:10969000CE51B53A7400BCA3E230BBD441A5DF4A39
:1096A000D795D83D6DC4D1A4FBF4D6D36AE96943FC
:1096B000FCD96E34468867ADD0B860DA732D0444A7
:1096C000E51D03335F4C0AAAC97C0DDD3C710550D2
:1096D000AA41022710100BBE86200CC925B5685779
:1096E000B3856F2009D466B99FE461CE0EF9DE5EC2
:1096F00098C9D9292298D0B0B4A8D7C7173DB35973
:10970000810DB42E3B5CBDB7AD6CBAC02083B8ED03
:10971000B6B3BF9A0CE2B6039AD2B1743947D5EA10
:10972000AF77D29D1526DB048316DC73120B63E33F
:10973000843B64943E6A6D0DA85A6A7A0BCF0EE49E
:109740009DFF099327AE000AB19E077D44930FF059
:10975000D2A3088768F2011EFEC206695D5762F750
:10976000CB67658071366C19E7066B6E761BD4FE8D
:10977000E02BD3895A7ADA10CC4ADD676FDFB9F96A
:10978000F9EFBE8E43BEB717D58EB060E8A3D6D62C
:109790007E93D1A1C4C2D83852F2DF4FF167BBD15A
:1097A0006757BCA6DD06B53F4B36B248DA2B0DD85D
:1097B0004C1B0AAFF64A0336607A0441C3EF60DF00
:1097C00055DF67A8EF8E6E3179BE69468CB361CBE9
:1097D0001A8366BCA0D26F2536E2685295770CCC0E
:1097E00003470BBBB91602222F260555BE3BBAC54F
:1097F000280BBDB2925AB42B046AB35CA7FFD7C240
:1098000031CFD0B58B9ED92C1DAEDE5BB0C2649B30
:1098100026F263EC9CA36A750A936D02A906099C63
:109820003F360EEB8567077213570005824ABF95D6
:10983000147AB8E2AE2BB17B381BB60C9B8ED29259
:109840000DBED5E5B7EFDC7C21DFDB0BD4D2D386B0
:1098500042E2D4F1F8B3DD686E83DA1FCD16BE8123
:109860005B26B9F6E177B06F7747B718E65A0888F4
:10987000706A0FFFCA3B06665C0B0111FF9E658F85
:1098800069AE62F8D3FF6B6145CF6C1678E20AA02F
:10989000EED20DD75483044EC2B30339612667A7B5
:1098A000F71660D04D476949DB776E3E4A6AD1AE04
:1098B000DC5AD6D9660BDF40F03BD83753AEBCA993
:1098C000C59EBBDE7FCFB247E9FFB5301CF2BDBD00
:1098D0008AC2BACA3093B353A6A3B4240536D0BA09
:1098E0009306D7CD2957DE54BF67D9232E7A66B3A6
:1098F000B84A61C4021B685D942B6F2A37BE0BB453
:10990000A18E0CC31BDF055A8DEF022D636F6D6DA9
:109910006F6E00AA4400FF0002000000E1FFFF2775
:109920001A000028E3FFFF3F1B000040E5FFFF5F38
:1099300002000060E1FF036003000460E7FFFF63D3
:1099400003000064E7FFFF6703000068E7FFFF6BA9
:109950000300006CE5FFFF6F4950535F65204E4FD9
:1099600020504D49545B616464723A307825785DCB
:109970000D0A004950535F77204E4F20504D4954F7
:109980005B616464723A3078257820307825785DA0
:109990000D0A000000000000001000000010000090
:1099A0000010000001000000FF00000001020101A2
:1099B000F1530002115400024154000235540002D8
:1099C000000000006154000229550002C154000249
:1099D000155400021D540002295400027072696D72
:1099E0006172795F74666D5F6E73007072696D612C
:1099F00072795F637075305F61707000626C320005
:109A0000626C325F42007072696D6172795F616C85
:109A10006C007365636F6E646172795F616C6C007A
:109A20006F746100706172746974696F6E0073792C
:109A3000735F6F74705F6E76007379735F7073001D
:109A40007379735F697473007373007072696D6109
:109A500072795F6D616E6966657374007365636FBB
:109A60006E646172795F6D616E69666573740070B2
:109A70006172746974696F6E5F4200001194000234
:109A8000DC990002EB990002FC990002009A0002A6
:109A9000466C617368206F705F65206E6F74207014
:109AA00065726D69745B616464723A307825785DC3
:109AB0000D0A00466C617368206F705F77206E6FCF
:109AC00074207065726D69745B616464723A307899
:109AD00025785D0D0A0000000010000000800000E5
