:02000004020AEE
:101000000048062821110A02153500606D35006080
:101010009D350060CD350060FD3500602D360060E7
:10102000000000000000000000000000C567006034
:1010300089110A02000000008767006099110A0206
:10104000A1110A02A9110A02B1110A029D3600601B
:10105000C1110A02000000000000000000000000B2
:101060000000000000000000000000000000000080
:101070000000000000000000000000005D3600607D
:101080000000000000000000000000000000000060
:101090000000000000000000000000000000000050
:1010A0000000000000000000000000000000000040
:1010B0000000000000000000000000000000000030
:1010C0000000000000000000000000000000000020
:1010D000000000007D3600600000000000000000FD
:1010E0000000000000000000000000000000000000
:1010F00000000000000000000000000000000000F0
:10110000424B373233360000000000000000000080
:101110000000000000000000000000007D360060BC
:10112000124880F30A88124C124DAC4209DA216849
:101130006268A368043BA2BFC858D050FAE70C34D9
:10114000F3E70D4B0D4CA34208DA19685A680020EA
:10115000043AA4BF8850FBE70833F4E772B600F006
:10116000FBFA00F041F800F037F8000000440628D0
:1011700000140A0284140A0284140A02A4140A0243
:1011800000F03AF800F048B800F036F8FFF7FCBF7E
:1011900000F032F800F038B800F02EF8FFF7FCBF8E
:1011A00000F02AF8FFF7FCBF00F026F8FFF7FCBFBD
:1011B00000F022F8FFF7FCBF00F01EF800F004B8C2
:1011C00000F01AF8FFF7FCBF01B40248844601BCE6
:1011D000604700BF9D36006001B40248844601BCF0
:1011E000604700BFC931006001B40248844601BCB9
:1011F000604700BF3D32006001B40248844601BC34
:10120000604700BF9934006001B40248844601BCC5
:10121000604700BF8767006001B40248844601BC94
:08122000604700BFC5670060D4
:101240007FE97FE909F0F4BA7FE97FE909F0ECB9B9
:101250007FE97FE908F012BC7FE97FE909F0E0BD92
:101260007FE97FE908F065BB7FE97FE908F04ABFC5
:101270007FE97FE909F0ECBB7FE97FE908F0C0BCBA
:101280007FE97FE908F014BF7FE97FE908F0E8BE55
:101290007FE97FE909F068BF7FE97FE909F0CEBC0B
:1012A0007FE97FE908F0CCBA7FE97FE908F08ABFDF
:1012B0007FE97FE908F08CBD7FE97FE908F021BC78
:1012C0007FE97FE90AF010B87FE97FE908F084BB85
:1012D0007FE97FE909F07ABB7FE97FE909F04ABB42
:1012E0007FE97FE908F0BABA7FE97FE908F0E5BA5B
:1012F0007FE97FE908F05ABC7FE97FE908F0CEBCBE
:101300007FE97FE908F024BD7FE97FE908F077BB3A
:101310007FE97FE908F03DBC7FE97FE908F01CBB6D
:101320007FE97FE908F070BE7FE97FE908F0C8BB7C
:101330007FE97FE909F0CEBB7FE97FE908F03EBE97
:101340007FE97FE908F0ADBB7FE97FE908F034BDB4
:101350007FE97FE90AF0B6B87FE97FE908F072BB60
:101360007FE97FE908F09ABA7FE97FE908F0B6BA29
:101370007FE97FE909F018BE7FE97FE909F0E4BB66
:101380007FE97FE909F09EBC7FE97FE909F086BC2F
:101390007FE97FE908F0E8BD7FE97FE909F0C2BA9B
:1013A0007FE97FE909F012B87FE97FE908F0F8BA30
:1013B0007FE97FE909F090BA7FE97FE908F03CBD59
:1013C0007FE97FE908F08CBB7FE97FE908F086BC04
:1013D0007FE97FE909F02CBB7FE97FE908F04CBA8F
:1013E0007FE97FE908F058BD7FE97FE908F08ABD11
:1013F0007FE97FE908F08ABA7FE97FE909F0E6BB77
:10140000A0BF0C0200A007280003000060BF0C0270
:1014100060AE06284000000060BF0C02204806288D
:1014200000000000A4140A02C0010060A401000032
:1014300040120A0200000060C0010000C0180A0249
:101440008003006080260000403F0A02002A0060FE
:10145000C007000000470A02C0310060405400008D
:10146000409B0A02008600600024020040BF0C027C
:1014700000AA02600000000040BF0C0200AA026047
:041480002000000048
:1014840000A3072880350000A0AE062860F1000004
:1014940020480628400E00000048062804000000EA
:1014A40001015F5F03010000687002601F0100001A
:1014B400D1030060002000000000000001000000D3
:1014C4000100000000000000000000002870072850
:1014D40000000000700000007670026080000000D0
:1014E4000007000001000000FD030060010000008F
:1014F40001015F5F00010000817002601F000000B5
:101504004D2B0060000800000000000003000000F4
:10151400010000000000000000000000584E0628F2
:101524000000000080000000700000004200000085
:101534008B700260600000000107000001000000E1
:10154400012A00600100000001015F5F0101000049
:10155400A97002601F010000931200608006000061
:101564000000000000000000010000000000000076
:10157400000000007894072800000000B4700260A6
:1015840070000000020700000100000099120060D2
:101594000100000000015F5F04010000D9700260D7
:1015A4001F030000ED27006000050000000000009C
:1015B4000000000003000000000000000000000024
:1015C400F89A072800000000E9700260400000005B
:1015D40000050000010000000000000010000000F1
:1015E40006710260410000000005000001000000D7
:1015F40000000000200000001C7102604200000096
:101604000004000001000000000000004000000091
:1016140000015F5F0000000000000000FE03000006
:10162400916800600010000000000000000000004D
:1016340000000000000000000000000020A50728B2
:0416440000000000A2
:1016600082B00190019B5A1E0192002BFAD102B068
:101670007047364908B5D1F810314FF4FA7023F0AD
:10168000405343F0C043C1F81031FFF7E9FFD1F8F0
:1016900010314FF47A7043F00043C1F81031FFF776
:1016A000DFFF4B6A40F6B83023F0300343F02003ED
:1016B0004B620B6B43F400230B632549FFF7D0FF0C
:1016C0008B684FF4FA7043F001038B608B6823F052
:1016D00002038B601F4B0B6141F2C5434B61042336
:1016E0000B62FFF7BDFF0022CB6A4A6223F4F85376
:1016F00043F488538B6201230B620B6A13F00103DE
:10170000FBD14B6202230B62114B1A6A9107FCD486
:10171000DA6A04225A6202221A621A6A9207FCD416
:101720000421DA6A596222F4604242F400529A6259
:1017300001221A62064B196A11F00101FBD14FF424
:101740007A70FFF78DFF084608BD00BF0000014416
:1017500000000445434006D838B5FFF78AFF0C4C1B
:101760000C4AA24200D338BD5068B0F1C04F01D23C
:101770000C32F6E791680029FAD0136821F00301D2
:101780001944C01A8B42F3D01D68C5500433F9E7E1
:1017900084140A0200140A0208B500F071F84FF42C
:1017A000FA5000F075F8104B83F30A8800F038F80F
:1017B000B8B900F01DF8A0B900F042F888B900F0FF
:1017C00027F870B900F054F858B900F069F800F043
:1017D0002FF800F045F800F06BF800F039F8002021
:1017E00008BD00F00DF8F4E70044062800000000F2
:1017F00001B40248844601BC604700BF0D4100604F
:1018000001B40248844601BC604700BF25690060FE
:1018100001B40248844601BC604700BFAD4500608A
:1018200001B40248844601BC604700BFAD4E006071
:1018300001B40248844601BC604700BFC56800602F
:1018400001B40248844601BC604700BF8144006087
:1018500001B40248844601BC604700BFA566006031
:1018600001B40248844601BC604700BF19680060AB
:1018700001B40248844601BC604700BF27480060AD
:1018800001B40248844601BC604700BF815000603B
:1018900001B40248844601BC604700BF6950006043
:1018A00001B40248844601BC604700BF5D68006027
:1018B00001B40248844601BC604700BF5F68006015
:1018C00038B5036805481C68DD6803F0A3F92A46AB
:1018D0002146034803F09EF9002038BD30280060FF
:1018E0004C28006038B500250448294600F5E0443E
:1018F000226865600AF029F9256038BDA0EE062847
:10190000024B5B6803600020704700BFA05E0728A1
:1019100008B500F0CBF868B94FF48041064813F0E1
:101920003DFB0AF039F918B9BDE8084015F0FCBDD7
:101930006FF0920008BD00BFA0AE06282DE9F04F61
:10194000056804469FB0002D40F0A680202229465D
:1019500001A80AF0FAF811AE2022294609A80AF0D7
:10196000F4F83422294630460AF0EFF8042304F153
:101970001C0252F804191F46013B71B3342332464E
:10198000002160680AF036F8342828D1119B402BDA
:1019900025D80125DFF80891CDE9016004F114088C
:1019A00001AE09F5E04ABD421FD3042604F12C0321
:1019B00053F80429B446013EB2B30026394A04F173
:1019C0002001136809A801EB8C08A2F5E049414504
:1019D00043D106B11360664628E0002BC9D16FF0F1
:1019E000830528461FB0BDE8F08F58F8043BDAF8AD
:1019F0000020D81C20F00300C2F5E041884204D941
:101A0000FFF770FF6FF08C05EBE7104402EB090B5A
:101A10002946CAF800005A46606809F0EBFF013514
:101A2000F06046F808BFBEE7002EC1D1A2681D4B8A
:101A300039465A60119A1C4B01A853F8225033467C
:101A400009AAA847002705460DF12408B74208F166
:101A5000080819D1FFF746FFC3E751F804EBC3F5B7
:101A6000E04A0EF1030525F00305554500F1080095
:101A700006D803EB090640E9026E2B440126A6E7CF
:101A8000002EBDD01360BBE7394658E902236068D9
:101A900009F0B2FF0137D9E76FF08505A1E700BF74
:101AA000A0EE0628A05E07286028006008B54FF465
:101AB0008C52002102480AF048F8002008BD00BFFF
:101AC000A85E07280023F7B5074601A80E4615466D
:101AD0000193FFF715FFA0B93368A3B1082B30D8E5
:101AE0004FF40C71013B4B43194AD118D358012BC9
:101AF00027D14A68019B9A4214BF6FF087006FF0AC
:101B0000880003B0F0BDFDB14FF40C7C104A2B608F
:101B10000CFB03F4A1589E46013369B94FF0010E46
:101B200002EB040C42F804E0019910341444CCE9AF
:101B3000011733602C60E4E7082BE9D16FF08400D3
:101B4000DFE76FF08700DCE76FF08600D9E700BFC2
:101B5000A85E07280023F7B50568064601A801938B
:101B6000FFF7CEFE044620BB013D072D24D84FF4DD
:101B70000C736B43124FF958FA1801291CD15068A5
:101B80000199884218D11033F81893680021013B5D
:101B9000042B96BF0B4A224632F8132009F0D5FFDA
:101BA0004FF40C735D4300237A19C2E901337B5172
:101BB0003360204603B0F0BD6FF08604F9E700BF44
:101BC000A85E072864290060002373B5064601A8B3
:101BD0000C4615460193FFF793FEA0B9611E072935
:101BE00013D84FF40C725143094B5C585A18012C0E
:101BF0000BD19468B44208D15468019A944204D13C
:101C000010311944296002B070BD6FF08800FAE706
:101C1000A85E07282DE9F341144600220129054654
:101C2000019208461ED1013B012B1BD86B68342B57
:101C300018D16368042B15D1D4E902782B68266883
:101C40001D6901AA29463560FFF7BEFF38B9424633
:101C500039460198356004F10C0315F029FA02B0F9
:101C6000BDE8F0816FF08000F9E737B5044618460B
:101C7000002301390129019318D8012816D163687E
:101C8000342B13D15368042B10D12368D4E90254A8
:101C90001969136801AA1960FFF796FF20B9224657
:101CA0002946019815F004F903B030BD6FF08000AB
:101CB000FAE72DE9FF410446184600230129009365
:101CC0002BD1012829D15368042B26D16368342BEA
:101CD00023D12368166819696A46D3E902870191FE
:101CE00001A9FFF7EFFE044698B9019B02AD294612
:101CF0004046336000F09DFA044638B995E8060086
:101D00003B46009815F0BCF8044610B13046FFF78A
:101D100021FF204604B0BDE8F0816FF08004F8E7B1
:101D20002DE9FF41044618460023012900932BD1D9
:101D3000012829D15368042B26D16368342B23D181
:101D40002368166819696A46D3E90287019101A9D7
:101D5000FFF7B8FE044698B9019B02AD29464046FC
:101D6000336000F066FA044638B995E806003B4651
:101D7000009815F091F8044610B13046FFF7EAFEDE
:101D8000204604B0BDE8F0816FF08004F8E72DE94B
:101D9000FF411446002201390129039222D8013B58
:101DA000012B1FD84368342B1CD16368042B19D135
:101DB000D0E90256D4E90278036801201969236842
:101DC0001960E26003AAFFF7FFFE40B90C343B46FE
:101DD00032462946CDE90084039815F087F804B00F
:101DE000BDE8F0816FF08000F9E72DE9F341154679
:101DF0000022012904460192084624D1013B012B0F
:101E000021D86368342B1ED16B68042B1BD1D5E914
:101E1000027823682E6819693160EA6001AAFFF729
:101E2000D3FE044658B942463946019805F10C03E1
:101E300015F076F8044610B93046FFF78BFE2046C1
:101E400002B0BDE8F0816FF08004F8E737B50024F8
:101E500001290546019418461ED1012B1CD16B683F
:101E6000342B19D15368042B16D12B6815681969C6
:101E700001AA2960FFF7A8FE38B9019814F05EFFA7
:101E80000446284624B1FFF765FE204603B030BD66
:101E9000FFF760FE0446F8E76FF08004F5E72DE9F0
:101EA000F04701390129144686B01ED8012B1CD1F8
:101EB0004368342B19D1D0E90278D2E9009A03683B
:101EC00004AD29469868DE6800F0B3F950B90434CF
:101ED000CDE902A4CDE900893B4695E803003246EE
:101EE00015F020F906B0BDE8F0876FF08000F9E743
:101EF0002DE9F04701390129144686B01ED8012B7F
:101F00001CD14368342B19D1D0E90278D2E9009A68
:101F1000036804AD29469868DE6800F08AF950B974
:101F20000434CDE902A4CDE900893B4695E80300DD
:101F3000324615F011F806B0BDE8F0876FF080006A
:101F4000F9E773B500240129009422D1012B20D197
:101F50005368042B1DD14368342B1AD101681568CE
:101F60000B69CE6801936A4603202B6001A9FFF735
:101F7000A9FD044650B9019B314600982B6014F02E
:101F8000C1FB044610B12846FFF7E4FD204602B02D
:101F900070BD6FF08004F9E737B5002401390129DD
:101FA000019419D8012B17D14368342B14D15368ED
:101FB000042B11D1D0E90245036803201969136885
:101FC00001AA1960FFF700FE20B92A4621460198B0
:101FD00014F0B7FB03B030BD6FF08000FAE72DE9D5
:101FE000F341154600220129019225D1013B012B25
:101FF00022D84368342B1FD16B68042B1CD1D5E940
:10200000027803682E68196903203160EA6001AA2A
:10201000FFF7DAFD044658B942463946019805F102
:102020000C0314F0A2FB044610B93046FFF792FDF2
:10203000204602B0BDE8F0816FF08004F8E7F7B504
:10204000002401390129019420D8012B1ED14368B5
:10205000342B1BD15368042B18D1D0E902670368D5
:10206000156819690320296001AAFFF7ADFD044630
:1020700048B93A463146019814F088FB044610B935
:102080002846FFF767FD204603B0F0BD6FF08004DF
:10209000F9E737B50024012901941FD1012B1DD187
:1020A0004368342B1AD15368042B17D10368156881
:1020B00019690320296001AAFFF786FD38B9019844
:1020C00014F015FB0446284624B1FFF743FD2046D3
:1020D00003B030BDFFF73EFD0446F8E76FF0800423
:1020E000F5E713B500240129CDE900441BD1012BEC
:1020F00019D14368342B16D15368042B13D10368CC
:10210000146803206A461969FFF75EFD48B9214645
:10211000032001AAFFF7D6FC18B9DDE9000114F08D
:1021200074FB02B010BD6FF08000FAE773B501399F
:1021300001290546144613D8012B11D84368342BC6
:102140000ED1D5E9021200260368D868D4E900351B
:1021500044F8046FCDE9005414F046FB02B070BDA2
:102160006FF08000FAE72DE9F047013901291446A4
:1021700086B01ED8012B1CD14368342B19D1D0E96D
:102180000278D2E9009A036804AD29469868DE68AF
:1021900000F04FF850B90434CDE902A4CDE900892C
:1021A0003B4695E80300324614F041FB06B0BDE81B
:1021B000F0876FF08000F9E72DE9F0418846164678
:1021C00007468AB000B3FAB135466C462822002192
:1021D000684609F0BAFC0FCC0FC50FCC0FC594E8C8
:1021E000030085E8030000203B8833807B68736030
:1021F000FB6833613B6973617B887380BB68C6E9A8
:1022000002380AB0BDE8F0816FF08000F9E730B520
:1022100061B158B1D0E901230468D0E90405C1E9EE
:1022200003050020C1E900428B6030BD6FF08000E3
:10223000FBE7002337B5054601A80C460193FFF7DD
:102240005FFB18B924B1019B2560636003B030BD0A
:102250006FF08000FAE72DE9F047013901291446B3
:1022600086B01ED8012B1CD84368342B19D1D0E975
:102270000278D2E9009A036804AD29469868DE68BE
:10228000FFF7D7FF50B90434CDE902A4CDE90089A6
:102290003B4695E80300324614F02AFB06B0BDE841
:1022A000F0876FF08000F9E72DE9F0470139022946
:1022B00086B01CD8DBB94368342B18D1D0E902783A
:1022C000D0E9049A056804AC2146A868EE68FFF7D7
:1022D000B0FF48B9CDE9019ACDF800803B4694E8BB
:1022E0000300324614F064FB06B0BDE8F0876FF0DF
:1022F0008000F9E72DE9F04F01390229144697B023
:1023000047D8012B45D84368342B42D1D0E902830A
:10231000D4E900B607930369026808934369D2E9D8
:102320000297002128220CA80AAD099309F00DFCA0
:1023300029464846FFF77DFF40BB95E803000CAAFD
:1023400013F055FF10BB0CA8BDF830A0BDF83290BB
:1023500015F03AF944F201012AF440528A4204D1BC
:1023600009F10703B6EBD30F16D3099B043402938C
:10237000089BCDE904640193079BCDF80CB0009352
:102380003A4695E80300434614F0C2FB17B0BDE897
:10239000F08F6FF08000F9E76FF08900F6E72DE924
:1023A000F04F0139022914468BB025D8012B23D8D0
:1023B0004368342B20D1D0E90278D0E9049AD4E9DB
:1023C00000B3026808AD29469068D6680793FFF706
:1023D00030FF70B9079BCDE9019ACDE903B304340E
:1023E0000594CDF800803B4695E80300324614F092
:1023F0001FFC0BB0BDE8F08F6FF08000F9E72DE90E
:10240000F04701390129144686B01ED8012B1CD88B
:102410004368342B19D1D0E9027AD2E900890368E4
:1024200004AD29469868DE68FFF703FF50B904340D
:10243000CDE90294CDE900A83B4695E80600304678
:1024400014F00EFF06B0BDE8F0876FF08000F9E7EA
:10245000F0B5023901298FB029D8012B27D1436863
:10246000342B24D1C368142B21D15368042B1ED1E3
:10247000D0E90456876814680021282204A809F0CE
:1024800064FB002301A80193FFF73AFA68B93846C4
:10249000019904AAFFF790FE38B902AB32462946EB
:1024A00004A814F011F8029B23600FB0F0BD6FF088
:1024B0008000FAE730B5022985B020D1012B1ED16A
:1024C0004368342B1BD1C368042B18D15368042BE9
:1024D00015D1836801A81D68002314680193FFF7D4
:1024E0000FFA50B9019B0295039302AA92E80300E8
:1024F00016F005FC08B9029B236005B030BD6FF0F3
:102500008000FAE701291FB514D19BB94268342A2B
:1025100010D1026801A894680193FFF7F1F938B966
:10252000019B0294039304AB13E9030016F005FC2E
:1025300004B010BD6FF08000FAE701291FB514D177
:102540009BB94268342A10D1026801A894680193AB
:10255000FFF7D6F938B9019B0294039304AB13E952
:10256000030013F019FE04B010BD6FF08000FAE70D
:1025700070B501298EB02BD1012B29D14368342BA2
:1025800026D15368142B23D103680021156804A8B1
:1025900028229E6809F0D9FA002301A80193FFF7C9
:1025A000AFF9044688B9019B3046194604AA029641
:1025B000039313F01CFE044638B9294604A8FFF71C
:1025C00026FE044604A814F0FFFF20460EB070BD9E
:1025D0006FF08004F9E710B501298CB020D1012BF0
:1025E0001ED14368342B1BD15368142B18D11468A7
:1025F0000021282202A809F0A8FA01A8FFF780F913
:1026000060B92046019902AAFFF7D6FD30B902A8A9
:1026100014F0DAFF214602A8FFF7F9FD0CB010BD57
:102620006FF08000FAE7F0B50129144687B01CD19D
:10263000012B1AD84368342B17D1D2E9005603680E
:1026400003A89F6800230393FFF75AF958B9039B27
:10265000043405930497009406A9334611E9030056
:102660002A4613F073FE07B0F0BD6FF08000FAE762
:10267000F0B50129144687B01CD1012B1AD8436844
:10268000342B17D1D2E90056036803A89F680023B2
:102690000393FFF735F958B9039B04340593049766
:1026A000009406A9334611E903002A4613F0D1FE2F
:1026B00007B0F0BD6FF08000FAE701291FB514D113
:1026C0009BB94268342A10D1026801A8946801932A
:1026D000FFF716F938B9019B0294039304AB13E991
:1026E000030016F047FB04B010BD6FF08000FAE75E
:1026F00070B5022990B02DD1012B2BD14368342B1A
:1027000028D15368042B25D1C368142B22D1036828
:10271000146886682822002106A89D6809F015FA29
:10272000002301A80193FFF7EBF888B9304601991F
:1027300006AAFFF741FD58B9019B28460593059964
:1027400002AB06AA049513F02EFF08B9029B236082
:1027500010B070BD6FF08000FAE730B502298FB07D
:1027600026D1012B24D14368342B21D1C368142BEB
:102770001ED15368042B1BD11468856828220021C0
:1027800004A809F0E2F9002301A80193FFF7B8F8C3
:1027900060B92846019904AAFFF70EFD30B902A9D5
:1027A00004A814F0EEFD08B9029B23600FB030BD01
:1027B0006FF08000FAE7012908D1012B06D84368A1
:1027C000342B03D1D2E9000114F04EBC6FF080002D
:1027D000704700F0C7B800006FF47A72F0B54A4B4A
:1027E0000446186003688DB01344032B00F28980FF
:1027F000DFE803F0022A5073002300220021CDE914
:10280000082303690691082B02D06FF0800561E070
:102810008569042DF9D1466908AA406809F0EAF8EB
:102820000828F2D12B460221606806AA09F0E2F8D6
:102830000428EAD1069BA068CDE90063DDE90823FE
:1028400000F008F9054645E0002300220021CDE90B
:10285000082303690591082BD7D14569042DD4D1EC
:10286000066A08AA406809F0C5F80828CDD12B46A9
:102870000121606805AA09F0BDF80428C5D106AB9E
:10288000CDE90163059BA0680093DDE9082300F012
:1028900035F9D7E700230022CDE906230369082B89
:1028A000B3D1076A0C2FB0D10021406806AA09F005
:1028B000A1F80828A9D1DDE9062308AEA068009692
:1028C00000F070F9054628B901463B46324660687B
:1028D00009F092F828460DB0F0BD00230022CDE9A2
:1028E00008230369082B90D10021406808AA09F049
:1028F00081F8082889D1DDE90823A06800F078F97B
:10290000A0E76FF08505E5E7289007280B46044906
:1029100010B40C6802460121606810BC09F06AB866
:10292000289007280B46044910B40C680246002181
:10293000606810BC09F060B8289007281FB5084CE3
:10294000CDE90023039003A90422204609F083F86F
:1029500008226946201D09F07EF804B010BD00BFB2
:102960005C94072870B5354B86B09E6AB047036902
:10297000012B03D06FF0800006B070BDB047304C23
:102980008368A360B047037D6846237604F09EFE0B
:102990000028EFD1009BA26863609DF80830534384
:1029A000019AE360B2FBF3F32382B0470369012B82
:1029B000E0D1B047234D8368AB60B047037D03A8E7
:1029C0002B7604F071FE0028D4D1039BAA686B60BB
:1029D0009DF8143021465343049AEB60B2FBF3F3A5
:1029E00019481A4A2B8200F03AFA0028C4D1164836
:1029F00000F075FAB0B9154A1249154800F02FFADF
:102A00000028B9D1124800F06AFA0028B4D0104862
:102A100000F07FFA0028AFD10D4806B0BDE8704045
:102A200000F05DBA084800F074FA0028A4D1064806
:102A300000F055FA00289FD1DDE700BF047D00605B
:102A400060AE06287CAE06282C9407287C290060FE
:102A5000449407282DE9FF4752EA03010546DDE9C2
:102A60000C643BD034F007083BD1FFF767FF1E4FE3
:102A70001E4B1F49B5F5807F18BF1F461D4D3846B8
:102A80002A4600F048FA28B9AB68DB0705D56FF095
:102A9000840020E010F18C0F1DD144F4403ADFF89F
:102AA0005090154CB6F5806F354628BF4FF48065C1
:102AB00011482946FFF72AFF334652464946384611
:102AC000CDE90184009500F049FA20B9761B2AF47B
:102AD000403AA844E6D104B0BDE8F0876FF0860024
:102AE000F9E76FF08500F6E7449407282C9407284F
:102AF0005C940728689407282C9007282DE9F74F45
:102B000052EA030104460C9EDDF838903DD0FFF7F1
:102B100015FF1F4F1F4B2049B4F5807F18BF1F467C
:102B20001E4C3846224600F0F6F9054600BB2468E4
:102B3000B4422AD30D9BA41B9C4228BF1C46DFF83D
:102B40006080DFF854A0C9F80040B4F5806FA34658
:102B500028BF4FF4806B33465A4651463846CDF86D
:102B6000008000F0F4FA054630B10023C9F80030C7
:102B7000284603B0BDE8F08F59464046FFF7D2FE25
:102B8000B4EB0B045E44E0D1F2E76FF08605EFE7AB
:102B9000449407282C9407285C94072868940728F5
:102BA0002C90072870B552EA03010646049C13D006
:102BB000FFF7C4FE0A4D0B480B4B2A46B6F5807F43
:102BC00018BF1846094900F0A6F920B92B68C4E9D6
:102BD0000033AB68A36070BD6FF08600FBE700BFF9
:102BE00068940728449407282C9407285C940728A5
:102BF00052EA030138B5054617D0FFF79FFE0E4C89
:102C00000E4B0F49B5F5807F18BF1C460D4D204671
:102C10002A4600F080F950B9AB68DB0708D420469B
:102C2000BDE83840064900F083BA6FF0860038BD31
:102C30006FF08400FBE700BF449407282C9407281A
:102C40005C9407286894072808B5036800209B68EF
:102C50009847002818BF6FF0910008BDF8B51D46D1
:102C6000036804465B680E46174698470B4BC0F353
:102C7000410013F8202063680699E0681D4423682A
:102C8000B1FBF2F200FB065039469B6998470028D9
:102C9000B4BF6FF091000020F8BD00BF7029006044
:102CA0000020704770B504460E460025E368AB422D
:102CB00001D8002070BD606806FB0300236828442B
:102CC000DB69984710B9A3681D44EFE76FF09100E6
:102CD000F0E700002DE9F3470A9C80469146002C5E
:102CE00054D04668C2681E44036802FB01665B68F4
:102CF0009847274BC0F3410013F82070B6FBF7F557
:102D00007D43AE421ED0D8F80030012228465B69D0
:102D100001A99847002804DA6FF0910002B0BDE8DD
:102D2000F087711B63189F428EBF2546BB1BED18B1
:102D300001AB2A464846194408F08DFE641B02D1B7
:102D40000020EBE70025A74210D8B4FBF7FAD8F82B
:102D5000003052465B6909EB05017019984700285D
:102D6000DADB0AFB07F7E41B3D44E9D0D8F8003072
:102D700001225B6901A9701998470028CCDB224623
:102D800001A909EB050008F066FED9E72046C5E772
:102D9000702900602DE9F04F03688BB002AA044649
:102DA0000D46DF6800F02FFC30BB07A800F011FFD4
:102DB0000146002850D1DDE9026A202202A8DDF890
:102DC000149008F0C2FE2946204602AA00F054FDE5
:102DD00090B9834680462368DB8A5B450FD83B4623
:102DE0004A4631462046CDE900A800F0DFF918B97F
:102DF00056BB204600F0F2FB0BB0BDE8F08FAB45B0
:102E00001FD05946204602AA00F0FDFB0028F3D14E
:102E1000029BB3420ED107A800F0DBFE50B9039B22
:102E2000534507D99F4228BF1F46A3EB09030393CD
:102E3000059B98445946204602AA00F01DFD002833
:102E4000DAD10BF1010BC6E7204600F05DFE002849
:102E5000CFD06FF08300CFE76FF08B00CCE7F8B5F1
:102E60000D4617460646B8B3B1B3AAB3098AB5F8FA
:102E700014C00129EA68EB8A28D9032929D0002443
:102E8000022907D1A2F11400A0EB4310604538BF1E
:102E90006FF08604944588BF6FF08604022908BF4E
:102EA00001214FF00C004FEA431318BF02390833D9
:102EB00000FB01339A420FD334B918222146304621
:102EC00008F043FEC6E900572046F8BD6FF08604BF
:102ED000D6E76FF08604DDE76FF08604F4E737B5D8
:102EE000054600F0B5FD044658B94FF080712846FC
:102EF00001AA00F0E4FB38B928460199FFF74AFF20
:102F00000446204603B030BD10F18C0F18BF0446B4
:102F1000F7E700F0C1BC70B58AB0144601AA0646B6
:102F20000D4600F0ABFB18B16FF08B000AB070BD1E
:102F30003046019902AA00F066FB0028F6D10C2267
:102F4000284607A908F077FD0028EDD1059B6360AE
:102F5000049B2360BDF81830A360E7E72DE9F04734
:102F600092B00AAF1646DDE91A8504468A46202249
:102F700000213846994608F0E8FD4FF6FF7316F039
:102F80007F4FCDE9053304D06FF0860012B0BDE865
:102F9000F0875146204605AA00F070FB002840F05B
:102FA0008B803A462046059900F02DFB10B16FF05A
:102FB0008B00EBE7B203059904D50D9B4B456ED111
:102FC0000C900E9606914FF6FF73069A9A427BD1AB
:102FD00023689B8A4B45D7D3059907AB8A1ACDE95D
:102FE000027306AB18BF0122CDE9006351464B4680
:102FF000204600F0DCFB0028C8D1B8F1000F6BD1EF
:1030000020460A9907AA00F096FD002851D106999A
:103010003A46204600F030FC0146002849D1DDE95F
:1030200005539D4228BF1D4620462A4600F0FAFC63
:1030300000283ED14FF6FF72059B93420FD0069AAF
:1030400093420CD09A4238BF1A462046691C00F0C1
:10305000E9FC70BBDDE905539D4238BF1D4623687E
:103060002046DA8A691C00F0DDFC10BB0A9B002BAD
:1030700058D1B8F1000F55D0204600F0AFFA002823
:1030800084D14FF6FF73059999423FF47FAF069BB9
:1030900099423FF47BAF2046FFF77CFE76E70E9B1C
:1030A0003A4643F0807320460E9300F0E5FB00287B
:1030B00089D06FF0830069E710F18C0F7FF466AF61
:1030C000F3037FF574AF7EE720460A9907AA00F064
:1030D00014FB002891D0ECE70C9B9D42E9D84246B6
:1030E00029460D9800F069FD0028E2D11C9B3A4664
:1030F000CDE9008320462B4607A900F0CCF8002834
:10310000D7D10C9B45449D420A99204688BF0C9517
:10311000079D00F05EFA294607900A9A204600F0C3
:10312000A8FB6DE7204600F0EFFC0028A4D0C0E724
:1031300013B501AA044600F0A1FA28B92046019966
:10314000FFF728FE02B010BD6FF08B00FAE7F0B574
:103150008DB0164603AA04460F461D4600F08EFAAF
:1031600018B16FF08B000DB0F0BD2046039904AA92
:1031700000F049FAB8B90C22384609A908F05BFCFE
:103180000028EED132462946069800F016FD0028A8
:10319000E9D1129B2A4600932046334604A900F049
:1031A00059F80028DFD06FF08300DCE72DE9F04705
:1031B00086B01646DDE90E8A03AA05460F469946F3
:1031C00000F09BFA044660BB059A39463244284613
:1031D000059200F0FEF90646BAF1000F15D1049AE7
:1031E000424522D33A462846039900F042FB39462D
:1031F000284603AA039600F09EFC044608B33A460C
:103200003146284600F035FB0BE001464246284691
:10321000CDE9009A039B00F0D7FB0028DFD06FF0C8
:103220008304204606B0BDE8F087A8EB0203CDE991
:10323000002331462846039B00F0C6FB0028D1D06E
:10324000EDE7002FEDD06B683146DB6828689847C2
:103250000446E6E72DE9FF410D461646096801AA36
:1032600004461F46DDF8288000F047FA70B901993E
:103270004B1C0BD062686B680A9755684246AC4697
:103280002068334404B0BDE8F04160476FF083002C
:1032900004B0BDE8F0812DE9F3471546DDE90AA940
:1032A0000F4698461168044600F093F96B687A68F7
:1032B0009844A8EB020306460146CDE900232046C8
:1032C0003B6800F081FB20BB6368CDF800A0D3F819
:1032D00008A04A46434631462068D047C8B9EB6843
:1032E0006A68B9681A4423682046DB685B1A9B1A2F
:1032F000CDE9002331463B6800F066FB48B92B68F6
:103300003BB1314663682068DB6802B0BDE8F04736
:10331000184702B0BDE8F08713B50C2404FB01F395
:10332000416800948C68083341690068A04702B086
:1033300010BD008A022814BF03380020704708B56A
:10334000FFF7F7FF0C2300FB033303EB41100830BA
:1033500008BD2DE9F04F002405460F46904626464D
:103360004FF00C098BB0D5F800A05046FFF7E1FFF5
:10337000013086420ED300264FF02009D5F800A078
:10338000BAF816309E421DD3002088F800400BB0DA
:10339000BDE8F08F09FB06F36A68CDF80090D2F81B
:1033A00004B039465046083302AAD8470028EED167
:1033B00002AB13F8012B01300C2884EA0204F8D187
:1033C0000136D0E731465046FFF7B9FF6A68CDF8BD
:1033D00000900346D2F804B03946504602AAD847B6
:1033E0000028D4D102AB13F8012B0130202884EA45
:1033F0000204F8D10136C1E737B5837B01685A1C56
:10340000D2B28273097E04469142416904BF0233FD
:103410008373012900F10D020DD8FFF79AFF40B91F
:103420000822636800929D6861690346A2182068BB
:10343000A84703B030BD6FF08600FAE713B50C461D
:1034400011462279012A09D0022A04D10368A279FF
:103450001B7E9A420CD16FF0830007E0036862790B
:103460001B7E9A420CBF6FF08300002002B010BD9B
:1034700001290DD80DF10702FFF76BFF0028F5D1E8
:1034800062799DF807309A4218BF6FF09100EDE71E
:103490006FF08600EAE70822F0B5436887B0009233
:1034A0005C6800236A44054619460068A047024646
:1034B000002836D000264FF0FF3408226B680092B7
:1034C0005F6801210023286804AAB847002835D185
:1034D0000122284604A9FFF7B1FF78BB66B32B6829
:1034E0009DF816201B7E9DF80E10B3FA83F35B093E
:1034F0009A4203D1501CC0B2814209D1994203D1F2
:103500004B1CDBB29A4215D191422CBF00260126FA
:1035100034462C61B4FA84F4002064096C6107B06D
:10352000F0BD284602A9FFF789FF04460028C1D153
:103530000126C2E70026EBE70124EAE7002EE8D1E6
:103540006FF08300EBE7F0B50025C3B00446FC2222
:10355000294603A8029508F0F8FA4FF480726368D0
:1035600000925E6861692B46206802AAB04702AEED
:10357000334613F8012BFF2A23D10135B5F5807F9F
:10358000F7D12068038A022B12D9D4E901354FF410
:10359000807200925F682946002302AAB847002380
:1035A00016F8012BFF2A06D10133B3F5807FF7D13E
:1035B000002043B0F0BD636829461B692068984726
:1035C000F7E7636861691B69206898470028D8D0CD
:1035D000EFE709B9406970478068704710B5044645
:1035E000FFF70AFF70B963686169DB682068984774
:1035F00040B9D4E904232046C4E90432BDE81040B0
:10360000FFF7A1BF10BDF7B5066805463046FFF7C6
:1036100096FE03462020696800904F68304629696D
:103620001446B847064640B92868FFF782FE23686B
:103630000130834204D36FF09706304603B0F0BDEB
:1036400004F1140000F0C5FA0028F6D12D68E268F4
:10365000AB8A9A42EFD8A3689A42ECD3D4E90037F8
:103660002BB92846E98AFFF76AFE8742E3D3394639
:10367000E86800F0A2FA0028DFD0DCE7F0B50546E4
:103680000E461746002489B02B68DB8AA34202D875
:103690006FF08B000CE06A4621462846FFF7B3FF27
:1036A00050B90C22314605A808F0C5F910B93C60A4
:1036B00009B0F0BD0134E7E76FF08300F8E7F0B53B
:1036C00005460E461746002489B02B68DB8AA342C4
:1036D00002D86FF08B0009E06A4621462846FFF7C2
:1036E00092FF38B9049B1E4202D03C6009B0F0BD85
:1036F0000134EAE76FF08300F8E773B506460C2063
:1037000000FB01F3716800904C6830683169083340
:103710001546A0470446B8B9336829681A8A914209
:1037200010D2D5E90112D86800F047FA044648B92A
:103730002B68012B03D83068C18AFFF700FE6B6845
:10374000834201D06FF09704204602B070BDF7B5F8
:103750000C2606FB01F3416800964F6808330169A7
:10376000054600681446B8470346E8B92B68216847
:103770001A8A914216D2D4E90112D86800F01DFAD3
:10378000034678B92268012A09D82A681046FFF74B
:10379000D0FDD18A00FB0660490108310844626807
:1037A000824201D06FF09703184603B0F0BD2DE9B7
:1037B000F04F06468B4691469846002789B0DDE9D2
:1037C000145A3068FFF7B5FD0130874202D36FF01D
:1037D0008D0421E0524639463046FFF78EFF0446FD
:1037E000002835D1DAF8082090452FD8336859469B
:1037F000DB682F609B1A6B600C22C5F80C8005F10A
:10380000140008F028F9129BAC602B61DAF808303C
:10381000A3EB0803CAF8083000253368DB8A9D4211
:1038200005D26A4629463046FFF7EDFE98B14FF6BD
:10383000FF75139B1D60CCB94FF6FF739D4208BF07
:103840006FF08D04204609B0BDE8F08F0137B8E76E
:103850006FF08304E0E705A800F0BBF920B1B9F1EF
:10386000000FE6D14FF001090135D6E76FF08D0466
:10387000E8E702B18160704773B5056804462846E1
:10388000FFF75DFD03462020616800908E682846A2
:103890006169B04702B070BD70B58CB00546FFF7E6
:1038A000FAFD002861D16E696B6831461B69286892
:1038B00098470446002878D1B6FA86F16B682868E4
:1038C0001B6949099847044600286ED12A680126D9
:1038D000137EB3FA83F35B09AB73138AC5E904065D
:1038E000022B0CBF01230223AB6002232B73D18A6E
:1038F0001046FFF724FDD3680290181A2146039062
:1039000001AA28460196FFF707FD044600284CD17E
:1039100006462B680290DB6803932B681846FFF776
:1039200008FDB04223D8002C4BD12B681846FFF776
:1039300000FDA04228D82022002104A808F005F9A3
:1039400000242B68DB8AA34232D82846FFF754FDB7
:1039500048BB6B686969DB6828689847044620BBE8
:10396000D5E90423C5E904321FE000269CE7198A43
:103970006A6802290CBF00210321184631441269EC
:10398000904701360443C8E71B8A2846022B0CBF28
:103990000023032323440134214601AA0193FFF7A6
:1039A000BBFC0028C1D06FF0830420460CB070BD72
:1039B0002146284604AAFFF75FFF0028F3D101340F
:1039C000BFE76FF09104F0E72DE9F04F0446884619
:1039D00016469946C3B0DDE94CA51DB9284643B04B
:1039E000BDE8F08FB5F5807F2F4628BF4FF4807774
:1039F00063680097D3F804B049465346206802AA8A
:103A0000D8470028EBD163680097D3F808B0414647
:103A10003346206802AAD8470028E0D13E44BA4481
:103A2000ED1BDAE773B5066804463046FFF787FCFE
:103A30001546024629463046FFF781FCD4E9043199
:103A4000801ACDE900202046FFF7BEFF02B070BD0E
:103A50002DE9F041436805461B68006886B0984729
:103A6000044628B92846FFF716FD28B16FF08304F5
:103A7000204606B0BDE8F08108266B6805F108070E
:103A80000096D3F804803A46234629692868C0473F
:103A90000028EBD1394628462A69FFF7CFFC0028D9
:103AA000E4D12846FFF74FFD04460028DED12B7BEA
:103AB000012B24D1014603AA2846FFF748FE0446FD
:103AC0000028D5D1059B2A68C3F1FF23D26803F5EE
:103AD0007F03F8331344CDE90063324628462B694F
:103AE0006969FFF771FF04460028C1D16B7B284646
:103AF000AB7302232B73FFF771FD0446B8E7022B6B
:103B000018BF6FF08304B3E710B586B0002103AA95
:103B10000446FFF7F2FD60B9049A2068059BD118AE
:103B2000C36820465B1ACDE90023D4E90431FFF7CE
:103B30004BFF06B010BDF0B504460D4687B009B97D
:103B40004369136029462046FFF7E6FB0146D0B9DA
:103B5000D4E904768DB90C2200212068FFF7EFFB31
:103B600005FB02220832801ACDE900203B4631468F
:103B70002046FFF729FF07B0F0BD204603AAFFF754
:103B8000BCFD014610B16FF08300F4E7204603AAA4
:103B90000396FFF7C1FB0028F5D1012DDBD00C23E4
:103BA00014226B430C3B019331463B462046009266
:103BB000FFF70AFF0028CED0DDE7814206D8401A81
:103BC000904234BF6FF08600002070476FF086008F
:103BD000704700F10C03984202D16FF08B007047E0
:103BE00010F8012B002AF6D00020704708B500F02D
:103BF00075F9002008BD30B505468DB030220C4661
:103C00006846002107F0A1FF6946284607F0F0FE4C
:103C1000009B002B04DA02330BDA07F0F1FE0CE014
:103C200003D0A3F2F233012BF7D86846A047014630
:103C300000E00021019807F0E1FE0DB030BD00006A
:103C4000002337B50446042201938DF8033000F1B8
:103C50001C0353F804091146013A08B10A4601E071
:103C6000002AF6D1042104F12C0353F80459084624
:103C700001390DB1014601E00029F6D140F2F230E0
:103C80002368834226D040F2F330834202D1236975
:103C9000042B01D001251AE0012AFBD10029F9D11A
:103CA000606801AA07F0A6FE23698342F2D1019859
:103CB0000228EFD81C4B53F82020A3689342E9D187
:103CC000002BE7D003F033FD051E18BF0125284661
:103CD00003B030BD2369042BDCD1012ADAD10129DC
:103CE000D8D10021606801AA07F084FE23698342CD
:103CF000D0D101980228CDD80B4B53F82020A368CF
:103D00009342C7D1002BC5D0216A0DF1030203F005
:103D100003FD05460028BDD10146236A60680DF108
:103D2000030207F069FED2E79029006038B503F07E
:103D3000F1FC08B107F064FE0B4C0C4D4FF0004154
:103D40004FF0FF3007F052FEC20604D5294610207E
:103D5000FFF751FFF2E7430602D521464020F7E77F
:103D600007F04EFEEAE700BF01270060AD260060C5
:103D70004572723A6D757374207265616C697A650B
:103D800020746869732066756E632000736964200F
:103D90003D2025752C20616C67203D25750D0A009E
:103DA0003110006097100060750F0060C50F006053
:103DB000110F0060FB0F0060E71000603111006020
:103DC0007B110060B1110060ED0B006081030060A9
:103DD000030A0060590A00609F0A0060FF0A006041
:103DE000530B0060A30B0060270C00608103006090
:103DF0008103006081030060810300608103006033
:103E000081030060810300605F090060B109006008
:103E100073070060E1070060D50600602B070060B3
:103E20004F080060AB0800600D090060810300606E
:103E300081030060810300608103006081030060F2
:103E400081030060810300608103006081030060E2
:103E5000810300608103006081030060170D006032
:103E6000690D00608103006081030060B50D006092
:103E70005F0E0060810300608103006081030060C9
:103E800081030060810300608103006081030060A2
:103E90008103006081030060BF0E00607712006044
:103EA0001B12006050008001E8002002B0010000F9
:103EB000010000000200000004000000091700607B
:103EC000951700601D17006061170060651700609E
:103ED00000010000000100000001000008B500F032
:103EE00085FE10B10E4800F095FE00212D2002F055
:103EF00085FB0021012002F081FB0021022002F05D
:103F00007DFB4FF088431A6842F080721A60054AC0
:103F1000C3F89420044AC3F8942072B6FEE700BFA9
:103F20009C7D0060AA554B4255AAB4BD000000001C
:103F30000000000000000000000000000000000081
:103F40006FF47A72F0B5504B0446186003688DB078
:103F50001344042B0ED8DFE803F0032C52758900BC
:103F6000002300220021CDE9082303698668082B7D
:103F7000069102D06FF0800561E08569042DF9D1CA
:103F8000406808AA07F036FD0828F3D12B46022125
:103F9000606806AA07F02EFD0428EBD1069B304688
:103FA000019363690093DDE9082300F09BF805465F
:103FB00045E0002300220021CDE908230369059193
:103FC000082BD7D14569042DD4D1406808AA07F041
:103FD00011FD0828CED12B460121606805AA07F003
:103FE00009FD0428C6D106AB0293236AA068019399
:103FF000059B0093DDE9082300F08BF8D7E7002349
:104000000022CDE906230369082BB3D1076A0C2FE0
:10401000B0D10021406806AA07F0ECFC0828A9D11D
:10402000DDE9062308AEA068009600F086F8054694
:1040300028B901463B463246606807F0DDFC284659
:104040000DB0F0BD00230022CDE908230369082B41
:1040500090D10021406808AA07F0CCFC082889D13B
:10406000DDE90823A06800F078F8A0E7056A042DD0
:1040700080D100F085F82B4608900021606808AADE
:1040800007F0BAFC0025DAE72048062800F01EB841
:1040900038B5074B02461D680C460B46686801217F
:1040A00007F0A8FC844214BF6FF08000002038BDE8
:1040B000204806280B46044910B40C68024600212B
:1040C000606810BC07F098BC2048062808B500F0CE
:1040D000A7F830B100F094F918B9BDE8084000F035
:1040E0009FB808BD194610B404461046DDE9012307
:1040F00050EA010C06D033F0070C07D1224610BC61
:1041000000F0C0B86FF0860010BC70476FF08500FB
:10411000FAE730B4194604461046DDE9023250EAA7
:10412000010C049D05D0CDE90225224630BC00F0EB
:104130007DB86FF0860030BC7047194610B4044655
:10414000104650EA0102019B03D0224610BC00F049
:104150000BB96FF0860010BC7047194652EA010394
:1041600010B50446104608D0224600F019F910F1A7
:10417000950F08BF6FF0830010BD6FF08600FBE75E
:10418000002070470022F0B5134F85B0134C03ADEB
:104190001146064614233868019500940FF050FD2F
:1041A000014690B93B686068984211D122687B68EB
:1041B0009A420DD1012E08D1A36833B114341422D0
:1041C000019500940FF03CFD0146084605B0F0BD96
:1041D0006FF09701F9E700BF244806282C4806280D
:1041E000074B13B51968074C013119606160002154
:1041F00002462068586000910FF004FD02B010BD27
:104200002C4806282448062810B5044600F066FA13
:10421000014620B92046BDE810400FF051BD10BD49
:10422000014800F03BB900BF4048062870B51E4663
:10423000124B00F013FA0446D0B90120FFF7A2FF99
:10424000044678B90E488568B54213D30499AD1B6E
:104250008D4228BF0D46143029463044FFF72AFF0F
:10426000059B1D604FF484620021054807F06DFC3A
:10427000204670BD6FF08604F4E700BF244806288E
:104280002C4806282DE9F74F1D4640F20C430C9EA2
:1042900081469E42884692465FD8314F3B4600F0A9
:1042A000DDF9044600283BD1FFF76CFF044668BBEC
:1042B0002C4B1A69D2074DD4C3E9036501233D682D
:1042C000DFF8A0B031460BF114000193FFF7E0FED8
:1042D0000446D8B9019B22491846CBF8086000F083
:1042E0003FF9044690B9DBF808001430FFF778FF77
:1042F000044658B9524648464146194B00F05CF90D
:104300000446F0B1002138680FF0DAFC4FF4846203
:104310000021144807F019FC204603B0BDE8F08FD7
:1043200010F18C0FF2D10F4C4FF484620021204623
:1043300007F00BFC0022C4E9036502231546226046
:10434000BEE71DB900F0CAF90446DFE72846FFF7CB
:104350005BFFF9E76FF08404D8E76FF08604DBE7D2
:10436000244806282C48062838B51D460A4B00F07C
:1043700075F9044670B9FFF705FF044620B9074BED
:104380009A681B696A60AB604FF48462002103483D
:1043900007F0DBFB204638BD244806282C480628B9
:1043A0002DE9F041DFF85080064643460D4617469A
:1043B00000F054F90446C8B9FFF7E4FE044678B9A2
:1043C0000E4B1B69DB0714D43A463046294600F0F1
:1043D00059F9044620B9D8F80000FFF715FF044644
:1043E0004FF484620021054807F0AFFB2046BDE88A
:1043F000F0816FF08404F3E7244806282C4806284F
:1044000000F03AB8F0B500250A4CD4E904768E42A3
:1044100008BF874205D1A669964202D100201D60DF
:10442000F0BD0135152D04F11804EED16FF08B00AD
:10443000F6E700BF504C062837B50E4C4FF400721B
:10444000637894F801520133DBB2FF2B08BF0023DD
:104450006370002300210093681C064B0FF0D2FB11
:1044600028B994F8003284F8005284F8013203B07D
:1044700030BD00BF504C062810B5074C4FF40272F7
:104480002046002107F061FB0123A4F800322370CD
:10449000BDE81040FFF7D0BF504C0628F0B52F4CB8
:1044A00087B003AE07464FF40073002200210120BD
:1044B000019600940FF0C4FB4FF4007305460022F0
:1044C00002200021CDE900760FF0BAFB2378012B02
:1044D0002AD12B1E18BF01233A78012A26D1003891
:1044E00018BF012040F201158DF814308DF8150029
:1044F000BDF814606178AE427A782BD0C3B14FF426
:10450000007239461548A4F8003207F0A4FA94F86E
:104510000102002101300FF0D3FB18B110F18C0F14
:1045200008BF002007B0F0BD0123D5E70120D9E77F
:1045300020B14FF48073A4F80032E8E71AB90129DA
:10454000F7D00123DBE711B9012AF2D1F9E7914253
:10455000F7D3EEE76FF08300E4E700BF504C062886
:1045600070B50D4618B300231C46124AD2E9046107
:10457000314308BF234604F1010408BF00F1FF30B6
:10458000152C0BD018320028F0D1DC1C204600215D
:104590000FF096FB38B900202C6007E00028F4D01B
:1045A0006FF08D0002E010F18C0FF4D070BD6FF051
:1045B0008600FBE7504C06282DE9F04F1F460023EC
:1045C0000024002589B0CDE90133069301ABCDE984
:1045D00004458346FFF716FF8A46914605461E4C62
:1045E00080B918260199324606FB014102A808311C
:1045F00007F031FA0198324606FB004029460830A0
:1046000007F0A3FA18263D687A68A5F10308023D71
:1046100006FB08437543C3E904BA44F805909A6061
:10462000FFF70AFF054698B1DDE90423134307D0DD
:104630000198324606FB004002A9083007F00BFA49
:10464000182202FB0844002104F1080007F07DFA5B
:10465000284609B0BDE8F08F504C062813B51C461B
:1046600001ABFFF7CFFE40B91821019AD31C23609C
:10467000034B01FB02339B68636002B010BD00BFB7
:10468000504C0628002370B588B0019301ABFFF7AA
:10469000B9FE0446E8B918250F4E01992A4605FBD4
:1046A000016102A8083107F0D6F90198214605FBFF
:1046B00000602A46083007F048FAFFF7BDFE0446BE
:1046C00038B101982A4605FB006002A9083007F0BE
:1046D000C2F9204608B070BD504C0628034B00219B
:1046E00093F8010201300FF0EBBA00BF504C0628DE
:1046F00000000000000000000000000000000000BA
:10470000A3F5803A704700BF174B002B08BF134B2F
:104710009D46FFF7F5FF00218B460F461348144ACC
:10472000121A07F012FA0E4B002B00D098470D4BCF
:10473000002B00D098470020002104000D000D48F8
:10474000002802D00C4800E000BF23F031FA20001E
:10475000290004F091FB23F017FA00BF00000800C5
:1047600000000000000000000048062800A3072801
:1047700080D807280000000000000000002238B5A3
:10478000634BC3F88420BFF34F8FD3F88020C2F36C
:10479000C900C2F34E325201014602F4FF5545EA08
:1047A00081740139C3F87442F9D2203A12F1200F12
:1047B000F2D1BFF34F8FBFF36F8FBFF34F8FBFF3B4
:1047C0006F8F0022C3F85022BFF34F8FBFF36F8F5C
:1047D000504A9A609A6FD20715D55A6912F400327E
:1047E00011D1BFF34F8FBFF36F8FC3F85022BFF3C8
:1047F0004F8FBFF36F8F5A6942F400325A61BFF393
:104800004F8FBFF36F8F424A936F9B0769D5002389
:10481000C2F88430BFF34F8FD2F88030C3F3C900A1
:10482000C3F34E335B01014603F4FF5545EA81743F
:104830000139C2F87442F9D2203B13F1200FF2D1B2
:10484000BFF34F8FBFF36F8F0023C2F88430BFF3E5
:104850004F8F536923F480335361BFF34F8FD2F8E6
:1048600080302B4CC3F3C901C3F34E335B010A46BE
:1048700003F4FF5545EA8270013AC4F87402F9D294
:10488000203B13F1200FF2D1BFF34F8FBFF36F8F97
:1048900000F070F8636913F4803322D1C4F88430D7
:1048A000BFF34F8FD4F880301949C3F3C900C3F365
:1048B0004E335B01024603F4FF5545EA8274013A28
:1048C000C1F86042F9D2203B13F1200FF2D1BFF3BF
:1048D0004F8F4B6943F480334B61BFF34F8FBFF36E
:1048E0006F8F0D4B0D4A13600D4A1360084B5A6AC7
:1048F00042F480325A625A6A42F400225A625A6A78
:1049000042F480225A625A6A42F400325A6238BD36
:1049100000ED00E000100A02005A620204A007281D
:1049200000A0072870470000BFF35F8F074B5A6A4B
:1049300022F480325A62D3F8942022F00102C3F8A4
:104940009420BFF34F8FBFF36F8F704700ED00E0EF
:10495000BFF35F8F0722064BC3F894205A6A42F4D4
:1049600080325A62BFF34F8FBFF36F8F704700BF23
:1049700000ED00E070B5FFF7D7FF0023134A14499C
:10498000082B02F1080216D10022FF26114C104913
:1049900014F8013BD1F8C000934006FA02F54340F9
:1049A0002B4008324340202AC1F8C030F0D1BDE886
:1049B0007040FFF7CDBF52E90240C1F89830C1F80E
:1049C0009C400133C1F8A000DAE700BF5C790060C9
:1049D00000ED00E05879006038B5EFF3948111F0F4
:1049E00002041ED0EFF3898400F00AF928B12346AF
:1049F0000021134A134800F00DF980212046124C83
:104A000000F054F9206808B100F02CFA0F4B206830
:104A10001C686408640021462246234623F098F867
:104A2000FEE7EFF3888500F0EBF828B12B4621462E
:104A3000034A074800F0EEF880212846DFE700BF70
:104A40009C7900609E79006020B5072824B507286E
:104A5000BB7900602DE9F00F7046EFF30881EFF3AA
:104A60000982002300F098F94FF03023D3F8F82F93
:104A70000A4B9A4200D1FEE74FF0A943084A1A6157
:104A800002F596021A6100F0BBF820B10021054A38
:104A9000054800F0BFF8FFF79FFF00BF55AA55AAD1
:104AA000F0FF5A009C790060D87900602DE9F00F82
:104AB0007046EFF30881EFF30982012300F06CF9EF
:104AC00000F09EF820B10021024A034800F0A2F84D
:104AD000FFF782FF9C790060E97900602DE9F00F13
:104AE0007046EFF30881EFF30982022300F054F9D6
:104AF00000F086F820B10021024A034800F08AF84D
:104B0000FFF76AFF9C790060F97900602DE9F00FEA
:104B10007046EFF30881EFF30982032300F03CF9BC
:104B200000F06EF820B10021024A034800F072F84C
:104B3000FFF752FF9C790060097A00602DE9F00FC1
:104B40007046EFF30881EFF30982042300F024F9A3
:104B500000F056F820B10021024A034800F05AF84C
:104B6000FFF73AFF9C790060197A00602DE9F00F99
:104B70007046EFF30881EFF30982002300F00CF98F
:104B800000F03EF820B10021024A034800F042F84C
:104B9000FFF722FF9C790060297A006008B500F0D9
:104BA0002FF830B1BDE808400021024A024800F069
:104BB00031B808BD9C790060397A006008B500F012
:104BC0001FF830B1BDE808400021024A024800F059
:104BD00021B808BD9C790060497A0060024BD3E996
:104BE000000102F013BF00BF28B50728034B186867
:104BF00080F48070C0F30020704700BF30B50728F4
:104C0000034B186880F40070C0F34020704700BF69
:104C100030B507280FB4F0B500258FB014AC54F8A8
:104C2000046B29462C2203A8029506F08EFF23462A
:104C300032462F2102A8019423F026F930210446A0
:104C400002A88DF8375023F0E7F8054638B3154F22
:104C50003E6826B10621144800F078F8012629465E
:104C600002A800F073F805F138030DEB030515F801
:104C7000313C0A2B0FD0A3F10D0253425341002CBB
:104C80003B6002DB4EB900231C4420460FB0BDE858
:104C9000F04004B070470123F1E70623F4E7002C4D
:104CA000F1DAF2E708A00728757A00602DE9F74FDE
:104CB00007460C46FFF79AFF90B10025DFF8748095
:104CC00007F00306B5420ED14FF0000B641BDFF86E
:104CD0006880DFF86890DFF868A0A4085C4509D810
:104CE00003B0BDE8F08F29467A5D4046FFF792FF9A
:104CF0000135E7E75E4659464046FFF78BFF7B19D3
:104D00000193B44212D9019B504653F82610FFF785
:104D100081FF01360BF108029642F2D10948FFF7F4
:104D200079FF0948FFF776FFB346D7E74846FFF714
:104D300071FFEEE7597A0060647A0060717A006072
:104D40006B7A0060737A00602382006037B5084C8C
:104D50006369984748B9E56AA847C307FCD4236A42
:104D6000019303B0BDE830401847002003B030BDC8
:104D70007C7A006010B5074C0020A3689847A46AAD
:104D80004FF4E1310120A0472346BDE81040012146
:104D9000152018477C7A006038B50D461146EFF3B0
:104DA00003832C4CC4E900052366A260EFF314834F
:104DB000E360EFF388832361EFF389836361EFF3AB
:104DC0009483A361EFF3948342063BD500F00C007B
:104DD0000C2818BF294620221F48E16102F05EFD21
:104DE00000231E4AE9580433202B42F8041BF9D152
:104DF0001B4B9A6AA266D96AE166986B206702F437
:104E000000406067586BA06702F08000E0679A621C
:104E1000D962D3F8E420C4F88020D3F8E810C4F8AD
:104E2000841002F04001C4F88810C3F8E42022681E
:104E3000D4E9011302F00C020C2A18BF0B46C4F887
:104E40008C3038BD9B0702D5EFF38981C3E7EFF3C0
:104E50008881C0E734B5072854B5072874B50728FA
:104E600000ED00E0204B30B41A68D96902601A6E78
:104E700000F13C0402665A6842609A6882601A69CE
:104E800002615A694261024642F81C1F03F1200187
:104E900051F8045B42F8045FA242F9D1134900F1D2
:104EA0005C0451F8045B42F8045FA242F9D130BCC3
:104EB0009A6ED3F88C1082661A6F903040F8202CCE
:104EC000DA6E40F8242CD3F8802040F8102CD3F868
:104ED000842040F80C2CD3F8882040F8082C4FF49C
:104EE000807202F0DBBC00BF34B5072874B5072818
:104EF00000207047014B5868704700BFC4B60728B0
:104F0000002382B00193019802B0704738B50C4677
:104F1000014640B13CB1054D2246287800F07AF9AF
:104F200000206C6038BD6FF00400FBE7C4B60728B2
:104F30001FB54FF4E13203230446CDE901230123D9
:104F40008DF80C3000F038F800F0AEF900F082F87F
:104F5000207801A900F09EF8002004B010BD0000E8
:104F60000148FFF7E5BF00BFC4B6072810B50C46DF
:104F7000E3B2012B114602D06FF0030010BD00F028
:104F80001DF958B914F4E06FF6D114F4405F08D15C
:104F900014F4404F18BF6FF00A00EFE76FF00700FE
:104FA000ECE76FF00900E9E7024B0A460146187882
:104FB000FFF7DCBFC4B6072800F07ABA03F064BF7D
:104FC00000F0B6BAEFF3108372B6054A0B6093692E
:104FD00003F0400123F0400301609361704700BF7C
:104FE00000000441044A936910B143F04003936107
:104FF00081F31088704700BF00000441024B186025
:10500000024B1860704700BF0CA00728D0B60728D5
:10501000014B1868704700BF0CA007280128014603
:1050200006D0022806D040B90121022000F0D0BAF3
:105030000A20FBE701210B20F8E770470C235843B7
:10504000034B1B589A69D202FCD50020D9617047E6
:10505000D0B6072838B50B4D2C7884B930222146BC
:10506000094800F09FFA20222146084800F09AFAE9
:1050700020222146064800F095FA01232B700020DB
:1050800038BD00BF00B70728D0B6072804B70728E7
:1050900024B70728F8B5434B04461B780F46002B6E
:1050A00077D0002978D0032878D80B683E4AA3F53A
:1050B0009853123B934273D80C263C4D06FB005686
:1050C0003071304600F03EF92046FFF7A7FF01217E
:1050D000204600F07FFA012C35D0022C46D09CB936
:1050E0000B2000F0DCF80A2000F0D9F81F210B207B
:1050F00000F0CAF820210A2000F0C6F80B2000F0CA
:10510000DFF80A2000F0DCF80C23012103FB045334
:1051100001FA04F2187A52B210431872587A024314
:105120005A723B7A2046022B08BF194600F052FA09
:105130003A462146304600F069F92146304600F0F3
:105140001FF90020F8BD002000F0A9F8204600F06B
:10515000A6F82121002000F097F82221204600F037
:1051600093F8002000F0ACF82046CBE7292000F0AF
:1051700096F8282000F093F82321292000F084F8E5
:105180002421282000F080F8292000F099F8282018
:10519000B8E76FF41050D5E70548D3E70548D1E7E5
:1051A0000548CFE700B70728EEFE7900D0B60728FC
:1051B000F7EFFFFFFEDBFFFFFBDBFFFF38B5104B18
:1051C00004461B780D46A3B1032815D80D4AA1F556
:1051D0009853123B934211D800F090F921460C24C9
:1051E000024609482B4604FB010000F0D5F80020D8
:1051F00038BD6FF41050FBE70448F9E70448F7E7BF
:1052000000B70728EEFE7900D0B60728FEDBFFFFC7
:10521000FBDBFFFF104B70B51B7805460C46A3B1B6
:10522000032815D80C210D4B01FB00331B7A0341D9
:10523000DB070FD5A618B44201D1002070BD284667
:1052400014F8011BFFF7FAFEF5E76FF41050F5E7CD
:105250000348F3E70348F1E700B70728D0B607286B
:10526000FEDBFFFFFADBFFFF38B50446084600F01F
:1052700029F805460021204600F050F8294620462E
:10528000BDE8384000F03AB808B5FFF7EDFF002060
:1052900008BD08B5002100F041F8002008BD08B5A0
:1052A000FFF7F7FF002008BD10B5044C23781BB9A9
:1052B00000F014F801232370002010BD44B7072824
:1052C00000F02EB8013880B2B0F59A7F9ABF024B39
:1052D000185C5F20704700BFB47A006010B5064CC0
:1052E00023783BB900F026F94FF4000000F074F980
:1052F00001232370002010BD45B70728172804D8C4
:105300005E2904D8C0B200F02BB9024870470248A9
:10531000704700BFF5DFFFFFFBB3FFFF00F01AB9D6
:10532000172810B5044608D8012100F02FF92046AF
:10533000BDE81040012100F01FB9014810BD00BFB9
:10534000F5DFFFFF10B503790446012B0BD0022BCC
:105350000BD063B9FFF75CFE2060836843F0010364
:105360008360002010BD0348F6E70348F4E70348D4
:10537000F2E700BF000083450000844500DCFFFF2A
:10538000036800201A6942F001021A611A6942F0AA
:1053900002021A6170470000022A0CBF064A074A3F
:1053A000B2FBF3F30268013B11699BB263F317216F
:1053B00000201161704700BF000E2707005A6202EB
:1053C0000368196942B962F345111961196900202E
:1053D00062F386111961704741F020011961511E75
:1053E0004A424A41F2E703680020996A6FF30701D5
:1053F0009962996A62F30F2199629A6A42F40032C3
:105400009A629A6A42F480229A627047F8B5154609
:1054100000274FF6FF7204460E4603681F62DA61EA
:105420001A6995F804C06CF3C4021A6195F806C0B5
:105430001A696CF3C7121A616A79FFF7C1FF314626
:105440002B682A7A2046FFF7A7FF202123685A6994
:1054500061F3070240215A615A6961F30F225A61D0
:105460005A6967F311425A619F62EB794BB180220E
:1054700031462046FFF7B7FF2268936A43F4803332
:10548000936200202368D862F8BD00000122064B19
:10549000016003449B08054902FA03F3D1F8E820B0
:1054A0001A42FBD1704700BF00FFFEBB0000014461
:1054B0000020704701280CD0022813D040B90E4BB1
:1054C00002299A6A0CBF42F4805260F30C329A624D
:1054D0007047094B02299A6A0CBF42F400526FF3DD
:1054E0004D32F4E7044B02299A6A0CBF42F4804221
:1054F0006FF38E32EBE700BF00000144012808D0B3
:1055000002280BD078B9094B986AC0F300300130FB
:105510007047064B986AC0F34030F8E7034B986A2F
:10552000C0F38030F3E70120704700BF0000014462
:1055300070470000064A0020936843F0010393601F
:10554000A2F50202136B43F080031363704700BFA0
:1055500000008344014B80001950704700018344D0
:10556000044B80001A58C9B261F31F621A50002020
:10557000704700BF00018344034B80001A5861F359
:1055800004121A500020704700018344034B80002E
:105590001A5861F345121A500020704700018344E5
:1055A00006F059BA06F0D1BA08B122F02DBB704707
:1055B00010B5044622F020FB044A044494420346FA
:1055C00002D9FFF7F1FF0023184610BD60AE062890
:1055D00003F04ABCFFF76EBF03F03EBC20F020038F
:1055E000413B192B05D9303809288CBF00200120F8
:1055F00070470120704710B54218435C5478D0784A
:105600001B0643EA04430343907843EA002010BD9D
:10561000425C0844407840EA0220704710289FBF4F
:1056200028235843024B185888BF0020704700BFFA
:10563000A8BF072810289FBF2822034B02FB003079
:10564000406888BF00207047A8BF07282DE9F04FA9
:1056500020208DB0FFF7ACFF0546002873D04FF433
:1056600010564FF0000820222946304600F07AFDFF
:105670002878FFF7B3FF80B306AA00239146E95CC0
:10568000FF2904D00133142B02F8011BF7D10027A6
:1056900030336B44DFF8DCA0374C03F8188C4946F4
:1056A0005AF8040B22F0A6FB70B916212846FFF722
:1056B000A2FF1A2120602846FFF79DFF1E2160608F
:1056C0002846FFF7A5FFA0600137112F04F1280439
:1056D000E5D12036B6F5295FC5D100260127264C35
:1056E000DFF89090DFF89480636803B34FF0000A0E
:1056F000DFF88CE00DF1040CBEE80F00ACE80F0001
:10570000DEF800300DF1040BCCF800305BF8041B20
:1057100059F8260022F06EFBC0B10AF1010ABAF175
:10572000050FF3D1002384F8243084F82570013666
:10573000112E04F12804D7D12846FFF735FF0020A9
:105740000DB0BDE8F08F4FF0FF30F9E74FF4805017
:10575000D4E9002102F58F531F3303EA08030A44FA
:10576000C4E90613E360D31AC4E9040084F8247082
:105770002362DAE71CA00728A8BF072800FEFFFF66
:10578000987C0060064B82B01868002382B262F3F6
:105790000F03000C60F31F43184602B0704700BFB0
:1057A000007D0060082070476FF003007047000024
:1057B000014B1868704700BF50C20728014B1B6897
:1057C0005868704768A0072807B501A96846FFF721
:1057D000F9FB00F0B5FDDDE90001FFF703FC002057
:1057E00003B05DF804FB000007B501A96846FFF7A8
:1057F000E9FB00F0FBFD002000F0AEFD00F056FEDE
:10580000054B000B1860DDE90001FFF7EBFB002002
:1058100003B05DF804FB00BF54C2072873B505460A
:105820000E461446BAB10F4B0F491B6809685B68F6
:1058300002449B684B43013B9A420FD8684601A93A
:10584000FFF7C0FB31462246284600F08BFCDDE91D
:105850000001FFF7C7FB204602B070BD6FF00400E7
:10586000FAE700BF68A0072854C20728B0F5B83F80
:1058700006D30144B1F5C83F0BD9B0F5C83F01D2FA
:10588000002004E0B1F5D83F8CBF00200120013892
:10589000704700207047000073B500210546FFF7F0
:1058A000E5FF044640B129461748FFF7B3F96FF00A
:1058B0000604204602B070BD144B1B685B689968F3
:1058C000134BB5FBF1F21B6801FB12524B43013B3A
:1058D000B2B99D4214D801A96846FFF773FB00F0E6
:1058E00039FD0646204600F037FD284622F030FEFE
:1058F000304600F031FDDDE90001FFF773FBD8E72A
:105900006FF00404D5E700BFAC7C006068A00728F6
:1059100054C207282DE9F3410F4611460646FFF70A
:10592000A5FF1446054648B131462248FFF772F9F3
:105930006FF00605284602B0BDE8F081002AF9D0D4
:105940001D4B1B685868B3181C4A016912688068AF
:105950004243013A9342B6FBF1F201FB12624FF06F
:10596000FF3398BF0023003A18BF0122524213436D
:10597000B4FBF1F201FB12410B4317D101A96846B8
:10598000FFF720FB00F0E6FC8046284600F0E4FC30
:1059900022463946304600F041FC404600F0DCFC2F
:1059A000DDE90001FFF71EFB2546C3E76FF00405A4
:1059B000C0E700BFC77C006068A0072854C2072862
:1059C00008B500F09DF900F0C5F943F6DA33002878
:1059D00018BF184608BD00002DE9F04F0F460546D8
:1059E00087B020B943F6DA3007B0BDE8F08F002960
:1059F000F8D018224FF00008C36900F1340606EB16
:105A00008306036AC46802FB0366DFF874A0DFF84C
:105A10007490DFF874B004F480746B6A434505D861
:105A2000003C18BF012400203C60DDE70C2303FB91
:105A300008F39A199268120702D408F10108ECE7FA
:105A40009B59534502D0114A9342CBD1002CF4D13B
:105A50001A685B680292CDE9033440F20113ADF895
:105A60001430D9F8003058465A1C01A98DF8164058
:105A7000C9F80020019301F0DFFE0028DDD0B1E776
:105A800078A0072858C207286CA0072870A007280C
:105A9000EFF3148311F00F0F0CBF0122002262F309
:105AA000000383F31488BFF36F8F0020704710B595
:105AB0000020FFF7B3FD04460020FFF7BBFD0021E7
:105AC000221801230846013A00F0F6FC0120FFF7F6
:105AD000A5FD04460120FFF7ADFD01232218214654
:105AE0001846013A00F0E8FC002010BD08B500F0AF
:105AF000BFF8B8B900F0D8F8A0B900F0E5F888B957
:105B000062B6FFF737F900F035FD58B900F0DEF85E
:105B100040B900F0F3F828B9FFF7C9FF10B901F058
:105B20000FFE08B143F6DA3008BD0000014B1868DB
:105B3000704700BF507D0060014B1B6818687047BC
:105B4000507D0060044B054A043850F8041F43F8A8
:105B5000041B9342F9D170471000044140000441F6
:105B600030B5002499B001F0ADF801F019FA01F058
:105B700001FB01F079FD01F078FD01F077FD01F006
:105B800076FDFEF7CFFE2C22214601A8009405F0F9
:105B9000DCFF302221460DEB020005F0D6FF2D4838
:105BA000FFF738F8302269464FF4005000F0DAFA77
:105BB0000CAD21466846FFF71EFD0434302C45F835
:105BC000040BF6D10022012140F6FF70224B234C3A
:105BD0009A60996058611A6103F580339A60996000
:105BE00058611A610CA8A160FFF7ACFFA3691C48BB
:105BF00043F0006343F48053A361E36943F480639B
:105C0000E361236A43F080532362236B43F0100364
:105C10002363636B43F090036363A36B43F41253FA
:105C2000A363FFF7CDF90F48FFF7E8F90E4AD368F1
:105C30009BB243F0BF6343F41833D360D2F88C3087
:105C400043F44063C2F88C30084B1B68586819B0A5
:105C500030BD00BF307D00600000024500000441FF
:105C6000000001540000825400ED00E0507D00600F
:105C70000020034BD8765A6A42F470225A62704769
:105C800000ED00E04FF0894301224FF4B4019A6027
:105C90004FF4250219611A614FF08843C3F80016CA
:105CA000C3F8002670470000054908B5CA68054BCF
:105CB00092B21343CB60FFF7E5FF002008BD00BFA1
:105CC00000ED00E00800FA050020704700224FF0C8
:105CD000FF30094B02F1A0010132102A43F82100E4
:105CE000F8D1D3F88022002022F00202C3F88022EB
:105CF000D3F88032704700BF00E100E00020704719
:105D000000201249124AD1F8D03010B543F00103F7
:105D1000C1F8D030147AC1F8D800002C14BF022486
:105D200000241368013023F01F03C1F8DC305368EE
:105D3000042823F01F0343EA040343F00103C1F8DE
:105D4000E03002F10C02E5D110BD00BF00ED00E033
:105D50006C7D006008B500F099FC43F65C230028D8
:105D600018BF184608BD00207047000043B2002B42
:105D700008DB012200F01F0002FA00F0024A5B0972
:105D800042F823000020704700E100E043B2002BFE
:105D90000DDB012200F01F0002FA00F05B09054A4A
:105DA000203342F82300BFF34F8FBFF36F8F0020E3
:105DB000704700BF00E100E012F0200310B509D0E9
:105DC000EFF39483DB074FF012034CBF42F008025D
:105DD00022F00802140702F0060448BF43F004034F
:105DE000062C09D143F0010221F03EFE002814BF29
:105DF00000206FF07F0010BD920702D543F008022B
:105E0000F2E74CF2DA20F6E70369002BFCDB70477F
:105E1000F8B500250326FFF7F7FFC561FFF7F4FF8C
:105E2000436D66F31C634365036943F000530361EC
:105E3000036943F080430361FFF7E6FF446A0129E9
:105E4000E4B230D00627436D67F31C6343650369F2
:105E500043F000530361036943F080430361FFF79C
:105E6000D3FF436A0229DBB244EA03241BD0152185
:105E7000C36943F40033C361C36961F30F23C36192
:105E8000436D66F31C634365036943F0005303618C
:105E9000036943F080430361FFF7B6FF436AC561BE
:105EA000DBB244EA03442046F8BD000038B5FFF7F2
:105EB000ABFF836A95B265F399238362FFF7A4FF72
:105EC000012904460DD10422436D62F31C6363650E
:105ED000236943F000532361236943F08043236126
:105EE00057E0022955D11421FFF78EFF436D61F36E
:105EF0001C634365036943F000530361036943F086
:105F000080430361FFF780FF016A254B9942436D8F
:105F100044D1042161F31C6343650369C2F30F227A
:105F200043F000530361036943F080430361FFF7CB
:105F30006BFF836A62F3992331228362FFF764FF68
:105F4000FFF762FFC36962F307030122C361C369FC
:105F500043F48033C361FFF757FFFFF755FF436DED
:105F600061F31C634365036943F0005303610369F4
:105F700043F080430361FFF747FFFFF745FFC36925
:105F800062F30703C361C3696FF31043C361FFF793
:105F90003BFF2046BDE83840FFF736BF072294E7B5
:105FA0001640C80048B90A4B19B101221A600020F6
:105FB00070471A6822F00102F8E70128F7D1054B73
:105FC00009B10222F2E71A6822F00202EEE700BFEE
:105FD00078C2072874C20728162238B505462B4C0C
:105FE0002068FFF711FF836A6FF308138362436D24
:105FF0006FF317034365436D62F31C6343650369E5
:1060000043F000530361036943F080430361FFF7EA
:10601000FBFE0020FEF7D2FF022D0CD101222068EA
:10602000FFF7F2FE836A62F3081383620120FEF732
:10603000C5FF002038BD042DF8D1E36820689A7EA2
:10604000FFF7E2FE436A62F39D534362E3685B7EBF
:10605000012B13D12068FFF7D7FEE3682068197978
:10606000FFF7D6FEE1684B7E0A7E03FA02F2104289
:1060700004D1024309792068FFF718FFE36820681C
:10608000DA7EFFF7C1FE836ACDE700BF60C2072852
:10609000044BDB681B7B042B02D10220FFF79CBF63
:1060A000704700BF60C20728034BDB68187B0428D9
:1060B00001D1FFF791BF704760C2072873B5234E27
:1060C0000446F3680D469B6883421CD9204BA1F11E
:1060D0000D02B0F5B83F53F8223003D3C218B2F521
:1060E000C83F12D9B4F5C83F03D32344B3F5D83F12
:1060F0000BD9184B1A68184B1B68134305D121465E
:106100001648FEF787FD16481DE001A96846FEF710
:1061100059FFFFF7BDFF3068FFF776FE436D64F36C
:1061200017034365436D65F31C634365036943F0DF
:1061300000530361FFF768FEFFF7B6FFDDE90001DA
:10614000FEF750FF002002B070BD00BF60C20728FC
:10615000F07D006078C2072874C20728A97D00601E
:10616000FEC8FFFF2DE9F0472A4F0546FB680E46A3
:106170009B68144683428AB046D9002A48D00DF164
:1061800008092022002120F01F08484605F0DDFC08
:106190004FF0050A684601A9FEF714FF3868FFF7BB
:1061A00033FE3868FFF730FE436D4A4668F3170345
:1061B0004365436D6AF31C634365036943F0005311
:1061C0000361FFF721FE0023386881690133082B42
:1061D00042F8041BF9D1DDE90001FEF703FF334665
:1061E00005F01F0219F80210013C03F8011B03EB34
:1061F0000501A1EB06010BD00132202AF2D11E4687
:106200000D4608F12008C5E703480AB0BDE8F0874D
:106210002046FAE760C20728FEC8FFFF2DE9F04FCD
:10622000424F0446FB680E469B68154683428DB07C
:1062300017D9B0F5B83F03D38318B3F5C83F12D9C7
:10624000B4F5C83F03D36319B3F5D83F0BD9384B26
:106250001A68384B1B68134305D121463648FEF7B0
:10626000D9FC364812E0684601A9FEF7ABFEFFF7FD
:106270000FFFFB6824F01F089B68984509D3FFF7C0
:1062800013FFDDE90001FEF7ADFE00200DB0BDE813
:10629000F08F9D42F3D805EB08029342EFD30DF146
:1062A000100A002DEBD0B1462022FF215046FFF707
:1062B00079F904F01F0319F8012B013D09EB040BD8
:1062C0000AF80320ABEB060B02D00133202BF2D1EE
:1062D00003A902A8FEF776FE3868FFF795FD514640
:1062E000002251F8044B38680132FFF78DFD082A6F
:1062F0004461F6D10C223868FFF786FD436D5C4699
:1063000068F317034365436D4E4662F31C634365B0
:10631000036908F1200843F000530361FFF774FD9F
:10632000DDE90201FEF75EFEBBE700BF60C20728A1
:1063300078C2072874C20728CC7D0060FEC8FFFF22
:10634000034B1A780AB100221A700020704700BF70
:1063500070C2072800207047F7B5224D2B78002B1C
:106360003CD1214E684601A9FEF72CFEFFF790FEB6
:10637000F368306819795C8A9A7CFFF749FDF16807
:10638000240A91F80EC0CB7B20FA0CFE0EEA030E15
:1063900096454F7B05D120FA07FE0EF0010EA6456B
:1063A00014D003FA0CFE134003FA0CF220EA0E009C
:1063B0001043012204F00104BA4020EA020004FA6A
:1063C00007F2024309793068FFF770FD01232B7053
:1063D000FFF76AFEDDE90001FEF704FE002003B0CE
:1063E000F0BD00BF71C2072860C2072870B5284EF3
:1063F0003578002D48D1274C102229462046FFF73A
:10640000D1F8204600F038F90220FFF7E5FD14220C
:106410002068FFF7F9FC436D62F31C634365036971
:106420001D4A43F000530361036943F08043036155
:10643000FFF7EAFC036A1360184AA360934203D093
:10644000174A934222D101251C23164903FB051547
:106450000320E560FFF780FF2068FFF7D5FC836A23
:106460006FF349238362E368187BFFF7B5FD0522CC
:106470002068FFF7C9FC836A62F30303836201208B
:10648000FEF79CFD01233370002070BD064DDFE751
:1064900070C2072860C207285CC207281765C800B9
:1064A00018400B00FC7D0060187E0060014BDB682B
:1064B0009868704760C20728032870B523D88A42BD
:1064C00023D9144CE568AD68954220D92568841D10
:1064D00005EBC400466861F317064660816862F305
:1064E000170181605BB143686FF35963436005EB4B
:1064F000C400436843F080734360002070BD43686C
:1065000043F00073F2E70448F8E70448F6E704486C
:10651000F4E700BF60C20728FAC8FFFFF9C8FFFF11
:10652000FEC8FFFF034B02441B689865081ADA6532
:106530001866704760C2072808B572B6003818BFE1
:106540000120054B1B685A6E60F300025A6601F089
:106550004DF962B608BD00BF60C2072808B5044BFC
:106560001868FFF751FC406E00F0010008BD00BF45
:1065700060C2072810B5064C217839B904220548B5
:10658000FFF710F800F030F801232370002010BD51
:1065900080C207287CC20728024A936A43F00C0392
:1065A000936270470000014408B5FFF7F5FF4FF014
:1065B000894340F4B40240F425001A61186108BD13
:1065C0004FF6FF70FFF7F0BF0123800000F182401B
:1065D00000F5802003FA01F1036812B1194301604C
:1065E000704723EA0101FAE7034A0020936843F069
:1065F00001039360704700BF00000441472838B58D
:106600000BD80023194A144612F8045B854221D0A6
:1066100001337E2BF7D1164838BDA0F148021F2A5E
:106620004FF00103134C0ADC03FA02F0994223698C
:106630000CBF184323EA000020610020ECE7683813
:1066400003FA00F0636901290CBF184323EA000034
:106650006061F2E794F90200431CEED001394A422E
:106660004A4194F90310FFF7AFFFE6E7347E00607C
:10667000FDC3FFFF00000441034B03609A68002044
:1066800042F001029A607047000003442DE9F04394
:10669000984D8DB006AC0FCD0FC495E803004FF0B8
:1066A000000984E8030000F02DF906AF3E787C680D
:1066B000042E304608BF002400F040F980463046E2
:1066C00000F056F9611C00F101054FEA451551D063
:1066D000A21C41D1002E4FD000242A1B05D001233B
:1066E000304608FB04F100F059F909F10109B9F14C
:1066F000030F07F10807D9D17F4D01AC0FCD4FF43F
:10670000E0380FC42B680025236001AF6E1DF6B280
:10671000304600F013F9042D044640F0C480B0F573
:10672000804F2BD84FF480420123B2FBF0F20021BE
:10673000092000F033F90023B8FBF4F24FF4804154
:10674000092000F02BF9E4B9012322464FF400316F
:10675000092000F023F914E0E31C14BFB4FBF8F4A3
:106760006C08002CB9D0002322461946304600F0B0
:1067700015F9B2E72C46F4E70124F4E7B0F5E03F61
:10678000D9D90135052DC1D1042000F0D7F8044630
:10679000042000F0EDF807460620FEF73FFF814693
:1067A0000120FEF73BFF06460120FEF743FF80462F
:1067B000042000F0C3F83218013AA2EB0902B2FB40
:1067C000F0F2054642430123B2FBF4F249460420AD
:1067D00000F0E4F806EB08016B1E0B44B3FBF5F385
:1067E0006B43B3FBF4F47A1CC4EB42120123042084
:1067F00000F0D4F8032000F0A1F8064600F09DFF59
:10680000012480460C273D4DAA88E9886B7AA04573
:1068100054D8013C07FB0454B2FBF6F2637A032020
:1068200000F0BCF8BFF34F8FBFF36F8F344A13688B
:1068300043F01003136002F50032136843F01003B5
:10684000136002F58032136843F01003136002F501
:106850005022136843F01003136002F5803213686E
:1068600043F01003136002F58032136843F0100305
:10687000136002F58032136843F01003136002F5D1
:106880008032136843F01003136002F580321368FE
:1068900043F010031360BFF34F8FBFF36F8F0020DF
:1068A0000DB0BDE8F08357F8252090423FF669AF60
:1068B000B2FBF0F20123002130464AE75BB107FB4F
:1068C000045090F809C0BCF1000F04D08088024445
:1068D0000134E4B29BE7631E07FB0353B2FBF6F2FD
:1068E0005B7A032000F05AF807FB0453D9889A8892
:1068F0005B7AEDE72C80006044800060E4840060F7
:106900000000104170B50B4E347884B950222146F6
:106910000948FEF747FE084D2C712846013400F067
:106920006FF80A2C05F10805F6D101233370002019
:1069300070BD00BFD4C2072884C20728094B1B784A
:1069400053B10A280BD8084B53F8303020205B692C
:1069500003F00F03984070476FF468507047034886
:10696000704700BFD4C2072884C20728FCC5FFFFB8
:10697000074B1B7833B10A2807D8064B53F8303041
:10698000186970476FF4685070470348704700BF3C
:10699000D4C2072884C20728FCC5FFFF2DE9F041B7
:1069A0001D46134B04461B78D3B10A281CD8FFF7A9
:1069B000C5FF104BB1FBF0F103EBC40753F83430C3
:1069C00020461E686FF308261E60FFF7D1FFB0EB6C
:1069D000511F0BD32B463846BDE8F04100F026B8D6
:1069E0006FF46850BDE8F0810348FBE70348F9E71E
:1069F000D4C2072884C20728FCC5FFFFFEC5FFFFDD
:106A00000379092B96BF074A074B52F823301A68BF
:106A100003606FF3DF721A601A68002042F0100200
:106A20001A6070475880006000C6FFFF2DE9F041F2
:106A300001F01F040668C4F12000904228BF1046F0
:106A4000490904EB000CB161BCF1200F4FF00007C5
:106A5000F56937D84FF00108A4451ED1121A08462F
:106A6000F561540901EB5215A84220D112F01F0024
:106A700001F101010FD021440124B161F26904FA4E
:106A800007F1012B07F101070CBF0A438A43B84203
:106A9000F5D10020F261BDE8F08108FA04FE012B77
:106AA0000CBF45EA0E0525EA0E050134D4E7012B9B
:106AB0004FF0FF3C18BF4FF0000C0130B061C6F83A
:106AC0001CC0D1E70048E6E7FDC5FFFF2DE9F04116
:106AD00090B005460E4603A809211746984614F0C3
:106AE00079FA044638B101463B48FEF793F8204650
:106AF00010B0BDE8F08120230F2101200DEB03022F
