:020000040201F7
:1070000080A1002841710102000000000000000082
:107010000000000000000000000000000000000070
:107020000000000000000000000000000000000060
:1070300000000000000000000000000019740102C0
:107040000000000000000000000000000000000040
:10705000D10800080000000000000000000000004F
:107060000000000000000000000000000000000020
:107070000000000000000000000000000000000010
:107080000000000000000000000000000000000000
:1070900000000000000000000000000000000000F0
:1070A00000000000000000000000000000000000E0
:1070B000000000004001000000010000000000008E
:1070C00000000000000000000000000000000000C0
:1070D00000000000000000000000000000000000B0
:1070E00000000000000000000000000000000000A0
:1070F0000000000000000000000000000000000090
:10710000424B2E534200000000000000000000002F
:10711000000000000000000000000000000000006F
:10712000000000000000000000000000000000005F
:10713000000000000000000000000000000000004F
:10714000174B83F30A8800F045FC01F06DF801F05D
:107150006FF8144B14498B4213D30020134B14497E
:107160008B421AD300F04AF8186850F82240586849
:1071700040F8224001329868B2EB900FF4D30C3300
:10718000E9E70022F7E71C6844F8220001325C6856
:10719000B2EB940FF7D30833E2E70022F7E700BF22
:1071A00080590028F0CA010214CB010214CB01025D
:1071B0001CCB010210B5054C237833B9044B13B135
:1071C000044800E000BF0123237010BD580F0028C1
:1071D000000000009CB9010208B5034B1BB1034934
:1071E000034800E000BF08BD000000005C0F00285D
:1071F0009CB90102A3F5803A704700BF174B002BE2
:1072000008BF134B9D46FFF7F5FF00218B460F4645
:107210001348144A121A02F008FB0E4B002B00D040
:1072200098470D4B002B00D0984700200021040008
:107230000D000D48002802D00C4800E000BF02F00D
:10724000B3FA2000290000F021F802F099FA00BFFB
:1072500000000800000000000000000080A10028DD
:10726000580F0028645900280000000000000000AA
:1072700008B501F091FE10B1024B186808BD024B31
:10728000FBE700BF000E0028782F002810B501F0A2
:1072900095FB01F0B1FB18B15149524802F0ACFB2B
:1072A00000F0D2FD30B101F0A7FB10B14E4802F062
:1072B000A3FBFEE703F0D0FA01F0A8FB28B101F030
:1072C00009F903F0C1FA01F011F903F0B5FA4FF42E
:1072D0000051464801F0CEFF01F08EFB10B144484A
:1072E00002F08AFB00F020FF00F0F2FD00F06CFBE2
:1072F000D0B100F04DFBB8B1002000F0E1FD4FF03F
:1073000088430446D3F8EC011860C0F3800001F014
:1073100043FB04F58F501F3020F4FF7020F0010074
:1073200000F1007000F0AEFD01F066FB10B13148D5
:1073300002F062FB00F056FF01F072FB00F05CFF10
:1073400030B101F059FB10B12B4802F055FBFEE7BC
:10735000FFF78EFF294B1B68834206D001F04CFBE0
:1073600010B1274802F048FBFEE700F083FD30B182
:1073700001F042FB10B1234802F03EFBFEE74FF460
:10738000FA5001F05FFB00F097F810F0FF0420D1F5
:1073900001F032FB10B11C4802F02EFB204601F038
:1073A000FBFA002000F08CFD044601F025FB18B12B
:1073B0002146164802F020FB04F1007404F58054C5
:1073C00001F01AFB18B12146114802F015FB2046C6
:1073D000A8E701F011FB0028E0D00E48DCE700BF71
:1073E0008D72010278A8010290A80102740F002892
:1073F000ADA80102CDA80102DFA80102782F002864
:1074000008A901023EA9010260A90102ABA901027B
:10741000C9A9010285A90102024A13680133136058
:10742000704700BF742F0028A022002110B51D480E
:1074300002F0FBF91B4800F0C9F800280ADA01F055
:10744000DBFA18B94FF0FF34204610BD164802F0A1
:10745000D3FAF7E7134800F01FF9044601F0CCFA1D
:1074600018B12146114802F0C7FA012C10D9042C9A
:10747000E8D8E7D10B4800F0BBF9044601F0BCFAAC
:1074800018B121460A4802F0B7FA44EAE474DBE78F
:1074900001F0B2FA0028D7D02146064802F0ACFA33
:1074A000D2E700BF7C2F0028DEA9010216AA010244
:1074B00035AA010263AA0102FFF7B6BF39B9D0F8B5
:1074C0000D00B0F5202F14BF002001207047D0F828
:1074D0001100014B9842F6E7006023004FF0FF32A5
:1074E00010B5084C411E00F6FB7011F8013F5340E7
:1074F000DBB254F82330884283EA1222F5D1D0431C
:1075000010BD00BF90AE010230B500250446ADF5B8
:10751000805D85B040F6FC72294605A8049502F00E
:1075200084F9A36813B1237B012B16D901F064FA07
:1075300020B900200DF5805D05B030BDD4F81130C4
:1075400000210293D4F80D30184A0193237B184888
:107550000093636802F050FAEBE74FF48052FF218A
:1075600004A802F062F94A22214604A802F050F968
:1075700005A8FFF7B3FF2368834214D001F03CFA5B
:107580000028D6D0D4F8113029460393D4F80D3012
:10759000064A0293237B074801936368009323689C
:1075A00002F02AFAC5E70120C4E700BF82AA01025F
:1075B0008DAA0102D4AA0102024620B1036883F019
:1075C0000100106070474FF0FF30704737B5044638
:1075D00060B901F011FA18B94FF0FF3003B030BDB7
:1075E0002146274A274802F007FAF5E701F004FA96
:1075F00040B1022300210093214A40F25713224850
:1076000002F0FAF94A22214804F1090100F0F0FFE2
:10761000051E0BDA01F0F0F940B100214FF4AF7311
:10762000174A1B480195009102F0E6F94A221948D1
:1076300004F1530100F0DCFF051E13DA01F0DCF960
:107640000028C9D00123002100930D4A4FF4AF73E5
:1076500001950F4802F0D0F9BEE701320BD00020AF
:107660002060BBE7D4F80D20D4F857309A42F4D804
:10767000F5D00133F3D0012300202360AEE700BF33
:1076800082AA01022CAB010250AB010200E0FF0014
:107690007CAB010200F0FF0073B54FF0FF310446F0
:1076A000CDE9001190B10568002D5DD10930FFF7DB
:1076B0002BFF064660B101F09FF930B14FF4CC7357
:1076C0002946404A404802F097F9617D084649E062
:1076D00004F15300FFF718FF054678B101F08CF96B
:1076E00030B140F29D133146364A384802F084F9F1
:1076F00094F85F102046FFF75FFFE7E701F07CF9A1
:1077000030B140F2A31329462E4A314802F074F9F1
:10771000042269462F4800F06BFF042205460DEB5A
:1077200002012D4800F064FF002D044608DA01F044
:1077300063F928B12B460021224A284802F05CF95F
:10774000002C08DA01F058F928B1234600211D4A1F
:10775000234802F051F9DDE90032134001330CBF38
:107760000320042002B070BD5330FFF7CDFE064663
:1077700060B101F041F930B14FF4DF730021114ADB
:10778000184802F039F994F85F109FE704F10900F6
:10779000FFF7BAFE054658B101F02EF930B140F2BC
:1077A000C3133146074A104802F026F9617DA1E76C
:1077B00001F022F90028ABD040F2C9132946014A52
:1077C0000A48A3E782AA0102ADAB0102D6AB0102CF
:1077D00017AC010210000A001060230052AC010235
:1077E0008AAC0102C4AC0102EDAC01022EAD010273
:1077F000F0B5044685B050B901F0FEF820B121463D
:107800005B4A5C4802F0F8F84FF0FF306CE001236F
:1078100003724FF0FF330422574802A9CDE9023327
:1078200000F0E6FE051E0BDA01F0E6F828B12B4663
:1078300000214F4A514802F0DFF84FF0FF33029326
:1078400004224F4803A900F0D3FE051E0BDA01F015
:10785000D3F828B12B460021454A4A4802F0CCF81B
:107860004FF0FF330393DDE90232934204F109063E
:1078700024D2013225D001213046FFF71FFE002817
:1078800055D104F15300FFF719FE064600284FD1E9
:1078900001F0B2F80125002850D101F0ADF848B14F
:1078A000022300210093324A40F21F3336480195EB
:1078B00002F0A2F800202060607515E016D00133B8
:1078C000D9D000213046FFF7F9FD38B904F1530053
:1078D000FFF7F4FD05460028DFD001214A20216092
:1078E00000FB01410020487505B0F0BD0021304685
:1078F000FFF7E4FD0246B8BB04F153073846FFF733
:10790000DDFD054628BB01213046FFF7D7FD48BB0A
:107910003846FFF7D3FD064630BB01F06DF802256F
:107920000028BAD040F21A33CDE900550BE000210F
:107930004A20216000FB01410120D4E7022300938B
:107940004FF4417301953146094A104802F054F84A
:10795000A3E71146104601254A2202FB0543256094
:107960005975C1E70846F7E708460D46F4E700BF3A
:1079700082AA01022CAB010206000A0069AD0102D5
:1079800006602300A4AD010238AE0102E1AD0102A0
:1079900003220B4B82B001930A4B9A6001221A61B9
:1079A0005A69D20505D5586980F00400C0F38000FB
:1079B00004E00198421E01920028F1D102B0704704
:1079C00060900F00000088444FF088431868C0F3AF
:1079D0004000704738B5584A584B9A609A6FD207A2
:1079E00015D55A6912F4003211D1BFF34F8FBFF38E
:1079F0006F8FC3F85022BFF34F8FBFF36F8F5A6959
:107A000042F400325A61BFF34F8FBFF36F8F4B4A7E
:107A1000936F9B0769D50023C2F88430BFF34F8F63
:107A2000D2F88030C3F3C900C3F34E335B01014683
:107A300003F4FF5545EA81740139C2F87442F9D262
:107A4000203B13F1200FF2D1BFF34F8FBFF36F8FA5
:107A50000023C2F88430BFF34F8F536923F480337F
:107A60005361BFF34F8FD2F88030344CC3F3C90158
:107A7000C3F34E335B010A4603F4FF5545EA8270B7
:107A8000013AC4F87402F9D2203B13F1200FF2D16D
:107A9000BFF34F8FBFF36F8F00F082F8636913F469
:107AA000803322D1C4F88430BFF34F8FD4F88030B4
:107AB0002249C3F3C900C3F34E335B01024603F40A
:107AC000FF5545EA8274013AC1F86042F9D2203B81
:107AD00013F1200FF2D1BFF34F8F4B6943F4803382
:107AE0004B61BFF34F8FBFF36F8F154B154A16498C
:107AF0001360164A1360164B1A6942F001021A61AC
:107B00000A6842F003020A605A6942F001025A61AF
:107B1000A3F573435A6A42F480325A625A6A42F4B5
:107B200000225A625A6A42F480225A625A6A42F425
:107B300000325A6238BD00BF0000000800ED00E0CE
:107B4000005A6202080E002800E501E0040E002839
:107B500000E001E0BFF35F8F074B5A6A22F48032E6
:107B60005A62D3F8942022F00102C3F89420BFF3A4
:107B70004F8FBFF36F8F704700ED00E0BFF35F8F53
:107B80000722064BC3F894205A6A42F480325A62A4
:107B9000BFF34F8FBFF36F8F704700BF00ED00E062
:107BA00070B5FFF7D7FF0023134A1449072B02F1E2
:107BB000080216D10022FF26114C104914F8013B8F
:107BC000D1F8C000934006FA02F543402B4008323A
:107BD0004340202AC1F8C030F0D1BDE87040FFF723
:107BE000CDBF52E90240C1F89830C1F89C40013342
:107BF000C1F8A000DAE700BF94B2010200ED00E096
:107C000090B20102114A30B5936F9B071CD5002337
:107C1000C2F88430BFF34F8FD2F88030C3F3C9006D
:107C2000C3F34E335B01014603F4FF5545EA81740B
:107C30000139C2F87442F9D2203B13F1200FF2D17E
:107C4000BFF34F8FBFF36F8F30BD00BF00ED00E07B
:107C5000064B82B01868002382B262F30F03000C57
:107C600060F31F43184602B0704700BF20B3010203
:107C7000082070476FF0030070470000014B186840
:107C8000704700BF1C300028014B1B6858687047C4
:107C9000140E002808B500F0A1FD002008BD00006A
:107CA00008B500F009FE002000F0C6FD00F064FEFB
:107CB000024B000B1860002008BD00BF20300028D8
:107CC00070B5144662B1094B094E1B6836685B6893
:107CD00015189B687343013B9D4203D800F088FC54
:107CE000204670BD6FF00400FBE700BF140E0028B3
:107CF00020300028B0F5283F06D30144B1F5303FCD
:107D00000BD9B0F5303F01D2002004E0B1F5383F87
:107D10008CBF002001200138704700207047000010
:107D200070B500210546FFF7E5FF044638B1294646
:107D3000124801F061FE6FF00604204670BD104B42
:107D40001B685B6899680F4BB5FBF1F21B6801FB80
:107D500012524B43013B72B99D420CD800F06AFDB0
:107D60000646204600F068FD284603F019FE30461E
:107D700000F062FDE1E76FF00404DEE7CCB201023F
:107D8000140E0028203000282DE9F0410F4611463E
:107D90000646FFF7AFFF1446054640B131461D4881
:107DA00001F02AFE6FF006052846BDE8F081002AA2
:107DB000FAD0194B1B685868B318184A0169126841
:107DC00080684243013A9342B6FBF1F201FB126232
:107DD0004FF0FF3398BF0023003A18BF01225242F0
:107DE0001343B4FBF1F201FB12410B430FD100F03E
:107DF00021FD8046284600F01FFD224639463046C8
:107E000000F048FC404600F017FD2546CCE76FF037
:107E10000405C9E7E7B20102140E0028203000284B
:107E200070470746FFF7FCFF002001460246034665
:107E30000446054606468046814682468346844679
:107E400086463847FEE7000010B500F007FE074BF6
:107E500000209B689847044628B900F08DFD044B2C
:107E60001860204610BD0124FBE700BF24B30102C7
:107E70002430002808B501F00FFC003818BF01209D
:107E800008BD000008B5044601F00CFC00B1FEE797
:107E9000094BDB68984700B1FEE7084B1C6080F394
:107EA0000A88226882F30888BFF34F8FBFF36F8F71
:107EB0001B685868FFF7B5FF24B30102283000287B
:107EC000024B03EB00139868704700BF180E0028A0
:107ED00070B5002000F072F80546002000F062F84E
:107EE000244C254EA06035400120E56000F05AF892
:107EF000A061012000F062F8E061012000F05EF86E
:107F00003040E268A169E061A06800F03BFD0B2011
:107F100000F048F8A0620B2000F050F8E0620C205E
:107F200000F040F8A0630C2000F048F8E0630D205A
:107F300000F038F8A0640D2000F040F8E0640E2056
:107F400000F030F8A0650E2000F038F8E0650F2052
:107F500000F028F8A0660F2000F030F8E06610204E
:107F600000F020F8A067102000F028F8E06700205B
:107F700070BD00BF180E002800F0FFFF10B54218BA
:107F8000435C5478D0781B0643EA0443034390785B
:107F900043EA002010BD425C0844407840EA0220D9
:107FA0007047000010289FBF0C235843024B1858FD
:107FB00088BF0020704700BF2C30002810289FBFCA
:107FC0000C22034B02FB0030406888BF0020704742
:107FD0002C30002810B5102818D8DFE800F0091C54
:107FE0001717171717171717172D405366798C0097
:107FF0004A494B4A08681368B0F5202F08D04968F1
:10800000B1F5CB1F04D043F001031360002010BD75
:1080100023F00103F9E741494248CC68404A8442D1
:10802000136806D00969B1F5CB1F02D043F00203F3
:10803000EBE723F00203E8E73849394AD1F8840036
:108040001368B0F5405F07D0D1F88810B1F5805FB4
:1080500002D043F40063D8E723F40063D5E72F4947
:108060002F4AD1F890001368B0F5804F07D0D1F8AF
:108070009410B1F5805F02D043F48053C5E723F438
:108080008053C2E72549264AD1F89C001368B0F511
:10809000A04F07D0D1F8A010B1F5903F02D043F423
:1080A0000053B2E723F40053AFE71C491C4AD1F850
:1080B000A8001368B0F5B83F07D0D1F8AC10B1F5FF
:1080C000903F02D043F480439FE723F480439CE732
:1080D0001249134AD1F8B4001368B0F5005F07D015
:1080E000D1F8B810B1F5805F02D043F400438CE7BB
:1080F00023F4004389E70949094AD1F8C00013680D
:10810000B0F5243F07D0D1F8C410B1F5805F02D09C
:1081100043F4803379E723F4803376E72C3000286A
:10812000F8300028006023002DE9F047202086B0B9
:1081300000F06AF8044600284CD04FF410564FF077
:10814000000820222146304600F052FA237823F01E
:108150002002413A192A02D9303B092B33D86A460A
:1081600000239146E15CFF2904D00133142B02F86F
:10817000011BF7D1002718336B44DFF860A0184DBE
:1081800003F8188C49465AF8040B01F05DFC88B9D5
:1081900016212046FFF7F2FE1A2128602046FFF73D
:1081A000EDFE1E2168602046FFF7F5FEA860F8B2DC
:1081B000FFF710FF0137112F05F10C05E2D1203632
:1081C000B6F5295FBDD1204600F01AF8002006B0B0
:1081D000BDE8F0874FF0FF30F9E700BF980E0028A8
:1081E0002C300028024B0348196801F005BC00BF81
:1081F000F830002850B301020020704701F015BB91
:1082000008B101F0FDBA704710B5044601F0F0FA6C
:10821000044A04449442034602D9FFF7F1FF0023C5
:10822000184610BD80E1002800F026BE02F0FCBA1E
:1082300008B5032000F050FC022000F045FC0020AF
:1082400000F04AFCBDE80840042000F089BD036945
:10825000002BFCDB7047F8B500250326FFF7F7FF7E
:10826000C561FFF7F4FF436D66F31C634365036963
:1082700043F000530361036943F080430361FFF758
:10828000E6FF446A0129E4B230D00627436D67F364
:108290001C634365036943F000530361036943F0C2
:1082A00080430361FFF7D3FF436A0229DBB244EA4C
:1082B00003241BD01521C36943F40033C361C36990
:1082C00061F30F23C361436D66F31C634365036968
:1082D00043F000530361036943F080430361FFF7F8
:1082E000B6FF436AC561DBB244EA03442046F8BDE9
:1082F00038B5FFF7ACFF836A95B265F399238362C3
:10830000FFF7A5FF012904460DD10422436D62F356
:108310001C636365236943F000532361236943F0C1
:108320008043236157E0022955D11421FFF78FFFC5
:10833000436D61F31C634365036943F000530361BC
:10834000036943F080430361FFF781FF016A254B16
:108350009942436D44D1042161F31C634365036971
:10836000C2F30F2243F000530361036943F08043DB
:108370000361FFF76CFF836A62F399233122836202
:10838000FFF765FFFFF763FFC36962F3070301228D
:10839000C361C36943F48033C361FFF758FFFFF73C
:1083A00056FF436D61F31C634365036943F000535B
:1083B0000361036943F080430361FFF748FFFFF760
:1083C00046FFC36962F30703C361C3696FF31043D8
:1083D000C361FFF73CFF2046BDE83840FFF737BFD9
:1083E000072294E71640C80048B90A4B19B1012288
:1083F0001A60002070471A6822F00102F8E701288D
:10840000F7D1054B09B10222F2E71A6822F0020205
:10841000EEE700BF1831002814310028162238B5C5
:1084200005462B4C2068FFF712FF836A6FF3081391
:108430008362436D6FF317034365436D62F31C63FF
:108440004365036943F000530361036943F08043CC
:108450000361FFF7FCFE0020FFF7E8FE022D0CD1C0
:1084600001222068FFF7F3FE836A62F30813836238
:108470000120FFF7DBFE002038BD042DF8D1E368B2
:1084800020689A7EFFF7E3FE436A62F39D534362DE
:10849000E3685B7E012B13D12068FFF7D8FEE36809
:1084A00020681979FFF7D7FEE1684B7E0A7E03FA50
:1084B00002F2104204D1024309792068FFF718FF45
:1084C000E3682068DA7EFFF7C2FE836ACDE700BF6B
:1084D00000310028044BDB681B7B042B02D10220F7
:1084E000FFF79CBF704700BF00310028034BDB68DB
:1084F000187B042801D1FFF791BF70470031002895
:10850000F8B52E4E0446F3680D469B68834233D976
:108510002B4BA1F10D02B0F5805F53F822202DD333
:108520008318B3F5005F8CBF00210121B4F5243F0F
:1085300026D3A318B3F5283F8CBF00230123B4F53D
:10854000283F03D3A018B0F5303F1DD9B4F5303F14
:108550004FF0000003D32244B2F5383F17D9194A2F
:10856000194F12683F680B433A43034313430ED13C
:108570002146164801F040FA15481EE00021D5E7D3
:108580000023DCE70120E6E7B4F5303FFAD2FFF73D
:10859000A1FF3068FFF75BFE436D64F3170343658B
:1085A000436D65F31C634365036943F00053036146
:1085B000FFF74DFEFFF79AFF0020F8BD00310028BD
:1085C0005CB40102183100281431002814B40102EF
:1085D000FEC8FFFF0E2907D00F2903D00D2905D1B2
:1085E00003F0DEB903F0E4B903F0E7B90020704707
:1085F0002DE9F043254F0446FB680E469B6815465F
:10860000834289B03FD920220021684601F00DF94C
:108610001DB9002009B0BDE8F0834FF0050924F032
:108620001F083868FFF713FE3868FFF710FE436D28
:108630006A4668F317034365436D08F1200869F340
:108640001C634365036943F000530361FFF7FFFDBB
:108650000023386881690133082B42F8041BF9D1E3
:10866000334604F01F021DF80210013D03F8011B00
:1086700003EB0401A1EB0601CBD00132202AF2D199
:108680001E460C46CDE70248C4E700BF0031002873
:10869000FEC8FFFF2DE9F0434B4F0446FB680E4632
:1086A0009B681546834289B031D9B0F5805F30D3DD
:1086B0008318B3F5005F8CBF00220122B4F5243F7C
:1086C00029D36319B3F5283F8CBF00230123B4F5E8
:1086D000283F03D36119B1F5303F6FD9B4F5303F6E
:1086E0004FF0000003D36119B1F5383F15D9374970
:1086F000DFF8DCC00968DCF800C0134341EA0C0174
:1087000003430B4309D12146324801F075F9324841
:108710000EE00022D2E70023D9E7FFF7DBFEFB687B
:1087200024F01F089B68984505D3FFF7DFFE002063
:1087300009B0BDE8F0839D42F7D805EB08029342EB
:10874000F3D3002DF1D02022FF216846FFF756FD1C
:10875000324604F01F0312F8011B013D0DF803100F
:1087600002EB0401A1EB060102D00133202BF2D170
:108770003868FFF76CFD6E46002456F8049B386895
:108780000134FFF764FD082CC0F81490F5D10C24D7
:108790003868FFF75CFD436D164668F317034365C1
:1087A000436D08F1200864F31C63436503690C46BC
:1087B00043F000530361FFF74AFDC2E7B4F5303FD1
:1087C000ABD301208FE700BF00310028183100280B
:1087D0001431002837B40102FEC8FFFF034B1A789A
:1087E0000AB100221A700020704700BF1031002823
:1087F00010B50446FFF76EFE044B21461868FFF7DC
:108800002AFD0446FFF772FEA0B210BD0031002819
:1088100038B504460D46FFF75DFE054B2A4618683D
:108820002146FFF765FDFFF761FE002038BD00BF60
:108830000031002800207047F8B51D4D2B78A3BBF0
:108840001C4EFFF747FEF368306819795C8A9A7C02
:10885000FFF701FDF168240A91F80EC0CB7B20FAE6
:108860000CFE0EEA030E96454F7B05D120FA07FE5B
:108870000EF0010EA64514D003FA0CFE134003FAC5
:108880000CF220EA0E001043012204F00104BA4069
:1088900020EA020004FA07F2024309793068FFF780
:1088A00027FD01232B70FFF721FE0020F8BD00BF3C
:1088B000113100280031002870B5284E3578002D80
:1088C00048D1274C102229462046FFF797FC204626
:1088D00000F058FB0220FFF7A1FD14222068FFF7EB
:1088E000B6FC436D62F31C63436503691D4A43F0A4
:1088F00000530361036943F080430361FFF7A7FC62
:10890000036A1360184AA360934203D0174A934244
:1089100022D101251C23164903FB05150320E56020
:10892000FFF78AFF2068FFF792FC836A6FF3492301
:108930008362E368187BFFF771FD05222068FFF76B
:1089400086FC836A62F3030383620120FFF76EFCF7
:1089500001233370002070BD064DDFE71031002881
:1089600000310028FC3000281765C80018400B00B3
:1089700068B4010284B40102014BDB689868704757
:1089800000310028034B02441B689865081ADA6519
:10899000186670470031002808B572B6003818BF55
:1089A0000120054B1B685A6E60F300025A66FFF700
:1089B00029F962B608BD00BF0031002810B50B4C84
:1089C000236B1A0409D5236C1B0704D4084BD3F876
:1089D0003C24084B1A60002010BD0A20236B01F0D4
:1089E0001BFF0A20236C01F017FFEFE70000014492
:1089F0000000104B1C310028034B186880F40070F5
:108A0000C0F34020704700BF1C310028034B18689A
:108A100080F48060C0F38020704700BF1C310028C4
:108A2000024B0348196800F0E7BF00BF1C31002863
:108A3000A0B40102024A936A43F00C0393627047A8
:108A40000000014408B5FFF7F5FF4FF0894340F4FB
:108A5000B40240F425001A61186108BD4FF6FF709A
:108A6000FFF7F0BF0122064B016003449B08054954
:108A700002FA03F3D1F8E8201A42FBD1704700BF95
:108A800000FFFEBB0000014430B4046802FA01F5A7
:108A90001A4024EA050402FA01F1214330BCFFF731
:108AA000E1BF00000346012209210148FFF7ECBFA6
:108AB0002001014482B00190019B5A1E0192002BBB
:108AC000FAD102B070470000024B5A6A60F3196293
:108AD0005A62704700000144024B5A6A60F39B627D
:108AE0005A62704700000144F0B587B06C460746F3
:108AF0000E46074D0FCD0FC495E8030084E8030030
:108B000006AB03EBC70757F8143C1E6007B0F0BD77
:108B1000ACB4010270B586B06C460646074D0FCD69
:108B20000FC495E8030084E8030006AB03EBC60618
:108B300056F8143C186806B070BD00BFACB4010212
:108B4000012870B506460C461D4647D80F2945D862
:108B5000012A43D8049B012B40D8012D3ED8002088
:108B6000FFF7D8FFC0F30010B04217D90020FFF77D
:108B7000D1FF20F010010020FFF7B6FF0020FFF723
:108B8000C9FF20F00F0121430020FFF7ADFF154B77
:108B90001A6965F304121A61002070BD24B9114BE3
:108BA0001A6965F304121A610020FFF7B3FF20F081
:108BB0000F0121430020FFF797FF24B1094B1A69E9
:108BC00065F304121A610020FFF7A4FF20F01001E2
:108BD00041EA06110020FFF787FFDDE74FF0FF3085
:108BE000DBE700BF000001440D4B10B5D3F8203186
:108BF0000446C3F3034398420FD00120FFF752FF0E
:108C000023460F2210210748FFF73EFF0020FFF701
:108C100049FF4FF47A60FFF74DFF002010BD00BF01
:108C2000000001442001014413B5082842D8DFE8C0
:108C300000F0363B312C221D13410500002301209A
:108C40001A4619460090FFF77BFF04460D20FFF7F8
:108C5000CBFF204602B010BD01230022194600932D
:108C60001846FFF76DFF04460C20F0E701230022B1
:108C700002210093F4E70123002203210093184608
:108C8000FFF75EFF04460B20E1E7012300220521E8
:108C90000093F4E70123002207210093EFE701236B
:108CA00000220F210093EAE700220123114610461B
:108CB0000093E5E70024CCE707B508284DD8DFE8A6
:108CC00000F03B43332B231B124C05000D20FFF714
:108CD0008BFF002301201A4619460090FFF730FF52
:108CE00003B05DF804FB0C20FFF77EFF0123002298
:108CF000194600931846F1E70C20FFF775FF012392
:108D0000002202210093F5E70B20FFF76DFF0123FE
:108D1000002203210093EDE70B20FFF765FF0123FD
:108D2000002205210093E5E70B20FFF75DFF0123FB
:108D3000002207210093DDE70B20FFF755FF0123F9
:108D400000220F210093D5E70B20FFF74DFF0022F3
:108D50000123114610460093C0E70020C0E7000041
:108D600038B5074D04462B78834203D004D9FFF76A
:108D70005BFF2C70002038BDFFF79EFFF9E700BFB6
:108D8000DC0E0028002301220F210148FFF77CBEE2
:108D90000401014401230F211A460148FFF774BE64
:108DA0000401014438B52D4B0446D3F884502C48B7
:108DB00025F40022C3F8842001230B211A46FFF773
:108DC00063FE0023012210210430FFF75DFE4FF403
:108DD000AA70FFF76FFEFFF7D5FF9CB340F648502F
:108DE000FFF768FEFFF7D6FF7CB340F64850FFF769
:108DF00061FEFFF7C7FF5CB340F64850FFF75AFE2D
:108E0000FFF7C8FF3CB340F64850FFF753FE00F0B1
:108E1000B2F87F22034601211248FFF735FE0123F5
:108E200010211A46FFF730FE002301220B210438DF
:108E3000FFF72AFE2B0303D54FF4002001F014FDA9
:108E4000002038BD4FF4AA70CAE74FF4AA70CEE7ED
:108E50004FF4AA70D2E74FF4AA70D6E7000001449D
:108E6000000101440401014408B50120FFF79AFF05
:108E7000BDE8084000F092B838B500F077F82C4B08
:108E80002C4DD3F81411044641F020012846FFF779
:108E9000E9FDA5F114002849FFF7E4FD2749043056
:108EA000FFF7E0FD26490430FFF7DCFD25490430DB
:108EB000FFF7D8FD4FF080410430FFF7D3FD28467F
:108EC0002149FFF7CFFD21490430FFF7CBFD2049B1
:108ED0000430FFF7C7FD1F490430FFF7C3FD012031
:108EE000FFF7E0FD1C481D49FFF7BCFD1C4904309D
:108EF000FFF7B8FD00210430FFF7B4FD4FF48011F7
:108F00000430FFF7AFFD4FF400210430FFF7AAFD56
:108F100014490430FFF7A6FD13490430FFF7A2FD02
:108F20000020FFF7BFFD2046BDE83840FFF79CBF9B
:108F300000000144140101448097211900FA2EC059
:108F400036D40006C80BFCFD602107840081088030
:108F5000C697E657E4727CF924010144273315B71C
:108F60009AB8EEF70800A800F60988524FF0884337
:108F7000D3F8F00170474FF08843D3F8F401C0F301
:108F800086307047034B03609A68002042F001026C
:108F90009A60704700000344002070470B4B9A68AA
:108FA00042F001029A604FF0FF321A61DA6942F032
:108FB0000102DA61A3F500031A6B42F010021A6392
:108FC0001A6A42F480121A62704700BF000081449E
:108FD00001680E4A0346914215D1C169A2F11022DF
:108FE000A2F1EF1291420ED18268012A0BD8C26819
:108FF00012B101698A4206D0586928B19B691B1ACF
:109000005842584170470120704700BF55AA00FFE1
:109010000D4B70B59E68A6B13046FFF7D9FF0446E8
:1090200078B9F3686BB935690DB9204670BD28462B
:10903000FFF7CEFF28B9EB68B34202D12E462D6967
:10904000F2E70124F1E700BF1C5600282DE9F843A0
:10905000404F3C68D4B1BC68C4B100284DD0002951
:109060004BD001FB00F5B5FBF0F0884245D1281D3F
:1090700043D8A9070DD025F003060436FC6803E0A9
:109080006368B3423BD2A469002CF9D12046BDE805
:10909000F8832E46F2E7F86044E006F1200C04EB7A
:1090A0000C03203959600021DFF8ACE0C3E9021459
:1090B0002169196144F80CE0DFF8A0C0C3F81CC0B6
:1090C00001B1CB60C3E90520AAB193619A6902B1ED
:1090D0005361236100234FF00109C4E905333B6963
:1090E000C4E90169DB072DD5FFF792FF50B31C4B94
:1090F00048461B6825E0FB60E8E70024C6E7A36854
:109100001BB1174B01201B689847D4E90520616803
:1091100004F12008891B2329BFD80123A360002A5A
:10912000B9D09061A36903B15A610023C4E9053342
:109130003B69DA0706D5FFF76BFF18B10120084B32
:109140001B6898472A4600214046444600F06DFBC4
:109150009CE700BF1C56002855AA00FF669911EE37
:10916000E40E00282DE9F041054600287CD03F4F51
:109170003B68002B78D0BA68002A75D0834203D8A8
:109180007A681344984203D3394B01201B689847EF
:10919000A5F120042046FFF71BFF18B1344B012036
:1091A0001B68984755F8183C012B03D0304B012021
:1091B0001B689847002355F8146C45F8183CAEB16D
:1091C000B26892B955F81C3C03F12002736813444D
:1091D000736055F8103C336103B1DE6020462022F5
:1091E000002100F022FB234634461E462069002859
:1091F00032D08368002B2FD1636842682033134438
:1092000063600369D4E905212361DAB901BB4269CE
:1092100081696261A161EAB19461A26902B154619C
:1092200003B1DC602022002100F0FFFA3B699B07BC
:109230001AD5FFF7EDFEB8B1BDE8F0410C4B0120A7
:109240001B6818479161A1690029E0D04A61DEE7F7
:10925000F960F8E7FC60E0E7002EE7D1FB68A36166
:1092600003B15C61FC60E1E7BDE8F0811C560028B9
:10927000E40E002838B50D46142200210446124899
:1092800000F0D3FA1149124800F032F8232D1AD910
:1092900014F003031FBF043DED18C3F10403E418E9
:1092A0002A460021204600F0C0FA074B094AC3E9CC
:1092B00000459C602260A2F11022203DA2F1EF1235
:1092C0006560E261DC6038BD1C56002865910102D2
:1092D0004D90010255AA00FF00207047704770476B
:1092E00018B1024B1B6803B118477047E80E0028FD
:1092F000024B1860024B002019607047E00E0028F6
:10930000E80E00280E4B1A681368042815D8DFE809
:1093100000F003080B0E110043F00103002013605E
:10932000704743F00203F9E743F00403F6E743F024
:109330000803F3E743F01003F0E74FF0FF30704706
:109340003056002808B50A4B1860036823F0200344
:10935000036000F01DF80020FFF7D4FF00F09CF838
:1093600000F000F900F05AF900F0BCF8002008BD48
:109370003056002808B500F031F800F06BF9BDE870
:10938000084000F000B87047002070470020704788
:10939000114B82B019680A6842F004020A60196829
:1093A0004A6842F004004860196822F004024A60EA
:1093B00043F224111A688B580193019B43F0010377
:1093C0000193019B23F0F00343F080030193019B81
:1093D0008B5002B000F022B830560028034B1A68B8
:1093E000136823F00403136000F002B8305600281D
:1093F00010B5094C0220FFF7C7FFD4F80C0300F0AA
:109400008DF920464FF44472002100F01FF9BDE8A9
:1094100010400220FFF7BABF3456002837B543F298
:109420002C12184B184C2360184B1B68D358C3F3ED
:109430008143012B20D0022B21D0DBB94FF4806374
:10944000002563606A4661680E4800958DF80450F7
:1094500000F02EF94FF421722946C4F80C030C4891
:1094600000F0F4F82023802229460A48C4F8083383
:1094700000F0ECF803B030BD4FF40063E0E74FF4C8
:109480008053DDE7000006283456002830560028B7
:10949000BC5600283C56002807B500200190FFF775
:1094A00031FF0F4B19684A680192019A42F001029C
:1094B0000192019A4A6019684A680192019A22F061
:1094C00001020192019A4A60019A1B6842F001026E
:1094D000019243F284220199D15003B05DF804FB5C
:1094E000305600281FB500231D4C01932368D3F884
:1094F000001411F001012FD11A680192019A42F073
:1095000008020192019A1A60226853680193019B34
:1095100043F008030193019B5360019B23F0080370
:109520000193019A23685A6022680291D2F80034AC
:109530000293029B23F480730293029BC2F80034CF
:109540002368D3F800340393039BDB0704D44FF460
:10955000FA6000F07DF8F3E7002004B010BD00BF12
:1095600030560028002307B501200193FFF7CAFEFB
:109570000E4B19684A680192019A42F00202019268
:10958000019A4A60019A22F00202019201991A6836
:109590005160019A1B6842F00102019243F20422D9
:1095A0000199D15003B05DF804FB00BF305600288C
:1095B000124B01681A68C2F804121A684168C2F8AE
:1095C00008121A688168C2F80C121A68C168C2F8D9
:1095D00010121A680169C2F814121A684169C2F8B7
:1095E00024120F211A68C2F820121A68D2F88C329D
:1095F00043F00103C2F88432704700BF30560028A0
:10960000054A11684B6843F010004860126823F067
:1096100010035360704700BF3056002808B5FFF7AD
:10962000EFFFBDE808400148FFF7C2BFECB80102F8
:1096300038B50546FEF7E8FD044618B12A46002174
:1096400000F0F3F8204638BDFEF7DABD00F0EDB8C3
:1096500070470000F8B50E4E3368012B08D10D4C51
:109660006068A04205D10368834202D100233360C1
:10967000F8BD00274568A042F8D0D0E90023536028
:109680001A60C0E90077FFF72BFE28466D68F2E705
:1096900044590028485900280148FFF753BE00BF2D
:1096A0000000114B08B5FFF765FE002008BD000063
:1096B000F8B50D461646074610B900242046F8BDF9
:1096C0000029FAD0002AF8D0136823B1013B40EA00
:1096D00001021342F1D12020FFF7AAFF044600281F
:1096E000EBD00D4B0360FB1C23F003033279C36006
:1096F000DB1BED1A336825F0030502720561436038
:109700003AB100F037F8606104F11803C4E9063398
:10971000D4E74261F8E700BF56414D47F8B504462B
:1097200038B3037A13B1406900F026F8E06904F118
:10973000180585420ED1A3699D420BD1237A13B13E
:10974000606900F01BF8002323602046BDE8F84064
:10975000FFF77ABF002746688542EFD0D0E90023A3
:1097600053601A60C0E90077FFF76EFF30467668F5
:10977000F2E7F8BD002070470020704700207047D6
:1097800008B5074B044613B1002100E000BF054BAC
:109790001868836A03B19847204601F02DF800BF8E
:1097A0000000000004B9010270B50D4D00260D4CFB
:1097B000641BA410A64209D10B4D00260B4C01F0EE
:1097C0001DF8641BA410A64205D170BD55F8043BDA
:1097D00001369847EEE755F8043B01369847F2E723
:1097E000500F0028500F0028500F0028540F002859
:1097F000024B0146186800F08BB800BFEC0E002841
:10980000024B0146186800F019B800BFEC0E0028A2
:109810000A44431E914200D1704710B511F8014B24
:10982000914203F8014FF9D110BD0244034693421F
:1098300000D1704703F8011BF9E7000038B5054671
:10984000002941D051F8043C0C1F002BB8BFE4188C
:1098500000F0FCF91D4A136833B9636014602846B0
:10986000BDE8384000F0F8B9A34208D920682118B3
:109870008B4201BF19685B6809182160EDE71A4641
:109880005B680BB1A342FAD911685018A0420BD102
:1098900020680144501811608342E0D118685B6869
:1098A000014453601160DAE702D90C232B60D6E73C
:1098B000206821188B4202BF19685B680918636031
:1098C00008BF21605460CAE738BD00BF5059002866
:1098D00070B50E4E0C460546316811B900F0A4F87B
:1098E00030602146284600F09FF8431C0AD0C41C73
:1098F00024F00304A04207D0211A284600F094F86F
:10990000013001D14FF0FF34204670BD545900287A
:109910002DE9F041CD1C074625F0030508350C2D37
:1099200038BF0C25002D01DBA94205D90C230026E8
:109930003B603046BDE8F0812E4E00F087F9336879
:109940001C4634BB29463846FFF7C2FF431C044679
:109950004DD134682646002E40D123683146384622
:1099600004EB030800F060F880453AD12168033524
:1099700038466D1A25F0030508350C2D38BF0C2527
:109980002946FFF7A5FF01302BD023682B44236025
:109990000EE02268521B1ED40B2A16D96119A3426D
:1099A000256018BF5960636808BF316062514B6021
:1099B00004F10B06384600F04FF9231D26F0070688
:1099C000F21AB6D09B1BA350B3E76268A3420CBF48
:1099D00032605A60ECE723466468B2E73446766842
:1099E000B9E70C2338463B6000F036F9A1E7256063
:1099F000DEE700BF505900280FB40A4B13B51C68AE
:109A000024B1A36913B9204600F080F805AB049A8D
:109A1000A1682046019300F04DF902B0BDE8104066
:109A200004B07047EC0E002838B50023054D0446FD
:109A300008462B6000F0C8FE431C02D12B6803B11E
:109A4000236038BD5C59002810F8012B11F8013B48
:109A5000012A28BF9A42F7D0D01A7047002310B5C8
:109A600004468360818119464366C281082283616E
:109A7000C0E90033C0E904335C30FFF7D6FE054B84
:109A800024626362044BA362044BE362044B2363CE
:109A900010BD00BF41A2010263A201029BA201020C
:109AA000BFA20102014900F0AFB800BF8DA50102BD
:109AB00070B568224D1E0E46554305F17401FFF73F
:109AC00027FF044640B1002105F16802C0E90016F5
:109AD0000C30A060FFF7A9FE204670BD014800F0E1
:109AE000B3B800BF59590028014800F0AEB800BF14
:109AF00059590028014800F0A7B800BF5A5900285A
:109B0000014800F0A2B800BF5A59002810B5044619
:109B1000FFF7F0FFA3691BB1BDE81040FFF7F0BFEE
:109B2000C4E9123323652046124B134A1B68A26214
:109B3000A34204BF0123A36100F020F86060204627
:109B400000F01CF8A060204600F018F80022042164
:109B5000E0606068FFF782FF01220921A068FFF73B
:109B60007DFF02221221E068FFF778FF0123A36145
:109B7000D2E700BF04B90102A59A0102F8B5074671
:109B8000FFF7ACFF1E4B1E68B36913B93046FFF7F1
:109B9000BDFF4836D6E90134013B03D533680BB32A
:109BA0003668F7E7B4F90C50D5B9164B04F15800F4
:109BB0006566E36000F047F8FFF796FF0822294644
:109BC00004F15C002560A561C4E90155C4E90455B0
:109BD000FFF72BFEC4E90D55C4E912552046F8BD28
:109BE0006834D9E704213846FFF762FF0446306045
:109BF0000028D5D1FFF778FF0C233B60EEE700BFCC
:109C000004B901020100FFFF2DE9F843064688462A
:109C100000F148040027D4E90195B9F1010905D5FF
:109C20002468002CF7D13846BDE8F883AB89012BB6
:109C300007D9B5F90E30013303D029463046C04765
:109C400007436835E9E77047704770470148FFF7F9
:109C5000FBBF00BF585900280148FFF7F6BF00BFFF
:109C6000585900289368013B002B936010B407DA21
:109C70009469A34201DB0A2902D110BC00F024BB85
:109C80001368581C10600846197010BC7047F8B56E
:109C900006460F461446D518AC4201D1002007E015
:109CA0003A4614F8011B3046FFF7DCFF431CF3D1A2
:109CB000F8BD00002DE9F04F0D469DB014469846C2
:109CC000064618B183690BB9FFF720FF894B9D4207
:109CD0001BD175686B6ED90705D4AB899A0502D480
:109CE000A86DFFF7B1FFAB891B0701D52B69EBB955
:109CF0002946304600F04CFBC0B16B6EDC070ED538
:109D00004FF0FF301DB0BDE8F08F7B4B9D4201D17D
:109D1000B568DFE7794B9D4208BFF568DAE7AB89A4
:109D20009805EDD4A86DFFF790FFE9E70023CDF883
:109D30000C804FF00109DFF8C881099320238DF8CA
:109D4000293030238DF82A3023469A4613F8012B08
:109D50000AB1252AF9D1BAEB040B0BD05B46224697
:109D600029463046FFF793FF013000F0AA80099A98
:109D70005A4409929AF80030002B00F0A280002388
:109D80004FF0FF320AF1010A049307938DF8533024
:109D90001A93CDE9052354460522594814F8011BAE
:109DA00000F0A8FC049AD8B9D10644BF20238DF84E
:109DB0005330130744BF2B238DF853309AF80030EB
:109DC0002A2B15D0079A544600204FF00A0C214642
:109DD00011F8013B303B092B4ED9B0B1079214E08A
:109DE000A0EB0803A24609FA03F313430493D2E756
:109DF000039B191D1B68002B0391BBBF5B4242F004
:109E0000020207930793B8BF049223782E2B0CD13C
:109E100063782A2B35D1039B02341A1D1B68002B53
:109E20000392B8BF4FF0FF330593DFF8D8A00322A9
:109E30002178504600F05EFC40B14023A0EB0A00C0
:109E4000013403FA00F0049B0343049314F8011B4C
:109E500006222D488DF8281000F04CFC00283FD039
:109E60002A4B1BBB039B073323F0070308330393E1
:109E7000099B3B44099367E70CFB02320C46012027
:109E8000A5E7002301344FF00A0C1946059320463C
:109E900010F8012B303A092A03D9002BC5D00591BF
:109EA000C3E70CFB012104460123F0E703AB2A467C
:109EB00004A930460093164B00E000BF0746781C0B
:109EC000D6D16B6ED90705D4AB899A0502D4A86D9B
:109ED000FFF7BBFEAB895B063FF512AF099811E7B0
:109EE00003AB2A4604A930460093094B00F082F8E0
:109EF000E4E700BF28B9010248B9010208B901022C
:109F000068B901026EB9010272B9010200000000D5
:109F10008F9C01022DE9F047164699468A6807464C
:109F20000B690C46DDF820809342B8BF13463360BE
:109F300091F843200AB1013333602368990642BF88
:109F4000336802333360256815F0060506D104F145
:109F5000190AE36832689B1AAB4229DC94F8432063
:109F6000131E226818BF012392062ED404F1430267
:109F700049463846C047013021D023681A3454F886
:109F80000E5C03F0060332680026042B54F8123CE2
:109F900008BFAD1A54F80A2C14BF002525EAE57550
:109FA0009342C4BF9B1AED18B5421AD1002008E0B5
:109FB0000123524649463846C047013003D14FF08D
:109FC000FF30BDE8F0870135C3E7E1185A1C3020A7
:109FD0000233224481F8430094F8451082F843107C
:109FE000C4E70123224649463846C0470130E6D03F
:109FF0000136D9E72DE9FF470F7E914680460C4692
:10A00000782F9A460C9D01F1430207D8622F0AD897
:10A01000002F00F0D880582F00F0A38004F14205F3
:10A0200084F842703AE0A7F16303152BF6D801A13A
:10A0300051F823F08DA00102A1A001021DA0010290
:10A040001DA001021DA001021DA00102A1A001028C
:10A050001DA001021DA001021DA001021DA0010200
:10A06000ADA10102D1A001028FA101021DA0010238
:10A070001DA00102CFA101021DA00102D1A0010279
:10A080001DA001021DA0010297A101022B681A1D4B
:10A090001B682A6004F1420584F842300123A3E0E2
:10A0A00020682968060601F104030AD50E682B60B2
:10A0B000002E03DA2D23764284F843305E480A23CB
:10A0C00019E00E6810F0400F2B6018BF36B2EFE7B2
:10A0D0002B682068191D2960010601D51E6802E061
:10A0E0004606FBD51E886F2F53480CBF08230A2352
:10A0F000002184F843106568002DA560A2BF216887
:10A1000021F0040121600EB9002D4DD01546B6FB9B
:10A11000F3F103FB1167C75D05F8017D37460E4675
:10A12000BB42F4D9082B0BD12368DE0708D523697D
:10A1300061689942DEBF302305F8013C05F1FF3527
:10A14000521B22614B4603AA21464046CDF800A08F
:10A15000FFF7E0FE01304CD14FF0FF3004B0BDE816
:10A16000F087354881F845702968236851F8046BF9
:10A1700029601D0614D5DF0744BF43F02003236088
:10A180001EB9236823F0200323601023B0E723685F
:10A1900043F0200323607823284884F84530E3E720
:10A1A000590648BFB6B2E6E71546BBE72B682668F6
:10A1B000181D6169286035061B6801D5196002E029
:10A1C0007006FBD51980002315462361BAE72B687A
:10A1D00000211A1D2A601D686268284600F08AFA6C
:10A1E00008B1401B606063682361002384F843303A
:10A1F000A8E723692A4649464046D0470130ABD0FC
:10A2000023689B0713D4E068039B9842B8BF1846A5
:10A21000A4E70123324649464046D04701309BD04F
:10A220000135E36803995B1AAB42F2DCEBE70025EA
:10A2300004F11906F5E700BF79B901028AB90102F4
:10A2400010B50C46B1F90E1000F062FA0028ABBF51
:10A25000636DA3891B1823F48053ACBF6365A3818E
:10A2600010BD2DE9F0411F468B8905460C46DB05E4
:10A27000164605D502230022B1F90E1000F0C2F9EE
:10A28000A3893246B4F90E10284623F48053A381E3
:10A290003B46BDE8F04100F069B810B50C46B1F995
:10A2A0000E1000F0AFF9431CA38915BF606523F4BD
:10A2B000805343F48053A38118BFA38110BDB1F92B
:10A2C0000E1000F0D3B80000F8B50E46144605464F
:10A2D00018B183690BB9FFF719FC214B9C422BD1B4
:10A2E0006C68A369A360A3891A072FD523696BB390
:10A2F0002369F6B220683746C01A6369834204DCDA
:10A300002146284600F042F930BBA3680130013BEA
:10A31000A36023685A1C22601E706369834204D0C4
:10A32000A389DB0706D50A2E04D12146284600F072
:10A330002DF988B93846F8BD0A4B9C4201D1AC686A
:10A34000CFE7094B9C4208BFEC68CAE72146284684
:10A3500000F01EF80028CBD04FF0FF37EAE700BF2F
:10A3600028B9010248B9010208B9010238B504460A
:10A37000064D0846114600222A601A4600F034FABB
:10A38000431C02D12B6803B1236038BD5C590028FF
:10A39000324B70B51D6806460C4625B1AB6913B942
:10A3A0002846FFF7B3FB2E4B9C420FD16C68A38964
:10A3B000B4F90C2019072CD4DD0611D4092333601D
:10A3C00042F040034FF0FF30A3813EE0254B9C421A
:10A3D00001D1AC68EBE7244B9C4208BFEC68E6E790
:10A3E000580712D5616B41B104F14403994202D080
:10A3F0003046FFF723FA00236363A38923F0240385
:10A40000A3810023636023692360A38943F00803C9
:10A41000A38123694BB9A38903F42073B3F5007FAB
:10A4200003D02146304600F025F9A089B4F90C206C
:10A4300010F001030AD00023A36063695B42A361AB
:10A44000236943B910F08000BAD170BD810758BFAD
:10A450006369A360F4E70020F7E700BFEC0E002873
:10A4600028B9010248B9010208B9010238B5002330
:10A47000054D044608462B6000F07EF9431C02D1CE
:10A480002B6803B1236038BD5C5900288A89F8B570
:10A49000054610070C4657D44B68002B04DC0B6CA8
:10A4A000002B01DC0020F8BDE66A002EFAD0002364
:10A4B00012F480522F682B6032D0606DA3895A0746
:10A4C00005D56368C01A636B0BB1236CC01A0023F7
:10A4D0000246E66A2846216AB047431CA38906D192
:10A4E00029681D292CD8284ACA40D60728D5002219
:10A4F000D90462602269226004D5421C01D12B6814
:10A5000003B96065616B2F600029CBD004F144036F
:10A51000994202D02846FFF791F900206063C2E714
:10A52000216A01232846B047411CC7D12B68002B64
:10A53000C4D01D2B01D0162B01D12F60B2E7A38907
:10A5400043F04003A381AEE70F69002FAAD0930721
:10A550000E680F600CBF4B690023F61B8B60002E4A
:10A56000A0DD33463A46216A2846D4F828C0E047A1
:10A57000002806DCA3894FF0FF3043F04003A3819D
:10A5800091E70744361AEAE70100402038B50B6925
:10A5900005460C4613B90025284638BD18B1836915
:10A5A0000BB9FFF7B3FA144B9C421BD16C68B4F99A
:10A5B0000C30002BEFD0626ED00704D4990502D482
:10A5C000A06DFFF741FB28462146FFF75FFF636E52
:10A5D0000546DA07E0D4A3899B05DDD4A06DFFF71B
:10A5E00034FBD9E7054B9C4201D1AC68DFE7044B53
:10A5F0009C4208BFEC68DAE728B9010248B90102B9
:10A6000008B9010238B50446064D08461146002235
:10A610002A601A4600F0C8F8431C02D12B6803B127
:10A62000236038BD5C59002870B50E46B1F90E1094
:10A6300096B0144600291D4608DAB6F90C300022FF
:10A640002A601A0610D44FF480630EE06A4600F0C8
:10A6500071F80028F1DB019A02F47042A2F5005370
:10A660005A425A412A60EEE740230020236016B088
:10A6700070BD00008B8973B59D0706460C4607D553
:10A6800004F14703236023610123636102B070BDBD
:10A6900001AB6A46FFF7C8FF009905463046FFF751
:10A6A00037F948B9B4F90C309A05EFD423F0030315
:10A6B00043F00203A381E3E70D4BB362A38920605B
:10A6C00043F080032061A381009B6361019B5BB128
:10A6D000B4F90E10304600F03FF828B1A38923F0FA
:10A6E000030343F00103A381A0890543A581CDE7BE
:10A6F000A59A0102C9B20346024410B59342184616
:10A7000001D1002003E0047801338C42F6D110BD62
:10A7100038B50446064D0846114600222A601A46FE
:10A7200000F04AF8431C02D12B6803B1236038BD06
:10A730005C59002838B50023064D044608461146EA
:10A740002B6000F021F8431C02D12B6803B1236079
:10A7500038BD00BF5C59002838B50023054D0446BC
:10A7600008462B6000F018F8431C02D12B6803B197
:10A77000236038BD5C590028024B58224FF0FF304F
:10A780001A6070475C590028024B58224FF0FF3086
:10A790001A6070475C590028024B582200201A604A
:10A7A000704700BF5C590028024B58224FF0FF3021
:10A7B0001A6070475C590028024B58224FF0FF3056
:10A7C0001A6070475C590028054A0346106810B1AA
:10A7D000034413607047034803441360704700BF8D
:10A7E0006059002880A10028024B58224FF0FF300A
:10A7F0001A6070475C590028FEE700BFF8B500BF3B
:10A80000F8BC08BC9E467047F8B500BFF8BC08BC51
:10A810009E4670470000000001B40248844601BC17
:10A82000604700BF1B03000801B40248844601BC16
:10A83000604700BFE100000801B40248844601BC43
:10A84000604700BF1108000801B40248844601BCFB
:10A85000604700BF0904000801B40248844601BCF7
:10A86000604700BF7905000801B40248844601BC76
:10A87000604700BF9D0000085B464F5243455D2086
:10A88000206D61696E2030782570200D0A0D0A0058
:10A890005B4552525D20506C6174666F726D206929
:10A8A0006E6974206661696C65640D0A005B464FD1
:10A8B0005243455D205374617274696E6720626F04
:10A8C0006F746C6F616465720D0A0D0A005B464F10
:10A8D0005243455D20496E6974300D0A0D0A005BD4
:10A8E0004552525D204F54502073797374656D202A
:10A8F000696E697469616C697A6174696F6E2066EA
:10A9000061696C65640D0A005B4552525D204572B9
:10A91000726F72207768696C6520696E697469610D
:10A920006C697A696E6720746865207365637572F7
:10A9300069747920636F756E7465720D0A005B45EA
:10A9400052525D20506C6174666F726D20706F732F
:10A950007420696E6974206661696C65640D0A0013
:10A960005B464F5243455D200A4A756D70696E67BC
:10A9700020746F2074686520666972737420736C2C
:10A980006F740D0A005B464F5243455D200A4A75BD
:10A990006D70696E6720746F2074686520736563DD
:10A9A0006F6E6420736C6F740D0A005B464F5243E8
:10A9B000455D207072696D6172795F6F66663A20DD
:10A9C000307825780D0A0D0A005B464F5243455DED
:10A9D0002076743A20307825700D0A0D0A005B4607
:10A9E0004F5243455D20626F6F745F6765745F68A7
:10A9F0006967686573745F62705F76657273696FAB
:10AA00006E5F706172746974696F6E206661696CE3
:10AA1000200D0A0D0A005B464F5243455D206163DD
:10AA2000746976655F736C6F74203A30782578208E
:10AA30000D0A0D0A005B464F5243455D20646F20AE
:10AA40007265636F766572792073746570312C61FD
:10AA500063746976655F736C6F74203A25640D0AC0
:10AA60000D0A005B464F5243455D206E6F726D616B
:10AA70006C20736C6F74203A30782578200D0A0DA5
:10AA80000A00626F6F745F706172616D004520280B
:10AA90002564292025733A20496E76616C6964200B
:10AAA000646174612E207665723A2025752C2061D0
:10AAB000637469766520696E6465783A2025752C23
:10AAC000206164647265737365733A2025782C2065
:10AAD00025780A004520282564292025733A204935
:10AAE0006E76616C69642063726333322076616CC8
:10AAF00075652C2063726333322025752C207665B2
:10AB0000723A2025752C2061637469766520696E20
:10AB10006465783A2025752C2061646472657373CE
:10AB200065733A2025782C2025780A0045202825B1
:10AB300064292025733A20426F6F7420706172611E
:10AB40006D20696E666F206973204E554C4C0A006B
:10AB50004520282564292025733A206C696E655BA1
:10AB600025645D2C20434F4E4649475F4E554D5F4F
:10AB70004150505320203A2025640A0045202825C2
:10AB800064292025733A206C696E655B25645D2C11
:10AB90004661696C20746F207265616420425025A3
:10ABA000642C206572726E6F2025640A004520288F
:10ABB0002564292025733A206C696E655B25645DE8
:10ABC0002C4250302063726320766572696679206A
:10ABD0006F6B200D0A004520282564292025733A33
:10ABE000206C696E655B25645D2C42503020637279
:10ABF0006320766572696679206661696C20616E92
:10AC000064204250312063726320766572696679F0
:10AC1000206F6B200D0A004520282564292025730C
:10AC20003A206C696E655B25645D2C425030206370
:10AC3000726320616E64204250312063726320761B
:10AC4000657269667920616C6C206661696C200DA3
:10AC50000A004520282564292025733A2046616989
:10AC60006C656420746F2072656164207072696D18
:10AC7000617279207369676E206D616769632C204A
:10AC80006572726E6F2025640A00452028256429AC
:10AC90002025733A204661696C656420746F2072C8
:10ACA000656164207365636F6E6461727920736996
:10ACB000676E206D616769632C206572726E6F200C
:10ACC00025640A004520282564292025733A206C34
:10ACD000696E655B25645D2C425031206372632090
:10ACE000766572696679206F6B200D0A0045202811
:10ACF0002564292025733A206C696E655B25645DA7
:10AD00002C42503120637263207665726966792027
:10AD10006661696C20616E6420425030206372630A
:10AD200020766572696679206F6B200D0A004520D8
:10AD3000282564292025733A206C696E655B25649B
:10AD40005D2C4250312063726320616E642042505A
:10AD500030206372632076657269667920616C6C5D
:10AD6000206661696C200D0A004520282564292091
:10AD700025733A204661696C656420746F207265A2
:10AD80006164207072696D61727920696D616765B7
:10AD90002076657273696F6E2C206572726E6F20FB
:10ADA00025640A004520282564292025733A204679
:10ADB00061696C656420746F2072656164207365DD
:10ADC000636F6E6461727920696D61676520766575
:10ADD0007273696F6E2C206572726E6F2025640A23
:10ADE000004520282564292025733A206C696E656A
:10ADF0005B25645D2C736C6F74302626736C6F74E6
:10AE000031206B65726E656C206220616464722013
:10AE1000697320696E766C6169642062705F696431
:10AE200078203D2025642C20736C6F745F696478F2
:10AE3000203D202564200A0045202825642920255E
:10AE4000733A206C696E655B25645D2C646F2065C8
:10AE500078656375746520616C6C5F736C6F745F8B
:10AE6000616464725F69735F696E76616C696420A6
:10AE70002062705F696478203D2025642C20736C0B
:10AE80006F745F696478203D202564200A0000000B
:10AE900000000000963007772C610EEEBA51099938
:10AEA00019C46D078FF46A7035A563E9A395649E94
:10AEB0003288DB0EA4B8DC791EE9D5E088D9D297B8
:10AEC0002B4CB609BD7CB17E072DB8E7911DBF9014
:10AED0006410B71DF220B06A4871B9F3DE41BE8438
:10AEE0007DD4DA1AEBE4DD6D51B5D4F4C785D38394
:10AEF00056986C13C0A86B647AF962FDECC9658A38
:10AF00004F5C0114D96C0663633D0FFAF50D088D93
:10AF1000C8206E3B5E10694CE44160D5727167A237
:10AF2000D1E4033C47D4044BFD850DD26BB50AA593
:10AF3000FAA8B5356C98B242D6C9BBDB40F9BCACB7
:10AF4000E36CD832755CDF45CF0DD6DC593DD1AB13
:10AF5000AC30D9263A00DE518051D7C81661D0BF37
:10AF6000B5F4B42123C4B3569995BACF0FA5BDB893
:10AF70009EB802280888055FB2D90CC624E90BB137
:10AF8000877C6F2F114C6858AB1D61C13D2D66B693
:10AF90009041DC760671DB01BC20D2982A10D5EFF7
:10AFA0008985B1711FB5B606A5E4BF9F33D4B8E853
:10AFB000A2C9077834F9000F8EA8099618980EE1F7
:10AFC000BB0D6A7F2D3D6D08976C6491015C63E653
:10AFD000F4516B6B62616C1CD83065854E0062F277
:10AFE000ED95066C7BA5011BC1F4088257C40FF5D3
:10AFF000C6D9B06550E9B712EAB8BE8B7C88B9FCF7
:10B00000DF1DDD62492DDA15F37CD38C654CD4FB52
:10B010005861B24DCE51B53A7400BCA3E230BBD4F6
:10B0200041A5DF4AD795D83D6DC4D1A4FBF4D6D352
:10B030006AE96943FCD96E34468867ADD0B860DAF6
:10B04000732D0444E51D03335F4C0AAAC97C0DDD52
:10B050003C710550AA41022710100BBE86200CC976
:10B0600025B56857B3856F2009D466B99FE461CED2
:10B070000EF9DE5E98C9D9292298D0B0B4A8D7C7F6
:10B08000173DB359810DB42E3B5CBDB7AD6CBAC052
:10B090002083B8EDB6B3BF9A0CE2B6039AD2B1746E
:10B0A0003947D5EAAF77D29D1526DB048316DC73CA
:10B0B000120B63E3843B64943E6A6D0DA85A6A7A6E
:10B0C0000BCF0EE49DFF099327AE000AB19E077DCA
:10B0D00044930FF0D2A3088768F2011EFEC20669EE
:10B0E0005D5762F7CB67658071366C19E7066B6E4A
:10B0F000761BD4FEE02BD3895A7ADA10CC4ADD676E
:10B100006FDFB9F9F9EFBE8E43BEB717D58EB060C9
:10B11000E8A3D6D67E93D1A1C4C2D83852F2DF4F6D
:10B12000F167BBD16757BCA6DD06B53F4B36B248C9
:10B13000DA2B0DD84C1B0AAFF64A0336607A04416D
:10B14000C3EF60DF55DF67A8EF8E6E3179BE6946C9
:10B150008CB361CB1A8366BCA0D26F2536E26852ED
:10B1600095770CCC03470BBBB91602222F26055549
:10B17000BE3BBAC5280BBDB2925AB42B046AB35C6D
:10B18000A7FFD7C231CFD0B58B9ED92C1DAEDE5BC9
:10B19000B0C2649B26F263EC9CA36A750A936D02AD
:10B1A000A906099C3F360EEB856707721357000509
:10B1B000824ABF95147AB8E2AE2BB17B381BB60C2D
:10B1C0009B8ED2920DBED5E5B7EFDC7C21DFDB0B89
:10B1D000D4D2D38642E2D4F1F8B3DD686E83DA1FAD
:10B1E000CD16BE815B26B9F6E177B06F7747B71809
:10B1F000E65A0888706A0FFFCA3B06665C0B0111AD
:10B20000FF9E658F69AE62F8D3FF6B6145CF6C1608
:10B2100078E20AA0EED20DD75483044EC2B30339AC
:10B22000612667A7F71660D04D476949DB776E3E08
:10B230004A6AD1AEDC5AD6D9660BDF40F03BD8372C
:10B2400053AEBCA9C59EBBDE7FCFB247E9FFB53088
:10B250001CF2BDBD8AC2BACA3093B353A6A3B424AC
:10B260000536D0BA9306D7CD2957DE54BF67D92308
:10B270002E7A66B3B84A61C4021B685D942B6F2AAC
:10B2800037BE0BB4A18E0CC31BDF055A8DEF022D08
:10B29000AA4400FF02000000E1FFFF271A00002877
:10B2A000E3FFFF3F1B000040E5FFFF5F030000607E
:10B2B000E7FFFF6303000064E7FFFF670300006828
:10B2C000E7FFFF6B0300006CE5FFFF6F4950535F22
:10B2D00065204E4F20504D49545B616464723A3092
:10B2E0007825785D0D0A004950535F77204E4F2036
:10B2F000504D49545B616464723A3078257820304F
:10B300007825785D0D0A00000000000000100000A4
:10B31000001000000010000001000000FF0000000D
:10B3200001020101517C0102717C0102A17C010238
:10B33000957C010200000000C17C0102897D0102B0
:10B34000217D0102757C01027D7C0102897C010264
:10B35000506172746974696F6E20636865636B3ADB
:10B36000307825780D0A007072696D6172795F61BD
:10B370006C6C007365636F6E646172795F616C6C95
:10B38000006F746100706172746974696F6E00702F
:10B3900072696D6172795F74666D5F730070726956
:10B3A0006D6172795F74666D5F6E73007072696D46
:10B3B0006172795F637075305F617070007379736B
:10B3C0005F6F74705F6E76007379735F7073007374
:10B3D00079735F697473007373007072696D617261
:10B3E000795F6D616E6966657374007365636F6E16
:10B3F000646172795F6D616E696665737400626C19
:10B400003200626C325F4200706172746974696FFD
:10B410006E5F4200466C617368206F705F65206EDE
:10B420006F74207065726D69745B616464723A3028
:10B430007825785D0D0A00466C617368206F705F37
:10B4400077206E6F74207065726D69745B616464DF
:10B45000723A307825785D0D0A0000000010000077
:10B4600000800000000001001765C8000200000015
:10B4700000008000040E021F1F0000000E000E00DE
:10B480000901A00218400B000200000000000001AA
:10B490000400020F0F0000000A000E000901A002C4
:10B4A00065667573653D25780D0A00000000000093
:10B4B00020000144010000002400014402000000BB
:10B4C00028000144696E70757420626F6F745F6646
:10B4D0006C61672076616C206661696C200D0A00E2
:10B4E00020626F6F745F666C61675F7772697474F6
:10B4F000656E5F76616C203D20307825782D2D308B
:10B500007825780D0A00207772697474656E5F760D
:10B51000616C203D20307825782D2D307825782DD0
:10B520002D2D307825782D2D307825782D2D3078DB
:10B530002578202121210D0A006765742070726929
:10B540006D61727920626F6F74206661696C2E2064
:10B550000D0A00676574207365636F6E64617279AC
:10B5600020626F6F74206661696C2E200D0A006482
:10B570006F206E6F7468696E672E200D0A006D6112
:10B580006769632061626E6F726D616C2E2E2E2E64
:10B59000200D0A0072756E20626F6F745F666C61B9
:10B5A00067203A2564200D0A002072756E206F6EA8
:10B5B00020412C20616E642072656672657368207C
:10B5C000626F6F745F666C6167200D0A0020727590
:10B5D0006E206F6E20422C20616E64207265667250
:10B5E00065736820626F6F745F666C6167200D0A17
:10B5F000002064656661756C74204120616E642072
:10B600007265667265736820626F6F745F666C61E5
:10B6100067200D0A0061646472203A307825782032
:10B620002121212063757272656E745F626F6F7481
:10B630005F706172745F76616C203A307825782093
:10B640000D0A006F70657261746520666C617368C5
:10B65000206973206F7665727269646521212120EB
:10B660000D0A006F70657261746520626C3220761D
:10B67000657273696F6E20697320666F72626964A8
:10B68000212121200D0A0072756E206F6E207072CC
:10B69000696D6172792063757272656E746C792C54
:10B6A000736F20666F72626964206F706572617477
:10B6B000696E67207072696D617279200D0A00727F
:10B6C000756E206F6E207365636F6E646172792092
:10B6D00063757272656E746C792C736F20666F720D
:10B6E000626964206F7065726174696E672073654A
:10B6F000636F6E64617279200D0A00657261736513
:10B7000020636D64206572726F7221200D0A0053F0
:10B710005F7665723A25732C20415F766572203A18
:10B7200025732C20425F7665723A2573200D0A003E
:10B73000312E302E3300626C325F76657273696F22
:10B740006E203A2573200D0A00626C325F766572B6
:10B75000203D20666C6173685F736176655F766516
:10B76000720D0A00626C325F76657220213D2066A0
:10B770006C6173685F736176655F76657220726570
:10B7800074203A2564200D0A006354724C000000B6
:10B7900000000000000000000000000000000000A9
:10B7A000000000000000000000636C69705F626CC4
:10B7B000325F76312E312E31000000007468652032
:10B7C00070726F74656374656420616464722120B3
:10B7D0000D0A00007468652070726F74656374658B
:10B7E000642061646472200D0A00000020646C20F3
:10B7F000626F6F74206E6565642072656672657332
:10B800006820626F6F745F666C616721212121215E
:10B81000200A0000706172616D5F6C656E203A30C5
:10B820007825782C20706172616D5F6C656E202DBB
:10B830002034203A30782578200D0A2000000000BE
:10B84000656E74657220636D645F626C325F6C69F3
:10B850006E6B5F636865636B5F68616E646C657275
:10B86000200D0A000200000019BE010203000000C2
:10B8700045C501020E00000029BD01020F000000B5
:10B88000D1C201021000000051BB01027000000093
:10B8900071C00102AA000000F5C50102F00000001D
:10B8A000E1BA0102F1000000B9BD0102060000008A
:10B8B00051BC01020800000059BF0102090000004C
:10B8C00099BE01020B00000031C101020C00000012
:10B8D00001C001020D00000081C401020E00000041
:10B8E00019C201020F00000089C301020F0000000D
:10B8F0006400030054760000014000004D2E570004
:10B9000001010101F00E002800000000000000000D
:10B910000000000000000000000000000000000027
:10B920000000000000000000000000000000000017
:10B930000000000000000000000000000000000007
:10B9400000000000000000000000000000000000F7
:10B9500000000000000000000000000000000000E7
:10B960000000000000000000232D302B2000686C38
:10B970004C00656667454647003031323334353612
:10B98000373839414243444546003031323334354B
:10B990003637383961626364656600000000000074
:10B9A000034602480D211840FCF7AABD00F0FF0035
:10B9B0000F2100F47F00FCF7A3BD034602480E21CF
:0CB9C0001840FCF79DBD00BF0080FF0098
:10B9D000F0B50446042283B0354E04F10C05294627
:10B9E0000DEB0200FDF714FF3368019823B9A0F5B1
:10B9F0004053B3F51D2F43D34FF4807100F060F82E
:10BA000000283DD0019B13F0FF074CD104F5805472
:10BA1000B4F87620043B13440193B4F87430154411
:10BA2000FF329A4229DA4FF4204000F051F833688F
:10BA3000019823B9A0F54053B3F51D2F35D34FF42A
:10BA4000807100F03DF820B329464FF480720198D0
:10BA5000FCF720FEB4F87630019A03F580739BB2B0
:10BA6000B4F8741003F1FF0002F58072884201926D
:10BA7000A4F8763005F58075D5DB384603B0F0BD07
:10BA80000A230227384604F5805484F8783003B03E
:10BA9000F0BD0A230748022784F87830FDF7ACFF91
:10BAA000384603B0F0BD0623EBE70A230248F2E76D
:10BAB00014520028D4B70102BCB7010200000000F4
:10BAC00001B40248844601BC604700BFED0600088F
:10BAD00001B40248844601BC604700BFD903000896
:10BAE00010B5134C82B02368012B18D04FF6E044F8
:10BAF000F0231049104A00910DF106000DF1FF31BD
:10BB0000ADF804408DF806309369DB02FCD511F8DE
:10BB1000013F8842D361F7D1002002B010BD074831
:10BB2000FDF76AFF00F00CF800232360DEE700BF9A
:10BB300014520028040E040100008244ECB70102F4
:10BB400001B40248844601BC604700BF5D0600089E
:10BB500070B500234FF0FF3586B00729CDE90133DA
:10BB6000039502D8012006B070BD042201460646A6
:10BB70000DEB0200FDF74CFE042202A8B118FDF700
:10BB800047FE00F04DF8DDE901239A421DD84FF43D
:10BB9000204000F04DF8DDE901040134241AB4F529
:10BBA000807F28BF4FF4807431462246FCF720FD89
:10BBB00022462846314600F043F8DDE901231444CB
:10BBC0009C42054601940390E1D94FF6E0441023CE
:10BBD0001049114A04910DF116000DF10F01ADF855
:10BBE00014408DF816309369DC02FCD511F8013F42
:10BBF0008842D361F7D1084A03A904A89369DB02FC
:10BC0000FCD511F8013B8842D361F7D1002006B082
:10BC100070BD00BF040E0801000082440000000057
:10BC200001B40248844601BC604700BF61020008BD
:10BC300001B40248844601BC604700BFD903000834
:10BC400001B40248844601BC604700BF910200086D
:10BC5000032901D801207047F0B50D4685B0014693
:10BC6000042204462E1F6846FDF7D2FD32462946BF
:10BC70002348FDF7C1FE234B1B6863B33146009890
:10BC8000002700F049F8002832D10A27251D4FF47B
:10BC9000C0631D4A8DF80E7001921C4A26710292F3
:10BCA0001B4A01A80DF10F01ADF80C309369DE02BB
:10BCB000FCD510F8013B8142D361F7D1144A601ED4
:10BCC0009369DB02FCD510F8013F8542D361F7D1BF
:10BCD000002005B0F0BD00983146A0F54053B3F503
:10BCE0001D2F34BF0A27002700F016F80028CCD0FB
:10BCF000251D324629460098FCF7CCFCC7E700BF5B
:10BD000014B8010214520028040EFF01E0FCF407ED
:10BD1000000082440000000001B40248844601BCD7
:08BD2000604700BFED060008BA
:10BD280071B300B5037883B0A52B23D00021084652
:10BD3800FCF756FB4FF6E04C0E231249124A0091CD
:10BD48000DF106000DF1FF31ADF804C08DF8063095
:10BD58009369DB02FCD511F8013F8842D361F7D122
:10BD6800094A9369DB02FCD5A5230020D36103B0FF
:10BD78005DF804FB00F014F8052000F009F8FEE770
:10BD880001207047040E05010000824400000000F5
:10BD980001B40248844601BC604700BFD9030008CB
:10BDA80001B40248844601BC604700BFCD080008C2
:10BDB80000B583B000F024F84FF6E04EF1230E49A9
:10BDC8000E4A00910DF1060C0DF1FF31ADF804E0BB
:10BDD8008DF806309369DB02FCD511F8013F8C45DC
:10BDE800D361F7D1054A9369DB02FCD5D061002005
:10BDF80003B05DF804FB00BF040E05010000824497
:10BE080001B40248844601BC604700BF71040008C1
:10BE1800012010B5184A1949137882B00344DBB2DF
:10BE2800137013780870834222D04FF6E04403233E
:10BE38001349144A00910DF106000DF1FF31ADF8D8
:10BE480004408DF806309369DC02FCD511F8013FF7
:10BE58008842D361F7D10B4A9369DB02FCD50024F1
:10BE680001212046D461FCF7BBFA204602B010BD80
:10BE78000548FDF7BDFDD8E72831002818520028ED
:0CBE8800040E05010000824440B80102D5
:10BE9800F0B5054600230C4685B0042229466846BD
:10BEA8000093FDF7B1FC4FF41163042C0CBF00267E
:10BEB800042601A801461E4AADF80C301D4B01921C
:10BEC8001D4A8DF80E6002930DF10F049369DF028D
:10BED800FCD511F8013B8C42D361F7D16946164A6B
:10BEE8009369DC02FCD511F8013B8142D361F7D19B
:10BEF8002027114C4FF4204000F022F880222946D8
:10BF08000098FCF771FB86B96A1E05F17F01A369E9
:10BF1800DB02FCD512F8013F9142E361F7D1009BA7
:10BF2800013F03F180030093E4D1002005B0F0BD88
:10BF3800040EFF01E0FCF40600008244000000004B
:10BF480001B40248844601BC604700BFD903000819
:10BF580070B504460D4684B0042268462146FDF7B4
:10BF680053FC052D33D04FF0040C00220623614604
:10BF78008DF80B3008238DF80C204FF6E0428DF831
:10BF88000D30F423ADF80820194A8DF80E100192EF
:10BF9800184A01A90DF10F008DF80A309369DD02E6
:10BFA800FCD511F8013B8142D361F7D10CF1FF3088
:10BFB80080B2104A611E20449369DB02FCD511F857
:10BFC800013F8842D361F7D1002004B070BD2146FB
:10BFD80011F8045F00982A46AEB2FCF705FBAB1DCA
:10BFE800B21D002106F1040CDBB2120AC0E700BF43
:08BFF800040EFF010000824469
:10C0000009B90120704710B5044684B00120FCF73F
:10C01000EFFB4FF4406E0023DFF848C0124A01A93D
:10C02000CDE901C2114A0DF10F0C6070ADF80CE0C2
:10C030008DF80E309369D802FCD511F8013B8C4580
:10C04000D361F7D109498B69DA02FCD52378074A15
:10C05000CB619369DB02FCD500206378D36104B027
:10C0600010BD00BF040EFF01E0FCF4040000824498
:10C0700003293BD910B5037882B0532B02D1437802
:10C08000452B35D004240E2301EB040C01228DF83E
:10C0900002C08DF800404FF0E00CFC248DF8013018
:10C0A00070238DF80320184A8DF804C00DF1060E98
:10C0B0000DF1FF3C8DF805408DF806309369DC02E8
:10C0C000FCD51CF8013FF445D361F7D14B1E9BB260
:10C0D0000D4A411E18449369DB02FCD511F8013F5B
:10C0E0008142D361F7D1002002B010BD012070471A
:10C0F0008378412BC6D1C3784E2BC3D100F008F80A
:10C10000052000F00DF8FEE700008244000000006A
:10C1100001B40248844601BC604700BFCD08000856
:10C1200001B40248844601BC604700BFD90300083F
:10C1300070B5044684B0042268460D462146FDF7DA
:10C1400067FB0098A0F54053B3F5183F0CD20122CD
:10C1500000262A4B1A604FF4805100F055F890B138
:10C16000042D43D004260FE0244A1268002A42D14D
:10C17000B3F51D2F4FF4805134BF0A26002600F07E
:10C1800043F80028ECD10A264FF6E0431C49F4227C
:10C1900001910B21ADF80830AB1C8DF80A208DF809
:10C1A0000B30184A1B128DF80D108DF80E600DF132
:10C1B000040C8DF80C300DF10F019369D802FCD5F9
:10C1C0001CF8013B6145D361F7D165B1681E80B2AF
:10C1D0000C4A611E20449369DB02FCD511F8013F33
:10C1E0008142D361F7D1002004B070BD0D210098C9
:10C1F000FCF7F0F9C8E70026ADE700BF14520028AD
:10C20000040EFF010000824401B40248844601BCD0
:08C21000604700BFED060008C5
:10C21800B1F5006F4ED830B5274B02781B689F2ABE
:10C228004FEA136280F834284FEA13420C46234D34
:10C2380080F835284FEA132285B080F836284FF663
:10C24800E0420CBF002106214FF00E0E0195F425A7
:10C2580080F83738A31C8DF80B30ADF80820C3F3ED
:10C268000723174A8DF80E108DF80C300DF1040CC9
:10C278000DF10F018DF80A508DF80DE09369DD027C
:10C28800FCD51CF8013B6145D361F7D17CB1013C79
:10C2980000F63403A4B20A4A00F633011819936968
:10C2A800DB02FCD511F8013F8142D361F7D10020B0
:10C2B80005B030BD01207047FC300028040EFF0196
:04C2C80000008244AC
:10C2D000042901D801207047042270B5044684B0B7
:10C2E0000D4601460DEB0200FDF792FA267940213A
:10C2F000019800F039F8304600F03EF80421681843
:10C300000E238DF80A00E02001228DF80C008DF834
:10C310000930FC200F238DF80B20114A8DF80810EE
:10C320000DF1070C0DF10E018DF80D008DF80E309A
:10C330009369D802FCD51CF8013F8C45D361F7D135
:10C34000681E80B2064A611E20449369DB02FCD558
:10C3500011F8013F8142D361F7D1002004B070BDD4
:10C36000000082440000000001B40248844601BC81
:10C37000604700BF0502000801B40248844601BCC2
:08C38000604700BF3B03000809
:10C38800F0B504460D46214685B00422684611F8EA
:10C39800017BFDF739FA0098A0F54053B3F5183F33
:10C3A80009D201222C4B1A603946002600F05CF8AD
:10C3B80078B90A2610E0284A1268002AF4D1B3F5A1
:10C3C8001D2F394634BF0A26002600F04DF80028F4
:10C3D800EFD0052D31D004264FF6E0431F49F42253
:10C3E80001910F21ADF80830AB1C8DF80A208DF8AB
:10C3F8000B301B4A1B128DF80D108DF80E600DF1D5
:10C40800040C8DF80C3069449369D802FCD51CF8EB
:10C41800013B6145D361F7D165B1681E80B2104A0E
:10C42800611E20449369DB02FCD511F8013F81426B
:10C43800D361F7D1002005B0F0BD202F08D0D82F48
:10C4480008D0522FC8D10E210098FCF7BFF8C3E7D7
:10C458000D21F9E70F21F7E714520028040EFF0118
:10C46800000082440000000001B40248844601BC78
:08C47800604700BFDD0700086A
:10C48000012956D9F0B50E46417885B0022E0446F2
:10C49000ADF8021043D1012703253846FCF7B8F95F
:10C4A0003846FCF7A5F9BDF80210C0B2814205F18B
:10C4B000FF3340D013F0FF05EFD103214FF6E043E7
:10C4C0008DF80E101D49F42201910D21ADF80830B0
:10C4D000B31C8DF80A208DF80B30194A1B128DF809
:10C4E0000D100DF1040C8DF80C300DF10F01936956
:10C4F000D802FCD51CF8013B6145D361F7D1701E11
:10C5000080B20F4A611E20449369DB02FCD511F80A
:10C51000013F8142D361F7D1002005B0F0BD022276
:10C52000411C0DEB0200FDF773F90227BDF8021064
:10C53000B2E7012070470021C0E700BF040EFF01F1
:04C540000000824431
:10C5440070B5002684B00329CDE9006602D8012025
:10C5540004B070BD0D460446014604226846FDF74A
:10C5640055F9009BA3F195423F2A4FF0040288BF7E
:10C574001E680DEB020101961B68A0180193FDF7DC
:10C5840045F904210E220123681880B28DF8092090
:10C5940042188DF80A20E0228DF808108DF80B302F
:10C5A4000321FC238DF80C20104A8DF80E108DF811
:10C5B4000D300DF1070C0DF10E019369DE02FCD56F
:10C5C4001CF8013F8C45D361F7D160B1E81C80B2FF
:10C5D400064A611E20449369DB02FCD511F8013F31
:10C5E4008142D361F7D1002004B070BD00008244C1
:10C5F40000293AD00378552B01D00220704730B57A
:10C604000424012383B01A4D0E228DF800400C1926
:10C614002B708DF80240E025FC248DF80330AA230A
:10C624008DF80120134A0DF1FF3C0DF1060E8DF833
:10C6340004508DF805408DF806309369DC02FCD572
:10C644001CF8013FF445D361F7D14B1E9BB2094A54
:10C65400411E18449369DB02FCD511F8013F814265
:10C66400D361F7D1002003B030BD0120704700BF73
:08C67400185200280000824466
:10C67C0000B5038983B0022B30D0032B3CD00E2B9A
:10C68C003CD00F2B3CD0102B3CD0702B3CD0AA2B89
:10C69C003ED0F02B3AD0F12B08BF08221FD04FF61A
:10C6AC00E04C1C491C4A00918DF806300DF1FF310D
:10C6BC000DF10600ADF804C09369DB02FCD511F84E
:10C6CC00013F8842D361F7D1134A9369DB02FCD551
:10C6DC0007230120D36103B05DF804FB0022C1885D
:10C6EC000E4B013903EBC2035B6889B20C309847DF
:10C6FC00002003B05DF804FB0122F0E70222EEE714
:10C70C000322ECE70422EAE70522E8E70722E6E742
:10C71C000622E4E7040E05010000824464B801021D
:10C72C0041F2050330B5C28804469A4285B02ED03A
:10C73C0004210B4600F5805585F87810013AA5F8D0
:10C74C0076204FF4E0652049204A8DF80E30CDE973
:10C75C0001121F4A01A90DF10F00ADF80C5093699D
:10C76C00DD02FCD511F8013B8842D361F7D1184AA0
:10C77C0004F10B0104F10F009369DB02FCD511F8F5
:10C78C00013F8842D361F7D1002005B030BD00F5E0
:10C79C00805595F87830002BD0D1B5F8741003295A
:10C7AC00CFD9B5F8762042B1FF329142C9DD20468F
:10C7BC00FFF708F995F87830C3E7042040F203122C
:10C7CC00A5F87600F1E700BF040EFF01E0FCF406CB
:04C7DC000000824493
:10C7E00000B5038985B0062B2DD0082B39D0092B35
:10C7F00039D00B2B39D00C2B39D00D2B3BD00E2B35
:10C8000037D00F2B08BF07221ED04FF0000E4FF07D
:10C81000070C1A491A4A8DF80D30CDE90112194A50
:10C8200001A90DF10F008DF80CE08DF80EC0936991
:10C83000DB02FCD511F8013B8842D361F7D101201E
:10C8400005B05DF804FB0022C1880F4B013903EBF2
:10C85000C2035B6889B20C309847002005B05DF8D0
:10C8600004FB0122F0E70222EEE70322ECE70422B8
:10C87000EAE70622E8E70522E6E700BF040EFF012B
:0CC88000E0FCF40200008244ACB80102AD
:10C88C002DE9F84F002041F267064FF001084FF0F8
:10C89C00020A8F4D8F4CB5F86830B5F86AC0A5F513
:10C8AC00805E04F5805704F10C0B9C4514D0217864
:10C8BC0013F80E20012925D0A178002939D1012A9D
:10C8CC0041D001339BB2B34262780ED9A5F868000F
:10C8DC007AB900239C45EAD1637853B92379022BAA
:10C8EC0000F0AB800020BDE8F88FA5F86830002A76
:10C8FC00DBD02379DFF8E091012B64D17548FFF789
:10C90C00B7FEC7E094F80390B9F1000F1ED192B2B4
:10C91C00E170E280002AD4D101339BB220602071F7
:10C92C0087F878007867E080B34227D9A5F86800CB
:10C93C00CFE7012925D00229EED1FC2A6BD0012AA0
:10C94C0001D0A070BDE784F80280BAE7B9F1010FFD
:10C95C001DD0B9F1020F49D0B9F1030F42D0B9F192
:10C96C00040F00F08180B9F1050FD5D1B946E188EB
:10C97C00228184F803A0A7F8740014E0A5F86830AD
:10C98C0093E7E02A44D0012A9BD0A07099E7E18874
:10C99C0092B2FF29228148D04FF48172B946A7F890
:10C9AC007400A4F80320012291428ADC01226270F7
:10C9BC0041F2670201339BB2934234D8A5F8683038
:10C9CC002379012B9AD0022B5ED0002389F8783082
:10C9DC000020A5F868C023602371C9F87430E38087
:10C9EC00BDE8F88FE2800422E2706AE7B7F87410B1
:10C9FC00B94601F80B20B7F87420E178013292B2F5
:10CA0C000229A7F874207FF45CAFE1880132CBE7F0
:10CA1C0084F802A055E701339BB2A4F80080E070C3
:10CA2C00A7F8740080E70023C8E7F42A7FF474AFFA
:10CA3C0040F20322A4F8032043E72389072B7FF459
:10CA4C0051AFDFF89490B9F87430002B3FF44AAF33
:10CA5C0041F20501E2888A4222D0042389F8783019
:10CA6C00013AA9F876203DE74FF00501E170E18825
:10CA7C0001EB022241F2660192B2E280013A92B2DB
:10CA8C008A427FF61EAF47E723891248072B04D052
:10CA9C00FFF7A0FEB5F86AC097E7FFF741FEF9E78C
:10CAAC0099F878100029DBD1032B7FF61BAFB9F86E
:10CABC0076203AB1FF3293427FF714AF0548FEF768
